:1000000071C0000090C000008EC000008CC00000D5
:100010008AC0000088C0000086C0000084C00000C4
:1000200082C0000080C000007EC000007CC00000D4
:100030007AC0000078C0000076C0000074C00000E4
:1000400072C0000070C000006EC000006CC00000F4
:100050006AC0000068C0000066C0000064C0000004
:1000600062C0000060C000005EC000005CC0000014
:100070005AC0000058C0000056C0000054C0000024
:1000800052C0000050C000004EC000004CC0000034
:100090004AC0000048C0000046C0000044C0000044
:1000A00042C0000040C000003EC000003CC0000054
:1000B0003AC0000038C0000036C0000034C0000064
:1000C00032C0000030C000002EC000002CC0000074
:1000D0002AC0000028C0000026C0000024C0000084
:1000E00022C0000011241FBECFEFD1E2DEBFCDBF82
:1000F00000E00CBF12E0A0E0B2E0E6E0FAE200E0CF
:100100000BBF02C007900D92AE32B107D9F724E0C1
:10011000AEE2B2E001C01D92A138B207E1F70E9441
:1001200075100C9401156CCFCF93DF9342305105BD
:10013000C0F0DB01FC019A01CD91DD91C193D19317
:100140002250310922303105B8F79A012250310985
:100150002E7F2E5F3F4F820F931F620F731F4170E0
:1001600055274115510549F0DB01FC01480F591F86
:100170009D919193E417F507D9F7DF91CF910895F9
:10018000CF93DF93EC01A881B9811097F9F04C91DE
:10019000413258F04A3331F1FD0131969F0191917E
:1001A000913228F09A33D1F704C0942F9D019A33ED
:1001B00081F4CD0101962817390771F4403379F4A1
:1001C0001296B983A88380E090E00EC08FEF9FEF76
:1001D0000BC080E090E008C08FEF9FEF05C08FEF6D
:1001E0009FEF02C09D01E5CFDF91CF9108958F92DF
:1001F0009F92AF92BF92CF92DF92EF92FF920F93B6
:100200001F93CF93DF93FC012481222309F446C07E
:10021000EC01C2A4D3A4E4A4F5A45C01FEE2AF0EF9
:10022000B11C01E010E0A7019601B50189810E948F
:10023000B013811135C01C828E8D9F8DA8A1B9A1EC
:10024000B701A601481B590B6A0B7B0B8E899F894E
:10025000A88DB98D481759076A077B0718F58B8059
:10026000912C82E088169104F8F08E899F89A88DE0
:10027000B98DC80ED91EEA1EFB1E01E010E0A701D1
:100280009601B50189810E94B013E1E08E1A9108B0
:10029000F1E08F16910449F780E007C080E005C0C7
:1002A00081E003C080E001C080E0DF91CF911F9129
:1002B0000F91FF90EF90DF90CF90BF90AF909F9005
:1002C0008F9008958F929F92AF92BF92FF920F935B
:1002D0001F93CF93DF93EC014A015B018AA59BA595
:1002E000ACA5BDA584179507A607B707E1F0CE0119
:1002F0007EDFF82E811118C001E010E0A501940105
:10030000BE01625D7F4F89810E946413882331F0B2
:10031000FF24F39488248A94982C54018AA69BA6DF
:10032000ACA6BDA601C0F12C8F2DDF91CF911F91FE
:100330000F91FF90BF90AF909F908F900895CF93B3
:10034000DF93EC011C828FEF9FEFDC018AA79BA754
:10035000ACA7BDA7CE01B6DF811123C0FE01E45DCD
:10036000FD4F8081918185359A4AE9F4E85CF1403E
:1003700080819181A281B381BB2786349144A445B9
:10038000B10599F0C058DF4F488159816A817B815E
:10039000772781E0463451446445710539F480E0A3
:1003A00005C083E003C082E001C080E0DF91CF910F
:1003B00008950097C9F0DC01ED91FC9111973097F9
:1003C000A9F020812223A1F02681378112968D91F8
:1003D0009C9113972817390769F481810E94A11213
:1003E00080FF0AC089E0089589E0089589E00895B2
:1003F00089E0089589E0089580E008952F923F9262
:100400004F925F926F927F928F929F92AF92BF9224
:10041000CF92DF92EF92FF920F931F93CF93DF93D0
:10042000CDB7DEB76D970FB6F894DEBF0FBECDBF68
:100430006C01CB01B42ED6011D921C92A1DE7C0171
:1004400099230CF402C2FC01EE0FFF1FE05DFD4F8B
:10045000008111810115110509F4F9C1F60111831B
:100460000083D8018C91882369F011968C910E94A9
:10047000A11280FD07C0BB2009F4EBC182FFEBC1D4
:100480008AE08BC2F8011082E1828E2D0E94A812B0
:1004900080FDE3C1BB2009F400C282FDE0C1FDC1C3
:1004A0008081882329F0448055806680778004C04D
:1004B0004E2C5F2C672E762ED9014D925D926D9257
:1004C0007D929D017096E417F50751F74E01B1E159
:1004D0008B0E911C6894772471F8F501C190D1902E
:1004E000E190F1905F01C114D104E104F10439F00D
:1004F000B701A601C80123DF811102C00DC0872DFD
:10050000A814B90451F703C0C12CD12C7601833053
:1005100009F4A7C18111A7C1D801D9968D919C91E9
:10052000DA978115924009F0A0C1F801EC5BFF4F0A
:1005300040805180612C712C41145104610471047C
:1005400029F43E964080518062807380F801468A8B
:10055000578A608E718EA6ADA3838FEF8A0F82308B
:1005600008F085C1F3ADF98B2F2FF80122832223E8
:1005700009F47FC1822F90E09C0121503109822330
:100580009323892B09F077C1FF9620803180F801F1
:1005900031862086C1018F709927892B09F06DC1A2
:1005A000EF5BFF4F80809180A12CB12C81149104CE
:1005B000A104B10429F43D9680809180A280B3808B
:1005C000F80104ACF5ADE02D309709F458C1B0E066
:1005D000A30192010E94E8146A8F7B8F8C8F9D8FFC
:1005E0009F0140E050E02E8B3F8B488F598FC10117
:1005F000929582958F7089279F708927280F391FC0
:10060000411D511DDA01C9012A8D3B8D4C8D5D8D37
:10061000280F391F4A1F5B1F2A8B3B8B4C8B5D8B2E
:1006200082169306A406B50608F42BC1C501B401D1
:10063000621B730B840B950BE9892E2F30E040E091
:1006400050E00E94C614DA01C901211531054105A7
:10065000510509F418C1263FFFE03F074105510548
:1006600018F0E2E0E98B02C0F1E0F98B863F9F4F82
:10067000A105B10508F028C149015A0182E0880EA0
:10068000911CA11CB11CD80152968D929D92AD92E5
:10069000BC925597F801C28ED38EE48EF58E8E896A
:1006A0009F89A88DB98D8C0D9D1DAE1DBF1D868F98
:1006B000978FA0A3B1A34A895B896C897D894C0D72
:1006C0005D1D6E1D7F1D46A357A360A771A7F98905
:1006D000F33069F5232809F0D8C0F801E65AFF4F36
:1006E00080819181A281B381F80182A393A3A4A305
:1006F000B5A3880C991CAA1CBB1C880C991CAA1CAD
:10070000BB1CFFEF8F0EF1E09F1EA11CB11C072E3A
:1007100079E0B694A794979487947A95D1F7702D41
:10072000481459046A047B0408F4B1C0F9C02328B2
:1007300009F4AFC02A8D3B8D4C8D5D8D820F931FC8
:10074000A41FB51FF80182A393A3A4A3B5A3F9899D
:10075000F23029F4880C991CAA1CBB1C08C1A3E028
:10076000B0E0A50194010E94E814DC01CB01B6952C
:10077000A7959795879521E082229924AA24BB24E6
:10078000880E991EAA1EBB1EF2C0B701A6014F5FBC
:100790005F4F6F4F7F4FC80195DD811139C0D80180
:1007A00015961C92F801E45DFD4F8081918185359D
:1007B0009A4A89F5F80186A597A5A0A9B1A982351D
:1007C0009245A146B14451F5F801EE5EFD4F80819E
:1007D0009181A281B38182379247A144B14609F544
:1007E000349680819181A281B381F80186879787B1
:1007F000A08BB18BE65EFD4F80819181A281B38198
:10080000F80182879387A487B587F3E0F98B0BC043
:10081000E3E0E98B08C0F3E0F98B05C0E3E0E98B86
:1008200002C0F3E0F98BE989D801EC9380912E02A4
:1008300090912F02019690932F0280932E0217968B
:100840009C938E93169780E0A8C08BE0A6C08CE0A6
:10085000A4C080E0A2C080E0A0C083E09EC08AE087
:100860009CC081E09AC08DE098C08DE096C08DE07C
:1008700094C08DE092C08DE090C08DE08EC08DE080
:100880008CC08DE08AC08DE088C08DE086C08DE090
:1008900084C08DE082C08DE080C040E050E0BA01AD
:1008A000C8014DDD813009F02FCEF801E051FE4F37
:1008B0009E012F5F3F4F5901A801405D5D4FE12C24
:1008C000F12C70E060E0ECCD49015A0162E0860E47
:1008D000911CA11CB11CD80152968D929D92AD9293
:1008E000BC925597F801C28ED38EE48EF58E8E8918
:1008F0009F89A88DB98D8C0D9D1DAE1DBF1D868F46
:10090000978FA0A3B1A38A899B89AC89BD898C0DDF
:100910009D1DAE1DBF1D86A397A3A0A7B1A7DACECC
:100920008FEF9FEFDC01F80186879787A08BB18B53
:1009300082879387A487B58780E88583E25AFF4F33
:1009400080819181019709F420CFF3E0F98B6BCF7F
:100950008FEF9FEFDC01F80186879787A08BB18B23
:1009600082879387A487B58780E885835CCFFFEF74
:100970008F0EF1E09F1EA11CB11C072E79E0B694EA
:10098000A794979487947A95D1F7702D48145904B9
:100990006A047B0408F47FCFDBCF6D960FB6F89422
:1009A000DEBF0FBECDBFDF91CF911F910F91FF90A2
:1009B000EF90DF90CF90BF90AF909F908F907F90FF
:1009C0006F905F904F903F902F900895CF92DF925D
:1009D000EF92FF92FC019A01AB01225031094109CB
:1009E0005109C288D388E488F58882E0C81AD10802
:1009F000E108F1082C153D054E055F0568F4A2815C
:100A0000B0E00E94E814C6A0D7A0E0A4F1A46C0D49
:100A10007D1D8E1D9F1D03C060E070E0CB01FF9027
:100A2000EF90DF90CF900895AF92BF92CF92DF9278
:100A3000EF92FF920F931F93CF93DF93EC016A0124
:100A40007B01423051056105710508F4A7C08A8910
:100A50009B89AC89BD89481759076A077B0708F04D
:100A6000A2C08881823009F44BC0833009F469C088
:100A7000813009F09DC08A0116950795040F151F56
:100A8000C801892F992786954E8D5F8D68A179A120
:100A9000480F591F611D711DCE0114DC81118DC0DD
:100AA00058018FEFA81AB80A1170FE01E00FF11F6C
:100AB00016A5C501892F992786954E8D5F8D68A152
:100AC00079A1480F591F611D711DCE01FBDB8111FA
:100AD00078C081E0B822CA0DDB1D8EA5612F70E0C1
:100AE000782BC0FE09C0729562956F7067277F7082
:100AF000672780E090E070C07F7080E090E06CC07D
:100B0000452F562F672F77278E8D9F8DA8A1B9A1CE
:100B1000480F591F6A1F7B1FCE01D4DB811155C0BE
:100B2000CC0CDD1CEE1CFF1CE894C0F881E0D82240
:100B3000EE24FF24CC0DDD1D6EA57FA580E090E0A6
:100B40004BC08E8D9F8DA8A1B9A1689416F876959B
:100B50006795579547951694D1F7480F591F6A1F07
:100B60007B1FCE01AFDB811134C0CC0CDD1CEE1C31
:100B7000FF1CCC0CDD1CEE1CFF1C8CEFC82281E09E
:100B8000D822EE24FF24FE01EC0DFD1D86A597A5BD
:100B9000A0A9B1A9BC01CD019F701EC061E070E0A9
:100BA00080E090E019C061E070E080E090E014C067
:100BB00061E070E080E090E00FC06FEF7FEFCB016D
:100BC0000BC06FEF7FEFCB0107C06FEF7FEFCB0163
:100BD00003C06FEF7FEFCB01DF91CF911F910F919A
:100BE000FF90EF90DF90CF90BF90AF900895AF92BD
:100BF000BF92CF92DF92EF92FF920F931F93CF930A
:100C0000DF93EC018B017D836C83CE80DF80E884F1
:100C1000F98481E0C816D104E104F10409F48AC022
:100C2000E881F98182899389A489B589C816D90692
:100C3000EA06FB0608F080C0C114D104E104F10407
:100C4000C1F48081833041F482A193A1A4A1B5A114
:100C50000097A105B10559F48085918508171907FA
:100C600008F06CC062A173A184A195A135C06C018C
:100C70007D01A28080E1A89E500111240A151B0568
:100C800030F1B701A60188819981CEDE6B017C012C
:100C90008FEFC816D806E806F80609F451C082E0BE
:100CA000C816D104E104F10408F44CC0E881F981CC
:100CB00082899389A489B589C816D906EA06FB06F4
:100CC00008F042C00A191B090A151B05D0F6B70126
:100CD000A601888199817ADECA86DB86EC86FD864C
:100CE000611571058105910589F19801329522956B
:100CF0002F7023273F702327DC01CB01820F931F26
:100D0000A11DB11D8E879F87A88BB98B0F701127EE
:100D1000000F111F02951295107F1027007F1027DA
:100D2000025D1F4F88819981800F911F9B8B8A8B59
:100D300080E00DC082E00BC082E009C082E007C005
:100D400081E005C082E003C082E001C082E0DF9163
:100D5000CF911F910F91FF90EF90DF90CF90BF90B8
:100D6000AF9008954F925F926F927F928F929F9271
:100D7000AF92BF92CF92DF92EF92FF920F931F93A9
:100D8000CF93DF93EC016A017B01280139014230E6
:100D900051056105710508F4D2C08A899B89AC8927
:100DA000BD89481759076A077B0708F0CAC08881C0
:100DB000823009F462C0833009F485C0813009F0C3
:100DC000C2C05A01B694A794A40EB51EC501892FBE
:100DD000992786954E8D5F8D68A179A1480F591F7F
:100DE000611D711DCE016EDA182F8111CAC0450137
:100DF0008FEF881A980A31E0B322C0FE20C0FE01AE
:100E0000EA0DFB1D86A5282F2F7030E1439EC001FF
:100E10001124822B86A781E08C834E8D5F8D68A183
:100E200079A1C401892F99278695480F591F611D03
:100E3000711DCE0147DA882309F48BC086C0FE01FC
:100E4000EA0DFB1D46A681E08C834E8D5F8D68A167
:100E500079A1C401892F99278695480F591F611DD3
:100E6000711DCE012FDA882309F47EC070C0EC0F0B
:100E7000FD1F46A681E08C8384C0452F562F672F27
:100E800077278E8D9F8DA8A1B9A1480F591F6A1F82
:100E90007B1FCE0117DA182F811173C0CC0CDD1C1B
:100EA000EE1CFF1CE894C0F881E0D822EE24FF2459
:100EB0003EE2C30ED11CFE01EC0DFD1D51824082AD
:100EC00081E08C835EC08E8D9F8DA8A1B9A16894AE
:100ED00016F876956795579547951694D1F7480F6C
:100EE000591F6A1F7B1FCE01EDD9182F811149C0F0
:100EF000CC0CDD1CEE1CFF1CCC0CDD1CEE1CFF1C06
:100F00008CEFC82281E0D822EE24FF243EE2C30EFB
:100F1000D11CFE01EC0DFD1D80819181A281B38168
:100F200088279927AA27B07F482A592A6A2A7B2A24
:100F3000408251826282738281E08C8322C012E0FF
:100F400020C012E01EC012E01CC0182F1AC0182FBB
:100F500018C0F401F170689413F87694679457946C
:100F600047941694D1F783CFF401F170DE01AE0FF0
:100F7000BF1F9E969C91907F852D8F70492E482A89
:100F800076CF812FDF91CF911F910F91FF90EF903E
:100F9000DF90CF90BF90AF909F908F907F906F9099
:100FA0005F904F9008952F923F924F925F926F9271
:100FB0007F928F929F92AF92BF92CF92DF92EF92E9
:100FC000FF920F931F93CF93DF93EC012A013B0114
:100FD0004115510561057105B9F48A849B84AC847F
:100FE000BD8481149104A104B10459F18A899B89BB
:100FF000AC89BD8988169906AA06BB0630F1812CFA
:10100000912C5401839421C00FDD6B017C0162306F
:1010100071058105910508F496C08FEFC816D806B2
:10102000E806F80609F494C08A899B89AC89BD89D1
:10103000C816D906EA06FB0608F48FC05301420120
:1010400004C0812C912C540183947501640168942F
:10105000222421F8312C00E010E02FEFC21AD20A2E
:10106000E20AF20A8A899B89AC89BD89C816D90629
:10107000EA06FB0658F082E088169104A104B10448
:1010800008F470C0C22CD32CE02EF12EB701A601BB
:10109000CE01CADC611571058105910599F06F3F9C
:1010A0002FEF72078207920709F461C06130710562
:1010B0008105910509F460C0C814D904EA04FB0451
:1010C00061F65FC08C2C9D2CAE2CBF2C0FEF1FEF58
:1010D0002FEF3FE0B701A601CE0144DE81112CC005
:1010E000411451046104710451F00C2D1D2D2E2D5D
:1010F0003F2DB301A201CE0135DE81111DC08A86CC
:101100009B86AC86BD868E859F85A889B9898F3FD1
:101110002FEF9207A207B207C9F10197A109B10900
:101120008E879F87A88BB98B8D8181608D836C2D75
:101130007D2D8E2D9F2D33C0813069F161E070E0EF
:1011400080E090E02CC061E070E080E090E027C09B
:101150006FEF7FEF8FEF9FEF22C06C2D7D2D8E2DD7
:101160009F2D1DC060E070E080E090E018C06FEF40
:101170007FEF8FEF9FEF13C061E070E080E090E0C1
:101180000EC060E070E080E090E009C06C2D7D2D25
:101190008E2D9F2D04C06FEF7FEF8FEF9FEFDF91BC
:1011A000CF911F910F91FF90EF90DF90CF90BF9064
:1011B000AF909F908F907F906F905F904F903F90F7
:1011C0002F9008957F928F929F92AF92BF92CF926D
:1011D000DF92EF92FF920F931F93CF93DF93DC0187
:1011E0001496CD91DC911597219609F403C11E96B2
:1011F0008D909D90AD90BC90519781149104A10465
:10120000B10409F4F9C07B018C016E01BFE0CB226F
:10121000DD24C114D10409F0D1C0EFEF8E1A9E0A6B
:10122000AE0ABE0ADC011E968D929D92AD92BC92D2
:1012300051971A964D915D916D917C911D97411535
:1012400051056105710549F4ED91FC918085918509
:10125000C817D90708F0D2C0B1C0DC01ED91FC91EC
:10126000228130E021503109CE01929582958F7014
:1012700089279F70892728233923232B09F09EC0B3
:10128000CF01D2DB4B015C01623071058105910514
:1012900008F4B6C06F3F7F4F8F4F9F4F09F4B2C025
:1012A000D801ED91FC9182899389A489B58988162A
:1012B0009906AA06BB0608F470C0EF2809F4A4C07A
:1012C000D8011A964D915D916D917C911D97CF013A
:1012D0006ADE4B015C01611571058105910509F418
:1012E00095C0613071058105910509F491C06F3F8A
:1012F0007F4F8F4F9F4F09F48DC0D8018D919C91E6
:101300000E94F700811188C0F80180819181FC0161
:10131000BE96825D9D4F1192E817F907E1F7D8015B
:10132000ED90FC90B501A401C70150DBF70162A765
:1013300073A784A795A7E12CF12C7724739419C087
:101340007482D8018D919C910E94F700811166C032
:10135000D801ED91FC9182A593A5A4A5B5A5019610
:10136000A11DB11D82A793A7A4A7B5A7BFEFEB1A34
:10137000FB0AD801ED91FC91828190E0E816F90614
:10138000F8F282A593A5A4A5B5A58E199F09A10978
:10139000B10982A793A7A4A7B5A7F801828693866F
:1013A000A486B586B501A401808191810FDBD801A7
:1013B0001E966D937D938D939C935197F801D583E1
:1013C000C483CC0CDD1CCC0CDD1CCC0CDD1CCC0C8B
:1013D000DD1CCC0CDD1CFEE2CF0ED11CD8018D91A2
:1013E0009C911197C80ED91E5396DC92CE925297BB
:1013F00080E015C084E013C084E011C084E00FC019
:1014000082E00DC081E00BC084E009C087E007C026
:1014100082E005C081E003C081E001C081E0DF918E
:10142000CF911F910F91FF90EF90DF90CF90BF90E1
:10143000AF909F908F907F9008951F93CF93DF93ED
:1014400000D000D0CDB7DEB79C838B837E836D83C5
:10145000142F7A836983CE0101960E94C0009923DC
:1014600034F1FC01EE0FFF1FE05DFD4F0190F081B4
:10147000E02D309709F01082EB81FC813097E9F084
:1014800010822B813C81880F991FFC01E05DFD4F8C
:1014900031832083232B69F0113069F440E0BE01D1
:1014A0006B5F7F4FCE0103960E94FE010EC08BE062
:1014B0000CC080E00AC080E008C0880F991FFC01C2
:1014C000E05DFD4F1182108280E026960FB6F89401
:1014D000DEBF0FBECDBFDF91CF911F9108952F9238
:1014E0003F924F925F926F927F928F929F92AF92B4
:1014F000BF92CF92DF92EF92FF920F931F93CF9301
:10150000DF93CDB7DEB7AF970FB6F894DEBF0FBE4F
:10151000CDBF7CA36BA3009709F4B9C2842E1C0134
:10152000DC011D921C924E71BE016D5D7F4FCE019C
:1015300001960E94FE01811131C3CE0147969E8B18
:101540008D8BCBA0DCA0F60180818F3211F08C3521
:1015500019F4FFEFCF1ADF0A282D2F712DA71F8254
:10156000188619861A86D6018C91803268F460E05C
:1015700070E0CE0101963BDB1C8A1B8AE12CF12C2A
:10158000882309F4B6C2BCC26894BB24B5F8A12C68
:10159000912C6894772473F8512C612C7EA65FA659
:1015A000412CF6019F0191919F32E1F39C35D1F3DB
:1015B000C901ED89FE89DF019F01255F3F4FBD9283
:1015C000A217B307E1F72A2D392D6A2D792D472D62
:1015D000552D6DA28F01FC016B01BFEFCB1ADB0A09
:1015E000DF01A60FB71F9C91913208F45EC29F32B3
:1015F00009F462C29C3509F45FC29E3209F449C203
:101600002417350708F09EC20AC02DA1220F220F11
:101610002DA3B6012EA53FA54BE0542DDDCF992378
:101620001CF48DA183608DA38FE7890F8F3120F08B
:1016300080E2890F8D3108F56E5F7F4FDF01AC0DC1
:10164000BD1D8C91A0ECA80FAF3328F0A0E8A80F27
:10165000AD3708F077C2DA0111972A173B0708F077
:1016600071C2D801A20FB31F9C93D9011196A00F8C
:10167000B11F2E5F3F4F8C93AFCFE92EF12CA2E22A
:10168000EA16F10409F474C2A2E0B2E0692F8D9168
:10169000882309F403C290E0E816F906C1F786E052
:1016A0006EC2BDA1B260BDA308C08FE9890F8A31A7
:1016B00020F48DA181608DA39052D801A20FB31F99
:1016C0009C932F5F3F4FB60187CF232B09F43AC27B
:1016D0002081253E11F4A5E0A0834830510519F47E
:1016E000990F990F9DA39DA19370913009F480618A
:1016F0009DA19C70943009F4886083876A2D792DB0
:10170000CE01019674DA8111E3C14F855889698948
:101710007A8989819A810E9462018111D9C1EB88FD
:10172000FC88F70180818823C9F0838583FD0EC082
:101730002D893E89D901C7010B9604C0E817F90726
:1017400009F4C1C151914D915417C1F36A2D792DFE
:10175000CE01019637DD8823C1F2BAC1ED89FE8939
:10176000938592FD07C285E00AC2D7011B968C9132
:101770001B9784FF01C25A968D919C915B97A0E0C4
:10178000B0E0E981FA812081233061F4F7014489D6
:10179000558960E070E0BA0155274427842B952BCA
:1017A000A62BB72B8F839887A987BA87FACE81118A
:1017B000D3C144C060E070E0CE01019618DA811117
:1017C000EAC14F85588969897A8989819A810E94FD
:1017D00062018111E0C1EB89FC898081853E51F075
:1017E000882341F061E070E0CE010196EBDC8823B4
:1017F00041F3D1C14F85588969897A8989819A8154
:101800000E9462018111AEC1EB89FC89CF018096F3
:101810001192E817F907E1F76D897E894BE050E0F6
:101820008B899C890E949400E981FA8181E08483FC
:10183000FDA5F860FDA7EB88FC8808C0D7011B96C2
:101840008C91817109F065C182FC65C1BDA5B3FFB2
:10185000C9C080E090E0A4E8B0ECF70186879787E4
:10186000A08BB18B868B978BA08FB18F1386D701FE
:10187000148E158E168E178EC980DA80828C938C0A
:10188000A12CB12CF6018081833069F454968D919E
:101890009C915597A0E0B0E0DC0199278827882A21
:1018A000992AAA2ABB2AD7015B961C921E925A97A4
:1018B00055961C921E92549781E0F6018483811400
:1018C0009104A104B10409F48DC022A533A544A557
:1018D00055A529A73AA74BA75CA7B2E08B169104A0
:1018E000A104B10408F41CC182899389A489B58933
:1018F00088169906AA06BB0608F014C18DA29EA2FE
:10190000AFA2B8A63FC04DA15EA16FA178A5C60148
:101910008BD82B013C01611571058105910509F4F6
:1019200040C0613071058105910509F4FDC06F3F2C
:101930007F4F8F4F9F4F09F4F9C000E010E09801EE
:101940004DA15EA16FA178A5C6010CDA8111EFC08F
:10195000F60186859785A089B1898F3FFFEF9F07A4
:10196000AF07BF0759F00196A11DB11DF60186878B
:101970009787A08BB18B8581816085834DA25EA204
:101980006FA278A6F60182899389A489B5892DA1D1
:101990003EA14FA158A5281739074A075B0708F44D
:1019A000B2CF89819A8131E0831A9108A108B108E8
:1019B000DC011A968D929D92AD92BC921D9749A51D
:1019C0005AA56BA57CA50E946201882371F0E6C030
:1019D0008111B4C0F701838584FDADC081FE02C0D2
:1019E00080FDABC0FDA5F3FF03C02DA520622DA790
:1019F000E981FA8182A593A5A4A5B5A5F101828FFD
:101A0000938FA48FB58FF78EE68EEDA5D101149636
:101A1000EC93149715961C9209811A81D7015A9656
:101A20008D919C915B97A0E0B0E0F801208123307C
:101A300061F4F7014489558960E070E0BA015527E7
:101A40004427842B952BA62BB72BF10186879787EC
:101A5000A08BB18BF701848D958DA68DB78DF1018B
:101A600082879387A487B58716821782108611868E
:101A7000168A178A108E118E11830083D80116964C
:101A80008D919C9117979383828380E087C089E032
:101A900085C04830510509F4B8CD70C0962F8FEB42
:101AA000860F8A3108F4FDCD00CECF01F801C80EB3
:101AB000D91E9DA184E009CECF01F801C80ED91E20
:101AC0009DA1862D02CEF901838582FF4ECE06C0F0
:101AD000ED89FE899385843029F443CEE114F10425
:101AE00099F407C0EB88FC88982D9C7109F05FCEB3
:101AF0006FCF882D8C7199F5E12CF12C86E01EC0FA
:101B0000982D9C7149F51AC0882D8C7109F096CEDC
:101B100061CF87E001C088E0882309F463CF3EC02D
:101B200082E005C082E003C082E001C081E088233A
:101B300009F45BCF33C084E001C087E0882309F457
:101B400064CF2CC0EB88FC8886E0DACFFDA5F86076
:101B5000FDA7EB88FC88F2CF8430C1F72BCE86E05E
:101B600001C087E02DA528602DA7EB88FC88E6CF73
:101B700086E005C084E003C085E001C086E0EB8814
:101B8000FC88982D9C7141F723CF3DA538603DA777
:101B9000EB88FC88D3CF843021F3F7CFAF960FB614
:101BA000F894DEBF0FBECDBFDF91CF911F910F9193
:101BB000FF90EF90DF90CF90BF90AF909F908F906D
:101BC0007F906F905F904F903F902F9008952F924D
:101BD0003F924F925F926F927F928F929F92AF92BD
:101BE000BF92CF92DF92EF92FF920F931F93CF930A
:101BF000DF9300D01F92CDB7DEB79C838B835B0150
:101C00007A016901D9011D921C920E94D9018111AA
:101C10009FC1EB81FC81858181119AC1848181FF03
:101C200096C186819781A085B185AC01BD014E0D1D
:101C30005F1D611D711D481759076A077B0708F46E
:101C400069C1E114F10409F465C1812C68949924F7
:101C500091F8EB81FC8186819781A085B185AC01EB
:101C6000BD01517066277727452B462B472B09F07E
:101C7000FBC020813181F90112811150AC01BD01FD
:101C8000032E39E076956795579547953A95D1F7A4
:101C9000302D142309F052C0892B8A2B8B2B99F4F9
:101CA000AB81BC811E966D917D918D919C915197D8
:101CB0006115710581059105A1F440E050E0BA017C
:101CC000C90171D908C0EB81FC81428953896489BB
:101CD0007589C90168D9611571058105910509F4F6
:101CE00019C1613071058105910531F482E0AB8144
:101CF000BC8115968C932CC16F3FBFEF7B078B0780
:101D00009B0729F481E0EB81FC81858321C1AB81B4
:101D1000BC8152966D937D938D939C9355971E969F
:101D20004D905D906D907C905197452846284728AE
:101D300029F4FD0166877787808B918BAB81BC810D
:101D40002D913C911197F90142A553A564A575A564
:101D500056968D919D910D90BC91A02D48175907D5
:101D60006A077B0759F4C9010E94F700882331F004
:101D700081E0AB81BC8115968C93EAC0EB81FC813C
:101D80000190F081E02DFA83E983AB81BC8152960A
:101D90004D915D916D917C915597CF010E94E60424
:101DA000611571058105910529F482E0EB81FC81C3
:101DB0008583CEC02B013C01410E511C611C711C5E
:101DC0001701232C332426942114310421F1A981F5
:101DD000BA8112960C91202F30E0C101810F911D24
:101DE0002817390718F41901211A31088101A301B4
:101DF0009201B501E981FA818181B2D4882331F061
:101E000081E0AB81BC8115968C93A2C08101102F1B
:101E10000027110F63C0EB81FC81468157816085EB
:101E2000718582859385A485B585481759076A070A
:101E30007B07A0F089819A810E94F700882331F006
:101E400081E0AB81BC8115968C9382C0AB81BC8153
:101E5000ED91FC9142A653A664A675A6EB81FC8188
:101E6000468A578A608E718EAB81BC8116968D91A1
:101E70009C9117979170F401E81BF90B8701EE15FF
:101E8000FF0508F48F01AB81BC8156964D915D91A1
:101E90006D917C9159978D919C910E94620188234C
:101EA00029F081E0EB81FC81858352C0EB81FC81CC
:101EB00086819781A085B1859170AA27BB278E96D0
:101EC00020813181A801B501820F931F0E949400E7
:101ED000AB81BC81ED91FC91B1E0B483A00EB11E49
:101EE000EB81FC8186819781A085B185800F911F50
:101EF000A11DB11D86839783A087B187D6018D91DF
:101F00009C911197800F911F8D939C93E01AF10A79
:101F100009F09FCEEB81FC8186819781A085B185F8
:101F20004285538564857585481759076A077B077D
:101F300020F482879387A487B587AB81BC811496F0
:101F40008C911497806214968C9380E001C087E096
:101F50000F900F900F900F90DF91CF911F910F91E5
:101F6000FF90EF90DF90CF90BF90AF909F908F90B9
:101F70007F906F905F904F903F902F9008950F93B8
:101F80001F93CF93DF93EC010E94D901982F811109
:101F900096C08C8185FF93C04A8D5B8D6C8D7D8D45
:101FA000888199810E946201982F811188C0EE8DED
:101FB000FF8D8385806283878A859B85AC85BD85FF
:101FC000848F958FA68FB78F8E859F85A889B989B5
:101FD000938F828FB58BA48B80E090E0A4E8B0EC67
:101FE000868B978BA08FB18F138A128A8C818F7DFD
:101FF0008C83E881F98181E084830990D881C02DA8
:10200000CE010E94F700982F811159C0888183303A
:1020100009F04CC08D81813009F048C0BE01625D7D
:102020007F4FFB01CE01825D9D4F1192E817F907AA
:10203000E1F785E59AEAFE01E45DFD4F9183808337
:1020400082E592E5A1E6B1E48EA79FA7A8ABB9AB64
:1020500082E792E7A1E4B1E67A9780839183A28335
:10206000B3838E859F85A889B989349680839183AF
:10207000A283B3838A859B85AC85BD853496808396
:102080009183A283B3838A8D9B8DAC8DBD8D9C0182
:10209000AD012F5F3F4F4F4F5F4F2AA73BA74CA784
:1020A0005DA701E010E089815BD31D8240E050E034
:1020B00060E08981B7D391E0811101C090E0892F60
:1020C000DF91CF911F910F910895CF93DF93EC0192
:1020D00056DF811107C0CE010E94D901811102C0D3
:1020E00019821882DF91CF910895CF93DF931F92C9
:1020F0001F92CDB7DEB7E7E0F1E080811FEF1083DC
:1021000040E06CE272E083E392E097D9E8E0F1E02E
:10211000808180832FEF39E688E121503040804074
:10212000E1F700C000008081108380E011D24AE016
:1021300060E172E081E694E0D2D98823B9F0E8E06A
:10214000F1E010829FEF29E638E1915020403040C5
:10215000E1F700C0000080838FEF91E12AE7815012
:1021600090402040E1F700C00000FFCFE8E0F1E040
:102170008081856580833FEF89E698E1315080401A
:102180009040E1F700C00000908185E589278083B9
:102190009E012F5F3F4F4FE050E06CE172E081E61F
:1021A00094E015DD89819A810F9729F4E8E0F1E048
:1021B00080818F6E808381E694E087DFE8E0F1E044
:1021C0008081816880832FEF39E688E1215030409B
:1021D0008040E1F700C0000080818FEF8083FFCF57
:1021E00023B123B123B123B10197D1F70895FC01A5
:1021F000680F791F9191992314F4299A01C02998A5
:102200002A9A2A9896FF02C0299A01C029982A9AE8
:102210002A9895FF02C0299A01C029982A9A2A98DB
:1022200094FF02C0299A01C029982A9A2A9893FFFC
:1022300002C0299A01C029982A9A2A9892FF02C0BE
:10224000299A01C029982A9A2A9891FF02C0299AAE
:1022500001C029982A9A2A9890FF02C0299A01C0A1
:1022600029982A9A2A98E617F70721F60895299AB5
:10227000FC01680F791F93B12A9A2A989170990FDF
:1022800018999F5F2A9A2A98990F18999F5F2A9AFE
:102290002A98990F18999F5F2A9A2A98990F189946
:1022A0009F5F2A9A2A98990F18999F5F2A9A2A98CD
:1022B000990F18999F5F2A9A2A98990F18999F5FEA
:1022C0002A9A2A989193E617F707A9F608950F938B
:1022D0001F93CF93DF931F92CDB7DEB708E813E1CA
:1022E00061E070E0CE010196C2DF89818F3F31F05D
:1022F00084E690E075DF0150110991F781E090E0EC
:10230000012B11F480E090E00F90DF91CF911F91AD
:102310000F910895CF93DF931F92CDB7DEB72B9A1D
:1023200061E070E0CE010196A2DF0F90DF91CF91C6
:1023300008950F931F93CF93DF931F92CDB7DEB70E
:102340002B9861E070E0CE01019691DFC0DF8C0137
:10235000892B11F4DFDF02C001E010E0C8010F900B
:10236000DF91CF911F910F910895CF92DF92EF925D
:10237000FF920F931F93CF93DF931F921F92CDB7BE
:10238000DEB77C016B0108EE13E061E070E0CE0186
:1023900001966DDF99819F3F31F484E690E020DF64
:1023A0000150110991F799819E3F59F4B601C70177
:1023B0005EDF62E070E0CE01019659DF81E090E0DF
:1023C00002C080E090E00F900F90DF91CF911F91BD
:1023D0000F91FF90EF90DF90CF900895EF92FF92D2
:1023E0001F93CF93DF931F921F92CDB7DEB77C016F
:1023F000162F6DDF009711F1198361E070E0CE01B7
:102400000196F5DE1D3FC1F060E072E0C701EFDE2E
:1024100062E070E0CE0101962ADF61E070E0CE015B
:10242000019625DF89818F7131E020E0853009F048
:1024300030E0832F922F02C081E090E00F900F9048
:10244000DF91CF911F91FF90EF900895DF92EF926F
:10245000FF920F931F93CF93DF93CDB7DEB72797EC
:102460000FB6F894DEBF0FBECDBF182F042FF52E88
:10247000E62ED72E88234CF440E050E0BA0187E3E3
:10248000E5DF823008F04FC01F771C3009F142DFD2
:1024900050DF892BD9F0812F80648A83DB82EC8224
:1024A000FD820E831123B9F133C061E070E0CE01EB
:1024B0000196DDDE1AE061E070E0CE010196D7DE24
:1024C0008981882384F51150B1F72DC08FEF2BC07F
:1024D0008CE48A83DB82EC82FD820E8381E08F8331
:1024E00066E070E0CE01029682DE1C3019F7DDCF87
:1024F00087E88F8366E070E0CE01029678DEDACF5F
:1025000081E08F8366E070E0CE01029670DED2CF6C
:10251000183071F3F5CF85E98F8366E070E0CE0166
:10252000029665DEC7CF27960FB6F894DEBF0FBEC2
:10253000CDBFDF91CF911F910F91FF90EF90DF9072
:102540000895811103C080910002089581E00895EB
:10255000EF92FF920F931F93CF93DF9300D01F92C0
:10256000CDB7DEB78111A4C080E197E239DE239AAE
:102570002B9A229A2A98219A2AE048E030E006C055
:102580002A9A2A980197E1F7215019F0842F932F66
:10259000F7CF40E050E0BA0180E058DF813009F029
:1025A0006DC04AEA51E060E070E088E04FDF8130C2
:1025B000A9F564E070E0CE01019659DE8B8181308F
:1025C00009F05EC08C818A3A09F05CC008EE13E025
:1025D00040E050E060E070E489EA38DF882341F0B1
:1025E00088EE93E0FDDD0150110991F7F12C56C002
:1025F000012B09F449C040E050E0BA018AE326DF2C
:10260000811144C064E070E0CE01019630DE898122
:1026100086FD3EC06894FF24F2F840C040E050E0E0
:10262000BA0189EA13DF823028F0EE24E394FF2414
:10263000F39407C00F2EF9EAEF2EF02D6894FF24D3
:10264000F1F808EE13E040E050E0BA018E2DFEDE16
:10265000882341F088EE93E0C3DD0150110999F71A
:10266000F12C1CC0012BC9F040E052E060E070E0AA
:1026700080E1ECDE882391F0F12C10C0F12C0EC02B
:10268000F12C0CC0F12C0AC0F12C08C0F12C06C0B2
:102690000F2EFCE0FF2EF02D01C0F12CF092320243
:1026A00011E0F11010E01093000234DE812F01C020
:1026B00083E00F900F900F900F90DF91CF911F91BB
:1026C0000F91FF90EF900895FF920F931F93CF9378
:1026D000DF93EB0181113BC08091000280FD39C086
:1026E0008091320283FD09C0012E19E0220F331FB1
:1026F000441F551F1A95D1F7102D0230110528F4EB
:102700000F2EF1E1FF2EF02D04C00F2EF2E1FF2E6F
:10271000F02DBA01A9018F2D99DE811112C060E060
:1027200072E0CE0122DE892B21F0DE5F015011091B
:10273000B1F782E1F81205C040E050E0BA018CE048
:1027400085DEE8DD81E0012B29F480E003C083E031
:1027500001C083E0DF91CF911F910F91FF90089509
:10276000CF92DF92EF92FF920F931F93CF93DF935D
:10277000EB0169017A01811149C08091000280FD5D
:1027800047C08091320283FD09C00B2EB9E0CC0C0A
:10279000DD1CEE1CFF1CBA95D1F7B02D01301105E0
:1027A00089F4B701A60188E151DE811129C06EEFDD
:1027B000CE0114DE31E020E0892B09F030E0032F58
:1027C000122F1EC0867029F0A80160E070E087E932
:1027D0003DDEB701A60189E139DE811111C06CEF40
:1027E000CE01FCDD892B21F0DE5F01501109B9F724
:1027F0006DEF80E090E0F2DD892B11F401E010E054
:1028000089DD81E0012B29F480E003C083E001C071
:1028100083E0DF91CF911F910F91FF90EF90DF90B8
:10282000CF9008950F931F93CF93DF93CDB7DEB76B
:1028300060970FB6F894DEBF0FBECDBF811198C070
:102840008091000280FD96C08A01613061F020F025
:10285000633009F47AC084C06CDD11E0892B09F47F
:1028600084C010E082C040E050E0BA0189E0EEDDB3
:10287000811178C060E170E0CE01019676DD892B90
:1028800009F472C08981829586958695837081301E
:1028900031F588858F7390E0A0E0B0E0DC019927E6
:1028A00088270196A11DB11D298530E0322F2227EE
:1028B0004A85240F311D820F931FA11DB11D072EC4
:1028C0007AE0880F991FAA1FBB1F7A95D1F7702D48
:1028D000F80180839183A283B38310E046C0898589
:1028E0008295869586958370288590E0F4E02F9FE9
:1028F000800D911D11249C012F5F3F4F9F8193708C
:10290000892F90E0982F8827990F990F820F931F96
:10291000A0E0B0E02E81322F3F702B85221F2227AE
:10292000221F230F3A853370330F230F275004C023
:10293000880F991FAA1FBB1F2A95D2F7F801808321
:102940009183A283B38310E010C080E890E0A0E000
:10295000B0E0FA0180839183A283B38310E005C0C5
:1029600014E003C011E001C011E0D4DC812F03C0EA
:1029700083E001C083E060960FB6F894DEBF0FBE1F
:10298000CDBFDF91CF911F910F910895A1E21A2E33
:10299000AA1BBB1BFD010DC0AA1FBB1FEE1FFF1F03
:1029A000A217B307E407F50720F0A21BB30BE40B53
:1029B000F50B661F771F881F991F1A9469F760959A
:1029C0007095809590959B01AC01BD01CF01089554
:1029D00009D0A59F900DB49F900DA49F800D911DCF
:1029E00011240895A29FB001B39FC001A39F700D51
:1029F000811D1124911DB29F700D811D1124911D07
:062A00000895F894FFCFD9
:102A060001222A2B2C3A3B3C3D3E3F5B5D7C7F00FE
:102A16006E657766696C652E7478740049742077E4
:0E2A26006F726B732120476F6F640D0A000002
:00000001FF
