S015000053656E696F722044657369676E2E7372656325
S113000071C000008EC000008CC000008AC00000D7
S113001088C0000086C0000084C0000082C00000C8
S113002080C000007EC000007CC000007AC00000D8
S113003078C0000076C0000074C0000072C00000E8
S113004070C000006EC000006CC000006AC00000F8
S113005068C0000066C0000064C0000062C0000008
S113006060C00000C2C000005CC000005AC00000B4
S113007058C0000056C0000054C0000052C0000028
S113008050C000004EC000004CC000004AC0000038
S113009048C0000046C0000044C0000042C0000048
S11300A040C000003EC000003CC000003AC0000058
S11300B038C0000036C0000034C0000032C0000068
S11300C030C000002EC000002CC000002AC0000078
S11300D028C0000026C0000024C0000022C0000088
S11300E020C0000011241FBECFEFD1E2DEBFCDBF80
S11300F000E00CBF12E0A0E0B2E0E0E1F3E000E0D9
S11301000BBF02C007900D92AE36B107D9F722E0BB
S1130110AEE6B2E001C01D92A837B207E1F7B2D053
S1130120F5C06ECF81309105B9F01CF4892B39F0FC
S1130130089582309105E9F0039741F1089588E923
S11301408093C10086E08093C20083E390E09093A3
S1130150C5008093C400089588E18093C90086E0B7
S11301608093CA0083E390E09093CD008093CC0009
S1130170089588E18093D10086E08093D20083E3E0
S113018090E09093D5008093D400089588E1809303
S1130190310186E08093320183E390E0909335014E
S11301A0809334010895CF93DF93EB01AB0120E0FA
S11301B030E0E0ECF0E066EC70E00AC0808185FF9E
S11301C0FDCFDA018D91AD01DB018C932F5F3F4FA1
S11301D0DE010D900020E9F71197AC1BBD0B2A1727
S11301E03B0760F3DF91CF9108951F920F920FB6F2
S11301F00F9211240BB60F922F933F934F935F935B
S11302006F937F938F939F93AF93BF93EF93FF93DA
S1130210EEE6F2E001900020E9F73197EE56F24065
S1130220DF01A359BD4F8C918A3059F4CF011E16BA
S11302301F063CF40197FC01E259FD4F1082009720
S1130240C9F7EEE6F2E001900020E9F78091C600DC
S11302503197808367E672E080E090E0A4DFFF914D
S1130260EF91BF91AF919F918F917F916F915F912A
S11302704F913F912F910F900BBE0F900FBE0F9097
S11302801F901895CF93DF93CDB7DEB7C456D1092D
S11302900FB6F894DEBF0FBECDBF8FEF84B987B918
S11302A08AB910BA11B889E0E0E0F2E0DE011196F3
S11302B001900D928A95E1F7FE013A968BE5DF01F4
S11302C01D928A95E9F780E090E02CDF78940EE6A1
S11302D012E0BFEF29E688E1B15020408040E1F709
S11302E000C00000F80101900020E9F732978081F6
S11302F08A3029F4B80180E090E055DFEACFBE01EE
S11303006F5F7F4F80E090E04EDFE3CFF894FFCF44
S113031068656C6C6F202D20000000000000000058
S113032000000000000000000000000000000000C9
S113033000000000000000000000000000000000B9
S113034000000000000000000000000000000000A9
S11303500000000000000000000000000000000099
S11303600000000000000000000000000000000089
S111037000000000256400524541440A0000CC
S9030000FC
