S015000053656E696F722044657369676E2E7372656325
S113000080C000009EC000009CC000009AC0000098
S113001098C0000096C0000094C0000092C0000088
S113002090C000008EC000008CC000008AC0000098
S113003088C0000086C0000084C0000082C00000A8
S113004080C000007EC000007CC000007AC00000B8
S113005078C0000076C0000074C0000072C00000C8
S113006070C000006FC000006CC000006AC00000D7
S113007068C0000066C0000064C0000062C00000E8
S113008060C000005EC000005CC000005AC00000F8
S113009079C0000056C0000054C0000052C00000E7
S11300A050C000004EC000004CC000004AC0000018
S11300B048C0000046C0000044C0000042C0000028
S11300C040C000003EC000003CC000003AC0000038
S11300D038C0000036C0000034C0000032C0000048
S11300E030C0000043049804E204F8043A055005C3
S11300F08905890539046364696E6F70737578586E
S11301005B0011241FBECFEFD1E2DEBFCDBF00E004
S11301100CBF14E0A0E0B2E0E6E3F1E200E00BBFC4
S113012002C007900D92AE30B107D9F724E0AEE0DB
S1130130B4E001C01D92AE37B207E1F7C3D60C9408
S113014099105ECF1F920F920FB60F9211240BB627
S11301500F928F93EF93FF93E4E7F4E00190002074
S1130160E9F78091C6003197808381E080930F0482
S1130170FF91EF918F910F900BBE0F900FBE0F90D8
S11301801F9018951F920F920FB60F9211240BB661
S11301900F928F93EF93FF93E0E1F4E0019000203E
S11301A0E9F78091CE003197808381E080930E043B
S11301B0FF91EF918F910F900BBE0F900FBE0F9098
S11301C01F901895EF92FF920F931F93CF93DF9395
S11301D0CDB7DEB72A970FB6F894DEBF0FBECDBFFA
S11301E08C01EAE7F0E087E8808384E080937C0078
S11301F0808180648083908194FFFDCF609178003A
S11302007091790080E090E00E94400920E030E0A5
S113021041E653E40E94D20920E030E040E85BE389
S11302200E94D209D8010D900020E9F711972EE021
S1130230E0E0F2E001900D922A95E1F720E030E051
S113024048E652E41FD7EBD77F936F938EE092E09A
S11302509F938F93CE0101967C019F938F930E946D
S11302607B0AB701C8010E94610A0F900F900F909A
S11302700F900F900F902A960FB6F894DEBF0FBE22
S1130280CDBFDF91CF911F910F91FF90EF90089513
S1130290CF92DF92EF92FF920F931F93CF93DF934E
S11302A0CDB7DEB72A970FB6F894DEBF0FBECDBF29
S11302B08C01EAE7F0E087E8808310927C0080817B
S11302C080648083908194FFFDCF60917800709169
S11302D0790080E090E0D4D720E030E040EA50E4B8
S11302E00E94D20920E030E040E85AE30E94D2099B
S11302F06B017C019B01AC0160E070E080EA90E45A
S1130300C1D620E030E64AE156E40E94D209A701B2
S113031096011DD720E030E44EEC55E418D76B016C
S11303207C0120E030E040E050E40E94CE09181641
S11303306CF02DEC3CEC4CE85FE3C701B601A2D6AF
S11303402FE632E143E859EB02D703C060E070E0E6
S1130350CB01D8010D900020E9F7119727E0E3E1E4
S1130360F2E001900D922A95E1F759D77F936F93AC
S11303708AE192E09F938F93CE0101967C019F9333
S11303808F930E947B0AB701C8010E94610A0F90F3
S11303900F900F900F900F900F902A960FB6F8942D
S11303A0DEBF0FBECDBFDF91CF911F910F91FF90A4
S11303B0EF90DF90CF900895CF92DF92EF92FF926B
S11303C00F931F93CF93DF93CDB7DEB72A970FB662
S11303D0F894DEBF0FBECDBF8C01EAE7F0E087E8FA
S11303E0808381E080937C0080818064808390811D
S11303F094FFFDCF609178007091790080E090E0E7
S11304003FD720E030E040EA50E4CCD720E030E0B1
S113041040E85AE3C7D76B017C019B01AC0160E063
S113042070E080EA90E42ED620E03CE94AE956E404
S1130430B9D7A70196018BD620E038E146E756E408
S113044086D66B017C0120E030E040E85FE3A6D76C
S113045018166CF023E737ED42E85FE3C701B601F5
S113046011D62AE934E44DEB59EB71D603C060E0B0
S113047070E0CB01D8010D900020E9F7119727E037
S1130480E2E2F2E001900D922A95E1F7C8D67F935B
S11304906F938AE192E09F938F93CE0101967C0142
S11304A09F938F930E947B0AB701C8010E94610A3F
S11304B00F900F900F900F900F900F902A960FB6F9
S11304C0F894DEBF0FBECDBFDF91CF911F910F9186
S11304D0FF90EF90DF90CF900895CF92DF92EF924C
S11304E0FF920F931F93CF93DF93CDB7DEB72A9775
S11304F00FB6F894DEBF0FBECDBF8C01EAE7F0E083
S113050087E8808382E080937C008081806480839C
S1130510908194FFFDCF609178007091790080E024
S113052090E0AED620E030E040EA50E43BD720E053
S113053030E040E85AE336D76B017C019B01AC0103
S113054060E070E080EA90E49DD520E030E64AE186
S113055056E428D7A7019601FAD520E030E04AEF07
S113056054E4F5D56B017C0120E030E040E050E438
S113057015D718166CF021E835E943EE5FE3C7019F
S1130580B60180D527EA31E24AEA5AEBE0D503C046
S113059060E070E0CB01D8010D900020E9F71197DD
S11305A027E0E9E2F2E001900D922A95E1F737D6CF
S11305B07F936F938AE192E09F938F93CE0101968C
S11305C07C019F938F9397D7B701C8017AD70F9077
S11305D00F900F900F900F900F902A960FB6F894EB
S11305E0DEBF0FBECDBFDF91CF911F910F91FF9062
S11305F0EF90DF90CF90089581309105B9F01CF40D
S1130600892B39F0089582309105E9F0039741F17F
S1130610089588E98093C10086E08093C20083E353
S113062090E09093C5008093C400089588E9809376
S1130630C90086E08093CA0083E390E09093CD00E4
S11306408093CC00089588E98093D10086E080935C
S1130650D20083E390E09093D5008093D400089572
S113066088E98093310186E08093320183E390E04E
S113067090933501809334010895CF93DF93DB0188
S113068081309105D1F01CF4892BF9F079C08230C6
S1130690910559F0039709F073C0AB0120E030E0F5
S11306A0E0E3F1E066E371E061C0AB0120E030E03B
S11306B0E0EDF0E066ED70E044C0AB0120E030E036
S11306C0E8ECF0E06EEC70E027C0AB0120E030E035
S11306D0E0ECF0E066EC70E00AC0808185FFFDCFBD
S11306E0EA018991AE01EB0188832F5F3F4FED0151
S11306F009900020E9F72197CA1BDB0B2C173D0753
S113070060F33EC0808185FFFDCFEA018991AE018F
S1130710EB0188832F5F3F4FED0109900020E9F73B
S11307202197CA1BDB0B2C173D0760F329C080817E
S113073085FFFDCFEA018991AE01EB0188832F5F2C
S11307403F4FED0109900020E9F72197CA1BDB0B0D
S11307502C173D0760F314C0808185FFFDCFEA01AB
S11307608991AE01EB0188832F5F3F4FED01099022
S11307700020E9F72197CA1BDB0B2C173D0760F318
S1130780DF91CF9108952F923F924F925F926F9293
S11307907F928F929F92AF92BF92CF92DF92EF920D
S11307A0FF920F931F93CF93DF93CDB7DEB7C85853
S11307B0D1090FB6F894DEBF0FBECDBF7C015B013B
S11307C0DC0111968C91873409F0D3C2412C512C51
S11307D0C12CD12C00E010E01E01B1E12B0E311C24
S11307E0FE013F96E996FFAFEEAFE9979E01235FC6
S11307F03F4FEB963FAF2EAFEB974E0133E1830EA5
S1130800911CCE010996ED969FAF8EAFED97DE0158
S11308101B96EF96BFAFAEAFEF973897C158DF4F37
S1130820F983E883CF57D0409E012B5F3F4FCF57CA
S1130830DF4F39832883C158D0403E0133E0630E33
S1130840711CF701E00FF11F80818C3209F05EC149
S11308508FEFC81AD80AA8014F5F5F4FF60131978E
S1130860E930F10508F055C18827EE58FF4F8F4F46
S113087020C6F701E40FF51F80818C3209F026C1F0
S113088092018A0135C1D5010D900020E9F7119735
S113089088E0E0E3F2E001900D928A95E1F7F70138
S11308A0E40FF51F80818B8BF701E00FF11F82812C
S11308B08C8B8AE38D8B93819E8B94819F8B888F05
S11308C08581898FF8013696EE0DFF1D095F1F4F54
S11308D080818A8F1B8ECE57DF4F9881C258D040BB
S11308E09F93CF57DF4FA881C158D040AF937F92D9
S11308F06F92E1E0F0E0EC0FFD1FFF93EF9388E3CC
S113090092E09F938F939F928F9224D689819A81AC
S11309100FB6F894DEBF0FBECDBF8730910524F02B
S113092007979A8389838DCF41969A83898389CF48
S1130930F701E40FF51F80818B8BF701E00FF11FA6
S113094082818C8B8EE28D8B83818E8B84818F8BC5
S11309508581888F8681898F87818A8F80858B8F17
S1130960F8013996EE0DFF1D065F1F4F80818C8FB5
S11309701D8EED963FADED973F93EC968FADEC97C2
S11309808F93EF969FADEF979F93EE96AFADEE9753
S1130990AF93C058DF4FB881C058D040BF93C158FF
S11309A0DF4FE881CF57D040EF93A1E4B2E0BF938B
S11309B0AF939F928F92CED50FB6F894DEBF0FBE41
S11309C0CDBF3FCF0E5F1F4FF701E40FF51F91E03E
S11309D080E020812E3409F490E0CB57DF4F9883D8
S11309E0C558D040CA57DF4F8883C658D04029CF56
S11309F0F701E40FF51F80818B8BF701E00FF11FE6
S1130A0082818C8B83818D8B8EE28E8B84818F8B04
S1130A108581888F8681898F87818A8F80858B8F56
S1130A2081858C8FF8013A96EE0DFF1D055F1F4FEF
S1130A3080818D8F1E8E3F922F92E9963FADE9976C
S1130A403F93E8968FADE8978F93EB969FADEB9726
S1130A509F93EA96AFADEA97AF93A1E4B2E0BF9358
S1130A60AF939F928F9276D50FB6F894DEBF0FBEE8
S1130A70CDBFE7CE0E5F1F4FF701E40FF51F91E0E6
S1130A8080E02081253409F490E0C957DF4F988332
S1130A90C758D040C857DF4F8883C858D040D1CEFC
S1130AA00E5F1F4FF701E40FF51F91E080E02081F6
S1130AB0213309F090E0CD57DF4F9883C358D040DD
S1130AC0CC57DF4F8883C458D040BBCED401A40D8B
S1130AD0B51D0E5F1F4FF701E00FF11F92018F014B
S1130AE00E191F098D932F5F3F4F81918C32B9F7F7
S1130AF029018FEF481A580AF401E20FF31F8AE024
S1130B008083F401E40DF51D10829BCE0F5F1F4F0F
S1130B1001C08A019CE0C916D1040CF492CECD57D1
S1130B20DF4FA881B981C358D040119709F0FDC0A7
S1130B30CB57DF4FE881F981C558D040EF2BD1F571
S1130B40C957DF4F28813981C758D040232B09F07A
S1130B5074C08A898F9389898F9388898F938F85AD
S1130B608F938E858F938D858F938A858F938985B7
S1130B708F938C858F938B858F9388858F938F81AB
S1130B808F938E818F938D818F938C818F938B81A3
S1130B908F938A818F9389818F938AE492E09F93C4
S1130BA08F93BF92AF92A7D40FB6F894DEBF0FBE57
S1130BB0CDBFB5C0CB57DF4FA881B981C558D04050
S1130BC0119709F0ACC0C957DF4FE881F981C758C4
S1130BD0D040EF2B09F06BC08A898F9389898F935A
S1130BE088898F938F858F938E858F938D858F932F
S1130BF08A858F9389858F938C858F938B858F932B
S1130C0088858F938F818F938E818F938D818F931E
S1130C108C818F938B818F938A818F9389818F931A
S1130C2082E992E09F938F93BF92AF9264D40FB600
S1130C30F894DEBF0FBECDBF72C0C957DF4F8881A5
S1130C409981C758D040019709F069C08A898F9368
S1130C5089898F9388898F938F858F938E858F93BE
S1130C608D858F938A858F9389858F938C858F93B8
S1130C708B858F9388858F938F818F938E818F93AC
S1130C808D818F938C818F938B818F938A818F93A6
S1130C9089818F938BED92E09F938F93BF92AF9254
S1130CA02AD40FB6F894DEBF0FBECDBF38C0C957E3
S1130CB0DF4FE881F981C758D040319781F58A899F
S1130CC08F9389898F9388898F938F858F938E854E
S1130CD08F938D858F938A858F9389858F938C8548
S1130CE08F938B858F9388858F938F818F938E813C
S1130CF08F938D818F938C818F938B818F938A8136
S1130D008F9389818F9384E293E09F938F93BF9213
S1130D10AF92F1D30FB6F894DEBF0FBECDBFBE01C4
S1130D206D5E7F4FC501CDD324C08E818F938D819D
S1130D308F938C818F938B818F938A818F938981F9
S1130D408F938EE693E09F938F93BF92AF92D3D30A
S1130D50D5010D900020E9F7119787E1E5E8F3E06C
S1130D6001900D928A95E1F70FB6F894DEBF0FBE9D
S1130D70CDBFC857DF4F0FB6F894DEBF0FBECDBF4F
S1130D80DF91CF911F910F91FF90EF90DF90CF9063
S1130D90BF90AF909F908F907F906F905F904F9097
S1130DA03F902F900895CF92DF92EF92FF920F938E
S1130DB01F93CF93DF93CDB7DEB72E970FB6F8947A
S1130DC0DEBF0FBECDBF7B019E012D5F3F4F3F9322
S1130DD02F93225031093F932F932CE933E03F9313
S1130DE02F939F938F93B6D3D7010D900020E9F7EB
S1130DF0119788E0E2EAF3E001900D928A95E1F719
S1130E008A818F9389818F930F2EFAEACF2EF3E094
S1130E10DF2EF02DDF92CF928E010B5F1F4F1F93B9
S1130E200F9369D3B801C7014CD3D7010D900020AB
S1130E30E9F7119788E0EEEAF3E001900D928A95C4
S1130E40E1F78C818F938B818F93DF92CF921F93E5
S1130E500F9351D3B801C70134D30FB6F894DEBF52
S1130E600FBECDBF2E960FB6F894DEBF0FBECDBF1A
S1130E70DF91CF911F910F91FF90EF90DF90CF9072
S1130E800895FC0101900020E9F73197E81BF90B64
S1130E901E161F0634F4E80FF91F1292E817F9071B
S1130EA0E1F7089566EB73E081E090E0E6DB67EC40
S1130EB073E081E090E0E1DB6AED73E081E090E0D3
S1130EC0DCCB0895CF93DF93CDB7DEB7CA5ED140B4
S1130ED00FB6F894DEBF0FBECDBF8FEF84B987B9CC
S1130EE08AB910BA11B880E090E086DB81E090E026
S1130EF083DB82E090E080DB83E090E07DDBD2DF87
S1130F007894A12CB12C8E0101591F4F912C0F2ED6
S1130F10F0E1EF2EF4E0FF2EF02D882483940F2EC1
S1130F20F4E7CF2EF4E0DF2EF02D90910F049130F2
S1130F30E1F490920F04F60101900020E9F7319753
S1130F40AF0144575440DA01AD58BB4F8C918A30FD
S1130F5061F4B601CE018B599F4FBED2C60191DF19
S1130F6080910E04813021F57BC090910E04913064
S1130F70D1F490920E04F70101900020E9F7319723
S1130F80AF0140515440DA01A15FBB4F8C918A30CC
S1130F9051F4B701CE0101969FD2C70172DF81E0FF
S1130FA0A81215C004C081E0A8120EC001C0B82C5C
S1130FB0CE018D529F4F65DFBE016D527F4FCE0132
S1130FC08B599F4FF0DEA92C81E0B812AECFC80137
S1130FD058DFB801CE010196D6DBF801019000205C
S1130FE0E9F73197AF01401B510BB801CE018B5A81
S1130FF09E4F72D2BE016D527F4FCE018B5A9E4FCF
S113100060D2CE018F509F4FDDD8CE018F509F4FBD
S11310103FD9CE018F509F4FCFD9CE018F509F4FD4
S11310205CDABE016F507F4FCE018B5A9E4F49D27E
S1131030BE016B5A7E4F83E090E01FDBCE018B5ADA
S11310409E4F1FDFCE018F509F4F1BDFB92C6DCFFA
S1131050B701CE01019640D2C70113DFB82CA8CF47
S113106090920E04F70101900020E9F73197AF0147
S113107040515440DA01A15FBB4F8C918A3041F357
S1131080A82C91CF5058BB27AA270ED04DC13ED1D2
S113109030F043D120F031F49F3F11F41EF433C1FA
S11310A00EF4E095E7FB29C1E92F4FD180F3BA177D
S11310B0620773078407950718F071F49EF567C1FA
S11310C00EF4E0950B2EBA2FA02D0B01B90190015F
S11310D00C01CA01A0011124FF27591B99F0593FA3
S11310E050F4503E68F11A16F040A22F232F342FEB
S11310F04427585FF3CF469537952795A795F04039
S11311005395C9F77EF41F16BA0B620B730B840B4D
S1131110BAF09150A1F0FF0FBB1F661F771F881F05
S1131120C2F70EC0BA0F621F731F841F48F487955D
S113113077956795B795F7959E3F08F0B3CF93954C
S1131140880F08F09927EE0F9795879508950CD08E
S1131150EBC0E3D040F0DAD030F021F45F3F19F077
S1131160CCC0511115C1CFC0F0D098F39923C9F365
S11311705523B1F3951B550BBB27AA276217730799
S1131180840738F09F5F5F4F220F331F441FAA1F4D
S1131190A9F333D00E2E3AF0E0E830D0915050400D
S11311A0E695001CCAF729D0FE2F27D0660F771FBB
S11311B0881FBB1F261737074807AB07B0E809F09D
S11311C0BB0B802DBF01FF2793585F4F2AF09E3F32
S11311D0510568F092C0DCC05F3FECF3983EDCF34D
S11311E0869577956795B795F7959F5FC9F7880FAB
S11311F0911D9695879597F90895E1E0660F771FFD
S1131200881FBB1F621773078407BA0720F0621B8D
S1131210730B840BBA0BEE1F88F7E095089504D086
S11312206894B111B5C0089598D088F09F5790F094
S1131230B92F9927B751A0F0D1F0660F771F881FF7
S1131240991F1AF0BA95C9F712C0B13081F09FD036
S1131250B1E008959CC0672F782F8827B85F39F0D4
S1131260B93FCCF3869577956795B395D9F73EF456
S113127090958095709561957F4F8F4F9F4F0895FE
S1131280E89409C097FB3EF490958095709561951C
S11312907F4F8F4F9F4F9923A9F0F92F96E9BB27D2
S11312A09395F695879577956795B795F111F8CF4E
S11312B0FAF4BB0F11F460FF1BC06F5F7F4F8F4FB9
S11312C09F4F16C0882311F096E911C0772321F0AF
S11312D09EE8872F762F05C0662371F096E8862F47
S11312E070E060E02AF09A95660F771F881FDAF79E
S11312F0880F9695879597F9089597F99F6780E8E1
S113130070E060E008959FEF80EC089500240A9453
S11313101616170618060906089500240A941216CC
S11313201306140605060895092E0394000C11F4FF
S1131330882352F0BB0F40F4BF2B11F460FF04C0AC
S11313406F5F7F4F8F4F9F4F089557FD9058440F05
S1131350551F59F05F3F71F04795880F97FB991F10
S113136061F09F3F79F087950895121613061406CD
S1131370551FF2CF4695F1DF08C01616170618065A
S1131380991FF1CF86957105610508940895E89435
S1131390BB2766277727CB0197F9089566D008F411
S11313A08FEF08950BD0C0CFB1DF28F0B6DF18F06F
S11313B0952309F0A2CFA7CF1124EACFC6DFA0F36B
S11313C0959FD1F3950F50E0551F629FF001729FD6
S11313D0BB27F00DB11D639FAA27F00DB11DAA1FF5
S11313E0649F6627B00DA11D661F829F2227B00D42
S11313F0A11D621F739FB00DA11D621F839FA00DCD
S1131400611D221F749F3327A00D611D231F849F1C
S1131410600D211D822F762F6A2F11249F57504073
S11314208AF0E1F088234AF0EE0FFF1FBB1F661F0E
S1131430771F881F91505040A9F79E3F510570F0C7
S11314405CCFA6CF5F3FECF3983EDCF386957795AF
S11314506795B795F795E7959F5FC1F7FE2B880FC2
S1131460911D9695879597F90895990F0008550F42
S1131470AA0BE0E8FEEF16161706E807F907C0F016
S113148012161306E407F50798F0621B730B840B1E
S1131490950B39F40A2661F0232B242B252B21F4F8
S11314A008950A2609F4A140A6958FEF811D811D98
S11314B00895EE0FFF1F881F8BBF0790F691E02D54
S11314C01994FB01DC010D900020E9F711970190BC
S11314D00D920020E1F70895FB01DC0141505040DA
S11314E048F001900D920020C9F701C01D924150AF
S11314F05040E0F708950F931F93CF93DF93CDB738
S1131500DEB72E970FB6F894DEBF0FBECDBF0E899F
S11315101F8986E08C831A8309838FEF9FE79E835C
S11315208D83AE01465E5F4F688D798DCE01019645
S113153032D02F813885F801E20FF31F10822E96E6
S11315400FB6F894DEBF0FBECDBFDF91CF911F91D0
S11315500F910895CF93DF93CDB7DEB72E970FB6D3
S1131560F894DEBF0FBECDBF85E08C838C899D8946
S11315709A838983AE01485E5F4F6E897F89CE016D
S113158001969ED32E960FB6F894DEBF0FBECDBF44
S1131590DF91CF9108952F923F924F925F926F9275
S11315A07F928F929F92AF92BF92CF92DF92EF92EF
S11315B0FF920F931F93CF93DF93CDB7DEB72C9792
S11315C00FB6F894DEBF0FBECDBF7C016B018A015C
S11315D0FC0117821682838181FFB0C1CE0101967E
S11315E04C01F7019381F60193FD859193FF81915D
S11315F06F01882309F49EC1853239F493FD8591E6
S113160093FF81916F01853221F4B70190E0DFD41B
S1131610E8CF512C312C20E02032A0F48B3269F039
S113162030F4803259F0833269F420612CC08D3259
S113163039F0803339F4216026C02260246023C04D
S1131640286021C027FD27C030ED380F3A3078F4E8
S113165026FF06C0FAE05F9E300D1124532E13C0FE
S11316608AE0389E300D1124332E20620CC08E3255
S113167021F426FD5FC1206406C08C3611F4206875
S113168002C0883641F4F60193FD859193FF819160
S11316906F018111C1CF982F9F7D9554933028F409
S11316A00C5F1F4FFFE3F9830DC0833631F083379E
S11316B071F0833509F057C021C0F8018081898316
S11316C00E5F1F4F44244394512C540114C038011D
S11316D0F2E06F0E711CF801A080B18026FF03C0F8
S11316E0652D70E002C06FEF7FEFC5012C8726D413
S11316F02C0183012C852F77222E16C03801F2E0AD
S11317006F0E711CF801A080B18026FF03C0652D07
S113171070E002C06FEF7FEFC5012C8704D42C0169
S11317202C852068222E830123FC19C0832D90E090
S113173048165906A0F4B70180E290E048D43A94E0
S1131740F5CFF50127FC859127FE81915F01B70153
S113175090E03DD431103A94F1E04F1A510841140D
S1131760510479F7DEC0843611F0893631F5F80179
S113177027FF07C060817181828193810C5F1F4FB5
S113178008C060817181072E000C880B990B0E5FD5
S11317901F4F2F76722E97FF09C0909580957095F4
S11317A061957F4F8F4F9F4F2068722E2AE030E063
S11317B0A4015ED4A82EA81843C0853729F42F7E2F
S11317C0B22E2AE030E025C0F22FF97FBF2E8F36EB
S11317D0C1F018F4883579F0ADC0803719F0883736
S11317E021F0A8C02F2F2061B22EB4FE0DC08B2D86
S11317F08460B82E09C024FF0AC09F2F9660B92EBA
S113180006C028E030E005C020E130E002C020E15D
S113181032E0F801B7FE07C0608171818281938153
S11318200C5F1F4F06C06081718180E090E00E5F05
S11318301F4FA4011DD4A82EA818FB2DFF777F2EBF
S113184076FE0BC0372D3E7FA51450F474FE0AC0FB
S113185072FC08C0372D3E7E05C0BA2C372D03C05C
S1131860BA2C01C0B52C34FF0DC0FE01EA0DF11DE8
S11318708081803311F4397E09C032FF06C0B394ED
S1131880B39404C0832F867809F0B39433FD12C057
S113189030FF06C05A2CB31418F4530C5B18B32C45
S11318A0B31460F4B70180E290E03C8790D3B39422
S11318B03C85F6CFB31410F43B1801C0312C34FF2F
S11318C011C0B70180E390E03C8781D33C8532FFAF
S11318D016C031FD03C088E790E002C088E590E0BF
S11318E0B7010CC0832F867851F031FF02C08BE220
S11318F001C080E237FD8DE2B70190E068D3A51402
S113190030F4B70180E390E062D35A94F8CFAA94FC
S1131910F401EA0DF11D8081B70190E058D3A110C4
S1131920F6CF332009F45DCEB70180E290E04FD3C7
S11319303A94F7CFF7018681978102C08FEF9FEF2A
S11319402C960FB6F894DEBF0FBECDBFDF91CF91BA
S11319501F910F91FF90EF90DF90CF90BF90AF90C9
S11319609F908F907F906F905F904F903F902F90BB
S1131970089520FD09C0FC0123FD05C022FF02C01B
S11319807383628351834083089544FD10C046FDF0
S113199010C0DB01FC01AA0FBB1FEE1FFF1F109438
S11319A0D1F76A0F7B1F8E1F9F1F31E003C033E006
S11319B001C034E0660F771F881F991F3150D1F79B
S11319C0620F711D811D911D08950F931F93CF9375
S11319D0DF938C01C801BDD2EC0197FD06C090D203
S11319E0892BC1F7B801CE012AD3CE01DF91CF9163
S11319F01F910F9108958F929F92AF92BF92CF92B1
S1131A00DF92EF92FF920F931F93CF93DF931F9276
S1131A10CDB7DEB78C01C62E7A0129839AD2AC01E8
S1131A20552729814B32510521F04D32510561F47E
S1131A302068CA94C11002C080E06FC0C801298325
S1131A4088D2298197FDF8CF322F3D7FD32E322FB4
S1131A50307339F5803329F5BB24BA94BC0C09F4EE
S1131A6049C0C801298375D2298197FD43C0382F05
S1131A703F7D383561F48D2D8264D82ECA94CA9482
S1131A80CC20C1F1C80165D297FF0BC033C026FF3B
S1131A9004C02D2D2260D22E03C03D2D3261D32EE1
S1131AA0CB2C812C912C540120ED280F283078F078
S1131AB0D4FE03C0B801C3D21AC02A3040F0D6FE07
S1131AC0F9CF2F7D3FEE320F3630A0F727504D2D42
S1131AD0C501B4015ADF4B015C018D2D8260D82E03
S1131AE0CA94CC2051F0C80134D297FFDDCFD1FC89
S1131AF004C0A2CF812C912C5401D7FE08C0B0940D
S1131B00A09490948094811C911CA11CB11C2D2D37
S1131B10B501A401C7012DDF81E00F90DF91CF91C2
S1131B201F910F91FF90EF90DF90CF90BF90AF90F7
S1131B309F908F9008956F927F928F929F92AF9211
S1131B40BF92CF92DF92EF92FF920F931F93CF93A6
S1131B50DF93CDB7DEB7A1970FB6F894DEBF0FBE03
S1131B60CDBF5C017A01CE0101966C0180E2F601E1
S1131B7011928A95E9F7F501838040E050E0912CB9
S1131B80712C70E0A1E0B0E0F90183FC859183FE43
S1131B9081918F01982F9F01811103C080E090E013
S1131BA07AC08E3519F44115510549F1E72FF0E05B
S1131BB0E417F5073CF48D3559F18D3219F477208B
S1131BC001F103C0711001C0982E892F8695869566
S1131BD086958601080F111D892F87703D0101C06C
S1131BE0660C8A95EAF7F801808186298083991525
S1131BF059F0991510F49F5FE8CF9150E6CF71E04A
S1131C0004C07724739401C0712C4F5F5F4FBCCF25
S1131C10772019F08E8180628E83711103C099241C
S1131C20939416C0F6019E012F5D3F4F80818095ED
S1131C308193E217F307D1F7F2CFE114F10429F00D
S1131C40F7018083C70101967C016150912CE9F072
S1131C50C50169A37ED169A197FD15C0282F2695DA
S1131C6026952695F601E20FF11D208130E0AC01A6
S1131C704770552702C0359527954A95E2F720FD10
S1131C80DCCFB501DCD1911089CFE114F10411F05E
S1131C90F7011082C801A1960FB6F894DEBF0FBEFB
S1131CA0CDBFDF91CF911F910F91FF90EF90DF9007
S1131CB0CF90BF90AF909F908F907F906F9008953A
S1131CC04F925F927F928F929F92AF92BF92CF92E8
S1131CD0DF92EF92FF920F931F93CF93DF931F92A4
S1131CE0CDB7DEB76C012B015A01FC0117821682B5
S1131CF0712CF601F380F201F3FC8591F3FE8191DE
S1131D00382F2F01882309F4E5C090E03983F8D0F7
S1131D103981892B19F0C60158DEEBCF353241F4F5
S1131D20F201F3FC3591F3FE31912F01353259F470
S1131D30C60139830ED1398197FDCAC03817C9F25B
S1131D40B6017DD1C7C03A3239F4F3FC3591F3FEC4
S1131D5031912F0151E001C050E0420110E020ED2B
S1131D60230F2A3088F45260612F70E080E090E005
S1131D7040E259830ADE162FF401F3FC3591F3FE99
S1131D8031914F015981EBCF052F232F240151FFAE
S1131D9003C0111102C09EC01FEF383619F03C3643
S1131DA059F011C0F401F3FC2591F3FE21912F01A8
S1131DB0283649F4052F08600460F201F3FC2591EC
S1131DC0F3FE21912F01222309F484C0622F70E0D5
S1131DD086EF90E029839CD02981892B09F47AC06D
S1131DE000FD07C0F501E080F180C50102965C01A9
S1131DF002C0E12CF12C2E3649F4F60146815781BC
S1131E0060E070E0202FC701B4DD73CF233689F47E
S1131E1001FF11E0C6019DD097FD5AC0E114F10401
S1131E2029F0F7018083C70101967C01115091F7D5
S1131E304BC02B3551F49201A701612FC6017BDE03
S1131E402C01892B09F040C03AC0C6012983BDDDAD
S1131E50298197FD3DC02F3641F128F4243619F12C
S1131E60293631F124C0233769F02537E1F01FC04A
S1131E70E114F10429F0F7018082C70101967C0185
S1131E80115059F0C60165D04C0197FD06C038D0F9
S1131E90892B71F3B601C401D2D0E114F104A1F08D
S1131EA0F701108211C0006203C0006101C0006428
S1131EB0202FA701612FC6019EDD811105C0F60107
S1131EC08381807329F406C000FD13CF739411CF6E
S1131ED0772019F0872D90E002C08FEF9FEF0F90CD
S1131EE0DF91CF911F910F91FF90EF90DF90CF90F2
S1131EF0BF90AF909F908F907F905F904F90089588
S1131F00911114C1803219F089508550D0F7089589
S1131F10FC010590061621F00020D9F7C0010895B0
S1131F203197CF010895FC01059061507040011074
S1131F30D8F7809590958E0F9F1F0895FC016150EE
S1131F40704001900110D8F7809590958E0F9F1FD7
S1131F500895CF93DF93EC012B8120FF33C026FF3C
S1131F600AC02F7B2B838E819F8101969F838E8352
S1131F708A8190E029C022FF0FC0E881F981808125
S1131F80082E000C990B009719F420622B831AC0B9
S1131F903196F983E8830EC0EA85FB85199597FF8E
S1131FA009C02B81019611F080E201C080E1822BEF
S1131FB08B8308C02E813F812F5F3F4F3F832E8349
S1131FC0992702C08FEF9FEFDF91CF9108950F9370
S1131FD01F93CF93DF93FB01238121FD03C08FEF78
S1131FE09FEF28C022FF16C0468157812481358186
S1131FF04217530744F4A081B1819D012F5F3F4FE5
S1132000318320838C93268137812F5F3F4F378321
S1132010268310C0EB01092F182F0084F185E02DD1
S11320201995892BE1F68E819F8101969F838E837A
S1132030812F902FDF91CF911F910F910895FB0174
S1132040238120FF12C026FD10C08F3F3FEF93076E
S113205061F082832F7D2064238326813781215080
S1132060310937832683992708958FEF9FEF0895C9
S1132070FA01AA27283051F1203181F1E8946F93B5
S11320806E7F6E5F7F4F8F4F9F4FAF4FB1E03ED05B
S1132090B4E03CD0670F781F891F9A1FA11D680FF9
S11320A0791F8A1F911DA11D6A0F711D811D911D2C
S11320B0A11D20D009F468943F912AE0269F1124A1
S11320C03019305D3193DEF6CF010895462F477005
S11320D0405D4193B3E00FD0C9F7F6CF462F4F7060
S11320E0405D4A3318F0495D31FD4052419302D0BE
S11320F0A9F7EACFB4E0A695979587957795679564
S1132100BA95C9F700976105710508959B01AC0163
S11321100A2E06945795479537952795BA95C9F78A
S1132120620F731F841F951FA01D08959927882788
S10921300895F894FFCFAE
S113213654656D70657261747572653A2000256424
S1132146460A00433348383A200025642070706DEF
S11321560A00434834203A2000434F20203A200006
S11321660A54696D653A200025643A25643A256463
S11321760025642E25642E2564000A54696D653A8B
S113218620252E32643A252E32643A252E32640AEC
S11321964C617469747564653A2025642025642E3F
S11321A625640A4C6F6E6769747564653A20256404
S11321B62025642E25640A416C7469747564653A35
S11321C620000A54696D653A20252E32643A252E7C
S11321D632643A252E32640A4C61746974756465F6
S11321E63A202D25642025642E25640A4C6F6E67DB
S11321F669747564653A2025642025642E25640A6D
S1132206416C7469747564653A20000A54696D6595
S11322163A20252E32643A252E32643A252E32642B
S11322260A4C617469747564653A202564202564D2
S11322362E25640A4C6F6E6769747564653A202DA1
S113224625642025642E25640A416C7469747564BA
S1132256653A20000A54696D653A20252E32643A9F
S1132266252E32643A252E32640A4C6174697475DB
S113227664653A202D25642025642E25640A4C6F56
S11322866E6769747564653A202D25642025642E6D
S113229625640A416C7469747564653A20000A54AD
S11322A6696D653A20252E32643A252E32643A2524
S11322B62E32640A004E4F20475053204441544165
S11322C620415641494C41424C450A0025642C257F
S11322D66400536D616C6C3A200025640A004C61FD
S11322E67267653A2000245047434D442C33332CFF
S11322F6302A36440D0A0024504D544B3232302CC9
S1132306313030302A31460D0A0024504D544B33B7
S113231631342C302C302C302C312C302C302C30C9
S11323262C302C302C302C302C302C302C302C30C3
S11123362C302C302C302C302A32390D0A0079
S9030000FC
