S015000053656E696F722044657369676E2E7372656325
S113000071C000008EC000008CC000008AC00000D7
S113001088C0000086C0000084C0000082C00000C8
S113002080C000007EC000007CC000007AC00000D8
S113003078C0000076C0000074C0000072C00000E8
S113004070C000006EC000006CC000006AC00000F8
S113005068C0000066C0000064C0000062C0000008
S113006060C000005FC000005CC000005AC0000017
S113007058C0000056C0000054C0000052C0000028
S113008050C000004EC000004CC000004AC0000038
S113009048C0000046C0000044C0000042C0000048
S11300A040C000003EC000003CC000003AC0000058
S11300B038C0000036C0000034C0000032C0000068
S11300C030C000002EC000002CC000002AC0000078
S11300D028C0000026C0000024C0000022C0000088
S11300E020C0000011241FBECFEFD1E2DEBFCDBF80
S11300F000E00CBF12E0A0E0B2E0ECE9F2E000E0C6
S11301000BBF02C007900D92A030B107D9F722E0CF
S1130110A0E0B2E001C01D92AB30B207E1F763D0BA
S1130120BBC06ECF1F920F920FB60F9211240BB665
S11301300F928F93EF93FF93E1E0F2E001900020A0
S1130140E9F78091C6003197808381E080930002B3
S1130150FF91EF918F910F900BBE0F900FBE0F90F8
S11301601F90189581309105B9F01CF4892B39F052
S1130170089582309105E9F0039741F1089588E9E3
S11301808093C10086E08093C20083E390E0909363
S1130190C5008093C400089588E18093C90086E077
S11301A08093CA0083E390E09093CD008093CC00C9
S11301B0089588E18093D10086E08093D20083E3A0
S11301C090E09093D5008093D400089588E18093C3
S11301D0310186E08093320183E390E0909335010E
S11301E0809334010895CF93DF93CDB7DEB72A9778
S11301F00FB6F894DEBF0FBECDBF8FEF84B987B9B9
S11302008AB910BA11B880E090E0ACDF789401E0CC
S113021012E02FEF89E698E1215080409040E1F709
S113022000C0000080910002813099F71092000212
S1130230F80101900020E9F73197AF014150524095
S1130240DA01A050BE4F8C918A3019F7B801CE0163
S1130250019613D0F80101900020E9F73197CF01FE
S11302608150924018161906A4F60197FC01EF5F1D
S1130270FD4F10820097C9F7CCCFFB01DC01415040
S1130280504048F001900D920020C9F701C01D9222
S10F029041505040E0F70895F894FFCF6F
S9030000FC
