:100000009DC40000BCC40000BAC40000B8C4000015
:10001000B6C40000B4C40000B2C40000B0C4000004
:10002000AEC40000ACC40000AAC40000A8C4000014
:10003000A6C40000A4C40000A2C40000A0C4000024
:100040009EC400009CC400009AC4000098C4000034
:1000500096C4000094C4000092C4000090C4000044
:100060008EC400008DC400008AC4000088C4000053
:1000700086C4000084C4000082C4000080C4000064
:100080007EC400007CC400007AC4000078C4000074
:1000900097C4000074C4000072C4000070C4000063
:1000A0006EC400006CC400006AC4000068C4000094
:1000B00066C4000064C4000062C4000060C40000A4
:1000C0005EC400005CC400005AC4000058C40000B4
:1000D00056C4000054C4000052C4000050C40000C4
:1000E0004EC400009307CE05D105D405D705DA0527
:1000F000DD05E005E305E605E905EC05EF05F2059C
:10010000F505F805FB05FE050106040607060A06C7
:100110000D0610061306160619061C061F062206F3
:10012000250628062B062E063106340637063A0623
:100130003D0640064306460649064C064F06520653
:10014000550658065B065E066106640667066A0683
:100150006D0670067306760679067C067F068206B3
:10016000850688068B068E069106940697069A06E3
:100170009D06A006A306A606A906AC06AF06B20613
:10018000B506B806BB06BE06C106C406C706CA0643
:10019000CD06D006D306D606D906DC06DF06E20673
:1001A000E506E806EB06EE06F106F406F706FA06A3
:1001B000FD0600070307060709070C070F071207CC
:1001C000150718071B071E072107240727072A07FB
:1001D0002D0730073307360739073C073F0742072B
:1001E000450748074B074E075107540757075A075B
:1001F0005D0760076307660769076C076F0772078B
:10020000750778077B077E078107840787078A07BA
:100210008D07F509F209F209F209F2093008F2092D
:10022000F209F209F2093308F209F209F209F209B6
:100230003608F209F209F209F2093908F209F2095D
:10024000F209F2093C08F209F209F209F2093F0841
:10025000F209F209F209F2094208F209F209F20977
:10026000F2094508F209F209F209F2094808F2090F
:10027000F209F209F2094B08F209F209F209F2094E
:100280004E08F209F209F209F2095108F209F209DD
:10029000F209F2095408F209F209F209F2095708C1
:1002A000F209F209F209F2095A08F209F209F2090F
:1002B000F2095D08F209F209F209F2096008F2098F
:1002C000F209F209F2096308F209F209F209F209E6
:1002D0006608F209F209F209F2096908F209F2095D
:1002E000F209F2096C08F209F209F209F2096F0841
:1002F000F209F209F209F2097208F209F209F209A7
:10030000F2097508F209F209F209F2097808F2090E
:10031000F209F209F2097B08F209F209F209F2097D
:100320007E08F209F209F209F2098108F209F209DC
:10033000F209F2098408F209F209F209F2098708C0
:10034000F209F209F209F2098A08F209F209F2093E
:10035000F2098D08F209F209F209F2099008F2098E
:10036000F209F209F2099308F209F209F209F20915
:100370009608F209F209F209F2099908F209F2095C
:10038000F209F2099C08F209F209F209F2099F0840
:10039000F209F209F209F209A208F209F209F209D6
:1003A000F209A508F209F209F209F209A808F2090E
:1003B000F209F209F209AB08F209F209F209F209AD
:1003C000AE08F209F209F209F209B108F209F209DC
:1003D000F209F209B408F209F209F209F209B708C0
:1003E000F209F209F209F209BA08F209F209F2096E
:1003F000F209BD08F209F209F209F209C008F2098E
:10040000F209F209F209C308F209F209F209F20944
:10041000C608F209F209F209F209C908F209F2095B
:10042000F209F209CC08F209F209F209F209CF083F
:10043000F209F209F209F209D208F209F209F20905
:10044000F209D508F209F209F209F209D808F2090D
:10045000F209F209F209DB08F209F209F209F209DC
:10046000DE08F209F209F209F209E108F209F209DB
:10047000F209F209E408F209F209F209F209E708BF
:10048000F209F209F209F209EA08F209F209F2099D
:10049000F209ED08F209F209F209F209F008F2098D
:1004A000F209F209F209F308F209F209F209F20974
:1004B000F608F209F209F209F209F908F209F2095B
:1004C000F209F209FC08F209F209F209F209FF083F
:1004D000F209F209F209F2090209F209F209F20934
:1004E000F2090509F209F209F209F2090809F2090B
:1004F000F209F209F2090B09F209F209F209F2090B
:100500000E09F209F209F209F2091109F209F209D8
:10051000F209F2091409F209F209F209F2091709BC
:10052000F209F209F209F2091A09F209F209F209CB
:10053000F2091D09F209F209F209F2092009F2098A
:10054000F209F209F2092309F209F209F209F209A2
:100550002609F209F209F209F2092909F209F20958
:10056000F209F2092C09F209F209F209F2092F093C
:10057000F209F209F209F2093209F209F209F20963
:10058000F2093509F209F209F209F2093809F2090A
:10059000F209F209F2093B09F209F209F209F2093A
:1005A0003E09F209F209F209F2094109F209F209D8
:1005B000F209F2094409F209F209F209F2094709BC
:1005C000F209F209F209F2094A09F209F209F209FB
:1005D000F2094D09F209F209F209F2095009F2098A
:1005E000F209F209F2095309F209F209F209F209D2
:1005F0005609F209F209F209F2095909F209F20958
:10060000F209F2095C09F209F209F209F2095F093B
:10061000F209F209F209F2096209F209F209F20992
:10062000F2096509F209F209F209F2096809F20909
:10063000F209F209F2096B09F209F209F209F20969
:100640006E09F209F209F209F2097109F209F209D7
:10065000F209F2097409F209F209F209F2097709BB
:10066000F209F209F209F2097A09F209F209F2092A
:10067000F2097D09F209F209F209F2098009F20989
:10068000F209F209F2098309F209F209F209F20901
:100690008609F209F209F209F2098909F209F20957
:1006A000F209F2098C09F209F209F209F2098F093B
:1006B000F209F209F209F2099209F209F209F209C2
:1006C000F2099509F209F209F209F2099809F20909
:1006D000F209F209F2099B09F209F209F209F20999
:1006E0009E09F209F209F209F209A109F209F209D7
:1006F000F209F209A409F209F209F209F209A709BB
:10070000F209F209F209F209AA09F209F209F20959
:10071000F209AD09F209F209F209F209B009F20988
:10072000F209F209F209B309F209F209F209F20930
:10073000B609F209F209F209F209B909F209F20956
:10074000F209F209BC09F209F209F209F209BF093A
:10075000F209F209F209F209C209F209F209F209F1
:10076000F209C509F209F209F209F209C809F20908
:10077000F209F209F209CB09F209F209F209F209C8
:10078000CE09F209F209F209F209D109F209F209D6
:10079000F209F209D409F209F209F209F209D709BA
:1007A000F209F209F209F209DA09F209F209F20989
:1007B000F209DD09F209F209F209F209E009F20988
:1007C000F209F209F209E309F209F209F209F20960
:1007D000E609F209F209F209F209E909F209F20956
:1007E000F209F209EC09F209F209F209F209EF093A
:1007F000550C900A930A960A990A9C0A9F0AA20A23
:10080000A50AA80AAB0AAE0AB10AB40AB70ABA0A1C
:10081000BD0AC00AC30AC60AC90ACC0ACF0AD20A4C
:10082000D50AD80ADB0ADE0AE10AE40AE70AEA0A7C
:10083000ED0AF00AF30AF60AF90AFC0AFF0A020BAB
:10084000050B080B0B0B0E0B110B140B170B1A0BD4
:100850001D0B200B230B260B290B2C0B2F0B320B04
:10086000350B380B3B0B3E0B410B440B470B4A0B34
:100870004D0B500B530B560B590B5C0B5F0B620B64
:10088000650B680B6B0B6E0B710B740B770B7A0B94
:100890007D0B800B830B860B890B8C0B8F0B920BC4
:1008A000950B980B9B0B9E0BA10BA40BA70BAA0BF4
:1008B000AD0BB00BB30BB60BB90BBC0BBF0BC20B24
:1008C000C50BC80BCB0BCE0BD10BD40BD70BDA0B54
:1008D000DD0BE00BE30BE60BE90BEC0BEF0BF20B84
:1008E000F50BF80BFB0BFE0B010C040C070C0A0CB0
:1008F0000D0C100C130C160C190C1C0C1F0C220CDC
:10090000250C280C2B0C2E0C310C340C370C3A0C0B
:100910003D0C400C430C460C490C4C0C4F0CCE0DBE
:10092000230E6D0E830EC50EDB0E140F140FC40DB7
:100930006364696E6F70737578585B0011241FBE15
:10094000CFEFD1E2DEBFCDBF00E00CBF14E0A0E0EE
:10095000B2E0E6EDF3E300E00BBF02C007900D92BA
:10096000A237B107D9F724E0A2E7B4E001C01D9295
:10097000A23EB207E1F70E94ED100C94E91940CBBA
:100980001F920F920FB60F9211240BB60F928F93F6
:10099000EF93FF93E8EDF4E001900020E9F78091F8
:1009A000C6003197808381E080937304FF91EF91BB
:1009B0008F910F900BBE0F900FBE0F901F90189548
:1009C0001F920F920FB60F9211240BB60F928F93B6
:1009D000EF93FF93E4E7F4E001900020E9F78091C2
:1009E000CE003197808381E080937204FF91EF9174
:1009F0008F910F900BBE0F900FBE0F901F90189508
:100A0000EF92FF920F931F93CF93DF93CDB7DEB793
:100A10002A970FB6F894DEBF0FBECDBF8C01EAE770
:100A2000F0E087E8808384E080937C0080818064AC
:100A30008083908194FFFDCF609178007091790060
:100A400080E090E00E94611220E030E041E653E453
:100A50000E94EF1220E030E040E85BE30E94EF12DA
:100A6000D8010D900020E9F711972EE0E0E0F2E0C8
:100A700001900D922A95E1F720E030E048E652E43B
:100A80000E94CB110E9430127F936F938EE092E010
:100A90009F938F93CE0101967C019F938F930E9429
:100AA000CB13B701C8010E94B1130F900F900F90A4
:100AB0000F900F900F902A960FB6F894DEBF0FBEDE
:100AC000CDBFDF91CF911F910F91FF90EF900895CF
:100AD000CF92DF92EF92FF920F931F93CF93DF930A
:100AE000CDB7DEB72A970FB6F894DEBF0FBECDBFE5
:100AF0008C01EAE7F0E087E8808310927C00808137
:100B000080648083908194FFFDCFC0907800D09066
:100B10007900C601880F991F880F991FC80ED91E2A
:100B20000D2C000CEE08FF0880E094E1A0E0B0E09E
:100B30009C01AD012C193D094E095F09A8E4B6E2FC
:100B40000E947613A70196010E945213A4E6B0E01A
:100B50000E94761328EC39E140E050E00E945213E5
:100B60002B313105410551056CF4D8010D90002061
:100B7000E9F7119781E2E3E1F2E001900D928A95A5
:100B8000E1F7F6C1F9017B97E739F10508F0C8C133
:100B90008827EE58FF4F8F4F0C946E139AEE25E284
:100BA000C4C197E323E2C1C19AEC20E2BEC19AE935
:100BB0002EE1BBC19FE92CE1B8C194ED2AE1B5C19A
:100BC00091E329E1B2C194EB27E1AFC196E526E1BB
:100BD000ACC196E125E1A9C19FEE23E1A6C19FED3D
:100BE00022E1A3C195EE21E1A0C19DEF20E19DC1CD
:100BF00095E220E19AC19EE52FE097C194EA2EE0AC
:100C000094C197EF2DE091C195E52DE08EC19EEB4B
:100C10002CE08BC191E32CE088C19CEA2BE085C1DC
:100C200090E32BE082C19BEB2AE07FC19DE42AE0A8
:100C30007CC195EE29E079C193E829E076C197E27D
:100C400029E073C190ED28E070C19DE728E06DC1F7
:100C50009FE228E06AC195EE27E067C19FE927E09F
:100C600064C19CE527E061C19DE127E05EC190EE93
:100C700026E05BC197EA26E058C190E726E055C11F
:100C80009CE326E052C19AE026E04FC19BED25E0AF
:100C90004CC19EEA25E049C192E825E046C199E5AC
:100CA00025E043C191E325E040C19BE025E03DC143
:100CB00096EE24E03AC194EC24E037C192EA24E0B5
:100CC00034C192E824E031C193E624E02EC195E4DA
:100CD00024E02BC199E224E028C19DE024E025C155
:100CE00093EF23E022C199ED23E01FC191EC23E0B3
:100CF0001CC199EA23E019C192E923E016C19CE7DF
:100D000023E013C197E623E010C193E523E00DC172
:100D10009FE323E00AC19CE223E007C199E123E0BD
:100D200004C197E023E001C196EF22E0FEC095EEFA
:100D300022E0FBC095ED22E0F8C096EC22E0F5C081
:100D400096EB22E0F2C098EA22E0EFC09AE922E0B6
:100D5000ECC09CE822E0E9C09EE722E0E6C091E713
:100D600022E0E3C095E622E0E0C099E522E0DDC0A4
:100D70009DE422E0DAC091E422E0D7C096E322E0CD
:100D8000D4C09BE222E0D1C091E222E0CEC096E145
:100D900022E0CBC09CE022E0C8C093E022E0C5C0C6
:100DA00099EF21E0C2C090EF21E0BFC097EE21E0B3
:100DB000BCC09EED21E0B9C096ED21E0B6C09DEC2F
:100DC00021E0B3C095EC21E0B0C09EEB21E0ADC0C6
:100DD00096EB21E0AAC09EEA21E0A7C097EA21E0B5
:100DE000A4C090EA21E0A1C099E921E09EC092E967
:100DF00021E09BC09CE821E098C095E821E095C0E7
:100E00009FE721E092C099E721E08FC093E721E0BE
:100E10008CC09DE621E089C097E621E086C092E67D
:100E200021E083C09CE521E080C097E521E07DC002
:100E300092E521E07AC09DE421E077C098E421E0CA
:100E400074C093E421E071C09EE321E06EC099E399
:100E500021E06BC095E321E068C090E321E065C02C
:100E60009CE221E062C098E221E05FC094E221E0D0
:100E70005CC09FE121E059C09BE121E056C097E1B1
:100E800021E053C094E121E050C090E121E04DC049
:100E90009CE021E04AC099E021E047C095E021E0D4
:100EA00044C091E021E041C09EEF20E03EC09BEFB6
:100EB00020E03BC097EF20E038C094EF20E035C041
:100EC00091EF20E032C09EEE20E02FC09BEE20E0AC
:100ED0002CC098EE20E029C095EE20E026C092EECE
:100EE00020E023C09FED20E020C09CED20E01DC04D
:100EF0009AED20E01AC097ED20E017C094ED20E0B5
:100F000014C092ED20E011C09FEC20E00EC09DECDB
:100F100020E00BC09AEC20E008C098EC20E005C06F
:100F200090E020E002C09EEE28E2D8010D90002063
:100F3000E9F7119787E0E4E3F2E001900D928A95DA
:100F4000E1F72F939F938BE392E09F938F93CE01D2
:100F500001967C019F938F930E94CB13B701C80128
:100F60000E94B1130F900F900F900F900F900F9061
:100F70002A960FB6F894DEBF0FBECDBFDF91CF919A
:100F80001F910F91FF90EF90DF90CF900895CF9237
:100F9000DF92EF92FF920F931F93CF93DF93CDB722
:100FA000DEB72A970FB6F894DEBF0FBECDBF8C0117
:100FB000EAE7F0E087E8808381E080937C0080812D
:100FC00080648083908194FFFDCFC0907800D090A2
:100FD0007900C601880F991F880F991FC80ED91E66
:100FE0000D2C000CEE08FF0880E094E1A0E0B0E0DA
:100FF0009C01AD012C193D094E095F09ACEBBDE424
:101000000E947613A70196010E945213A8EEB3E046
:101010000E94761326E83DE340E050E00E94521320
:10102000223D3105410551056CF4D8010D90002099
:10103000E9F7119781E2E3E4F2E001900D928A95DD
:10104000E1F7F8C1F901E25DF109EF3E82E0F8074E
:1010500008F0C8C18827E75FFE4F8F4F0C946E13CE
:101060009BE424E2C4C198E322E2C1C19FE420E2F0
:10107000BEC19BE82EE1BBC198EE2CE1B8C194E65D
:101080002BE1B5C19CEF29E1B2C19DEA28E1AFC1D6
:1010900095E727E1ACC192E526E1A9C193E425E1FA
:1010A000A6C195E424E1A3C197E523E1A0C198E797
:1010B00022E19DC196EA21E19AC192EE20E197C119
:1010C00099E220E194C19BE72FE091C197ED2EE0DA
:1010D0008EC19CE32EE08BC19AEA2DE088C190E29C
:1010E0002DE085C19DE92CE082C192E22CE07FC118
:1010F0009CEA2BE07CC19DE32BE079C194ED2AE0D2
:1011000076C190E72AE073C191E12AE070C196EBC5
:1011100029E06DC190E629E06AC19EE029E067C13F
:1011200090EC28E064C195E728E061C19EE228E0E8
:101130005EC19AEE27E05BC199EA27E058C19BE6C1
:1011400027E055C19FE227E052C197EF26E04FC14B
:1011500090EC26E04CC19CE826E049C19AE526E0E7
:1011600046C19AE226E043C19CEF25E040C190EDE4
:1011700025E03DC196EA25E03AC19DE725E037C16B
:1011800096E525E034C190E325E031C19CE025E0FF
:101190002EC199EE24E02BC197EC24E028C197EAF8
:1011A00024E025C198E824E022C19AE624E01FC18A
:1011B0009DE424E01CC191E324E019C196E124E000
:1011C00016C19CEF23E013C193EE23E010C19BEC0A
:1011D00023E00DC193EB23E00AC19CE923E007C1A2
:1011E00097E823E004C191E723E001C19DE523E0F6
:1011F000FEC099E423E0FBC096E323E0F8C093E24D
:1012000023E0F5C091E123E0F2C090E023E0EFC0DD
:101210009FEE22E0ECC09EED22E0E9C09EEC22E0D1
:10122000E6C09FEB22E0E3C090EB22E0E0C091EA51
:1012300022E0DDC093E922E0DAC095E822E0D7C0E1
:1012400098E722E0D4C09BE622E0D1C09EE522E0F0
:10125000CEC092E522E0CBC096E422E0C8C09BE37A
:1012600022E0C5C09FE222E0C2C095E222E0BFC0FA
:101270009AE122E0BCC090E122E0B9C095E022E012
:10128000B6C09CEF21E0B3C092EF21E0B0C099EE70
:1012900021E0ADC090EE21E0AAC097ED21E0A7C00B
:1012A0009EEC21E0A4C096EC21E0A1C09EEB21E0E1
:1012B0009EC096EB21E09BC09EEA21E098C096EA92
:1012C00021E095C09FE921E092C098E921E08FC01C
:1012D00091E921E08CC09AE821E089C093E821E0FF
:1012E00086C09CE721E083C096E721E080C090E7BC
:1012F00021E07DC09AE621E07AC094E621E077C043
:101300009EE521E074C098E521E071C093E521E0FD
:101310006EC09DE421E06BC098E421E068C093E4D6
:1013200021E065C09DE321E062C098E321E05FC059
:1013300094E321E05CC09FE221E059C09AE221E001
:1013400056C096E221E053C091E221E050C09DE1F9
:1013500021E04DC098E121E04AC094E121E047C07E
:1013600090E121E044C09CE021E041C098E021E010
:101370003EC094E021E03BC090E021E038C09DEF0A
:1013800020E035C099EF20E032C096EF20E02FC07A
:1013900092EF20E02CC09FEE20E029C09BEE20E0E1
:1013A00026C098EE20E023C095EE20E020C092EE0B
:1013B00020E01DC09EED20E01AC09BED20E017C08C
:1013C00098ED20E014C096ED20E011C093ED20E0F0
:1013D0000EC090ED20E00BC09DEC20E008C09AEC20
:1013E00020E005C090E020E002C09BE826E2D801A2
:1013F0000D900020E9F7119787E0E4E6F2E0019014
:101400000D928A95E1F72F939F938BE392E09F9340
:101410008F93CE0101967C019F938F930E94CB13F3
:10142000B701C8010E94B1130F900F900F900F9059
:101430000F900F902A960FB6F894DEBF0FBECDBF67
:10144000DF91CF911F910F91FF90EF90DF90CF90A0
:101450000895CF92DF92EF92FF920F931F93CF9355
:10146000DF93CDB7DEB72A970FB6F894DEBF0FBE75
:10147000CDBF8C01EAE7F0E087E8808382E08093CB
:101480007C00808180648083908194FFFDCFC09038
:101490007800D0907900C601880F991F880F991F96
:1014A000C80ED91E0D2C000CEE08FF0880E094E158
:1014B000A0E0B0E09C01AD012C193D094E095F0987
:1014C000ACEAB6E20E947613A70196010E9452137D
:1014D000A4E6B0E00E94761320ED37E040E050E053
:1014E0000E94521329303105410551056CF4D80191
:1014F0000D900020E9F7119781E2EBE6F2E0019010
:101500000D928A95E1F7F4C1F9013997E739F105B0
:1015100008F0C8C18827E850FC4F8F4F0C946E1319
:1015200097EA2DE0C4C199EC2BE0C1C19EE42AE00A
:10153000BEC19CE129E0BBC190E228E0B8C19EE4B5
:1015400027E0B5C19CE926E0B2C195E026E0AFC135
:1015500093E825E0ACC192E125E0A9C19FEA24E02F
:10156000A6C198E524E0A3C19BE024E0A0C197ECCC
:1015700023E09DC199E823E09AC192E523E097C159
:1015800090E223E094C193EF22E091C19AEC22E033
:101590008EC194EA22E08BC191E822E088C192E6F4
:1015A00022E085C195E422E082C19AE222E07FC177
:1015B00091E122E07CC19AEF21E079C194EE21E033
:1015C00076C190ED21E073C19DEB21E070C19CEAF2
:1015D00021E06DC19CE921E06AC19CE821E067C17E
:1015E0009EE721E064C190E721E061C193E621E03C
:1015F0005EC197E521E05BC19CE421E058C191E424
:1016000021E055C197E321E052C19DE221E04FC1A5
:1016100094E221E04CC19BE121E049C193E121E04A
:1016200046C19BE021E043C193E021E040C19CEF33
:1016300020E03DC195EF20E03AC19EEE20E037C1A9
:1016400098EE20E034C192EE20E031C19CED20E024
:101650002EC197ED20E02BC191ED20E028C19CEC3C
:1016600020E025C197EC20E022C193EC20E01FC1CF
:101670009EEB20E01CC19AEB20E019C195EB20E025
:1016800016C191EB20E013C19EEA20E010C19AEA56
:1016900020E00DC196EA20E00AC193EA20E007C1EC
:1016A0009FE920E004C19CE920E001C199E920E024
:1016B000FEC096E920E0FBC093E920E0F8C090E985
:1016C00020E0F5C09DE820E0F2C09BE820E0EFC0FC
:1016D00098E820E0ECC095E820E0E9C093E820E03D
:1016E000E6C091E820E0E3C09EE720E0E0C09CE790
:1016F00020E0DDC09AE720E0DAC098E720E0D7C01C
:1017000096E720E0D4C094E720E0D1C092E720E043
:10171000CEC090E720E0CBC09EE620E0C8C09CE6AB
:1017200020E0C5C09BE620E0C2C099E620E0BFC033
:1017300097E620E0BCC096E620E0B9C094E620E041
:10174000B6C093E620E0B3C091E620E0B0C090E6DA
:1017500020E0ADC09EE520E0AAC09DE520E0A7C046
:101760009BE520E0A4C09AE520E0A1C099E520E037
:101770009EC098E520E09BC096E520E098C095E5E6
:1017800020E095C094E520E092C093E520E08FC072
:1017900092E520E08CC091E520E089C090E520E052
:1017A00086C09FE420E083C09EE420E080C09DE4EA
:1017B00020E07DC09CE420E07AC09BE420E077C07C
:1017C0009AE420E074C099E420E071C098E420E03D
:1017D0006EC097E420E06BC096E420E068C095E41A
:1017E00020E065C094E420E062C094E420E05FC0A3
:1017F00093E420E05CC092E420E059C091E420E052
:1018000056C090E420E053C090E420E050C09FE335
:1018100020E04DC09EE320E04AC09EE320E047C0A8
:101820009DE320E044C09CE320E041C09CE320E035
:101830003EC09BE320E03BC09AE320E038C09AE33F
:1018400020E035C099E320E032C098E320E02FC0CB
:1018500098E320E02CC097E320E029C097E320E044
:1018600026C096E320E023C096E320E020C095E365
:1018700020E01DC094E320E01AC094E320E017C0EC
:1018800093E320E014C093E320E011C092E320E052
:101890000EC092E320E00BC091E320E008C091E38A
:1018A00020E005C090E020E002C090E120E1D801F6
:1018B0000D900020E9F7119787E0ECE8F2E0019045
:1018C0000D928A95E1F72F939F938BE392E09F937C
:1018D0008F93CE0101967C019F938F935CD7B701C4
:1018E000C8013FD70F900F900F900F900F900F905F
:1018F0002A960FB6F894DEBF0FBECDBFDF91CF9111
:101900001F910F91FF90EF90DF90CF90089581305D
:101910009105B9F01CF4892B39F0089582309105B6
:10192000E9F0039741F1089588E98093C10086E0CA
:101930008093C20083E390E09093C5008093C4003D
:10194000089588E98093C90086E08093CA0083E304
:1019500090E09093CD008093CC00089588E9809327
:10196000D10086E08093D20083E390E09093D5008D
:101970008093D400089588E98093310186E08093B4
:10198000320183E390E09093350180933401089510
:10199000CF93DF93DB0181309105D1F01CF4892BCB
:1019A000F9F079C08230910559F0039709F073C0BE
:1019B000AB0120E030E0E0E3F1E066E371E061C01C
:1019C000AB0120E030E0E0EDF0E066ED70E044C017
:1019D000AB0120E030E0E8ECF0E06EEC70E027C016
:1019E000AB0120E030E0E0ECF0E066EC70E00AC033
:1019F000808185FFFDCFEA018991AE01EB018883EB
:101A00002F5F3F4FED0109900020E9F72197CA1B96
:101A1000DB0B2C173D0760F33EC0808185FFFDCFB7
:101A2000EA018991AE01EB0188832F5F3F4FED0101
:101A300009900020E9F72197CA1BDB0B2C173D0703
:101A400060F329C0808185FFFDCFEA018991AE0155
:101A5000EB0188832F5F3F4FED0109900020E9F7EC
:101A60002197CA1BDB0B2C173D0760F314C0808144
:101A700085FFFDCFEA018991AE01EB0188832F5FDD
:101A80003F4FED0109900020E9F72197CA1BDB0BBE
:101A90002C173D0760F3DF91CF9108952F923F926D
:101AA0004F925F926F927F928F929F92AF92BF926E
:101AB000CF92DF92EF92FF920F931F93CF93DF931A
:101AC000CDB7DEB7C858D1090FB6F894DEBF0FBE48
:101AD000CDBF7C015B01DC0111968C91873409F04C
:101AE000D3C2412C512CC12CD12C00E010E01E019E
:101AF000B1E12B0E311CFE013F96E996FFAFEEAF30
:101B0000E9979E01235F3F4FEB963FAF2EAFEB97D8
:101B10004E0133E1830E911CCE010996ED969FAFE5
:101B20008EAFED97DE011B96EF96BFAFAEAFEF978E
:101B30003897C158DF4FF983E883CF57D0409E01D3
:101B40002B5F3F4FCF57DF4F39832883C158D04099
:101B50003E0133E0630E711CF701E00FF11F80813D
:101B60008C3209F05EC18FEFC81AD80AA8014F5F06
:101B70005F4FF6013197E930F10508F055C188272C
:101B8000E157FB4F8F4FAAC5F701E40FF51F808186
:101B90008C3209F026C192018A0135C1D5010D9020
:101BA0000020E9F7119788E0E3E9F2E001900D9257
:101BB0008A95E1F7F701E40FF51F80818B8BF70120
:101BC000E00FF11F82818C8B8AE38D8B93819E8B3A
:101BD00094819F8B888F8581898FF8013696EE0DD1
:101BE000FF1D095F1F4F80818A8F1B8ECE57DF4FED
:101BF0009881C258D0409F93CF57DF4FA881C158DA
:101C0000D040AF937F926F92E1E0F0E0EC0FFD1FC8
:101C1000FF93EF938BE992E09F938F939F928F9224
:101C2000E9D589819A810FB6F894DEBF0FBECDBF8A
:101C30008730910524F007979A8389838DCF419649
:101C40009A83898389CFF701E40FF51F80818B8BFD
:101C5000F701E00FF11F82818C8B8EE28D8B8381E7
:101C60008E8B84818F8B8581888F8681898F8781F8
:101C70008A8F80858B8FF8013996EE0DFF1D065FE8
:101C80001F4F80818C8F1D8EED963FADED973F935A
:101C9000EC968FADEC978F93EF969FADEF979F9358
:101CA000EE96AFADEE97AF93C058DF4FB881C058F6
:101CB000D040BF93C158DF4FE881CF57D040EF935A
:101CC000A4EAB2E0BF93AF939F928F9293D50FB6E1
:101CD000F894DEBF0FBECDBF3FCF0E5F1F4FF701A1
:101CE000E40FF51F91E080E020812E3409F490E0AC
:101CF000CB57DF4F9883C558D040CA57DF4F8883F2
:101D0000C658D04029CFF701E40FF51F80818B8B97
:101D1000F701E00FF11F82818C8B83818D8B8EE226
:101D20008E8B84818F8B8581888F8681898F878137
:101D30008A8F80858B8F81858C8FF8013A96EE0D86
:101D4000FF1D055F1F4F80818D8F1E8E3F922F924A
:101D5000E9963FADE9973F93E8968FADE8978F936B
:101D6000EB969FADEB979F93EA96AFADEA97AF9353
:101D7000A4EAB2E0BF93AF939F928F923BD50FB688
:101D8000F894DEBF0FBECDBFE7CE0E5F1F4FF70149
:101D9000E40FF51F91E080E02081253409F490E004
:101DA000C957DF4F9883C758D040C857DF4F888343
:101DB000C858D040D1CE0E5F1F4FF701E40FF51F7A
:101DC00091E080E02081213309F090E0CD57DF4F92
:101DD0009883C358D040CC57DF4F8883C458D04035
:101DE000BBCED401A40DB51D0E5F1F4FF701E00F50
:101DF000F11F92018F010E191F098D932F5F3F4F25
:101E000081918C32B9F729018FEF481A580AF401F1
:101E1000E20FF31F8AE08083F401E40DF51D1082C8
:101E20009BCE0F5F1F4F01C08A019CE0C916D104F1
:101E30000CF492CECD57DF4FA881B981C358D04062
:101E4000119709F0FDC0CB57DF4FE881F981C558E4
:101E5000D040EF2BD1F5C957DF4F28813981C758C2
:101E6000D040232B09F074C08A898F9389898F937E
:101E700088898F938F858F938E858F938D858F9390
:101E80008A858F9389858F938C858F938B858F938C
:101E900088858F938F818F938E818F938D818F9380
:101EA0008C818F938B818F938A818F9389818F937C
:101EB0008DEA92E09F938F93BF92AF926CD40FB64E
:101EC000F894DEBF0FBECDBFB5C0CB57DF4FA881A2
:101ED000B981C558D040119709F0ACC0C957DF4F40
:101EE000E881F981C758D040EF2B09F06BC08A898F
:101EF0008F9389898F9388898F938F858F938E8510
:101F00008F938D858F938A858F9389858F938C8509
:101F10008F938B858F9388858F938F818F938E81FD
:101F20008F938D818F938C818F938B818F938A81F7
:101F30008F9389818F9385EF92E09F938F93BF92C8
:101F4000AF9229D40FB6F894DEBF0FBECDBF72C0DA
:101F5000C957DF4F88819981C758D040019709F050
:101F600069C08A898F9389898F9388898F938F8598
:101F70008F938E858F938D858F938A858F93898597
:101F80008F938C858F938B858F9388858F938F818B
:101F90008F938E818F938D818F938C818F938B8183
:101FA0008F938A818F9389818F938EE393E09F93A0
:101FB0008F93BF92AF92EFD30FB6F894DEBF0FBEF0
:101FC000CDBF38C0C957DF4FE881F981C758D0402D
:101FD000319781F58A898F9389898F9388898F9327
:101FE0008F858F938E858F938D858F938A858F9321
:101FF00089858F938C858F938B858F9388858F931D
:102000008F818F938E818F938D818F938C818F930E
:102010008B818F938A818F9389818F9387E893E057
:102020009F938F93BF92AF92B6D30FB6F894DEBF53
:102030000FBECDBFBE016D5E7F4FC50192D324C0E0
:102040008E818F938D818F938C818F938B818F93D2
:102050008A818F9389818F9381ED93E09F938F93F2
:10206000BF92AF9298D3D5010D900020E9F7119758
:1020700087E1E8EEF3E001900D928A95E1F70FB663
:10208000F894DEBF0FBECDBFC857DF4F0FB6F89430
:10209000DEBF0FBECDBFDF91CF911F910F91FF909B
:1020A000EF90DF90CF90BF90AF909F908F907F90F8
:1020B0006F905F904F903F902F900895CF92DF9256
:1020C000EF92FF920F931F93CF93DF93CDB7DEB7BD
:1020D0002E970FB6F894DEBF0FBECDBF7B019E01D9
:1020E0002D5F3F4F3F932F93225031093F932F9302
:1020F0002FEF33E03F932F939F938F937BD3D701A1
:102100000D900020E9F7119788E0E5E0F4E00190F8
:102110000D928A95E1F78A818F9389818F930F2E93
:10212000FDE0CF2EF4E0DF2EF02DDF92CF928E0176
:102130000B5F1F4F1F930F932ED3B801C70111D30D
:10214000D7010D900020E9F7119788E0E1E1F4E074
:1021500001900D928A95E1F78C818F938B818F93FB
:10216000DF92CF921F930F9316D3B801C701F9D214
:102170000FB6F894DEBF0FBECDBF2E960FB6F89403
:10218000DEBF0FBECDBFDF91CF911F910F91FF90AA
:10219000EF90DF90CF900895FC0101900020E9F7C7
:1021A0003197E81BF90B1E161F0634F4E80FF91FD0
:1021B0001292E817F907E1F7089569E174E081E008
:1021C00090E0E6DB6AE274E081E090E0E1DB6DE361
:1021D00074E081E090E0DCCB0895CF93DF93CDB73E
:1021E000DEB7CA5ED1400FB6F894DEBF0FBECDBFDA
:1021F00010BA80E090E08BDB81E090E088DB82E049
:1022000090E085DB83E090E082DBD7DF7894A12C3F
:10221000B12C8E0101591F4F912C0F2EF4E7EF2E98
:10222000F4E0FF2EF02D882483940F2EF8EDCF2EAE
:10223000F4E0DF2EF02D909173049130E1F4909250
:102240007304F60101900020E9F73197AF01485D72
:102250005440DA01A952BB4F8C918A3061F4B60127
:10226000CE018B599F4F88D2C60196DF80917204B0
:10227000813021F57EC0909172049130D1F490921A
:102280007204F70101900020E9F73197AF0144573C
:102290005440DA01AD58BB4F8C918A3051F4B701EC
:1022A000CE01019669D2C70177DF81E0A81215C07F
:1022B00004C081E0A8120EC001C0B82CCE018D521E
:1022C0009F4F6ADFBE016D527F4FCE018B599F4FEA
:1022D000F5DEA92C81E0B812AECFC8015DDFB801F0
:1022E000CE010196DBDBF80101900020E9F7319780
:1022F000AF01401B510BB801CE018B5A9E4F3CD20F
:10230000BE016D527F4FCE018B5A9E4F2AD2CE0115
:102310008F509F4F0E940005CE018F509F4F0E940B
:102320006805CE018F509F4F0E94C707CE018F5086
:102330009F4F8FD8BE016F507F4FCE018B5A9E4F5B
:1023400010D2BE016B5A7E4F83E090E021DBCE01BC
:102350008B5A9E4F21DFCE018F509F4F1DDFB92C2E
:102360006ACFB701CE01019607D2C70115DFB82C9D
:10237000A5CF90927204F70101900020E9F7319700
:10238000AF0144575440DA01AD58BB4F8C918A30AD
:1023900041F3A82C8ECF5058BB27AA270ED0E5C0FA
:1023A000D6D030F0DBD020F031F49F3F11F41EF492
:1023B000CBC00EF4E095E7FBC1C0E92FE7D080F376
:1023C000BA17620773078407950718F071F49EF532
:1023D000FFC00EF4E0950B2EBA2FA02D0B01B90112
:1023E00090010C01CA01A0011124FF27591B99F08B
:1023F000593F50F4503E68F11A16F040A22F232F97
:10240000342F4427585FF3CF469537952795A795E6
:10241000F0405395C9F77EF41F16BA0B620B730B8D
:10242000840BBAF09150A1F0FF0FBB1F661F771FFE
:10243000881FC2F70EC0BA0F621F731F841F48F4B3
:10244000879577956795B795F7959E3F08F0B3CF39
:102450009395880F08F09927EE0F97958795089523
:1024600004D06894B111B5C0089598D088F09F57F2
:1024700090F0B92F9927B751A0F0D1F0660F771FD0
:10248000881F991F1AF0BA95C9F712C0B13081F0B0
:102490009FD0B1E008959CC0672F782F8827B85F40
:1024A00039F0B93FCCF3869577956795B395D9F711
:1024B0003EF490958095709561957F4F8F4F9F4F1B
:1024C0000895E89409C097FB3EF490958095709527
:1024D00061957F4F8F4F9F4F9923A9F0F92F96E970
:1024E000BB279395F695879577956795B795F111E5
:1024F000F8CFFAF4BB0F11F460FF1BC06F5F7F4F82
:102500008F4F9F4F16C0882311F096E911C0772393
:1025100021F09EE8872F762F05C0662371F096E89C
:10252000862F70E060E02AF09A95660F771F881F6B
:10253000DAF7880F9695879597F9089597F99F6729
:1025400080E870E060E008959FEF80EC089500243B
:102550000A941616170618060906089500240A9408
:1025600012161306140605060895092E0394000C8E
:1025700011F4882352F0BB0F40F4BF2B11F460FF1D
:1025800004C06F5F7F4F8F4F9F4F089557FD905846
:10259000440F551F59F05F3F71F04795880F97FB27
:1025A000991F61F09F3F79F08795089512161306E1
:1025B0001406551FF2CF4695F1DF08C01616170610
:1025C0001806991FF1CF8695710561050894089545
:1025D000E894BB2766277727CB0197F908950BD09E
:1025E000C4CFB5DF28F0BADF18F0952309F0A6CFE5
:1025F000ABCF1124EECFCADFA0F3959FD1F3950F97
:1026000050E0551F629FF001729FBB27F00DB11D76
:10261000639FAA27F00DB11DAA1F649F6627B00D06
:10262000A11D661F829F2227B00DA11D621F739FEF
:10263000B00DA11D621F839FA00D611D221F749FFD
:102640003327A00D611D231F849F600D211D822F44
:10265000762F6A2F11249F5750408AF0E1F088238B
:102660004AF0EE0FFF1FBB1F661F771F881F915098
:102670005040A9F79E3F510570F060CFAACF5F3F51
:10268000ECF3983EDCF3869577956795B795F795CB
:10269000E7959F5FC1F7FE2B880F911D9695879553
:1026A00097F90895052E97FB16F400940FD057FD67
:1026B00005D026D007FC02D046F408C050954095BE
:1026C000309521953F4F4F4F5F4F089590958095DE
:1026D000709561957F4F8F4F9F4F0895EE0FFF1FAD
:1026E000881F8BBF0790F691E02D19942BD0A59FE2
:1026F000900DB49F900DA49F800D911D11240895FD
:10270000A1E21A2EAA1BBB1BFD010DC0AA1FBB1FF5
:10271000EE1FFF1FA217B307E407F50720F0A21B67
:10272000B30BE40BF50B661F771F881F991F1A94D4
:1027300069F760957095809590959B01AC01BD01FE
:10274000CF010895A29FB001B39FC001A39F700D58
:10275000811D1124911DB29F700D811D1124911DA9
:102760000895FB01DC010D900020E9F7119701901D
:102770000D920020E1F70895FB01DC01415050402B
:1027800048F001900D920020C9F701C01D92415000
:102790005040E0F708950F931F93CF93DF93CDB789
:1027A000DEB72E970FB6F894DEBF0FBECDBF0E89F1
:1027B0001F8986E08C831A8309838FEF9FE79E83AE
:1027C0008D83AE01465E5F4F688D798DCE01019697
:1027D00032D02F813885F801E20FF31F10822E9638
:1027E0000FB6F894DEBF0FBECDBFDF91CF911F9122
:1027F0000F910895CF93DF93CDB7DEB72E970FB625
:10280000F894DEBF0FBECDBF85E08C838C899D8997
:102810009A838983AE01485E5F4F6E897F89CE01BE
:1028200001969ED32E960FB6F894DEBF0FBECDBF95
:10283000DF91CF9108952F923F924F925F926F92C6
:102840007F928F929F92AF92BF92CF92DF92EF9240
:10285000FF920F931F93CF93DF93CDB7DEB72C97E3
:102860000FB6F894DEBF0FBECDBF7C016B018A01AD
:10287000FC0117821682838181FFB0C1CE010196CF
:102880004C01F7019381F60193FD859193FF8191AE
:102890006F01882309F49EC1853239F493FD859137
:1028A00093FF81916F01853221F4B70190E0DFD46D
:1028B000E8CF512C312C20E02032A0F48B3269F08B
:1028C00030F4803259F0833269F420612CC08D32AB
:1028D00039F0803339F4216026C02260246023C09F
:1028E000286021C027FD27C030ED380F3A3078F43A
:1028F00026FF06C0FAE05F9E300D1124532E13C050
:102900008AE0389E300D1124332E20620CC08E32A6
:1029100021F426FD5FC1206406C08C3611F42068C6
:1029200002C0883641F4F60193FD859193FF8191B1
:102930006F018111C1CF982F9F7D9554933028F45A
:102940000C5F1F4FFFE3F9830DC0833631F08337EF
:1029500071F0833509F057C021C0F8018081898367
:102960000E5F1F4F44244394512C540114C038016E
:10297000F2E06F0E711CF801A080B18026FF03C049
:10298000652D70E002C06FEF7FEFC5012C8726D464
:102990002C0183012C852F77222E16C03801F2E0FE
:1029A0006F0E711CF801A080B18026FF03C0652D59
:1029B00070E002C06FEF7FEFC5012C8704D42C01BB
:1029C0002C852068222E830123FC19C0832D90E0E2
:1029D00048165906A0F4B70180E290E048D43A9432
:1029E000F5CFF50127FC859127FE81915F01B701A5
:1029F00090E03DD431103A94F1E04F1A510841145F
:102A0000510479F7DEC0843611F0893631F5F801CA
:102A100027FF07C060817181828193810C5F1F4F06
:102A200008C060817181072E000C880B990B0E5F26
:102A30001F4F2F76722E97FF09C090958095709545
:102A400061957F4F8F4F9F4F2068722E2AE030E0B4
:102A5000A4015ED4A82EA81843C0853729F42F7E80
:102A6000B22E2AE030E025C0F22FF97FBF2E8F363C
:102A7000C1F018F4883579F0ADC0803719F0883787
:102A800021F0A8C02F2F2061B22EB4FE0DC08B2DD7
:102A90008460B82E09C024FF0AC09F2F9660B92E0B
:102AA00006C028E030E005C020E130E002C020E1AF
:102AB00032E0F801B7FE07C06081718182819381A5
:102AC0000C5F1F4F06C06081718180E090E00E5F57
:102AD0001F4FA4011DD4A82EA818FB2DFF777F2E11
:102AE00076FE0BC0372D3E7FA51450F474FE0AC04D
:102AF00072FC08C0372D3E7E05C0BA2C372D03C0AE
:102B0000BA2C01C0B52C34FF0DC0FE01EA0DF11D39
:102B10008081803311F4397E09C032FF06C0B3943E
:102B2000B39404C0832F867809F0B39433FD12C0A8
:102B300030FF06C05A2CB31418F4530C5B18B32C96
:102B4000B31460F4B70180E290E03C8790D3B39473
:102B50003C85F6CFB31410F43B1801C0312C34FF80
:102B600011C0B70180E390E03C8781D33C8532FF00
:102B700016C031FD03C088E790E002C088E590E010
:102B8000B7010CC0832F867851F031FF02C08BE271
:102B900001C080E237FD8DE2B70190E068D3A51453
:102BA00030F4B70180E390E062D35A94F8CFAA944E
:102BB000F401EA0DF11D8081B70190E058D3A11016
:102BC000F6CF332009F45DCEB70180E290E04FD319
:102BD0003A94F7CFF7018681978102C08FEF9FEF7C
:102BE0002C960FB6F894DEBF0FBECDBFDF91CF910C
:102BF0001F910F91FF90EF90DF90CF90BF90AF901B
:102C00009F908F907F906F905F904F903F902F900C
:102C1000089520FD09C0FC0123FD05C022FF02C06C
:102C20007383628351834083089544FD10C046FD41
:102C300010C0DB01FC01AA0FBB1FEE1FFF1F109489
:102C4000D1F76A0F7B1F8E1F9F1F31E003C033E057
:102C500001C034E0660F771F881F991F3150D1F7EC
:102C6000620F711D811D911D08950F931F93CF93C6
:102C7000DF938C01C801BDD2EC0197FD06C090D254
:102C8000892BC1F7B801CE012AD3CE01DF91CF91B4
:102C90001F910F9108958F929F92AF92BF92CF9202
:102CA000DF92EF92FF920F931F93CF93DF931F92C8
:102CB000CDB7DEB78C01C62E7A0129839AD2AC013A
:102CC000552729814B32510521F04D32510561F4D0
:102CD0002068CA94C11002C080E06FC0C801298377
:102CE00088D2298197FDF8CF322F3D7FD32E322F06
:102CF000307339F5803329F5BB24BA94BC0C09F440
:102D000049C0C801298375D2298197FD43C0382F56
:102D10003F7D383561F48D2D8264D82ECA94CA94D3
:102D2000CC20C1F1C80165D297FF0BC033C026FF8C
:102D300004C02D2D2260D22E03C03D2D3261D32E32
:102D4000CB2C812C912C540120ED280F283078F0C9
:102D5000D4FE03C0B801C3D21AC02A3040F0D6FE58
:102D6000F9CF2F7D3FEE320F3630A0F727504D2D93
:102D7000C501B4015ADF4B015C018D2D8260D82E54
:102D8000CA94CC2051F0C80134D297FFDDCFD1FCDA
:102D900004C0A2CF812C912C5401D7FE08C0B0945E
:102DA000A09490948094811C911CA11CB11C2D2D89
:102DB000B501A401C7012DDF81E00F90DF91CF9114
:102DC0001F910F91FF90EF90DF90CF90BF90AF9049
:102DD0009F908F9008956F927F928F929F92AF9263
:102DE000BF92CF92DF92EF92FF920F931F93CF93F8
:102DF000DF93CDB7DEB7A1970FB6F894DEBF0FBE55
:102E0000CDBF5C017A01CE0101966C0180E2F60132
:102E100011928A95E9F7F501838040E050E0912C0A
:102E2000712C70E0A1E0B0E0F90183FC859183FE94
:102E300081918F01982F9F01811103C080E090E064
:102E40007AC08E3519F44115510549F1E72FF0E0AC
:102E5000E417F5073CF48D3559F18D3219F47720DC
:102E600001F103C0711001C0982E892F86958695B7
:102E700086958601080F111D892F87703D0101C0BD
:102E8000660C8A95EAF7F801808186298083991576
:102E900059F0991510F49F5FE8CF9150E6CF71E09B
:102EA00004C07724739401C0712C4F5F5F4FBCCF77
:102EB000772019F08E8180628E83711103C099246E
:102EC000939416C0F6019E012F5D3F4F808180953F
:102ED0008193E217F307D1F7F2CFE114F10429F05F
:102EE000F7018083C70101967C016150912CE9F0C4
:102EF000C50169A37ED169A197FD15C0282F26952C
:102F000026952695F601E20FF11D208130E0AC01F7
:102F10004770552702C0359527954A95E2F720FD61
:102F2000DCCFB501DCD1911089CFE114F10411F0AF
:102F3000F7011082C801A1960FB6F894DEBF0FBE4C
:102F4000CDBFDF91CF911F910F91FF90EF90DF9058
:102F5000CF90BF90AF909F908F907F906F9008958B
:102F60004F925F927F928F929F92AF92BF92CF9239
:102F7000DF92EF92FF920F931F93CF93DF931F92F5
:102F8000CDB7DEB76C012B015A01FC011782168206
:102F9000712CF601F380F201F3FC8591F3FE81912F
:102FA000382F2F01882309F4E5C090E03983F8D049
:102FB0003981892B19F0C60158DEEBCF353241F447
:102FC000F201F3FC3591F3FE31912F01353259F4C2
:102FD000C60139830ED1398197FDCAC03817C9F2AD
:102FE000B6017DD1C7C03A3239F4F3FC3591F3FE16
:102FF00031912F0151E001C050E0420110E020ED7D
:10300000230F2A3088F45260612F70E080E090E056
:1030100040E259830ADE162FF401F3FC3591F3FEEA
:1030200031914F015981EBCF052F232F240151FFFF
:1030300003C0111102C09EC01FEF383619F03C3694
:1030400059F011C0F401F3FC2591F3FE21912F01F9
:10305000283649F4052F08600460F201F3FC25913D
:10306000F3FE21912F01222309F484C0622F70E026
:1030700080E399E029839CD02981892B09F47AC0C7
:1030800000FD07C0F501E080F180C50102965C01FA
:1030900002C0E12CF12C2E3649F4F601468157810D
:1030A00060E070E0202FC701B4DD73CF233689F4D0
:1030B00001FF11E0C6019DD097FD5AC0E114F10453
:1030C00029F0F7018083C70101967C01115091F727
:1030D0004BC02B3551F49201A701612FC6017BDE55
:1030E0002C01892B09F040C03AC0C6012983BDDDFF
:1030F000298197FD3DC02F3641F128F4243619F17E
:10310000293631F124C0233769F02537E1F01FC09B
:10311000E114F10429F0F7018082C70101967C01D6
:10312000115059F0C60165D04C0197FD06C038D04A
:10313000892B71F3B601C401D2D0E114F104A1F0DE
:10314000F701108211C0006203C0006101C0006479
:10315000202FA701612FC6019EDD811105C0F60158
:103160008381807329F406C000FD13CF739411CFBF
:10317000772019F0872D90E002C08FEF9FEF0F901E
:10318000DF91CF911F910F91FF90EF90DF90CF9043
:10319000BF90AF909F908F907F905F904F900895D9
:1031A000911114C1803219F089508550D0F70895DB
:1031B000FC010590061621F00020D9F7C001089502
:1031C0003197CF010895FC010590615070400110C6
:1031D000D8F7809590958E0F9F1F0895FC01615040
:1031E000704001900110D8F7809590958E0F9F1F29
:1031F0000895CF93DF93EC012B8120FF33C026FF8E
:103200000AC02F7B2B838E819F8101969F838E83A3
:103210008A8190E029C022FF0FC0E881F981808176
:10322000082E000C990B009719F420622B831AC00A
:103230003196F983E8830EC0EA85FB85199597FFDF
:1032400009C02B81019611F080E201C080E1822B40
:103250008B8308C02E813F812F5F3F4F3F832E839A
:10326000992702C08FEF9FEFDF91CF9108950F93C1
:103270001F93CF93DF93FB01238121FD03C08FEFC9
:103280009FEF28C022FF16C04681578124813581D7
:103290004217530744F4A081B1819D012F5F3F4F36
:1032A000318320838C93268137812F5F3F4F378373
:1032B000268310C0EB01092F182F0084F185E02D23
:1032C0001995892BE1F68E819F8101969F838E83CC
:1032D000812F902FDF91CF911F910F910895FB01C6
:1032E000238120FF12C026FD10C08F3F3FEF9307C0
:1032F00061F082832F7D20642383268137812150D2
:10330000310937832683992708958FEF9FEF08951A
:10331000FA01AA27283051F1203181F1E8946F9306
:103320006E7F6E5F7F4F8F4F9F4FAF4FB1E03ED0AC
:10333000B4E03CD0670F781F891F9A1FA11D680F4A
:10334000791F8A1F911DA11D6A0F711D811D911D7D
:10335000A11D20D009F468943F912AE0269F1124F2
:103360003019305D3193DEF6CF010895462F477056
:10337000405D4193B3E00FD0C9F7F6CF462F4F70B1
:10338000405D4A3318F0495D31FD4052419302D00F
:10339000A9F7EACFB4E0A6959795879577956795B5
:1033A000BA95C9F700976105710508959B01AC01B5
:1033B0000A2E06945795479537952795BA95C9F7DC
:1033C000620F731F841F951FA01D089599278827DA
:0633D0000895F894FFCF00
:1033D60054656D70657261747572653A2000256476
:1033E600460A004552524F523A204D5132207265DC
:1033F6006164696E67206F7574206F662072616EF6
:1034060067650A00433348383A2000256420707007
:103416006D0A004552524F523A204D513520726581
:103426006164696E67206F7574206F662072616EC5
:1034360067650A00434834203A20004552524F52ED
:103446003A204D51372072656164696E67206F7549
:1034560074206F662072616E67650A00434F2020F4
:103466003A20000A54696D653A200025643A2564BD
:103476003A25640025642E25642E2564000A5469C5
:103486006D653A20252E32643A252E32643A252E71
:1034960032640A4C617469747564653A2025642047
:1034A60025642E25640A4C6F6E6769747564653AE7
:1034B6002025642025642E25640A416C7469747580
:1034C60064653A20000A54696D653A20252E3264F7
:1034D6003A252E32643A252E32640A4C6174697498
:1034E6007564653A202D25642025642E25640A4CD2
:1034F6006F6E6769747564653A2025642025642EAD
:1035060025640A416C7469747564653A20000A542E
:10351600696D653A20252E32643A252E32643A25A5
:103526002E32640A4C617469747564653A202564A8
:103536002025642E25640A4C6F6E67697475646570
:103546003A202D25642025642E25640A416C746971
:10355600747564653A20000A54696D653A20252E13
:1035660032643A252E32643A252E32640A4C61744E
:1035760069747564653A202D25642025642E2564BA
:103586000A4C6F6E6769747564653A202D25642050
:1035960025642E25640A416C7469747564653A2045
:1035A600000A54696D653A20252E32643A252E327A
:1035B600643A252E32640A004E4F20475053204469
:1035C60041544120415641494C41424C450A00254F
:1035D600642C256400536D616C6C3A200025640AE6
:1035E600004C617267653A2000245047434D442CD5
:1035F60033332C302A36440D0A0024504D544B32B6
:1036060032302C313030302A31460D0A0024504DEC
:10361600544B3331342C302C302C302C312C302C74
:10362600302C302C302C302C302C302C302C302CB4
:10363600302C302C302C302C302C302A32390D0ADC
:02364600000082
:00000001FF
