:1000000071C000008EC000008CC000008AC00000DB
:1000100088C0000086C0000084C0000082C00000CC
:1000200080C000007EC000007CC000007AC00000DC
:1000300078C0000076C0000074C0000072C00000EC
:1000400070C000006EC000006CC000006AC00000FC
:1000500068C0000066C0000064C0000062C000000C
:1000600060C000005FC000005CC000005AC000001B
:1000700058C0000056C0000054C0000052C000002C
:1000800050C000004EC000004CC000004AC000003C
:1000900048C0000046C0000044C0000042C000004C
:1000A00040C000003EC000003CC000003AC000005C
:1000B00038C0000036C0000034C0000032C000006C
:1000C00030C000002EC000002CC000002AC000007C
:1000D00028C0000026C0000024C0000022C000008C
:1000E00020C0000011241FBECFEFD1E2DEBFCDBF84
:1000F00000E00CBF12E0A0E0B2E0EAEDF2E000E0C8
:100100000BBF02C007900D92A436B107D9F722E0C9
:10011000A4E6B2E001C01D92A636B207E1F778D09E
:10012000DAC06ECF1F920F920FB60F9211248F93E9
:100130008091C6008093650281E0809364028F9174
:100140000F900FBE0F901F90189581309105B9F058
:100150001CF4892B39F0089582309105E9F003975A
:1001600041F1089588E98093C10086E08093C20040
:1001700083E390E09093C5008093C400089588E1E4
:100180008093C90086E08093CA0083E390E0909357
:10019000CD008093CC00089588E18093D10086E063
:1001A0008093D20083E390E09093D5008093D400B5
:1001B000089588E18093310186E08093320183E3E2
:1001C00090E090933501809334010895CF93DF93AD
:1001D000EB01AB0120E030E0E0ECF0E066EC70E039
:1001E0000AC0808185FFFDCFDA018D91AD01DB0171
:1001F0008C932F5F3F4FDE010D900020E9F71197A0
:10020000AC1BBD0B2A173B0760F3DF91CF9108951C
:10021000CF93DF93CDB7DEB7CE56D1090FB6F894A2
:10022000DEBF0FBECDBF8FEF84B987B98AB910BAD0
:1002300011B889E0E0E0F2E0DE01119601900D9244
:100240008A95E1F7FE013A968BE5DF011D928A95CA
:10025000E9F780E090E079DF78948E010B591F4F29
:1002600080916402882339F1F80101900020E9F7B8
:10027000809165023197808310926402F8010190A9
:100280000020E9F7319780818A30A9F4B80180E035
:1002900090E09CDFF80101900020E9F73197E01B26
:1002A000F10B1E161F063CF4E00FF11FC80112925D
:1002B000E817F907E1F7BFEF29E688E1B1502040E0
:1002C0008040E1F700C00000BE016F5F7F4F80E01B
:0A02D00090E07CDFC5CFF894FFCF6B
:1002DA0068656C6C6F202D20000000000000000093
:1002EA000000000000000000000000000000000004
:1002FA0000000000000000000000000000000000F4
:10030A0000000000000000000000000000000000E3
:10031A0000000000000000000000000000000000D3
:10032A0000000000000000000000000000000000C3
:04033A0000000000BF
:00000001FF
