:1000000071C0000086C0000084C0000082C00000F3
:1000100080C000007EC000007CC000007AC00000EC
:1000200078C0000076C0000074C0000072C00000FC
:1000300070C000006EC000006CC000006AC000000C
:1000400068C0000066C0000064C0000062C000001C
:1000500060C000005EC000005CC000005AC000002C
:1000600058C0000056C0000054C0000052C000003C
:1000700050C000004EC000004CC000004AC000004C
:1000800048C0000046C0000044C0000042C000005C
:1000900040C000003EC000003CC000003AC000006C
:1000A00038C0000036C0000034C0000032C000007C
:1000B00030C000002EC000002CC000002AC000008C
:1000C00028C0000026C0000024C0000022C000009C
:1000D00020C000001EC000001CC000001AC00000AC
:1000E00018C0000011241FBECFEFD1E2DEBFCDBF8C
:1000F00000E00CBF12E0A0E0B2E0E6E0F3E000E0D8
:100100000BBF02C007900D92A431B107D9F7C9D037
:10011000F8C076CF81309105B9F01CF4892B39F005
:10012000089582309105E9F0039741F1089588E13F
:100130008093C10086E08093C20083E390E09093B7
:10014000C5008093C400089588E18093C90086E0CB
:100150008093CA0083E390E09093CD008093CC001D
:10016000089588E18093D10086E08093D20083E3F4
:1001700090E09093D5008093D400089588E1809317
:10018000310186E08093320183E390E09093350162
:10019000809334010895CF93DF93DB018130910583
:1001A000D1F01CF4892BF9F079C08230910559F017
:1001B000039709F073C0AB0120E030E0E0E3F1E029
:1001C00066E371E061C0AB0120E030E0E0EDF0E01B
:1001D00066ED70E044C0AB0120E030E0E8ECF0E018
:1001E0006EEC70E027C0AB0120E030E0E0ECF0E026
:1001F00066EC70E00AC0808185FFFDCFEA0189913D
:10020000AE01EB0188832F5F3F4FED010990002085
:10021000E9F72197CA1BDB0B2C173D0760F33EC0A3
:10022000808185FFFDCFEA018991AE01EB018883D2
:100230002F5F3F4FED0109900020E9F72197CA1B7E
:10024000DB0B2C173D0760F329C0808185FFFDCFB4
:10025000EA018991AE01EB0188832F5F3F4FED01E9
:1002600009900020E9F72197CA1BDB0B2C173D07EB
:1002700060F314C0808185FFFDCFEA018991AE0152
:10028000EB0188832F5F3F4FED0109900020E9F7D4
:100290002197CA1BDB0B2C173D0760F3DF91CF9131
:1002A0000895CF93DF93CDB7DEB764970FB6F89478
:1002B000DEBF0FBECDBF81E090E02CDF87E0E0E045
:1002C000F2E0DE01119601900D928A95E1F7FE01B0
:1002D00038968DE0DF011D928A95E9F710E3BFEFB4
:1002E00029E688E1B15020408040E1F700C00000DD
:1002F000BE016F5F7F4F81E090E04DDF1F5F1D8388
:06030000EECFF894FFCFE0
:1003060054455354300A000000000000000000006D
:0403160000000000E3
:00000001FF
