S014000053656E696F7244657369676E2E7372656346
S113000080C000009FC000009DC000009BC0000095
S113001099C0000097C0000095C0000093C0000084
S113002091C000008FC000008DC000008BC0000094
S113003089C0000087C0000085C0000083C00000A4
S113004081C000007FC000007DC000007BC00000B4
S11300500C945A1277C0000075C0000073C00000F1
S113006071C000000C941A126DC000006BC0000037
S113007069C0000067C0000065C0000063C00000E4
S113008061C000005FC000005DC000005BC00000F4
S11300900C943A1257C0000055C0000053C0000031
S11300A051C000004FC000004DC000004BC0000014
S11300B049C0000047C0000045C0000043C0000024
S11300C041C000003FC000003DC000003BC0000034
S11300D039C0000037C0000035C0000033C0000044
S11300E031C000007615BA15F51503163E164E16E6
S11300F08B168B166D156364696E6F707375785803
S11301005B0011241FBECFEFD1E2DEBFCDBF00E004
S11301100CBF14E0A0E0B2E0EEEBF3E700E00BBFAD
S113012002C007900D92A03BB107D9F727E0A0EBDE
S1130130B4E001C01D92A437B207E1F70E946E1724
S11301400C94DD395DCFCF93DF9342305105C0F07D
S1130150DB01FC019A01CD91DD91C193D193225031
S1130160310922303105B8F79A01225031092E7F26
S11301702E5F3F4F820F931F620F731F41705527ED
S11301804115510549F0DB01FC01480F591F9D91B0
S11301909193E417F507D9F7DF91CF910895CF93A1
S11301A0DF93EC01A881B9811097F9F04C914132A9
S11301B058F04A3331F1FD0131969F01919191320A
S11301C028F09A33D1F704C0942F9D019A3381F417
S11301D0CD0101962817390771F4403379F412964A
S11301E0B983A88380E090E00EC08FEF9FEF0BC02F
S11301F080E090E008C08FEF9FEF05C08FEF9FEF86
S113020002C09D01E5CFDF91CF9108958F929F9217
S1130210AF92BF92CF92DF92EF92FF920F931F9310
S1130220CF93DF93FC012481222309F446C0EC011F
S1130230C2A4D3A4E4A4F5A45C01FEE2AF0EB11CF5
S113024001E010E0A7019601B50189810E94B43054
S1130250811135C01C828E8D9F8DA8A1B9A1B701D3
S1130260A601481B590B6A0B7B0B8E899F89A88DAD
S1130270B98D481759076A077B0718F58B80912CAD
S113028082E088169104F8F08E899F89A88DB98D33
S1130290C80ED91EEA1EFB1E01E010E0A70196015C
S11302A0B50189810E94B430E1E08E1A9108F1E031
S11302B08F16910449F780E007C080E005C081E013
S11302C003C080E001C080E0DF91CF911F910F91C6
S11302D0FF90EF90DF90CF90BF90AF909F908F9062
S11302E008958F929F92AF92BF92FF920F931F93A4
S11302F0CF93DF93EC014A015B018AA59BA5ACA5D2
S1130300BDA584179507A607B707E1F0CE017EDFE8
S1130310F82E811118C001E010E0A5019401BE017E
S1130320625D7F4F89810E946830882331F0FF2409
S1130330F39488248A94982C54018AA69BA6ACA68C
S1130340BDA601C0F12C8F2DDF91CF911F910F918C
S1130350FF90BF90AF909F908F900895CF93DF93BD
S1130360EC011C828FEF9FEFDC018AA79BA7ACA74F
S1130370BDA7CE01B6DF811123C0FE01E45DFD4FB0
S11303808081918185359A4AE9F4E85CF140808165
S11303909181A281B381BB2786349144A445B105E0
S11303A099F0C058DF4F488159816A817B81772752
S11303B081E0463451446445710539F480E005C058
S11303C083E003C082E001C080E0DF91CF91089513
S11303D00097C9F0DC01ED91FC9111973097A9F0D9
S11303E020812223A1F02681378112968D919C9140
S11303F013972817390769F481810E94A42F80FF7D
S11304000AC089E0089589E0089589E0089589E0A3
S1130410089589E0089580E008952F923F924F92C5
S11304205F926F927F928F929F92AF92BF92CF9280
S1130430DF92EF92FF920F931F93CF93DF93CDB789
S1130440DEB76D970FB6F894DEBF0FBECDBF6C015B
S1130450CB01B42ED6011D921C92A1DE7C019923FE
S11304600CF402C2FC01EE0FFF1FEE54FB4F00819F
S113047011810115110509F4F9C1F60111830083F5
S1130480D8018C91882369F011968C910E94A42F35
S113049080FD07C0BB2009F4EBC182FFEBC18AE0F9
S11304A08BC2F8011082E1828E2D0E94AB2F80FD59
S11304B0E3C1BB2009F400C282FDE0C1FDC180811B
S11304C0882329F0448055806680778004C04E2CB0
S11304D05F2C672E762ED9014D925D926D927D929E
S11304E09D017096E417F50751F74E01B1E18B0EAB
S11304F0911C6894772471F8F501C190D190E19032
S1130500F1905F01C114D104E104F10439F0B701A1
S1130510A601C80123DF811102C00DC0872DA814D4
S1130520B90451F703C0C12CD12C7601833009F4EE
S1130530A7C18111A7C1D801D9968D919C91DA9751
S11305408115924009F0A0C1F801EC5BFF4F408097
S11305505180612C712C411451046104710429F4FB
S11305603E964080518062807380F801468A578AA3
S1130570608E718EA6ADA3838FEF8A0F823008F050
S113058085C1F3ADF98B2F2FF8012283222309F4BF
S11305907FC1822F90E09C01215031098223932353
S11305A0892B09F077C1FF9620803180F8013186CC
S11305B02086C1018F709927892B09F06DC1EF5BEB
S11305C0FF4F80809180A12CB12C81149104A1044F
S11305D0B10429F43D9680809180A280B380F80113
S11305E004ACF5ADE02D309709F458C1B0E0A30197
S11305F092010E9497336A8F7B8F8C8F9D8F9F010E
S113060040E050E02E8B3F8B488F598FC10192956B
S113061082958F7089279F708927280F391F411D64
S1130620511DDA01C9012A8D3B8D4C8D5D8D280F3A
S1130630391F4A1F5B1F2A8B3B8B4C8B5D8B8216A9
S11306409306A406B50608F42BC1C501B401621BC8
S1130650730B840B950BE9892E2F30E040E050E0BA
S11306600E945133DA01C9012115310541055105B3
S113067009F418C1263FFFE03F074105510518F072
S1130680E2E0E98B02C0F1E0F98B863F9F4FA105C0
S1130690B10508F028C149015A0182E0880E911C75
S11306A0A11CB11CD80152968D929D92AD92BC9220
S11306B05597F801C28ED38EE48EF58E8E899F896C
S11306C0A88DB98D8C0D9D1DAE1DBF1D868F978F76
S11306D0A0A3B1A34A895B896C897D894C0D5D1DFA
S11306E06E1D7F1D46A357A360A771A7F989F33038
S11306F069F5232809F0D8C0F801E65AFF4F808134
S11307009181A281B381F80182A393A3A4A3B5A389
S1130710880C991CAA1CBB1C880C991CAA1CBB1C09
S1130720FFEF8F0EF1E09F1EA11CB11C072E79E094
S1130730B694A794979487947A95D1F7702D48141A
S113074059046A047B0408F4B1C0F9C0232809F4ED
S1130750AFC02A8D3B8D4C8D5D8D820F931FA41FDE
S1130760B51FF80182A393A3A4A3B5A3F989F2301A
S113077029F4880C991CAA1CBB1C08C1A3E0B0E096
S1130780A50194010E949733DC01CB01B695A7958E
S11307909795879521E082229924AA24BB24880E68
S11307A0991EAA1EBB1EF2C0B701A6014F5F5F4F80
S11307B06F4F7F4FC80195DD811139C0D80115965F
S11307C01C92F801E45DFD4F8081918185359A4A40
S11307D089F5F80186A597A5A0A9B1A98235924506
S11307E0A146B14451F5F801EE5EFD4F808191813F
S11307F0A281B38182379247A144B14609F5349668
S113080080819181A281B381F80186879787A08B2B
S1130810B18BE65EFD4F80819181A281B381F801A5
S113082082879387A487B587F3E0F98B0BC0E3E055
S1130830E98B08C0F3E0F98B05C0E3E0E98B02C063
S1130840F3E0F98BE989D801EC938091B00490919D
S1130850B10401969093B1048093B00417969C93CD
S11308608E93169780E0A8C08BE0A6C08CE0A4C04D
S113087080E0A2C080E0A0C083E09EC08AE09CC06B
S113088081E09AC08DE098C08DE096C08DE094C060
S11308908DE092C08DE090C08DE08EC08DE08CC064
S11308A08DE08AC08DE088C08DE086C08DE084C074
S11308B08DE082C08DE080C040E050E0BA01C80104
S11308C04DDD813009F02FCEF801E051FE4F9E013D
S11308D02F5F3F4F5901A801405D5D4FE12CF12C82
S11308E070E060E0ECCD49015A0162E0860E911C93
S11308F0A11CB11CD80152968D929D92AD92BC92CE
S11309005597F801C28ED38EE48EF58E8E899F8919
S1130910A88DB98D8C0D9D1DAE1DBF1D868F978F23
S1130920A0A3B1A38A899B89AC89BD898C0D9D1D27
S1130930AE1DBF1D86A397A3A0A7B1A7DACE8FEFE4
S11309409FEFDC01F80186879787A08BB18B8287A4
S11309509387A487B58780E88583E25AFF4F808117
S11309609181019709F420CFF3E0F98B6BCF8FEFDE
S11309709FEFDC01F80186879787A08BB18B828774
S11309809387A487B58780E885835CCFFFEF8F0EBC
S1130990F1E09F1EA11CB11C072E79E0B694A79428
S11309A0979487947A95D1F7702D481459046A0462
S11309B07B0408F47FCFDBCF6D960FB6F894DEBFCF
S11309C00FBECDBFDF91CF911F910F91FF90EF909C
S11309D0DF90CF90BF90AF909F908F907F906F905B
S11309E05F904F903F902F900895CF92DF92EF92B7
S11309F0FF92FC019A01AB012250310941095109CE
S1130A00C288D388E488F58882E0C81AD108E1084E
S1130A10F1082C153D054E055F0568F4A281B0E090
S1130A200E949733C6A0D7A0E0A4F1A46C0D7D1D4D
S1130A308E1D9F1D03C060E070E0CB01FF90EF901E
S1130A40DF90CF900895AF92BF92CF92DF92EF9252
S1130A50FF920F931F93CF93DF93EC016A017B0105
S1130A60423051056105710508F4A7C08A899B8944
S1130A70AC89BD89481759076A077B0708F0A2C0EB
S1130A808881823009F44BC0833009F469C0813015
S1130A9009F09DC08A0116950795040F151FC8011A
S1130AA0892F992786954E8D5F8D68A179A1480F6E
S1130AB0591F611D711DCE0114DC81118DC05801B7
S1130AC08FEFA81AB80A1170FE01E00FF11F16A5E6
S1130AD0C501892F992786954E8D5F8D68A179A1CF
S1130AE0480F591F611D711DCE01FBDB811178C0B8
S1130AF081E0B822CA0DDB1D8EA5612F70E0782B32
S1130B00C0FE09C0729562956F7067277F70672772
S1130B1080E090E070C07F7080E090E06CC0452F72
S1130B20562F672F77278E8D9F8DA8A1B9A1480FC7
S1130B30591F6A1F7B1FCE01D4DB811155C0CC0C19
S1130B40DD1CEE1CFF1CE894C0F881E0D822EE24E2
S1130B50FF24CC0DDD1D6EA57FA580E090E04BC089
S1130B608E8D9F8DA8A1B9A1689416F87695679586
S1130B70579547951694D1F7480F591F6A1F7B1F45
S1130B80CE01AFDB811134C0CC0CDD1CEE1CFF1C8C
S1130B90CC0CDD1CEE1CFF1C8CEFC82281E0D8229B
S1130BA0EE24FF24FE01EC0DFD1D86A597A5A0A94A
S1130BB0B1A9BC01CD019F701EC061E070E080E06E
S1130BC090E019C061E070E080E090E014C061E062
S1130BD070E080E090E00FC06FEF7FEFCB010BC0BF
S1130BE06FEF7FEFCB0107C06FEF7FEFCB0103C047
S1130BF06FEF7FEFCB01DF91CF911F910F91FF90AA
S1130C00EF90DF90CF90BF90AF900895AF92BF92D6
S1130C10CF92DF92EF92FF920F931F93CF93DF93C4
S1130C20EC018B017D836C83CE80DF80E884F984C2
S1130C3081E0C816D104E104F10409F48AC0E88112
S1130C40F98182899389A489B589C816D906EA06E7
S1130C50FB0608F080C0C114D104E104F104C1F41E
S1130C608081833041F482A193A1A4A1B5A100970E
S1130C70A105B10559F4808591850817190708F075
S1130C806CC062A173A184A195A135C06C017D01E2
S1130C90A28080E1A89E500111240A151B0530F1A1
S1130CA0B701A60188819981CEDE6B017C018FEFAB
S1130CB0C816D806E806F80609F451C082E0C8163A
S1130CC0D104E104F10408F44CC0E881F98182897B
S1130CD09389A489B589C816D906EA06FB0608F0E3
S1130CE042C00A191B090A151B05D0F6B701A60153
S1130CF0888199817ADECA86DB86EC86FD86611559
S1130D0071058105910589F19801329522952F701D
S1130D1023273F702327DC01CB01820F931FA11DE2
S1130D20B11D8E879F87A88BB98B0F701127000F79
S1130D30111F02951295107F1027007F1027025D66
S1130D401F4F88819981800F911F9B8B8A8B80E034
S1130D500DC082E00BC082E009C082E007C081E0E0
S1130D6005C082E003C082E001C082E0DF91CF9140
S1130D701F910F91FF90EF90DF90CF90BF90AF90B5
S1130D8008954F925F926F927F928F929F92AF924B
S1130D90BF92CF92DF92EF92FF920F931F93CF9364
S1130DA0DF93EC016A017B012801390142305105CE
S1130DB06105710508F4D2C08A899B89AC89BD8913
S1130DC0481759076A077B0708F0CAC08881823030
S1130DD009F462C0833009F485C0813009F0C2C0CF
S1130DE05A01B694A794A40EB51EC501892F99275C
S1130DF086954E8D5F8D68A179A1480F591F611D9D
S1130E00711DCE016EDA182F8111CAC045018FEF12
S1130E10881A980A31E0B322C0FE20C0FE01EA0D10
S1130E20FB1D86A5282F2F7030E1439EC00111249D
S1130E30822B86A781E08C834E8D5F8D68A179A17A
S1130E40C401892F99278695480F591F611D711D6B
S1130E50CE0147DA882309F48BC086C0FE01EA0D6F
S1130E60FB1D46A681E08C834E8D5F8D68A179A120
S1130E70C401892F99278695480F591F611D711D3B
S1130E80CE012FDA882309F47EC070C0EC0FFD1F59
S1130E9046A681E08C8384C0452F562F672F772781
S1130EA08E8D9F8DA8A1B9A1480F591F6A1F7B1F62
S1130EB0CE0117DA182F811173C0CC0CDD1CEE1C87
S1130EC0FF1CE894C0F881E0D822EE24FF243EE21F
S1130ED0C30ED11CFE01EC0DFD1D5182408281E048
S1130EE08C835EC08E8D9F8DA8A1B9A1689416F8DD
S1130EF076956795579547951694D1F7480F591FDE
S1130F006A1F7B1FCE01EDD9182F811149C0CC0C6B
S1130F10DD1CEE1CFF1CCC0CDD1CEE1CFF1C8CEF3E
S1130F20C82281E0D822EE24FF243EE2C30ED11C65
S1130F30FE01EC0DFD1D80819181A281B381882782
S1130F409927AA27B07F482A592A6A2A7B2A4082ED
S1130F5051826282738281E08C8322C012E020C0BD
S1130F6012E01EC012E01CC0182F1AC0182F18C09F
S1130F70F401F170689413F8769467945794479445
S1130F801694D1F783CFF401F170DE01AE0FBF1FC9
S1130F909E969C91907F852D8F70492E482A76CFFE
S1130FA0812FDF91CF911F910F91FF90EF90DF90F0
S1130FB0CF90BF90AF909F908F907F906F905F90F5
S1130FC04F9008952F923F924F925F926F927F922B
S1130FD08F929F92AF92BF92CF92DF92EF92FF9245
S1130FE00F931F93CF93DF93EC012A013B0141152B
S1130FF0510561057105B9F48A849B84AC84BD8470
S113100081149104A104B10459F18A899B89AC89A2
S1131010BD8988169906AA06BB0630F1812C912C4D
S11310205401839421C00FDD6B017C016230710592
S11310308105910508F496C08FEFC816D806E80616
S1131040F80609F494C08A899B89AC89BD89C816BD
S1131050D906EA06FB0608F48FC05301420104C016
S1131060812C912C54018394750164016894222489
S113107021F8312C00E010E02FEFC21AD20AE20A64
S1131080F20A8A899B89AC89BD89C816D906EA0601
S1131090FB0658F082E088169104A104B10408F418
S11310A070C0C22CD32CE02EF12EB701A601CE01C4
S11310B0CADC611571058105910599F06F3F2FEF29
S11310C072078207920709F461C0613071058105D6
S11310D0910509F460C0C814D904EA04FB0461F65C
S11310E05FC08C2C9D2CAE2CBF2C0FEF1FEF2FEF6D
S11310F03FE0B701A601CE0144DE81112CC04114AA
S113110051046104710451F00C2D1D2D2E2D3F2D21
S1131110B301A201CE0135DE81111DC08A869B86F2
S1131120AC86BD868E859F85A889B9898F3F2FEFB0
S11311309207A207B207C9F10197A109B1098E87E5
S11311409F87A88BB98B8D8181608D836C2D7D2DBC
S11311508E2D9F2D33C0813069F161E070E080E015
S113116090E02CC061E070E080E090E027C06FEF79
S11311707FEF8FEF9FEF22C06C2D7D2D8E2D9F2D45
S11311801DC060E070E080E090E018C06FEF7FEF7A
S11311908FEF9FEF13C061E070E080E090E00EC03D
S11311A060E070E080E090E009C06C2D7D2D8E2D14
S11311B09F2D04C06FEF7FEF8FEF9FEFDF91CF91F3
S11311C01F910F91FF90EF90DF90CF90BF90AF9061
S11311D09F908F907F906F905F904F903F902F9053
S11311E008957F928F929F92AF92BF92CF92DF9297
S11311F0EF92FF920F931F93CF93DF93DC0114962A
S1131200CD91DC911597219609F403C11E968D901A
S11312109D90AD90BC90519781149104A104B104A8
S113122009F4F9C07B018C016E01BFE0CB22DD24FF
S1131230C114D10409F0D1C0EFEF8E1A9E0AAE0A90
S1131240BE0ADC011E968D929D92AD92BC9251977E
S11312501A964D915D916D917C911D9741155105A3
S11312606105710549F4ED91FC9180859185C8175C
S1131270D90708F0D2C0B1C0DC01ED91FC91228104
S113128030E021503109CE01929582958F708927E3
S11312909F70892728233923232B09F09EC0CF016F
S11312A0D2DB4B015C01623071058105910508F4C4
S11312B0B6C06F3F7F4F8F4F9F4F09F4B2C0D80124
S11312C0ED91FC9182899389A489B5898816990640
S11312D0AA06BB0608F470C0EF2809F4A4C0D8011C
S11312E01A964D915D916D917C911D97CF016ADEA7
S11312F04B015C01611571058105910509F495C0E7
S1131300613071058105910509F491C06F3F7F4FEC
S11313108F4F9F4F09F48DC0D8018D919C910E94ED
S11313200601811188C0F80180819181FC01BE967B
S1131330825D9D4F1192E817F907E1F7D801ED900E
S1131340FC90B501A401C70150DBF70162A773A7A4
S113135084A795A7E12CF12C7724739419C0748287
S1131360D8018D919C910E940601811166C0D8011B
S1131370ED91FC9182A593A5A4A5B5A50196A11D07
S1131380B11D82A793A7A4A7B5A7BFEFEB1AFB0AC9
S1131390D801ED91FC91828190E0E816F906F8F20B
S11313A082A593A5A4A5B5A58E199F09A109B10984
S11313B082A793A7A4A7B5A7F80182869386A486DB
S11313C0B586B501A401808191810FDBD8011E96F9
S11313D06D937D938D939C935197F801D583C4832A
S11313E0CC0CDD1CCC0CDD1CCC0CDD1CCC0CDD1CB5
S11313F0CC0CDD1CFEE2CF0ED11CD8018D919C914A
S11314001197C80ED91E5396DC92CE92529780E063
S113141015C084E013C084E011C084E00FC082E0F2
S11314200DC081E00BC084E009C087E007C082E002
S113143005C081E003C081E001C081E0DF91CF916C
S11314401F910F91FF90EF90DF90CF90BF90AF90DE
S11314509F908F907F9008952F923F924F925F922A
S11314606F927F928F929F92AF92BF92CF92DF92B0
S1131470EF92FF920F931F93CF93DF9300D01F92AD
S11314801F92CDB7DEB78C017B01DB018C918F32CB
S113149011F08C3519F4BFEFEB1AFB0AF801168230
S11314A0178210861186D7018C91803240F460E057
S11314B070E0C801ABDBF801138A128A44C1689456
S11314C0BB24B5F8A12C812C6894772473F8512C93
S11314D0612C7A825B820F2EF2E02F2EF2E03F2EF7
S11314E0F02D1D830C835982F7012C813D81AF01BE
S11314F081918F32E1F38C35D1F33D832C83F90153
S1131500A489B589FD01CD010B96B192E817F907BD
S1131510E1F73D832C83CA2CD82C2A2D382D472C57
S11315205980962C8A018C819D815D834C837C013A
S11315302F5F3F4FEC81FD816191FD83EC8361322C
S113154008F4E7C06F3209F4DDC06C3509F4DAC081
S11315506E3209F4C4C0C414D50408F0B4C00AC07F
S1131560990C990CCA80DB800F2EFBE04F2EF02DD6
S1131570512CDECF66230CF0B8C0F92DF3609F2EFA
S1131580E62FF0E0E057FE4F6081AFC081918823E1
S113159009F4B2C090E048175907C1F786E0D3C0F8
S11315A0892D8260982E08C08FE9860F8A3120F435
S11315B0992D9160992E6052FD01EC0DFD1D608303
S11315C0F60131966F01B4CFCD2809F47EC09C9109
S11315D0953E11F4F5E0FC9398E04916510411F49A
S11315E0990C990C992D9370913009F48061992D7F
S11315F09C70943009F488601B968C936A2D782D26
S11316008C819D8103DB811193C00C811D81D801E4
S11316101E964D915D916D917C9151978D919C9108
S11316200E947101811186C0F80142895389DA014F
S11316309C919923E9F01B969C9193FD12C06489B7
S11316407589FA01DB019A01255F3F4F680104C0E7
S1131650E217F30709F464C011919D911917C1F3BE
S113166086016A2D782DC801BCDD882381F262C011
S11316700488F589E02D938592FD29C085E063C037
S1131680FA01838584FF25C0828D938DA0E0B0E0AC
S1131690EC81FD8120813181F9012081233061F4C5
S11316A0FA014489558960E070E0BA01552744275E
S11316B0842B952BA62BB72BEC81FD8186839783F6
S11316C0A087B18711CF86E03EC086E03CC084E0AD
S11316D03AC085E038C086E036C086E034C0F8E021
S11316E04F16510409F43CCFF6CF462F50E0423256
S11316F0510599F3F1014ACF8FEB860F8A3108F433
S11317004FCF52CFFD82EC827801E20EF31E862D7C
S11317105BCFFD82EC827801E20EF31E84E054CFAD
S1131720DD82CC82DB011B969C9192FFA9CF0BC07A
S11317300C811D81D8015496ED91FC9155979385A8
S1131740843009F499CF0F900F900F900F900F9061
S1131750DF91CF911F910F91FF90EF90DF90CF9089
S1131760BF90AF909F908F907F906F905F904F90BD
S11317703F902F9008951F93CF93DF9300D000D014
S1131780CDB7DEB79C838B837E836D83142F7A83DE
S11317906983CE0101960E94CF00992334F1FC01A4
S11317A0EE0FFF1FEE54FB4F0190F081E02D3097B8
S11317B009F01082EB81FC813097E9F010822B81D3
S11317C03C81880F991FFC01EE54FB4F3183208329
S11317D0232B69F0113069F440E0BE016B5F7F4F49
S11317E0CE0103960E940D020EC08BE00CC080E077
S11317F00AC080E008C0880F991FFC01EE54FB4F1B
S11318001182108280E026960FB6F894DEBF0FBED8
S1131810CDBFDF91CF911F9108954F925F926F9248
S11318207F928F929F92BF92CF92DF92EF92FF921C
S11318300F931F93CF93DF93CDB7DEB7E0970FB627
S1131840F894DEBF0FBECDBF7CA36BA3009709F451
S113185090C1142F7C01DC011D921C924E71BE01BB
S11318606D5D7F4FCE0101960E940D028111C2C1B0
S1131870B12FBF71BB2ECE0147969E8B8D8B6BA172
S11318807CA14697E9DDCB88DC88811174C1C11441
S1131890D10409F075C179C1843009F097C160E0C1
S11318A070E0CE010196B2D98111A1C14F8558894A
S11318B069897A8989819A810E947101811197C10C
S11318C0EB89FC898081853E51F0882341F061E0F9
S11318D070E0CE01019685DC882341F388C14F85F1
S11318E0588969897A8989819A810E947101811153
S11318F06DC1EB89FC89CF0180961192E817F90735
S1131900E1F76D897E894BE050E08B899C890E94C8
S1131910A300E981FA8181E08483EB2DE860BE2E87
S1131920CB88DC8808C0D6011B968C91817109F0A4
S113193031C112FD31C1B3FECBC080E090E0A5E817
S1131940B8E4F60186879787A08BB18B868B978B3B
S1131950A08FB18F1386D601148E158E168E178E16
S113196089809A80828D938D2C01612C712CF401D5
S11319708081833069F454968D919C915597A0E0B1
S1131980B0E0DC0199278827482A592A6A2A7B2A49
S1131990D6015B961C921E925A9755961C921E92E3
S11319A0549781E0F4018483411451046104710467
S11319B009F48EC022A533A544A555A52DA73EA79D
S11319C04FA758ABB2E04B1651046104710408F4FC
S11319D0E8C082899389A489B589481659066A069C
S11319E07B0608F0E0C049A65AA66BA67CA645C0B3
S11319F049A55AA56BA57CA5C40125D86DA37EA3D2
S1131A008FA398A7611571058105910509F444C058
S1131A10613071058105910509F4C7C06F3F7F4F9F
S1131A208F4F9F4F09F4C3C000E010E0980149A50F
S1131A305AA56BA57CA5C401A4D98111B9C0F40130
S1131A4086859785A089B1898F3FFFEF9F07AF07F0
S1131A50BF0759F00196A11DB11DF4018687978730
S1131A60A08BB18B8581816085832DA13EA14FA17F
S1131A7058A529A73AA74BA75CA7F40182899389A3
S1131A80A489B58929A53AA54BA55CA528173907CA
S1131A904A075B0708F4ACCF89819A81B301A2019C
S1131AA04150510961097109DC011A964D935D9306
S1131AB06D937C931D974DA55EA56FA578A90E9493
S1131AC07101882339F096C011FF02C080FD74C0F3
S1131AD0B3FE03C0BB2DB062BB2EE981FA8182A59F
S1131AE093A5A4A5B5A5F701828F938FA48FB58F75
S1131AF0D78EC68ED7011496BC92149715961C9255
S1131B0089809A80F601828D938DA0E0B0E0F40183
S1131B102081233061F4F6014489558960E070E046
S1131B20BA0155274427842B952BA62BB72BF701F5
S1131B3086879787A08BB18BF601848D958DA68DB2
S1131B40B78DF70182879387A487B587168217829A
S1131B5010861186168A178A108E118E91828082C1
S1131B60D40116968D919C9117979383828380E07C
S1131B7041C089E03FC0412F4C7109F08DCE1FC098
S1131B80812F8C7109F0CFCE27C0412F4C71D9F42D
S1131B9086E015C087E001C088E0882309F498CF67
S1131BA029C082E005C082E003C082E001C081E078
S1131BB0882309F48FCF1EC087E001C084E0882306
S1131BC009F498CF17C086E001C087E0BB2DB86048
S1131BD0BB2ECB88DC88F3CFF601838584FDEECF62
S1131BE073CFFB2DF860BF2ECB88DC88E8CF843020
S1131BF061F3F7CFE0960FB6F894DEBF0FBECDBF0A
S1131C00DF91CF911F910F91FF90EF90DF90CF90D4
S1131C10BF909F908F907F906F905F904F900895AA
S1131C202F923F924F925F926F927F928F929F92E8
S1131C30AF92BF92CF92DF92EF92FF920F931F93D6
S1131C40CF93DF93EC014B016A015901F901118231
S1131C5010820E94E80181116BC18D81811168C1DC
S1131C608C8181FF64C18E819F81A885B985AC0177
S1131C70BD014C0D5D1D611D711D481759076A0793
S1131C807B0708F43EC1C114D10409F43AC14E8162
S1131C905F8168857985DB01CA019170AA27BB271A
S1131CA0892B8A2B8B2B09F0E6C0E881F9811281FC
S1131CB01150DB01CA01072E79E0B695A7959795D7
S1131CC087957A95D1F7702D182309F040C0452BDC
S1131CD0462B472B79F46E857F8588899989611510
S1131CE071058105910591F440E050E0BA01CF01FE
S1131CF069D906C04A895B896C897D89CF0162D91B
S1131D00611571058105910509F4FBC06130710508
S1131D108105910519F482E08D830AC16F3FFFEFBD
S1131D207F078F079F0719F481E08D8301C16A8BB8
S1131D307B8B8C8B9D8B4E845F8468887988452847
S1131D404628472821F46E877F87888B998BE88102
S1131D50F98142A553A564A575A58E899F89A88D8F
S1131D60B98D481759076A077B0741F4CF010E94D0
S1131D700601882319F081E08D83DAC02880398038
S1131D804A895B896C897D89C1010E94F5046115CA
S1131D9071058105910519F482E08D83C9C02B0179
S1131DA03C01410E511C611C711C7601EF2CFF2477
S1131DB0E694E114F10409F43FC0F1014281242FB7
S1131DC030E0C701810F911D2817390718F47901F4
S1131DD0E11AF1088701A3019201B401F1018181A3
S1131DE00E94B430882319F081E08D83A1C0E8817A
S1131DF0F98182A593A5A4A5B5A584199509A60979
S1131E00B709A70160E070E084179507A607B70734
S1131E1078F4982F8827990FB401680F791F40E050
S1131E2052E0CF018E960E94A300E881F9811482CA
S1131E30FE2CEE24FF0C4CC04E815F8168857985B1
S1131E408A859B85AC85BD85481759076A077B073A
S1131E5070F0C1010E940601882319F081E08D838E
S1131E6067C0E881F98142A653A664A675A64E8A86
S1131E705F8A688E798E2E813F81317080E092E096
S1131E80821B930B76018C159D0508F47C014E8909
S1131E905F89688D798D888199810E947101882379
S1131EA019F081E08D8344C08E819F81A885B98516
S1131EB09170AA27BB278E9628813981A701B40186
S1131EC0820F931F0E94A300E881F98121E02483FB
S1131ED08E0C9F1C8E819F81A885B9858E0D9F1DB8
S1131EE0A11DB11D8E839F83A887B987F5018081C9
S1131EF091818E0D9F1D91838083CE18DF0809F098
S1131F00C6CE8E819F81A885B9854A855B856C85FF
S1131F107D85481759076A077B0720F48A879B87C2
S1131F20AC87BD878C8180628C8380E001C087E0B0
S1131F30DF91CF911F910F91FF90EF90DF90CF90A1
S1131F40BF90AF909F908F907F906F905F904F90D5
S1131F503F902F9008950F931F93CF93DF93EC013D
S1131F600E94E801982F811198C08C8185FF95C04B
S1131F704A8D5B8D6C8D7D8D888199810E94710164
S1131F80982F81118AC0EE8DFF8D838580628387AF
S1131F908A859B85AC85BD85848F958FA68FB78FE9
S1131FA08E859F85A889B989938F828FB58BA48BE1
S1131FB080E090E0A5E8B8E4868B978BA08FB18F82
S1131FC0138A128A8C818F7D8C83E881F98181E068
S1131FD084830990D881C02DCE010E940601982FD8
S1131FE081115BC08881833009F04DC08D818130BF
S1131FF009F049C0BE01625D7F4FFB01CE01825DE5
S11320009D4F1192E817F907E1F785E59AEAFE0179
S1132010E45DFD4F9183808382E592E5A1E6B1E41E
S11320208EA79FA7A8ABB9AB82E792E7A1E4B1E67C
S11320307A9780839183A283B3838E859F85A889B1
S1132040B989349680839183A283B3838A859B85DF
S1132050AC85BD85349680839183A283B3838A8DB6
S11320609B8DAC8DBD8D9C01AD012F5F3F4F4F4FBC
S11320705F4F2AA73BA74CA75DA701E010E0898129
S11320800E94B4301D8240E050E060E089810E94EB
S1132090163191E0811101C090E0892FDF91CF9139
S11320A01F910F910895CF93DF93EC0154DF8111B9
S11320B007C0CE010E94E801811102C01982188272
S11320C0DF91CF9108952F923F924F925F926F923A
S11320D07F928F929F92AF92BF92CF92DF92EF92B4
S11320E0FF920F931F93CF93DF9300D01F92CDB72E
S11320F0DEB71C016A017B010E94E801811183C1E2
S1132100D10115968C91159781117DC11A968D91E7
S11321109D910D90BC91A02D8C159D05AE05BF051C
S113212030F4F101248121FD02C06C017D01D10153
S113213016964D905D906D907C901997F1011682E2
S1132140178210861186C114D104E104F10409F444
S113215057C100811181D80112968C90912CA12C29
S1132160B12C072E79E0880C991CAA1CBB1C7A950B
S1132170D1F7702D411451046104710409F43FC076
S1132180B1E04B1A510861087108C701B6016150EA
S1132190710981099109A50194010E945133298390
S11321A03A834B835C83C301B201A50194010E946D
S11321B0513389819A81AB81BC8182179307A4072B
S11321C0B507E8F088279927DC0188199909AA0935
S11321D0BB09482259226A227B22D10116964D92CC
S11321E05D926D927C921997C418D508E608F70899
S11321F052964D915D916D917C91559732C0F1014C
S113220046855785608971894115510561057105B8
S113221019F540E050E0BA01C8010E94E207AB01A1
S1132220BC01413051056105710529F482E0D101F9
S113223015968C93E8C04F3FBFEF5B076B077B0796
S113224021F481E0F1018583DEC0D1011E964D9316
S11322505D936D937C935197F101428B538B648B07
S1132260758B411551056105710509F494C08C14F1
S11322709D04AE04BF0408F05CC0D10114968C9197
S1132280149781FF0CC08D919C910E94E207AB01D1
S1132290BC01411551056105710541F448C0F101C6
S11322A0808191810E942305AB01BC014F3FFFEF68
S11322B05F076F077F0729F481E0D10115968C939E
S11322C0A2C0423051056105710560F0D101ED9164
S11322D0FC9182899389A489B589481759076A07AB
S11322E07B0720F082E0F10185838DC0D1015296F5
S11322F04D935D936D937C93559716968D919D9117
S11323000D90BC91A02D880D991DAA1DBB1DF10136
S113231086839783A087B187C818D908EA08FB0881
S11323208C149D04AE04BF0408F4A7CF02C0750149
S11323306401F10186819781A085B1858C0D9D1D75
S1132340AE1DBF1D86839783A087B187D701C601C1
S11323509170AA27BB27892B8A2B8B2B01F18081B3
S113236091810E94F504611571058105910529F497
S113237082E0D10115968C9346C00B2EB9E0F694F9
S1132380E794D794C794BA95D1F7B02DC60ED71E4B
S1132390E81EF91E07C0C12CD12C760103C0C12C44
S11323A0D12C7601F10186819781A085B185AC019C
S11323B0BD01517066277727452B462B472B69F0C3
S11323C046895789608D718D4C155D056E057F05B5
S11323D021F0C68AD78AE08EF18EF10142855385B9
S11323E064857585481759076A077B0758F48287FF
S11323F09387A487B58784818062848380E003C047
S113240080E001C080E00F900F900F900F90DF915B
S1132410CF911F910F91FF90EF90DF90CF90BF90DD
S1132420AF909F908F907F906F905F904F903F9070
S11324302F9008951F920F920FB60F9211240BB68E
S11324400F928F93EF93FF93EAE4F7E0019000205B
S1132450E9F78091C6003197808381E08093B604C8
S1132460FF91EF918F910F900BBE0F900FBE0F90C5
S11324701F9018951F920F920FB60F9211240BB64E
S11324800F928F93EF93FF93E6EEF6E00190002016
S1132490E9F78091CE003197808381E08093B50481
S11324A0FF91EF918F910F900BBE0F900FBE0F9085
S11324B01F9018951F920F920FB60F9211248F93AD
S11324C09F9381E08093B4048BE791EE9093850011
S11324D0809384009F918F910F900FBE0F901F9057
S11324E01895EAE7F0E087E8808384E080937C0035
S11324F0808180648083808184FFFDCF6091780037
S11325007091790080E090E00E94603220E030E039
S113251041E653E40E94EE3220E030E040E85BE321
S11325200E94EE3220E030E048E652E40E94CA31D4
S11325300E942F32CB010895CF92DF92EF92FF9247
S1132540EAE7F0E087E8808310927C008081806471
S11325508083808184FFFDCF809178009091790001
S1132560009799F16C01CC0CDD1CCC0CDD1CC80E61
S1132570D91E0D2C000CEE08FF0880E094E1A0E0C9
S1132580B0E09C01AD012C193D094E095F09A8E496
S1132590B6E20E949733A70196010E947333A4E622
S11325A0B0E00E94973328EC39E140E050E00E940B
S11325B07333DA01C9014B97A109B1094AF087398C
S11325C09105A105B1053CF408C08EEF9FEF05C04D
S11325D08EEF9FEF02C08FEF9FEFFF90EF90DF90A1
S11325E0CF900895CF92DF92EF92FF92EAE7F0E066
S11325F087E8808381E080937C008081806480838D
S1132600808184FFFDCF80917800909179000097BC
S1132610D9F16C01CC0CDD1CCC0CDD1CC80ED91E10
S11326200D2C000CEE08FF0880E094E1A0E0B0E07F
S11326309C01AD012C193D094E095F09ACEBBDE4C9
S11326400E949733A70196010E947333A8EEB3E06A
S11326500E94973326E83DE340E050E00E94733344
S1132660CA01B90125E030E040E050E00E94733334
S1132670DA01C9018A97A109B1094AF0873991059C
S1132680A105B1053CF408C08EEF9FEF05C08EEFA5
S11326909FEF02C08FEF9FEFFF90EF90DF90CF90FE
S11326A00895CF92DF92EF92FF92EAE7F0E087E895
S11326B0808382E080937C00808180648083808139
S11326C084FFFDCF8091780090917900009799F173
S11326D06C01CC0CDD1CCC0CDD1CC80ED91E0D2CE1
S11326E0000CEE08FF0880E094E1A0E0B0E09C015B
S11326F0AD012C193D094E095F09ACEAB6E20E940E
S11327009733A70196010E947333A4E6B0E00E94B8
S1132710973320ED37E040E050E00E947333DA0154
S1132720C9010997A109B1094AF087399105A105A1
S1132730B1053CF408C08EEF9FEF05C08EEF9FEF0C
S113274002C08FEF9FEFFF90EF90DF90CF9008953E
S1132750CF92DF92EF92FF92EAE7F0E087E880837E
S113276083E080937C00808180648083808184FF07
S1132770FDCF80917800909179000097A1F16C01D0
S1132780CC0CDD1CCC0CDD1CC80ED91E0D2C000C91
S1132790EE08FF0880E094E1A0E0B0E09C01AD0108
S11327A02C193D094E095F09A0E9BCE40E94973346
S11327B0A70196010E947333A8ECB0E00E949733FE
S11327C026E330E140E050E00E947333DA01C901AE
S11327D088579109A109B1094AF0813A9105A105E7
S11327E0B1053CF408C08EEF9FEF05C08EEF9FEF5C
S11327F002C08FEF9FEFFF90EF90DF90CF9008958E
S113280081309105B9F01CF4892B39F00895823098
S11328109105E9F0039741F1089588E98093C10097
S113282086E08093C20083E390E09093C500809398
S1132830C400089588E98093C90086E08093CA00A3
S113284083E390E09093CD008093CC00089588E9D1
S11328508093D10086E08093D20083E390E090934C
S1132860D5008093D400089588E98093310186E0EF
S11328708093320183E390E0909335018093340197
S11328800895CF93DF93DB0181309105D1F01CF4DF
S1132890892BF9F079C08230910559F0039709F03A
S11328A073C0AB0120E030E0E0E3F1E066E371E007
S11328B061C0AB0120E030E0E0EDF0E066ED70E0F7
S11328C044C0AB0120E030E0E8ECF0E06EEC70E0F6
S11328D027C0AB0120E030E0E0ECF0E066EC70E013
S11328E00AC0808185FFFDCFEA018991AE01EB0129
S11328F088832F5F3F4FED0109900020E9F721976E
S1132900CA1BDB0B2C173D0760F33EC0808185FF9B
S1132910FDCFEA018991AE01EB0188832F5F3F4F20
S1132920ED0109900020E9F72197CA1BDB0B2C1756
S11329303D0760F329C0808185FFFDCFEA018991BD
S1132940AE01EB0188832F5F3F4FED01099000201A
S1132950E9F72197CA1BDB0B2C173D0760F314C062
S1132960808185FFFDCFEA018991AE01EB01888367
S11329702F5F3F4FED0109900020E9F72197CA1B13
S1132980DB0B2C173D0760F3DF91CF910895EF9295
S1132990FF920F931F93CF93DF931F921F92CDB794
S11329A0DEB77C018B0142E160E972E0C8010E945C
S11329B00D0C882329F06DE972E083E090E061DF7B
S11329C0F8014285538564857585C8017CDBF70170
S11329D001900020E9F73197AF014E195F099E017C
S11329E02F5F3F4FB701C8011BD9C8015CDB0F90B3
S11329F00F90DF91CF911F910F91FF90EF90089569
S1132A002F923F924F925F926F927F928F929F92FA
S1132A10AF92BF92CF92DF92EF92FF920F931F93E8
S1132A20CF93DF93CDB7DEB7C054D1090FB6F89476
S1132A30DEBF0FBECDBFFC012181273409F0E2C106
S1132A405B017C01412C512C812C912CC12CD12C6B
S1132A5000E010E01E01F1E12F0E311C9E01215F08
S1132A603F4F3CA72BA7CE010D969EA78DA73E01F5
S1132A7097E1690E711CFE013996F8ABEFA724505B
S1132A8031093AAB29ABCE0107969CAB8BAB34979B
S1132A90FEABEDAB2850310938AF2FAB0E969AAF91
S1132AA089AF3E96FCAFEBAFF701E00FF11F8081D9
S1132AB08C3209F02DC1FFEFCF1ADF0A98012F5F86
S1132AC03F4FF6013197E930F10508F024C188271A
S1132AD0EE58FF4F8F4F0C948F33F701E20FF31F23
S1132AE080818C3209F0E8C08901F8C0F701E20F57
S1132AF0F31F80818F8BF701E00FF11F8281888F94
S1132B008AE3898F93819A8F94819B8F8C8F85819F
S1132B108D8FF8013696EE0DFF1D095F1F4F8081E2
S1132B208E8F1F8E2EA92F933DA93F9388AD8F932F
S1132B309FA99F93E1E0F0E0EC0FFD1FFF93EF935B
S1132B4081EC92E09F938F937F926F920E94EE3379
S1132B5089819A810FB6F894DEBF0FBECDBF87304E
S1132B60910524F007979A8389839ECF41969A838F
S1132B7089839ACFF701E20FF31F80818F8BF701CE
S1132B80E00FF11F8281888F8EE2898F83818A8F83
S1132B9084818B8F85818C8F86818D8F87818E8FA9
S1132BA080858F8FF8013996EE0DFF1D065F1F4F4C
S1132BB0808188A319A238A93F938FA58F939AA9DE
S1132BC09F93E9A9EF93FCA9FF932BA92F938AEC78
S1132BD092E09F938F937F926F920E94EE330FB691
S1132BE0F894DEBF0FBECDBF5FCF0E5F1F4FF7015E
S1132BF0E20FF31F91E080E020812E3409F490E08D
S1132C009DAF8EAF51CFF701E20FF31F80818F8B01
S1132C10F701E00FF11F8281888F8381898F8EE213
S1132C208A8F84818B8F85818C8F86818D8F87811C
S1132C308E8F80858F8F818588A3F8013A96EE0D5B
S1132C40FF1D055F1F4F808189A31AA23F922F9217
S1132C509CA59F93EBA5EF93FEA5FF932DA52F9322
S1132C608AEC92E09F938F937F926F920E94EE334F
S1132C700FB6F894DEBF0FBECDBF16CF0E5F1F4F49
S1132C80F701E20FF31F91E080E02081253409F47D
S1132C9090E09FAF21968FAF219706CF0E5F1F4F15
S1132CA0F701E20FF31F91E080E02081213309F066
S1132CB090E0492E582EF8CED301A80DB91D0E5F11
S1132CC01F4FF701E00FF11F8F010E191F098D939C
S1132CD09FEF891A990A81918C32B1F7F301E80DBB
S1132CE0F91D1082EAADEF93F9ADFF932CAD2F934C
S1132CF03BAD3F938DEC92E09F938F937F926F92C5
S1132D000E94EE330FB6F894DEBF0FBECDBFCCCE1B
S1132D100F5F1F4F01C089019CE0C916D1040CF458
S1132D20C3CEE1E04E165104B9F52DAD3EAD2130D0
S1132D30310509F061C021968EAD9FAD2197892B95
S1132D40B1F48F81988591958195910998878F83A6
S1132D5023C02196EEADFFAD21973197E9F48D851F
S1132D609E859195819591099E878D8715C02196A1
S1132D702EAD3FAD21972130310571F48F819885B7
S1132D8091958195910998878F838D859E859195DD
S1132D90819591099E878D8789819A81F501918317
S1132DA080838B819C81938382838D819E81958393
S1132DB084838F819885978386838B859C8591876F
S1132DC0808789859A85938782878D859E85958757
S1132DD084878F8598899787868789899A89918B33
S1132DE0808B538A428A8B899C89958B848B8D89AD
S1132DF09E89978B868B06C02DAD3EAD232B09F49F
S1132E00A8CFCACFC05CDF4F0FB6F894DEBF0FBEA9
S1132E10CDBFDF91CF911F910F91FF90EF90DF9085
S1132E20CF90BF90AF909F908F907F906F905F9066
S1132E304F903F902F9008950F931F93CF93DF935C
S1132E4000D01F92CDB7DEB78B019E012D5F3F4F9F
S1132E503F932F93225031093F932F9323ED32E078
S1132E603F932F939F938F930E94EE3389819A818E
S1132E70F801918380838B819C81938382830FB635
S1132E80F894DEBF0FBECDBF0F900F900F900F9040
S1132E90DF91CF911F910F910895FC0101900020C3
S1132EA0E9F73197E81BF90B1E161F0634F4E80FF7
S1132EB0F91F1292E817F907E1F7089569ED72E036
S1132EC081E090E0DEDC6AEE72E081E090E0D9DC43
S1132ED06DEF72E081E090E0D4CC0895CF93DF935E
S1132EE0CDB7DEB7CC5ED5400FB6F894DEBF0FBECB
S1132EF0CDBF10BA8EEE98E2CF5DDE4F9983888302
S1132F00C152D1408AEE95E2CD5DDE4F998388832C
S1132F10C352D14087E393E2CB5DDE4F998388832C
S1132F20C552D1408AEC90E2C95DDE4F9983888313
S1132F30C752D1408AE99EE1C75DDE4F99838883F9
S1132F40C952D1408FE99CE1C55DDE4F99838883E6
S1132F50CB52D14084ED9AE1C35DDE4F99838883DF
S1132F60CD52D14081E399E1C15DDE4F99838883DD
S1132F70CF52D14084EB97E1CF5CDE4F99838883B5
S1132F80C153D14086E596E1CD5CDE4F99838883B9
S1132F90C353D14086E195E1CB5CDE4F99838883AE
S1132FA0C553D1408FEE93E1C95CDE4F998388838A
S1132FB0C753D1408FED92E1C75CDE4F998388837C
S1132FC0C953D14085EE91E1C55CDE4F9983888376
S1132FD0CB53D1408DEF90E1C35CDE4F998388835E
S1132FE0CD53D14085E290E1C15CDE4F9983888363
S1132FF0CF53D1408EE59FE0CF5BDE4F998388832A
S1133000C154D14084EA9EE0CD5BDE4F998388832E
S1133010C354D14087EF9DE0CB5BDE4F9983888317
S1133020C554D14085E59DE0C95BDE4F9983888313
S1133030C754D1408EEB9CE0C75BDE4F99838883F5
S1133040C954D14081E39CE0C55BDE4F99838883FA
S1133050CB54D1406CEA7BE0C35BDE4F7983688359
S1133060CD54D14080E39BE0C15BDE4F99838883DC
S1133070CF54D1408BEB9AE0CF5ADE4F99838883AB
S1133080C155D1408DE49AE0CD5ADE4F99838883AF
S1133090C355D14085EE99E0CB5ADE4F998388839E
S11330A0C555D14083E899E0C95ADE4F9983888396
S11330B0C755D14087E299E0C75ADE4F9983888388
S11330C0C955D14080ED98E0C55ADE4F9983888375
S11330D0CB55D1408DE798E0C35ADE4F998388835E
S11330E0CD55D1408FE298E0C15ADE4F9983888351
S11330F0CF55D14085EE97E0CF59DE4F9983888331
S1133100C156D1408FE997E0CD59DE4F998388832A
S1133110C356D1408CE597E0CB59DE4F9983888321
S1133120C556D1408DE197E0C959DE4F9983888314
S1133130C756D14080EE96E0C759DE4F9983888305
S1133140C956D14087EA96E0C559DE4F99838883F2
S1133150CB56D14080E796E0C359DE4F99838883EC
S1133160CD56D1408CE396E0C159DE4F99838883D4
S1133170CF56D1408AE096E0CF58DE4F99838883BA
S1133180C157D1408BED95E0CD58DE4F99838883AC
S1133190C357D1408EEA95E0CB58DE4F998388839C
S11331A0C557D14082E895E0C958DE4F998388839A
S11331B0C757D14089E595E0C758DE4F9983888386
S11331C0C957D14081E395E0C558DE4F9983888380
S11331D0CB57D1408BE095E0C358DE4F9983888369
S11331E0CD57D14086EE94E0C158DE4F9983888351
S11331F0CF57D14084EC94E0CF57DE4F9983888336
S1133200C158D14082EA94E0CD57DE4F9983888338
S1133210C358D14082E894E0CB57DE4F998388832A
S1133220C558D14083E694E0C957DE4F998388831B
S1133230C758D14085E494E0C757DE4F998388830B
S1133240C958D14089E294E0C557DE4F99838883F9
S1133250CB58D1408DE094E0C357DE4F99838883E7
S1133260CD58D14083EF93E0C157DE4F99838883D3
S1133270CF58D14089ED93E0CF56DE4F99838883B0
S1133280C159D14081EC93E0CD56DE4F99838883B8
S1133290C359D14089EA93E0CB56DE4F99838883A2
S11332A0C559D14082E993E0C956DE4F998388839A
S11332B0C759D1408CE793E0C756DE4F9983888382
S11332C0C959D14087E693E0C556DE4F9983888378
S11332D0CB59D14083E593E0C356DE4F998388836D
S11332E0CD59D1408FE393E0C156DE4F9983888353
S11332F0CF59D1408CE293E0CF55DE4F9983888338
S1133300C15AD14089E193E0CD55DE4F998388833A
S1133310C35AD14087E093E0CB55DE4F998388832D
S1133320C55AD14086EF92E0C955DE4F9983888310
S1133330C75AD14085EE92E0C755DE4F9983888302
S1133340C95AD14085ED92E0C555DE4F99838883F3
S1133350CB5AD14086EC92E0C355DE4F99838883E3
S1133360CD5AD14086EB92E0C155DE4F99838883D4
S1133370CF5AD14088EA92E0CF54DE4F99838883B4
S1133380C15BD1408BE992E0CD54DE4F99838883B1
S1133390C35BD1408CE892E0CB54DE4F99838883A1
S11333A0C55BD1408EE792E0C954DE4F9983888390
S11333B0C75BD14081E792E0C754DE4F998388838D
S11333C0C95BD14085E692E0C554DE4F998388837A
S11333D0CB5BD14089E592E0C354DE4F9983888367
S11333E0CD5BD1408DE492E0C154DE4F9983888354
S11333F0CF5BD14081E492E0CF53DE4F9983888341
S1133400C15CD14086E392E0CD53DE4F998388833B
S1133410C35CD1408BE292E0CB53DE4F9983888327
S1133420C55CD14081E292E0C953DE4F9983888321
S1133430C75CD14086E192E0C753DE4F998388830D
S1133440C95CD1408CE092E0C553DE4F99838883F8
S1133450CB5CD14083E092E0C353DE4F99838883F1
S1133460CD5CD14089EF91E0C153DE4F99838883CD
S1133470CF5CD14080EF91E0CF52DE4F99838883B7
S1133480C15DD14087EE91E0CD52DE4F99838883B0
S1133490C35DD1408EED91E0CB52DE4F998388839A
S11334A0C55DD14086ED91E0C952DE4F9983888392
S11334B0C75DD1408DEC91E0C752DE4F998388837C
S11334C0C95DD14085EC91E0C552DE4F9983888374
S11334D0CB5DD1404EEB51E0C352DE4F598348835C
S11334E0CD5DD14026EB31E0C152DE4F39832883D4
S11334F0CF5DD1408EEA91E0CF51DE4F998388832E
S1133500C15ED140E7EAF1E0CD51DE4FF983E883B3
S1133510C35ED140E0EAF1E0CB51DE4FF983E883AA
S1133520C55ED140E9E9F1E0C951DE4FF983E88392
S1133530C75ED140E2E9F1E0C751DE4FF983E88389
S1133540C95ED140ECE8F1E0C551DE4FF983E88370
S1133550CB5ED140E5E8F1E0C351DE4FF983E88367
S1133560CD5ED140EFE7F1E0C151DE4FF983E8834E
S1133570CF5ED140E9E7F1E0CF50DE4FF983E88335
S1133580C15FD140E3E7F1E0CD50DE4FF983E8833A
S1133590C35FD140EDE6F1E0CB50DE4FF983E88321
S11335A0C55FD140E7E6F1E0C950DE4FF983E88317
S11335B0C75FD140E2E6F1E0C750DE4FF983E8830C
S11335C0C95FD140ECE5F1E0C550DE4FF983E883F3
S11335D0CB5FD140E7E5F1E0C350DE4FF983E883E8
S11335E0CD5FD140E2E5F1E0C150DE4FF983E883DD
S11335F0CF5FD140EDE4F1E0CF5FDD4FF983E883A5
S1133600C150D240E8E4F1E0CD5FDD4FF983E883B7
S1133610C350D240E3E4F1E0CB5FDD4FF983E883AC
S1133620C550D240EEE3F1E0C95FDD4FF983E88392
S1133630C750D240E9E3F1E0C75FDD4FF983E88387
S1133640C950D240E5E3F1E0C55FDD4FF983E8837B
S1133650CB50D240E0E3F1E0C35FDD4FF983E88370
S1133660CD50D240ECE2F1E0C15FDD4FF983E88355
S1133670CF50D240E8E2F1E0CF5EDD4FF983E8833A
S1133680C151D240E4E2F1E0CD5EDD4FF983E8833D
S1133690C351D240EFE1F1E0CB5EDD4FF983E88323
S11336A0C551D240EBE1F1E0C95EDD4FF983E88317
S11336B0C751D240E7E1F1E0C75EDD4FF983E8830B
S11336C0C951D240E4E1F1E0C55EDD4FF983E883FE
S11336D0CB51D240E0E1F1E0C35EDD4FF983E883F2
S11336E0CD51D240ECE0F1E0C15EDD4FF983E883D7
S11336F0CF51D240E9E0F1E0CF5DDD4FF983E883BB
S1133700C152D240E5E0F1E0CD5DDD4FF983E883BD
S1133710C352D240E1E0F1E0CB5DDD4FF983E883B1
S1133720C552D240EEEFF0E0C95DDD4FF983E88386
S1133730C752D240EBEFF0E0C75DDD4FF983E88379
S1133740C952D240E7EFF0E0C55DDD4FF983E8836D
S1133750CB52D240E4EFF0E0C35DDD4FF983E88360
S1133760CD52D240E1EFF0E0C15DDD4FF983E88353
S1133770CF52D240EEEEF0E0CF5CDD4FF983E88328
S1133780C153D240EBEEF0E0CD5CDD4FF983E8832A
S1133790C353D240E8EEF0E0CB5CDD4FF983E8831D
S11337A0C553D240E5EEF0E0C95CDD4FF983E88310
S11337B0C753D240E2EEF0E0C75CDD4FF983E88303
S11337C0C953D240EFEDF0E0C55CDD4FF983E883E7
S11337D0CB53D240ECEDF0E0C35CDD4FF983E883DA
S11337E0CD53D240EAEDF0E0C15CDD4FF983E883CC
S11337F0CF53D240E7EDF0E0CF5BDD4FF983E883B0
S1133800C154D240E4EDF0E0CD5BDD4FF983E883B1
S1133810C354D240E2EDF0E0CB5BDD4FF983E883A3
S1133820C554D240EFECF0E0C95BDD4FF983E88387
S1133830C754D240EDECF0E0C75BDD4FF983E88379
S1133840C954D240EAECF0E0C55BDD4FF983E8836C
S1133850CB54D240E8ECF0E0C35BDD4FF983E8835E
S1133860CD54D240EBE8F6E2C15BDD4FF983E88347
S1133870CF54D240EBE4F4E2CF5ADD4FF983E8832E
S1133880C155D240E8E3F2E2CD5ADD4FF983E88333
S1133890C355D240EFE4F0E2CB5ADD4FF983E8831D
S11338A0C555D240EBE8FEE1C95ADD4FF983E88300
S11338B0C755D240E8EEFCE1C75ADD4FF983E883EF
S11338C0C955D240E4E6FBE1C55ADD4FF983E883EC
S11338D0CB55D240ECEFF9E1C35ADD4FF983E883CD
S11338E0CD55D240EDEAF8E1C15ADD4FF983E883C2
S11338F0CF55D240E5E7F7E1CF59DD4FF983E883AF
S1133900C156D240E2E5F6E1CD59DD4FF983E883B3
S1133910C356D240E3E4F5E1CB59DD4FF983E883A4
S1133920C556D240E5E4F4E1C959DD4FF983E88393
S1133930C756D240E7E5F3E1C759DD4FF983E88381
S1133940C956D240E8E7F2E1C559DD4FF983E8836F
S1133950CB56D240E6EAF1E1C359DD4FF983E8835F
S1133960CD56D240E2EEF0E1C159DD4FF983E88350
S1133970CF56D240E9E2F0E1CF58DD4FF983E88336
S1133980C157D240EBE7FFE0CD58DD4FF983E88320
S1133990C357D240E7EDFEE0CB58DD4FF983E8830F
S11339A0C557D240ECE3FEE0C958DD4FF983E88304
S11339B0C757D240EAEAFDE0C758DD4FF983E883F0
S11339C0C957D240E0E2FDE0C558DD4FF983E883F2
S11339D0CB57D240EDE9FCE0C358DD4FF983E883CF
S11339E0CD57D240E2E2FCE0C158DD4FF983E883D1
S11339F0CF57D240CF57DD4F79836883C158D24027
S1133A0064ED7AE0CD57DD4F79836883C358D240A3
S1133A1060E77AE0CB57DD4F79836883C558D2409D
S1133A2061E17AE0C957DD4F79836883C758D24092
S1133A3066EB79E0C757DD4F79836883C958D24074
S1133A4060E679E0C557DD4F79836883CB58D2406F
S1133A506EE079E0C357DD4F79836883CD58D24057
S1133A6060EC78E0C157DD4F79836883CF58D2404A
S1133A7065E778E0CF56DD4F79836883C159D2403A
S1133A806EE278E0CD56DD4F79836883C359D24026
S1133A906AEE77E0CB56DD4F79836883C559D2400F
S1133AA069EA77E0C956DD4F79836883C759D24004
S1133AB06BE677E0C756DD4F79836883C959D240F6
S1133AC06FE277E0C556DD4F79836883CB59D240E6
S1133AD067EF76E0C356DD4F79836883CD59D240D2
S1133AE060EC76E0C156DD4F79836883CF59D240CC
S1133AF06CE876E0CF55DD4F79836883C15AD240B4
S1133B006AE576E0CD55DD4F79836883C35AD240A8
S1133B106AE276E0CB55DD4F79836883C55AD2409B
S1133B206CEF75E0C955DD4F79836883C75AD2407D
S1133B3060ED75E0C755DD4F79836883C95AD2407B
S1133B4066EA75E0C555DD4F79836883CB5AD24068
S1133B506DE775E0C355DD4F79836883CD5AD24054
S1133B6066E575E0C155DD4F79836883CF5AD2404D
S1133B7060E375E0CF54DD4F79836883C15BD24045
S1133B806CE075E0CD54DD4F79836883C35BD2402C
S1133B9069EE74E0CB54DD4F79836883C55BD24012
S1133BA067EC74E0C954DD4F79836883C75BD24006
S1133BB067EA74E0C754DD4F79836883C95BD240F8
S1133BC068E874E0C554DD4F79836883CB5BD240E9
S1133BD06AE674E0C354DD4F79836883CD5BD240D9
S1133BE06DE474E0C154DD4F79836883CF5BD240C8
S1133BF061E374E0CF53DD4F79836883C15CD240C5
S1133C0066E174E0CD53DD4F79836883C35CD240B1
S1133C106CEF73E0CB53DD4F79836883C55CD2408E
S1133C2063EE73E0C953DD4F79836883C75CD24088
S1133C306BEC73E0C753DD4F79836883C95CD24072
S1133C4063EB73E0C553DD4F79836883CB5CD2406B
S1133C506CE973E0C353DD4F79836883CD5CD24054
S1133C6067E873E0C153DD4F79836883CF5CD2404A
S1133C7061E773E0CF52DD4F79836883C15DD24041
S1133C806DE573E0CD52DD4F79836883C35DD24027
S1133C9069E473E0CB52DD4F79836883C55DD2401C
S1133CA066E373E0C952DD4F79836883C75DD24010
S1133CB063E273E0C752DD4F79836883C95DD24004
S1133CC061E173E0C552DD4F79836883CB5DD240F7
S1133CD060E073E0C352DD4F79836883CD5DD240E9
S1133CE06FEE72E0C152DD4F79836883CF5DD240BD
S1133CF06EED72E0CF51DD4F79836883C15ED240AF
S1133D006EEC72E0CD51DD4F79836883C35ED2409F
S1133D106FEB72E0CB51DD4F79836883C55ED2408F
S1133D2060EB72E0C951DD4F79836883C75ED2408E
S1133D3061EA72E0C751DD4F79836883C95ED2407E
S1133D4063E972E0C551DD4F79836883CB5ED2406D
S1133D5065E872E0C351DD4F79836883CD5ED2405C
S1133D6068E772E0C151DD4F79836883CF5ED2404A
S1133D706BE672E0CF50DD4F79836883C15FD24038
S1133D806EE572E0CD50DD4F79836883C35FD24026
S1133D9062E572E0CB50DD4F79836883C55FD24022
S1133DA066E472E0C950DD4F79836883C75FD2400F
S1133DB06BE372E0C750DD4F79836883C95FD240FB
S1133DC06FE272E0C550DD4F79836883CB5FD240E8
S1133DD065E272E0C350DD4F79836883CD5FD240E2
S1133DE06AE172E0C150DD4F79836883CF5FD240CE
S1133DF060E172E0CF5FDC4F79836883C150D340C8
S1133E0065E072E0CD5FDC4F79836883C350D340B3
S1133E106CEF71E0CB5FDC4F79836883C550D3408E
S1133E2062EF71E0C95FDC4F79836883C750D34088
S1133E3069EE71E0C75FDC4F79836883C950D34072
S1133E4060EE71E0C55FDC4F79836883CB50D3406B
S1133E5067ED71E0C35FDC4F79836883CD50D34055
S1133E606EEC71E0C15FDC4F79836883CF50D3403F
S1133E7066EC71E0CF5EDC4F79836883C151D34037
S1133E80CD5EDC4F59834883C351D340CB5EDC4FB6
S1133E9039832883C551D340C95EDC4F9983888315
S1133EA0C751D34086EA91E0C75EDC4F998388838B
S1133EB0C951D3408FE991E0C55EDC4F9983888373
S1133EC0CB51D34088E991E0C35EDC4F998388836A
S1133ED0CD51D34081E991E0C15EDC4F9983888361
S1133EE0CF51D3408AE891E0CF5DDC4F998388833A
S1133EF0C152D34083E891E0CD5DDC4F9983888340
S1133F00C352D3408CE791E0CB5DDC4F9983888327
S1133F10C552D34086E791E0C95DDC4F998388831D
S1133F20C752D34080E791E0C75DDC4F9983888313
S1133F30C952D3408AE691E0C55DDC4F99838883FA
S1133F40CB52D34084E691E0C35DDC4F99838883F0
S1133F50CD52D3408EE591E0C15DDC4F99838883D7
S1133F60CF52D34088E591E0CF5CDC4F99838883BE
S1133F70C153D34083E591E0CD5CDC4F99838883C2
S1133F80C353D3408DE491E0CB5CDC4F99838883A9
S1133F90C553D34088E491E0C95CDC4F998388839E
S1133FA0C753D34083E491E0C75CDC4F9983888393
S1133FB0C953D3408DE391E0C55CDC4F998388837A
S1133FC0CB53D34088E391E0C35CDC4F998388836F
S1133FD0CD53D34084E391E0C15CDC4F9983888363
S1133FE0CF53D3408FE291E0CF5BDC4F998388833A
S1133FF0C154D3408AE291E0CD5BDC4F998388833E
S1134000C354D34086E291E0CB5BDC4F9983888331
S1134010C554D34081E291E0C95BDC4F9983888326
S1134020C754D3408DE191E0C75BDC4F998388830B
S1134030C954D34088E191E0C55BDC4F9983888300
S1134040CB54D34084E191E0C35BDC4F99838883F4
S1134050CD54D34080E191E0C15BDC4F99838883E8
S1134060CF54D3408CE091E0CF5ADC4F99838883BE
S1134070C155D34088E091E0CD5ADC4F99838883C1
S1134080C355D34084E091E0CB5ADC4F99838883B5
S1134090C555D34080E091E0C95ADC4F99838883A9
S11340A0C755D3408DEF90E0C75ADC4F998388837E
S11340B0C955D34089EF90E0C55ADC4F9983888372
S11340C0CB55D34086EF90E0C35ADC4F9983888365
S11340D0CD55D34082EF90E0C15ADC4F9983888359
S11340E0CF55D3408FEE90E0CF59DC4F998388832E
S11340F0C156D3408BEE90E0CD59DC4F9983888331
S1134100C356D34028EE30E0CB59DC4F39832883A3
S1134110C556D34085EE90E0C959DC4F9983888316
S1134120C756D34082EE90E0C759DC4F9983888309
S1134130C956D3404EED50E0C559DC4F59834883EE
S1134140CB56D3404BED50E0C359DC4F59834883E1
S1134150CD56D34048ED50E0C159DC4F59834883D4
S1134160CF56D34046ED50E0CF58DC4F59834883B7
S1134170C157D34043ED50E0CD58DC4F59834883B9
S1134180C357D34040ED50E0CB58DC4F59834883AC
S1134190C557D3404DEC50E0C958DC4F5983488390
S11341A0C757D3404AEC50E0C758DC4F5983488383
S11341B0C957D34048EC50E0C558DC4F5983488375
S11341C0CB57D34040E150E1C358DC4F5983488377
S11341D0CD57D34047EA5DE0C158DC4F598348834B
S11341E0CF57D34049EC5BE0CF57DC4F598348832A
S11341F0C158D3404EE45AE0CD57DC4F598348832D
S1134200C358D3404CE159E0CB57DC4F5983488322
S1134210C558D34040E258E0C957DC4F598348831E
S1134220C758D3404EE457E0C757DC4F59834883FF
S1134230C958D3404CE956E0C557DC4F59834883ED
S1134240CB58D34045E056E0C357DC4F59834883ED
S1134250CD58D34043E855E0C157DC4F59834883D8
S1134260CF58D34042E155E0CF56DC4F59834883C1
S1134270C159D3404FEA54E0CD56DC4F59834883AB
S1134280C359D34048E554E0CB56DC4F59834883A7
S1134290C559D3404BE054E0C956DC4F5983488399
S11342A0C759D34047EC53E0C756DC4F5983488382
S11342B0C959D34049E853E0C556DC4F5983488374
S11342C0CB59D34042E553E0C356DC4F598348836E
S11342D0CD59D34040E253E0C156DC4F5983488363
S11342E0CF59D34043EF52E0CF55DC4F5983488335
S11342F0C15AD3404AEC52E0CD55DC4F5983488330
S1134300C35AD34044EA52E0CB55DC4F5983488327
S1134310C55AD34041E852E0C955DC4F598348831C
S1134320C75AD34042E652E0C755DC4F598348830D
S1134330C95AD34045E452E0C555DC4F59834883FC
S1134340CB5AD3404AE252E0C355DC4F59834883E9
S1134350CD5AD34041E152E0C155DC4F59834883E3
S1134360CF5AD3404AEF51E0CF54DC4F59834883AE
S1134370C15BD34044EE51E0CD54DC4F59834883B4
S1134380C35BD34040ED51E0CB54DC4F59834883A9
S1134390C55BD3404DEB51E0C954DC4F598348838E
S11343A0C75BD3404CEA51E0C754DC4F5983488380
S11343B0C95BD3404CE951E0C554DC4F5983488371
S11343C0CB5BD3404CE851E0C354DC4F5983488362
S11343D0CD5BD3404EE751E0C154DC4F5983488351
S11343E0CF5BD34040E751E0CF53DC4F5983488340
S11343F0C15CD34043E651E0CD53DC4F598348833D
S1134400C35CD34047E551E0CB53DC4F5983488329
S1134410C55CD3404CE451E0C953DC4F5983488315
S1134420C75CD34041E451E0C753DC4F5983488310
S1134430C95CD34047E351E0C553DC4F59834883FB
S1134440CB5CD3404DE251E0C353DC4F59834883E6
S1134450CD5CD34044E251E0C153DC4F59834883DF
S1134460CF5CD3404BE151E0CF52DC4F59834883BA
S1134470C15DD34043E151E0CD52DC4F59834883C1
S1134480C35DD3404BE051E0CB52DC4F59834883AA
S1134490C55DD34043E051E0C952DC4F59834883A2
S11344A0C75DD3404CEF50E0C752DC4F598348837B
S11344B0C95DD34045EF50E0C552DC4F5983488372
S11344C0CB5DD3404EEE50E0C352DC4F598348835A
S11344D0CD5DD340C152DC4F39832883CF5DD340B7
S11344E0CF51DC4F99838883C15ED3408CED90E03B
S11344F0CD51DC4F99838883C35ED34087ED90E030
S1134500CB51DC4F99838883C55ED34081ED90E025
S1134510C951DC4F99838883C75ED3408CEC90E00B
S1134520C751DC4F99838883C95ED3400F2EF7ECC3
S1134530AF2EB12CF02DC551DC4FB982A882CB5ED1
S1134540D34083EC90E0C351DC4F99838883CD5EE4
S1134550D3408EEB90E0C151DC4F99838883CF5ECA
S1134560D3408AEB90E0CF50DC4F99838883C15FBE
S1134570D34085EB90E0CD50DC4F99838883C35FB3
S1134580D34081EB90E0CB50DC4F99838883C55FA7
S1134590D3408EEA90E0C950DC4F99838883C75F8B
S11345A0D3408AEA90E0C750DC4F99838883C95F7F
S11345B0D34086EA90E0C550DC4F99838883CB5F73
S11345C0D3400F2EF3EA8F2E912CF02DC350DC4FE5
S11345D099828882CD5FD3400F2EFFE96F2E712C14
S11345E0F02DC150DC4F79826882CF5FD3408CE9D3
S11345F090E0CF5FDB4F99838883C150D44089E931
S113460090E0CD5FDB4F99838883C350D4400F2E55
S1134610F6E94F2E512CF02DCB5FDB4F59824882A7
S1134620C550D44083E990E0C95FDB4F9983888308
S1134630C750D44080E990E0C75FDB4F99838883FB
S1134640C950D4408DE890E0C55FDB4F99838883DF
S1134650CB50D4400F2EFBE82F2E312CF02DC35F0E
S1134660DB4F39822882CD50D44088E890E0C15F86
S1134670DB4F99838883CF50D44085E890E0CF5EA8
S1134680DB4F99838883C151D4400F2EF3E8CF2E9A
S1134690D12CF02DCD5EDB4FD982C882C351D440DA
S11346A081E890E0CB5EDB4F99838883C551D44089
S11346B08EE790E0C95EDB4F99838883C751D4406D
S11346C08CE790E0C75EDB4F99838883C951D4405F
S11346D00F2EFAE7EF2EF12CF02DC55EDB4FF98299
S11346E0E882CB51D44088E790E0C35EDB4F9983E6
S11346F08883CD51D44086E790E0C15EDB4F998337
S11347008883CF51D44004E710E0CF5DDB4F198399
S11347100883C152D44082E790E0CD5DDB4F99839A
S11347208883C352D44080E790E0CB5DDB4F99830C
S11347308883C552D4406EE670E0C95DDB4F79834F
S11347406883C752D4408CE690E0C75DDB4F998301
S11347508883C952D4408BE690E0C55DDB4F9983D2
S11347608883CB52D4400F2EF9E6CF2ED12CF02DD6
S1134770C35DDB4FD982C882CD52D44087E690E036
S1134780C15DDB4F99838883CF52D4400F2EF6E668
S1134790EF2EF12CF02DCF5CDB4FF982E882C15370
S11347A0D44004E610E0CD5CDB4F19830883C35387
S11347B0D44083E690E0CB5CDB4F99838883C55378
S11347C0D44061E670E0C95CDB4F79836883C753EA
S11347D0D44080E690E0C75CDB4F99838883C9535B
S11347E0D4408EE590E0C55CDB4F99838883CB533E
S11347F0D4408DE590E0C35CDB4F99838883CD532F
S1134800D4400F2EFBE5CF2ED12CF02DC15CDB4F15
S1134810D982C882CF53D4408AE590E0CF5BDB4F86
S113482099838883C154D4400F2EF9E5EF2EF12CDF
S1134830F02DCD5BDB4FF982E882C354D44088E588
S113484090E0CB5BDB4F99838883C554D44006E565
S113485010E0C95BDB4F19830883C754D44085E556
S113486090E0C75BDB4F99838883C954D44064E5E7
S113487070E0C55BDB4F79836883CB54D44083E518
S113488090E0C35BDB4F99838883CD54D44082E5A9
S113489090E0C15BDB4F99838883CF54D4400F2EC3
S11348A0F1E5CF2ED12CF02DCF5ADB4FD982C8821F
S11348B0C155D44080E590E0CD5ADB4F998388837D
S11348C0C355D4400F2EFFE4EF2EF12CF02DCB5A1C
S11348D0DB4FF982E882C555D4408EE490E0C95A92
S11348E0DB4F99838883C755D4400DE410E0C75A41
S11348F0DB4F19830883C955D4408CE490E0C55A32
S1134900DB4F99838883CB55D4406BE470E0C35A62
S1134910DB4F79836883CD55D4408AE490E0C15A53
S1134920DB4F99838883CF55D44089E490E0CF59F5
S1134930DB4F99838883C156D4400F2EF8E4CF2EE1
S1134940D12CF02DCD59DB4FD982C882C356D44027
S11349500F2EF7E4EF2EF12CF02DCB59DB4FF9821B
S1134960E882C556D44086E490E0C959DB4F998368
S11349708883C756D44005E410E0C759DB4F198338
S11349800883C956D4400F2EF4E4CF2ED12CF02D39
S1134990C559DB4FD982C882CB56D440C359DB4FAB
S11349A0D982C882CD56D44083E490E0C159DB4F0C
S11349B099838883CF56D44062E470E0CF58DB4FAC
S11349C079836883C157D44081E490E0CD58DB4FAC
S11349D099838883C357D44080E490E0CB58DB4F5D
S11349E099838883C557D440C958DB4F99838883FA
S11349F0C757D4400F2EFFE3EF2EF12CF02DC758EC
S1134A00DB4FF982E882C957D4400F2EFEE3EF2E24
S1134A10F12CF02DC558DB4FF982E882CB57D440F6
S1134A20C358DB4FF982E882CD57D4400DE310E040
S1134A30C158DB4F19830883CF57D4408CE390E0EF
S1134A40CF57DB4F99838883C158D440CD57DB4F70
S1134A5099838883C358D4406BE370E0CB57DB4F12
S1134A6079836883C558D4400AE310E0C957DB4F03
S1134A7019830883C758D440C757DB4F1983088369
S1134A80C958D44089E390E0C557DB4F99838883A4
S1134A90CB58D440A8E3B0E0C357DB4FB983A88315
S1134AA0CD58D440C157DB4FB983A883CF58D440E5
S1134AB0E7E3F0E0CF56DB4FF983E883C159D440F4
S1134AC0CD56DB4FF983E883C359D44066E370E0E5
S1134AD0CB56DB4F79836883C559D440C956DB4F25
S1134AE079836883C759D44085E390E0C756DB4F88
S1134AF099838883C959D44044E350E0C556DB4FB9
S1134B0059834883CB59D440C356DB4F59834883D8
S1134B10CD59D44083E390E0C156DB4F9983888319
S1134B20CF59D440CF55DB4F99838883C15AD440A1
S1134B3022E330E0CD55DB4F39832883C35AD44078
S1134B40CB55DB4F39832883C55AD44081E390E0A9
S1134B50C955DB4F99838883C75AD440C755DB4F67
S1134B6099838883C95AD440C555DB4FB982A8823A
S1134B70CB5AD4400F2EF2ECAF2EB12CF02DC355EE
S1134B80DB4FB982A882CD5AD4400F2EFCEBAF2E56
S1134B90B12CF02DC155DB4FB982A882CF5AD44035
S1134BA00F2EF7EBAF2EB12CF02DCF54DB4FB98283
S1134BB0A882C15BD4400F2EF2EBAF2EB12CF02DA6
S1134BC0CD54DB4FB982A882C35BD4400F2EFDEADB
S1134BD0AF2EB12CF02DCB54DB4FB982A882C55B2C
S1134BE0D4400F2EF8EAAF2EB12CF02DC954DB4F70
S1134BF0B982A882C75BD440C754DB4F99828882AC
S1134C00C95BD440C554DB4F79826882CB5BD44006
S1134C100F2EFAE9AF2EB12CF02DC354DB4FB9821D
S1134C20A882CD5BD440C154DB4F59824882CF5B0C
S1134C30D4400F2EF2E9AF2EB12CF02DCF53DB4F21
S1134C40B982A882C15CD4400F2EFEE8AF2EB12CED
S1134C50F02DCD53DB4FB982A882C35CD440CB5333
S1134C60DB4F39822882C55CD4400F2EF7E8AF2E83
S1134C70B12CF02DC953DB4FB982A882C75CD44054
S1134C800F2EF3E8AF2EB12CF02DC753DB4FB982B2
S1134C90A882C95CD4406894AA24A7F8B12CC5534F
S1134CA0DB4FB982A882CB5CD4400F2EFDE7AF2E38
S1134CB0B12CF02DC353DB4FB982A882CD5CD44014
S1134CC00F2EFAE7AF2EB12CF02DC153DB4FB98272
S1134CD0A882CF5CD4400F2EF7E7AF2EB12CF02D75
S1134CE0CF52DB4FB982A882C15DD4400F2EF4E7C6
S1134CF0AF2EB12CF02DCD52DB4FB982A882C35D0B
S1134D00D4400F2EF1E7AF2EB12CF02DCB52DB4F58
S1134D10B982A882C55DD4400F2EFEE6AF2EB12C19
S1134D20F02DC952DB4FB982A882C75DD4400F2E43
S1134D30FBE6AF2EB12CF02DC752DB4FB982A8820F
S1134D40C95DD4400F2EF9E6AF2EB12CF02DC5521B
S1134D50DB4FB982A882CB5DD4400F2EF6E6AF2E8E
S1134D60B12CF02DC352DB4FB982A882CD5DD44063
S1134D700F2EF4E6AF2EB12CF02DC152DB4FB982C9
S1134D80A882CF5DD4400F2EF1E6AF2EB12CF02DCA
S1134D90CF51DB4FB982A882C15ED4400F2EFFE50C
S1134DA0AF2EB12CF02DCD51DB4FB982A882C35E5A
S1134DB0D4400F2EFDE5AF2EB12CF02DCB51DB4F9F
S1134DC0B982A882C55ED4400F2EFBE5AF2EB12C6C
S1134DD0F02DC951DB4FB982A882C75ED4400F2E93
S1134DE0F9E5AF2EB12CF02DC751DB4FB982A88263
S1134DF0C95ED4400F2EF6E5AF2EB12CF02DC5516F
S1134E00DB4FB982A882CB5ED4400F2EF4E5AF2EDF
S1134E10B12CF02DC351DB4FB982A882CD5ED440B2
S1134E200F2EF3E5AF2EB12CF02DC151DB4FB9821B
S1134E30A882CF5ED4400F2EF1E5AF2EB12CF02D19
S1134E40CF50DB4FB982A882C15FD4400F2EFFE45C
S1134E50AF2EB12CF02DCD50DB4FB982A882C35FA9
S1134E60D4400F2EFDE4AF2EB12CF02DCB50DB4FF0
S1134E70B982A882C55FD4400F2EFBE4AF2EB12CBB
S1134E80F02DC950DB4FB982A882C75FD4400F2EE2
S1134E90FAE4AF2EB12CF02DC750DB4FB982A882B3
S1134EA0C95FD4400F2EF8E4AF2EB12CF02DC550BD
S1134EB0DB4FB982A882CB5FD4400F2EF7E4AF2E2C
S1134EC0B12CF02DC350DB4FB982A882CD5FD44002
S1134ED00F2EF5E4AF2EB12CF02DC150DB4FB9826B
S1134EE0A882CF5FD440CF5FDA4FD982C882C15045
S1134EF0D5400F2EF2E4CF2ED12CF02DCD5FDA4F1A
S1134F00D982C882C350D5400F2EF1E4AF2EB12C04
S1134F10F02DCB5FDA4FB982A882C550D5400F2E51
S1134F20FFE3CF2ED12CF02DC95FDA4FD982C8828E
S1134F30C750D540C75FDA4FF982E882C950D540DF
S1134F400F2EFDE3EF2EF12CF02DC55FDA4FF98221
S1134F50E882CB50D5400F2EFBE3AF2EB12CF02DC1
S1134F60C35FDA4FB982A882CD50D540C15FDA4F12
S1134F7019830883CF50D5400F2EF9E3CF2ED12CBF
S1134F80F02DCF5EDA4FD982C882C151D540CD5EB3
S1134F90DA4FB983A883C351D540CB5EDA4FF98386
S1134FA0E883C551D540C95EDA4F79836883C75118
S1134FB0D5400F2EF5E3EF2EF12CF02DC75EDA4F1E
S1134FC0F982E882C951D540C55EDA4F59834883D6
S1134FD0CB51D540C35EDA4F39832883CD51D540B8
S1134FE0C15EDA4F99838883CF51D540CF5DDA4FC4
S1134FF099838883C152D54080E390E0CD5DDA4F38
S113500099838883C352D5408FE290E0CB5DDA4F19
S113501099838883C552D5408EE290E0C95DDA4F0A
S113502099838883C752D5408DE290E0C75DDA4FFB
S113503099838883C952D5408CE290E0C55DDA4FEC
S113504099838883CB52D5408BE290E0C35DDA4FDD
S113505099838883CD52D5408AE290E0C15DDA4FCE
S113506099838883CF52D540CF5CDA4F9983888364
S1135070C153D54089E290E0CD5CDA4F99838883AF
S1135080C353D54088E290E0CB5CDA4F99838883A0
S1135090C553D54087E290E0C95CDA4F9983888391
S11350A0C753D540C75CDA4F99838883C953D54029
S11350B086E290E0C55CDA4F99838883CB53D54070
S11350C085E290E0C35CDA4F99838883CD53D54061
S11350D0C15CDA4F99838883CF53D54084E290E052
S11350E0CF5BDA4F99838883C154D54083E290E043
S11350F0CD5BDA4F99838883C354D540CB5BDA4FB9
S113510099838883C554D54082E290E0C95BDA4F25
S113511099838883C754D540EBEAF4E0EC0FFD1F74
S1135120E256FF4F81E290E091838083C55BDA4FC2
S113513099838883CB54D54080E290E0C35BDA4FF7
S113514099838883CD54D540C15BDA4F9983888392
S1135150CF54D5408FE190E0CF5ADA4F99838883BA
S1135160C155D540CD5ADA4F99838883C355D5406C
S11351708EE190E0CB5ADA4F99838883C555D540A8
S1135180C95ADA4F99838883C755D5408DE190E099
S1135190C75ADA4F99838883C955D540C55ADA4F1F
S11351A099838883CB55D5408CE190E0C35ADA4F7C
S11351B099838883CD55D540C15ADA4F9983888322
S11351C0CF55D5408BE190E0CF59DA4F998388834E
S11351D0C156D540CD59DA4F99838883C356D540FB
S11351E08AE190E0CB59DA4F99838883C556D5403C
S11351F0C959DA4F99838883C756D54089E190E02D
S1135200C759DA4F99838883C956D540C559DA4FAF
S113521099838883CB56D540C359DA4F99838883C1
S1135220CD56D54088E190E0C159DA4F99838883FF
S1135230CF56D540CF58DA4F99838883C157D5408C
S113524087E190E0CD58DA4F99838883C357D540DE
S1135250CB58DA4F99838883C557D540C958DA4F5C
S113526099838883C757D54086E190E0C758DA4FC1
S113527099838883C957D540C558DA4F9983888361
S1135280CB57D540C358DA4F99838883CD57D5403F
S113529085E190E0C158DA4F99838883CF57D54090
S11352A0CF57DA4F99838883C158D540CD57DA4F09
S11352B099838883C358D54084E190E0CB57DA4F73
S11352C099838883C558D540C957DA4F9983888311
S11352D0C758D540C757DA4F99838883C958D540F2
S11352E083E190E0C557DA4F99838883CB58D54042
S11352F0C357DA4F99838883CD58D540C157DA4FC5
S113530099838883CF58D540CF56DA4F99838883C1
S1135310C159D54082E190E0CD56DA4F9983888314
S1135320C359D540CB56DA4F99838883C559D540A4
S1135330C956DA4F99838883C759D54081E190E0F3
S1135340C756DA4F99838883C959D540C556DA4F71
S113535099838883CB59D540C356DA4F9983888380
S1135360CD59D540C156DA4F99838883CF59D5405A
S113537080E190E0CF55DA4F99838883C15AD540B4
S1135380CD55DA4F99838883C35AD540CB55DA4F2C
S113539099838883C55AD540C955DA4F9983888340
S11353A0C75AD540C755DA4F99838883C95AD5401F
S11353B08FE090E0C555DA4F99838883CB5AD54066
S11353C0C355DA4F99838883CD5AD540C155DA4FF6
S11353D099838883CF5AD540CF54DA4F99838883F1
S11353E0C15BD5408EE090E0CD54DA4F9983888339
S11353F0C35BD540CB54DA4F99838883C55BD540D2
S1135400C954DA4F99838883C75BD540C754DA4FB0
S113541099838883C95BD540C554DA4F99838883BF
S1135420CB5BD540C354DA4F99838883CD5BD54099
S11354308DE090E0C154DA4F99838883CF5BD540E7
S1135440CF53DA4F99838883C15CD540CD53DA4F6B
S113545099838883C35CD540CB53DA4F998388837F
S1135460C55CD540C953DA4F99838883C75CD5405E
S11354708CE090E0C753DA4F99838883C95CD540A8
S1135480C553DA4F99838883CB5CD540C353DA4F35
S113549099838883CD5CD540C153DA4F998388833F
S11354A0CF5CD540CF52DA4F99838883C15DD54014
S11354B0CD52DA4F99838883C35DD540CB52DA4FFE
S11354C099838883C55DD5408BE090E0C952DA4F5B
S11354D099838883C75DD540C752DA4F99838883FF
S11354E0C95DD540C552DA4F99838883CB5DD540D9
S11354F0C352DA4F99838883CD5DD540C152DA4FC8
S113550099838883CF5DD540CF51DA4F99838883BF
S1135510C15ED540CD51DA4F99838883C35ED540AF
S11355208AE090E0CB51DA4F99838883C55ED540F9
S1135530C951DA4F99838883C75ED540C751DA4F82
S113554099838883C95ED540C551DA4F998388838E
S1135550CB5ED5408BE791EE9093850080938400D9
S113556085E08093810081E080936F0080E090E08B
S11355700E94001481E090E00E94001482E090E018
S11355800E94001483E090E00E9400140E945E17C1
S113559040E06FEA74E088EB94E00E94BB0B7894DF
S11355A0412C512C712C612C0F2EF6EEAF2EF6E00F
S11355B0BF2EF02D0F2EFAE48F2EF7E09F2EF02D44
S11355C00F2EFFEBEF2EF3E0FF2EF02D8E0101598D
S11355D01F4F0F2EF0EACF2EF4E0DF2EF02D809136
S11355E0B604813019F51092B604F401019000203C
S11355F0E9F73197AF014A545740DA01A75BB84F36
S11356008C918A3089F4B401CE018B599F4F0E944A
S1135610B033C4010E944D178091B504813009F460
S1135620C9C2442443942EC0442443948091B504B5
S1135630813001F51092B504F50101900020E9F7DD
S11356403197AF01465E5640DA01AB51B94F8C91A8
S11356508A3071F4B501CE0101960E94B033C501C0
S11356600E944D1721E0721649F05524539416C038
S11356705524539461E076120EC004C0552453940B
S113568066246394BE01635E7E4FCE018B599F4FA7
S11356900E941C17712C71E0671208C0BE016B5F79
S11356A07E4FCE0101960E940015612C8091B404B6
S11356B0813009F094CF1092B4045812D5C0C95E59
S11356C0DE4F88819981C751D140019709F091C07B
S11356D0C45EDE4F8881CC51D1408F93C55EDE4FCE
S11356E08881CB51D1408F93C65EDE4F8881CA51E9
S11356F0D1408F93C75EDE4F8881C951D1408F93CB
S1135700CA5EDE4F8881C651D1408F93CB5EDE4F97
S11357108881C551D1408F93CC5EDE4F8881C451BE
S1135720D1408F93CD5EDE4F8881C351D1408F939A
S1135730CE5EDE4F8881C251D1408F93CF5EDE4F63
S11357408881C151D1408F93C05FDE4F8881C051A1
S1135750D1408F93C15FDE4F8881CF50D1408F936A
S1135760C25FDE4F8881CE50D1408F93C35FDE4F3E
S11357708881CD50D1408F93C45FDE4F8881CC5057
S1135780D1408F93C55FDE4F8881CB50D1408F933A
S1135790C65FDE4F8881CA50D1408F93C75FDE4F0A
S11357A08881C950D1408F93C85FDE4F8881C8502B
S11357B0D1408F93C95FDE4F8881C750D1408F930A
S11357C0CA5FDE4F8881C650D1408F93CB5FDE4FD6
S11357D08881C550D1408F9381E393E09F938F9349
S11357E01F930F93CCD70FB6F894DEBF0FBECDBF77
S11357F030C0C65FDE4F8881CA50D1408F93C75FE7
S1135800DE4F8881C950D1408F93C85FDE4F8881B5
S1135810C850D1408F93C95FDE4F8881C750D140B3
S11358208F93CA5FDE4F8881C650D1408F93CB5F80
S1135830DE4F8881C550D1408F938DE793E09F93CD
S11358408F931F930F939BD70FB6F894DEBF0FBEB1
S1135850CDBFB80183E090E00E94411464E577E095
S1135860C8010E94C714512C91E049122FC0C05E98
S1135870DE4F8881C052D1408F93C15EDE4F888154
S1135880CF51D1408F93C25EDE4F8881CE51D1403B
S11358908F93C35EDE4F8881CD51D1408F9389EAC7
S11358A093E09F938F931F930F9369D7B80183E07D
S11358B090E00E94411464E577E0C8010E94C71497
S11358C00FB6F894DEBF0FBECDBF412C0E947112FB
S11358D09F938F93FF92EF921F930F9350D7B8012A
S11358E083E090E00E94411464E577E0C8010E94DF
S11358F0C7140E949C120F900F900F900F900F905E
S11359000F908F3F7FEF97076CF460ED73E083E0B7
S113591090E00E94411464E577E080ED93E00E94FA
S1135920C71441C08F3F2FEF9207D1F41F921F92EB
S113593088EF93E09F938F931F930F9320D7B80121
S113594083E090E00E94411464E577E0C8010E947E
S1135950C7140F900F900F900F900F900F9023C0CB
S1135960880F991FE1E2F1E0EC0FFD1FE80FF91F2A
S113597081818F9380818F9388EF93E09F938F939E
S11359801F930F93FCD6B80183E090E00E9441146A
S113599064E577E0C8010E94C7140F900F900F9040
S11359A00F900F900F900E94F2128F3F6FEF9607A7
S11359B06CF467E074E083E090E00E94411464E5D5
S11359C077E087E094E00E94C71441C08F3F7FEFE7
S11359D09707D1F41F921F928FE294E09F938F93C5
S11359E01F930F93CCD6B80183E090E00E9441143A
S11359F064E577E0C8010E94C7140F900F900F90E0
S1135A000F900F900F9023C0880F991FEFE4F2E0DE
S1135A10EC0FFD1FE80FF91F81818F9380818F9315
S1135A208FE294E09F938F931F930F93A8D6B801AE
S1135A3083E090E00E94411464E577E0C8010E948D
S1135A40C7140F900F900F900F900F900F900E941B
S1135A5051138F3F2FEF92076CF46EE374E083E0F1
S1135A6090E00E94411464E577E08EE394E00E94A4
S1135A70C71441C08F3F6FEF9607D1F41F921F9256
S1135A8086E694E09F938F931F930F9378D6B80183
S1135A9083E090E00E94411464E577E0C8010E942D
S1135AA0C7140F900F900F900F900F900F9023C07A
S1135AB0880F991FEDE7F3E0EC0FFD1FE80FF91FC6
S1135AC081818F9380818F9386E694E09F938F9357
S1135AD01F930F9354D6B80183E090E00E944114C1
S1135AE064E577E0C8010E94C7140F900F900F90EF
S1135AF00F900F900F900E94A8138F3F7FEF97078E
S1135B006CF465E774E083E090E00E94411464E57E
S1135B1077E085E794E00E94C71461CD8F3F2FEFB3
S1135B209207C1F41F921F92DF92CF921F930F939B
S1135B3026D6B80183E090E00E94411464E577E042
S1135B40C8010E94C7140F900F900F900F900F90F0
S1135B500F9045CD880F991FEBEAF4E0EC0FFD1F81
S1135B60E80FF91F81818F9380818F93DF92CF9209
S1135B701F930F9304D6B80183E090E00E94411470
S1135B8064E577E0C8010E94C7140F900F900F904E
S1135B900F900F900F9023CDB501CE010196E0D563
S1135BA0C5010E944D1744244394552453946624FC
S1135BB0639468CD1092B504F50101900020E9F7D3
S1135BC03197AF01465E5640DA01AB51B94F8C9123
S1135BD08A3011F3442443947724739455245394C2
S1135BE049CD23B123B123B123B10197D1F708954E
S1135BF0FC01680F791F9191992314F42A9A01C02A
S1135C002A98299A299896FF02C02A9A01C02A98AC
S1135C10299A299895FF02C02A9A01C02A98299A9C
S1135C20299894FF02C02A9A01C02A98299A29988F
S1135C3093FF02C02A9A01C02A98299A299892FFB0
S1135C4002C02A9A01C02A98299A299891FF02C071
S1135C502A9A01C02A98299A299890FF02C02A9A60
S1135C6001C02A98299A2998E617F70721F608957A
S1135C702A9AFC01680F791F93B1299A299893FBFA
S1135C80992790F9990F1B999F5F299A2998990F41
S1135C901B999F5F299A2998990F1B999F5F299AAD
S1135CA02998990F1B999F5F299A2998990F1B99F5
S1135CB09F5F299A2998990F1B999F5F299A299880
S1135CC0990F1B999F5F299A29989193E617F707D3
S1135CD099F608950F931F93CF93DF931F92CDB737
S1135CE0DEB708E813E161E070E0CE010196C0DFA1
