:1000000077C0000096C0000094C0000092C00000BD
:1000100090C000008EC000008CC000008AC00000AC
:1000200088C0000086C0000084C0000082C00000BC
:1000300080C000007EC000007CC000007AC00000CC
:1000400078C0000076C0000074C0000072C00000DC
:100050000C945B126EC000006CC000006AC000000F
:1000600068C000000C94111264C0000062C000005F
:1000700060C000005EC000005CC000005AC000000C
:1000800058C0000056C0000054C0000052C000001C
:100090000C9431124EC000004CC000004AC0000059
:1000A00048C0000046C0000044C0000042C000003C
:1000B00040C000003EC000003CC000003AC000004C
:1000C00038C0000036C0000034C0000032C000005C
:1000D00030C000002EC000000C9451122AC0000055
:1000E00028C000006364696E6F70737578585B0098
:1000F00011241FBECFEFD1E2DEBFCDBF00E00CBFA9
:1001000015E0A0E0B2E0EEE4F9E700E00BBF02C0CA
:1001100007900D92A637B107D9F728E0A6E7B5E01A
:1001200001C01D92A934B207E1F70E94B4170C94E4
:10013000A53C66CFCF93DF9342305105C0F0DB0181
:10014000FC019A01CD91DD91C193D19322503109E7
:1001500022303105B8F79A01225031092E7F2E5FE7
:100160003F4F820F931F620F731F41705527411538
:10017000510549F0DB01FC01480F591F9D919193F6
:10018000E417F507D9F7DF91CF910895CF93DF9367
:10019000EC01A881B9811097F9F04C91413258F0E7
:1001A0004A3331F1FD0131969F019191913228F04E
:1001B0009A33D1F704C0942F9D019A3381F4CD0175
:1001C00001962817390771F4403379F41296B983F0
:1001D000A88380E090E00EC08FEF9FEF0BC080E01F
:1001E00090E008C08FEF9FEF05C08FEF9FEF02C038
:1001F0009D01E5CFDF91CF9108958F929F92AF92AD
:10020000BF92CF92DF92EF92FF920F931F93CF9303
:10021000DF93FC012481222309F446C0EC01C2A42F
:10022000D3A4E4A4F5A45C01FEE2AF0EB11C01E08E
:1002300010E0A7019601B50189810E94C9328111A0
:1002400035C01C828E8D9F8DA8A1B9A1B701A601D2
:10025000481B590B6A0B7B0B8E899F89A88DB98D22
:10026000481759076A077B0718F58B80912C82E0A5
:1002700088169104F8F08E899F89A88DB98DC80ED3
:10028000D91EEA1EFB1E01E010E0A7019601B50190
:1002900089810E94C932E1E08E1A9108F1E08F163F
:1002A000910449F780E007C080E005C081E003C009
:1002B00080E001C080E0DF91CF911F910F91FF900E
:1002C000EF90DF90CF90BF90AF909F908F90089568
:1002D0008F929F92AF92BF92FF920F931F93CF93F3
:1002E000DF93EC014A015B018AA59BA5ACA5BDA5E6
:1002F00084179507A607B707E1F0CE017EDFF82E39
:10030000811118C001E010E0A5019401BE01625DF9
:100310007F4F89810E947D32882331F0FF24F3943E
:1003200088248A94982C54018AA69BA6ACA6BDA6C4
:1003300001C0F12C8F2DDF91CF911F910F91FF9074
:10034000BF90AF909F908F900895CF93DF93EC0173
:100350001C828FEF9FEFDC018AA79BA7ACA7BDA7EC
:10036000CE01B6DF811123C0FE01E45DFD4F808127
:10037000918185359A4AE9F4E85CF1408081918168
:10038000A281B381BB2786349144A445B10599F07D
:10039000C058DF4F488159816A817B81772781E08E
:1003A000463451446445710539F480E005C083E06A
:1003B00003C082E001C080E0DF91CF9108950097F3
:1003C000C9F0DC01ED91FC9111973097A9F02081E3
:1003D0002223A1F02681378112968D919C9113974B
:1003E0002817390769F481810E94B93180FF0AC05A
:1003F00089E0089589E0089589E0089589E00895E5
:1004000089E0089580E008952F923F924F925F9285
:100410006F927F928F929F92AF92BF92CF92DF9214
:10042000EF92FF920F931F93CF93DF93CDB7DEB779
:100430006D970FB6F894DEBF0FBECDBF6C01CB0138
:10044000B42ED6011D921C92A1DE7C0199230CF4DE
:1004500002C2FC01EE0FFF1FE858FA4F0081118124
:100460000115110509F4F9C1F60111830083D801C2
:100470008C91882369F011968C910E94B93180FD8E
:1004800007C0BB2009F4EBC182FFEBC18AE08BC23D
:10049000F8011082E1828E2D0E94C03180FDE3C1FF
:1004A000BB2009F400C282FDE0C1FDC18081882328
:1004B00029F0448055806680778004C04E2C5F2CE4
:1004C000672E762ED9014D925D926D927D929D019F
:1004D0007096E417F50751F74E01B1E18B0E911CB0
:1004E0006894772471F8F501C190D190E190F19072
:1004F0005F01C114D104E104F10439F0B701A60190
:10050000C80123DF811102C00DC0872DA814B904D2
:1005100051F703C0C12CD12C7601833009F4A7C157
:100520008111A7C1D801D9968D919C91DA97811537
:10053000924009F0A0C1F801EC5BFF4F4080518070
:10054000612C712C411451046104710429F43E960C
:100550004080518062807380F801468A578A608E9D
:10056000718EA6ADA3838FEF8A0F823008F085C10C
:10057000F3ADF98B2F2FF8012283222309F47FC1D9
:10058000822F90E09C012150310982239323892BF3
:1005900009F077C1FF9620803180F80131862086EE
:1005A000C1018F709927892B09F06DC1EF5BFF4F57
:1005B00080809180A12CB12C81149104A104B104FC
:1005C00029F43D9680809180A280B380F80104AC2C
:1005D000F5ADE02D309709F458C1B0E0A3019201C8
:1005E0000E944B366A8F7B8F8C8F9D8F9F0140E0DE
:1005F00050E02E8B3F8B488F598FC1019295829589
:100600008F7089279F708927280F391F411D511D21
:10061000DA01C9012A8D3B8D4C8D5D8D280F391F64
:100620004A1F5B1F2A8B3B8B4C8B5D8B821693067C
:10063000A406B50608F42BC1C501B401621B730BF7
:10064000840B950BE9892E2F30E040E050E00E94AA
:100650000D36DA01C901211531054105510509F4AD
:1006600018C1263FFFE03F074105510518F0E2E0C1
:10067000E98B02C0F1E0F98B863F9F4FA105B105E0
:1006800008F028C149015A0182E0880E911CA11C82
:10069000B11CD80152968D929D92AD92BC92559705
:1006A000F801C28ED38EE48EF58E8E899F89A88D37
:1006B000B98D8C0D9D1DAE1DBF1D868F978FA0A37C
:1006C000B1A34A895B896C897D894C0D5D1D6E1DC6
:1006D0007F1D46A357A360A771A7F989F33069F579
:1006E000232809F0D8C0F801E65AFF4F8081918194
:1006F000A281B381F80182A393A3A4A3B5A3880C1C
:10070000991CAA1CBB1C880C991CAA1CBB1CFFEFC3
:100710008F0EF1E09F1EA11CB11C072E79E0B6944C
:10072000A794979487947A95D1F7702D481459041B
:100730006A047B0408F4B1C0F9C0232809F4AFC0EF
:100740002A8D3B8D4C8D5D8D820F931FA41FB51F8D
:10075000F80182A393A3A4A3B5A3F989F23029F4E5
:10076000880C991CAA1CBB1C08C1A3E0B0E0A50121
:1007700094010E944B36DC01CB01B695A795979565
:10078000879521E082229924AA24BB24880E991EF1
:10079000AA1EBB1EF2C0B701A6014F5F5F4F6F4F8D
:1007A0007F4FC80195DD811139C0D80115961C9283
:1007B000F801E45DFD4F8081918185359A4A89F584
:1007C000F80186A597A5A0A9B1A982359245A146B1
:1007D000B14451F5F801EE5EFD4F80819181A28117
:1007E000B38182379247A144B14609F5349680819E
:1007F0009181A281B381F80186879787A08BB18B05
:10080000E65EFD4F80819181A281B381F8018287EC
:100810009387A487B587F3E0F98B0BC0E3E0E98BFE
:1008200008C0F3E0F98B05C0E3E0E98B02C0F3E018
:10083000F98BE989D801EC93809176059091770541
:100840000196909377058093760517969C938E93E7
:10085000169780E0A8C08BE0A6C08CE0A4C080E022
:10086000A2C080E0A0C083E09EC08AE09CC081E07E
:100870009AC08DE098C08DE096C08DE094C08DE068
:1008800092C08DE090C08DE08EC08DE08CC08DE078
:100890008AC08DE088C08DE086C08DE084C08DE088
:1008A00082C08DE080C040E050E0BA01C8014DDD5B
:1008B000813009F02FCEF801E051FE4F9E012F5FED
:1008C0003F4F5901A801405D5D4FE12CF12C70E0D4
:1008D00060E0ECCD49015A0162E0860E911CA11C3A
:1008E000B11CD80152968D929D92AD92BC925597B3
:1008F000F801C28ED38EE48EF58E8E899F89A88DE5
:10090000B98D8C0D9D1DAE1DBF1D868F978FA0A329
:10091000B1A38A899B89AC89BD898C0D9D1DAE1DB3
:10092000BF1D86A397A3A0A7B1A7DACE8FEF9FEF35
:10093000DC01F80186879787A08BB18B828793872C
:10094000A487B58780E88583E25AFF4F8081918133
:10095000019709F420CFF3E0F98B6BCF8FEF9FEF76
:10096000DC01F80186879787A08BB18B82879387FC
:10097000A487B58780E885835CCFFFEF8F0EF1E019
:100980009F1EA11CB11C072E79E0B694A7949794E2
:1009900087947A95D1F7702D481459046A047B0422
:1009A00008F47FCFDBCF6D960FB6F894DEBF0FBE95
:1009B000CDBFDF91CF911F910F91FF90EF90DF900E
:1009C000CF90BF90AF909F908F907F906F905F90EF
:1009D0004F903F902F900895CF92DF92EF92FF9229
:1009E000FC019A01AB012250310941095109C28829
:1009F000D388E488F58882E0C81AD108E108F108B4
:100A00002C153D054E055F0568F4A281B0E00E94FB
:100A10004B36C6A0D7A0E0A4F1A46C0D7D1D8E1DA1
:100A20009F1D03C060E070E0CB01FF90EF90DF906E
:100A3000CF900895AF92BF92CF92DF92EF92FF9244
:100A40000F931F93CF93DF93EC016A017B01423038
:100A500051056105710508F4A7C08A899B89AC8995
:100A6000BD89481759076A077B0708F0A2C088812B
:100A7000823009F44BC0833009F469C0813009F039
:100A80009DC08A0116950795040F151FC801892F6F
:100A9000992786954E8D5F8D68A179A1480F591FC2
:100AA000611D711DCE0114DC81118DC058018FEFC5
:100AB000A81AB80A1170FE01E00FF11F16A5C501B2
:100AC000892F992786954E8D5F8D68A179A1480F52
:100AD000591F611D711DCE01FBDB811178C081E0C2
:100AE000B822CA0DDB1D8EA5612F70E0782BC0FEE9
:100AF00009C0729562956F7067277F70672780E0E5
:100B000090E070C07F7080E090E06CC0452F562F61
:100B1000672F77278E8D9F8DA8A1B9A1480F591FE8
:100B20006A1F7B1FCE01D4DB811155C0CC0CDD1CAC
:100B3000EE1CFF1CE894C0F881E0D822EE24FF24CC
:100B4000CC0DDD1D6EA57FA580E090E04BC08E8DA5
:100B50009F8DA8A1B9A1689416F8769567955795C9
:100B600047951694D1F7480F591F6A1F7B1FCE0176
:100B7000AFDB811134C0CC0CDD1CEE1CFF1CCC0C97
:100B8000DD1CEE1CFF1C8CEFC82281E0D822EE2475
:100B9000FF24FE01EC0DFD1D86A597A5A0A9B1A916
:100BA000BC01CD019F701EC061E070E080E090E06C
:100BB00019C061E070E080E090E014C061E070E096
:100BC00080E090E00FC06FEF7FEFCB010BC06FEFC5
:100BD0007FEFCB0107C06FEF7FEFCB0103C06FEF5B
:100BE0007FEFCB01DF91CF911F910F91FF90EF909D
:100BF000DF90CF90BF90AF900895AF92BF92CF9209
:100C0000DF92EF92FF920F931F93CF93DF93EC014C
:100C10008B017D836C83CE80DF80E884F98481E062
:100C2000C816D104E104F10409F48AC0E881F9810D
:100C300082899389A489B589C816D906EA06FB0674
:100C400008F080C0C114D104E104F104C1F4808132
:100C5000833041F482A193A1A4A1B5A10097A1057D
:100C6000B10559F4808591850817190708F06CC003
:100C700062A173A184A195A135C06C017D01A28000
:100C800080E1A89E500111240A151B0530F1B7011F
:100C9000A60188819981CEDE6B017C018FEFC81699
:100CA000D806E806F80609F451C082E0C816D10457
:100CB000E104F10408F44CC0E881F9818289938948
:100CC000A489B589C816D906EA06FB0608F042C011
:100CD0000A191B090A151B05D0F6B701A601888160
:100CE00099817ADECA86DB86EC86FD866115710500
:100CF0008105910589F19801329522952F7023275E
:100D00003F702327DC01CB01820F931FA11DB11D72
:100D10008E879F87A88BB98B0F701127000F111F2B
:100D200002951295107F1027007F1027025D1F4F3C
:100D300088819981800F911F9B8B8A8B80E00DC0E9
:100D400082E00BC082E009C082E007C081E005C0FC
:100D500082E003C082E001C082E0DF91CF911F9169
:100D60000F91FF90EF90DF90CF90BF90AF900895DC
:100D70004F925F926F927F928F929F92AF92BF92AB
:100D8000CF92DF92EF92FF920F931F93CF93DF9357
:100D9000EC016A017B0128013901423051056105EE
:100DA000710508F4D2C08A899B89AC89BD8948172E
:100DB00059076A077B0708F0CAC08881823009F4A6
:100DC00062C0833009F485C0813009F0C2C05A0185
:100DD000B694A794A40EB51EC501892F99278695B0
:100DE0004E8D5F8D68A179A1480F591F611D711D3E
:100DF000CE016EDA182F8111CAC045018FEF881A13
:100E0000980A31E0B322C0FE20C0FE01EA0DFB1DAE
:100E100086A5282F2F7030E1439EC0011124822B1C
:100E200086A781E08C834E8D5F8D68A179A1C40176
:100E3000892F99278695480F591F611D711DCE0175
:100E400047DA882309F48BC086C0FE01EA0DFB1D3A
:100E500046A681E08C834E8D5F8D68A179A1C40187
:100E6000892F99278695480F591F611D711DCE0145
:100E70002FDA882309F47EC070C0EC0FFD1F46A650
:100E800081E08C8384C0452F562F672F77278E8D66
:100E90009F8DA8A1B9A1480F591F6A1F7B1FCE01C2
:100EA00017DA182F811173C0CC0CDD1CEE1CFF1C4F
:100EB000E894C0F881E0D822EE24FF243EE2C30E7D
:100EC000D11CFE01EC0DFD1D5182408281E08C831E
:100ED0005EC08E8D9F8DA8A1B9A1689416F87695F5
:100EE0006795579547951694D1F7480F591F6A1F74
:100EF0007B1FCE01EDD9182F811149C0CC0CDD1C10
:100F0000EE1CFF1CCC0CDD1CEE1CFF1C8CEFC82261
:100F100081E0D822EE24FF243EE2C30ED11CFE0164
:100F2000EC0DFD1D80819181A281B38188279927D5
:100F3000AA27B07F482A592A6A2A7B2A40825182EE
:100F40006282738281E08C8322C012E020C012E0B2
:100F50001EC012E01CC0182F1AC0182F18C0F401B0
:100F6000F170689413F876946794579447941694A4
:100F7000D1F783CFF401F170DE01AE0FBF1F9E9653
:100F80009C91907F852D8F70492E482A76CF812F96
:100F9000DF91CF911F910F91FF90EF90DF90CF9055
:100FA000BF90AF909F908F907F906F905F904F9089
:100FB00008952F923F924F925F926F927F928F92FD
:100FC0009F92AF92BF92CF92DF92EF92FF920F93D8
:100FD0001F93CF93DF93EC012A013B01411551058B
:100FE00061057105B9F48A849B84AC84BD84811445
:100FF0009104A104B10459F18A899B89AC89BD8906
:1010000088169906AA06BB0630F1812C912C540152
:10101000839421C00FDD6B017C0162307105810575
:10102000910508F496C08FEFC816D806E806F806B2
:1010300009F494C08A899B89AC89BD89C816D906F0
:10104000EA06FB0608F48FC05301420104C0812C5C
:10105000912C54018394750164016894222421F831
:10106000312C00E010E02FEFC21AD20AE20AF20A95
:101070008A899B89AC89BD89C816D906EA06FB0610
:1010800058F082E088169104A104B10408F470C0FD
:10109000C22CD32CE02EF12EB701A601CE01CADC62
:1010A000611571058105910599F06F3F2FEF72076A
:1010B0008207920709F461C06130710581059105CD
:1010C00009F460C0C814D904EA04FB0461F65FC0E7
:1010D0008C2C9D2CAE2CBF2C0FEF1FEF2FEF3FE081
:1010E000B701A601CE0144DE81112CC04114510488
:1010F0006104710451F00C2D1D2D2E2D3F2DB301D7
:10110000A201CE0135DE81111DC08A869B86AC8688
:10111000BD868E859F85A889B9898F3F2FEF92075D
:10112000A207B207C9F10197A109B1098E879F876C
:10113000A88BB98B8D8181608D836C2D7D2D8E2D3B
:101140009F2D33C0813069F161E070E080E090E074
:101150002CC061E070E080E090E027C06FEF7FEF8F
:101160008FEF9FEF22C06C2D7D2D8E2D9F2D1DC0EA
:1011700060E070E080E090E018C06FEF7FEF8FEFED
:101180009FEF13C061E070E080E090E00EC060E08F
:1011900070E080E090E009C06C2D7D2D8E2D9F2D9C
:1011A00004C06FEF7FEF8FEF9FEFDF91CF911F9123
:1011B0000F91FF90EF90DF90CF90BF90AF909F90F6
:1011C0008F907F906F905F904F903F902F900895F9
:1011D0007F928F929F92AF92BF92CF92DF92EF92C7
:1011E000FF920F931F93CF93DF93DC011496CD9161
:1011F000DC911597219609F403C11E968D909D9060
:10120000AD90BC90519781149104A104B10409F4EC
:10121000F9C07B018C016E01BFE0CB22DD24C1143B
:10122000D10409F0D1C0EFEF8E1A9E0AAE0ABE0AB1
:10123000DC011E968D929D92AD92BC9251971A96AA
:101240004D915D916D917C911D9741155105610501
:10125000710549F4ED91FC9180859185C817D907F6
:1012600008F0D2C0B1C0DC01ED91FC91228130E0E8
:1012700021503109CE01929582958F7089279F70F8
:10128000892728233923232B09F09EC0CF01D2DBE5
:101290004B015C01623071058105910508F4B6C00F
:1012A0006F3F7F4F8F4F9F4F09F4B2C0D801ED9130
:1012B000FC9182899389A489B58988169906AA0622
:1012C000BB0608F470C0EF2809F4A4C0D8011A9630
:1012D0004D915D916D917C911D97CF016ADE4B011F
:1012E0005C01611571058105910509F495C06130B6
:1012F00071058105910509F491C06F3F7F4F8F4FB4
:101300009F4F09F48DC0D8018D919C910E94FD00E2
:10131000811188C0F80180819181FC01BE96825DB7
:101320009D4F1192E817F907E1F7D801ED90FC9075
:10133000B501A401C70150DBF70162A773A784A719
:1013400095A7E12CF12C7724739419C07482D801ED
:101350008D919C910E94FD00811166C0D801ED9194
:10136000FC9182A593A5A4A5B5A50196A11DB11DCB
:1013700082A793A7A4A7B5A7BFEFEB1AFB0AD801D2
:10138000ED91FC91828190E0E816F906F8F282A5D1
:1013900093A5A4A5B5A58E199F09A109B10982A796
:1013A00093A7A4A7B5A7F80182869386A486B586DD
:1013B000B501A401808191810FDBD8011E966D9348
:1013C0007D938D939C935197F801D583C483CC0C66
:1013D000DD1CCC0CDD1CCC0CDD1CCC0CDD1CCC0CC9
:1013E000DD1CFEE2CF0ED11CD8018D919C9111978E
:1013F000C80ED91E5396DC92CE92529780E015C04B
:1014000084E013C084E011C084E00FC082E00DC00E
:1014100081E00BC084E009C087E007C082E005C01E
:1014200081E003C081E001C081E0DF91CF911F9195
:101430000F91FF90EF90DF90CF90BF90AF909F9073
:101440008F907F9008952F923F924F925F926F926C
:101450007F928F929F92AF92BF92CF92DF92EF9244
:10146000FF920F931F93CF93DF9300D01F921F9291
:10147000CDB7DEB78C017B01DB018C918F3211F08F
:101480008C3519F4BFEFEB1AFB0AF80116821782AC
:1014900010861186D7018C91803240F460E070E0B4
:1014A000C801ABDBF801138A128A44C16894BB24DB
:1014B000B5F8A12C812C6894772473F8512C612CF9
:1014C0007A825B820F2EF2E02F2EF2E03F2EF02D7B
:1014D0001D830C835982F7012C813D81AF018191DD
:1014E0008F32E1F38C35D1F33D832C83F901A4894C
:1014F000B589FD01CD010B96B192E817F907E1F727
:101500003D832C83CA2CD82C2A2D382D472C59806A
:10151000962C8A018C819D815D834C837C012F5F99
:101520003F4FEC81FD816191FD83EC83613208F4D2
:10153000E7C06F3209F4DDC06C3509F4DAC06E32F1
:1015400009F4C4C0C414D50408F0B4C00AC0990C8E
:10155000990CCA80DB800F2EFBE04F2EF02D512C12
:10156000DECF66230CF0B8C0F92DF3609F2EE62F76
:10157000F0E0E057FE4F6081AFC08191882309F40D
:10158000B2C090E048175907C1F786E0D3C0892D53
:101590008260982E08C08FE9860F8A3120F4992D39
:1015A0009160992E6052FD01EC0DFD1D6083F601E6
:1015B00031966F01B4CFCD2809F47EC09C91953E41
:1015C00011F4F5E0FC9398E04916510411F4990CDC
:1015D000990C992D9370913009F48061992D9C702C
:1015E000943009F488601B968C936A2D782D8C8139
:1015F0009D8103DB811193C00C811D81D8011E9652
:101600004D915D916D917C9151978D919C910E942E
:101610006801811186C0F80142895389DA019C91E1
:101620009923E9F01B969C9193FD12C064897589FA
:10163000FA01DB019A01255F3F4F680104C0E21700
:10164000F30709F464C011919D911917C1F3860144
:101650006A2D782DC801BCDD882381F262C0048820
:10166000F589E02D938592FD29C085E063C0FA01DC
:10167000838584FF25C0828D938DA0E0B0E0EC814E
:10168000FD8120813181F9012081233061F4FA014B
:101690004489558960E070E0BA0155274427842BBE
:1016A000952BA62BB72BEC81FD8186839783A08792
:1016B000B18711CF86E03EC086E03CC084E03AC0EE
:1016C00085E038C086E036C086E034C0F8E04F16CA
:1016D000510409F43CCFF6CF462F50E04232510579
:1016E00099F3F1014ACF8FEB860F8A3108F44FCF7F
:1016F00052CFFD82EC827801E20EF31E862D5BCF85
:10170000FD82EC827801E20EF31E84E054CFDD828C
:10171000CC82DB011B969C9192FFA9CF0BC00C8160
:101720001D81D8015496ED91FC9155979385843095
:1017300009F499CF0F900F900F900F900F90DF91B9
:10174000CF911F910F91FF90EF90DF90CF90BF90BE
:10175000AF909F908F907F906F905F904F903F9051
:101760002F9008951F93CF93DF9300D000D0CDB773
:10177000DEB79C838B837E836D83142F7A8369838A
:10178000CE0101960E94C600992334F1FC01EE0FB0
:10179000FF1FE858FA4F0190F081E02D309709F0D3
:1017A0001082EB81FC813097E9F010822B813C8123
:1017B000880F991FFC01E858FA4F31832083232BAF
:1017C00069F0113069F440E0BE016B5F7F4FCE01DC
:1017D00003960E9404020EC08BE00CC080E00AC099
:1017E00080E008C0880F991FFC01E858FA4F118269
:1017F000108280E026960FB6F894DEBF0FBECDBFF4
:10180000DF91CF911F9108954F925F926F927F92D7
:101810008F929F92BF92CF92DF92EF92FF920F939F
:101820001F93CF93DF93CDB7DEB7E0970FB6F89451
:10183000DEBF0FBECDBF7CA36BA3009709F490C1A0
:10184000142F7C01DC011D921C924E71BE016D5D56
:101850007F4FCE0101960E9404028111C2C1B12FB7
:10186000BF71BB2ECE0147969E8B8D8B6BA17CA149
:101870004697E9DDCB88DC88811174C1C114D1049D
:1018800009F075C179C1843009F097C160E070E05A
:10189000CE010196B2D98111A1C14F8558896989BC
:1018A0007A8989819A810E946801811197C1EB89A7
:1018B000FC898081853E51F0882341F061E070E031
:1018C000CE01019685DC882341F388C14F85588974
:1018D00069897A8989819A810E94680181116DC123
:1018E000EB89FC89CF0180961192E817F907E1F79F
:1018F0006D897E894BE050E08B899C890E949A001B
:10190000E981FA8181E08483EB2DE860BE2ECB88EB
:10191000DC8808C0D6011B968C91817109F031C119
:1019200012FD31C1B3FECBC080E090E0A5E8B8E481
:10193000F60186879787A08BB18B868B978BA08FBC
:10194000B18F1386D601148E158E168E178E898050
:101950009A80828D938D2C01612C712CF4018081F1
:10196000833069F454968D919C915597A0E0B0E036
:10197000DC0199278827482A592A6A2A7B2AD60116
:101980005B961C921E925A9755961C921E925497E3
:1019900081E0F4018483411451046104710409F469
:1019A0008EC022A533A544A555A52DA73EA74FA7B8
:1019B00058ABB2E04B1651046104710408F4E8C05E
:1019C00082899389A489B589481659066A067B06D7
:1019D00008F0E0C049A65AA66BA67CA645C049A55A
:1019E0005AA56BA57CA5C40125D86DA37EA38FA3A2
:1019F00098A7611571058105910509F444C061300E
:101A000071058105910509F4C7C06F3F7F4F8F4F66
:101A10009F4F09F4C3C000E010E0980149A55AA502
:101A20006BA57CA5C401A4D98111B9C0F401868538
:101A30009785A089B1898F3FFFEF9F07AF07BF0749
:101A400059F00196A11DB11DF40186879787A08BDF
:101A5000B18B8581816085832DA13EA14FA158A5C1
:101A600029A73AA74BA75CA7F40182899389A48987
:101A7000B58929A53AA54BA55CA5281739074A07BA
:101A80005B0708F4ACCF89819A81B301A201415070
:101A9000510961097109DC011A964D935D936D93AB
:101AA0007C931D974DA55EA56FA578A90E9468013E
:101AB000882339F096C011FF02C080FD74C0B3FEC8
:101AC00003C0BB2DB062BB2EE981FA8182A593A52C
:101AD000A4A5B5A5F701828F938FA48FB58FD78E5C
:101AE000C68ED7011496BC92149715961C928980C5
:101AF0009A80F601828D938DA0E0B0E0F401208100
:101B0000233061F4F6014489558960E070E0BA0140
:101B100055274427842B952BA62BB72BF7018687B7
:101B20009787A08BB18BF601848D958DA68DB78D8F
:101B3000F70182879387A487B5871682178210865C
:101B40001186168A178A108E118E91828082D40196
:101B500016968D919C9117979383828380E041C064
:101B600089E03FC0412F4C7109F08DCE1FC0812FFD
:101B70008C7109F0CFCE27C0412F4C71D9F486E08B
:101B800015C087E001C088E0882309F498CF29C0F8
:101B900082E005C082E003C082E001C081E08823CA
:101BA00009F48FCF1EC087E001C084E0882309F4C8
:101BB00098CF17C086E001C087E0BB2DB860BB2E70
:101BC000CB88DC88F3CFF601838584FDEECF73CF1D
:101BD000FB2DF860BF2ECB88DC88E8CF843061F322
:101BE000F7CFE0960FB6F894DEBF0FBECDBFDF9102
:101BF000CF911F910F91FF90EF90DF90CF90BF900A
:101C00009F908F907F906F905F904F9008952F924C
:101C10003F924F925F926F927F928F929F92AF927C
:101C2000BF92CF92DF92EF92FF920F931F93CF93C9
:101C3000DF93EC014B016A015901F9011182108215
:101C40000E94DF0181116BC18D81811168C18C817E
:101C500081FF64C18E819F81A885B985AC01BD01DA
:101C60004C0D5D1D611D711D481759076A077B07E3
:101C700008F43EC1C114D10409F43AC14E815F8118
:101C800068857985DB01CA019170AA27BB27892B5A
:101C90008A2B8B2B09F0E6C0E881F9811281115063
:101CA000DB01CA01072E79E0B695A7959795879530
:101CB0007A95D1F7702D182309F040C0452B462B9B
:101CC000472B79F46E857F8588899989611571051F
:101CD0008105910591F440E050E0BA01CF0169D946
:101CE00006C04A895B896C897D89CF0162D96115FB
:101CF00071058105910509F4FBC06130710581050D
:101D0000910519F482E08D830AC16F3FFFEF7F07D1
:101D10008F079F0719F481E08D8301C16A8B7B8B4C
:101D20008C8B9D8B4E845F846888798845284628F3
:101D3000472821F46E877F87888B998BE881F9810A
:101D400042A553A564A575A58E899F89A88DB98DD7
:101D5000481759076A077B0741F4CF010E94FD002D
:101D6000882319F081E08D83DAC0288039804A8980
:101D70005B896C897D89C1010E94EC046115710544
:101D80008105910519F482E08D83C9C02B013C01C6
:101D9000410E511C611C711C7601EF2CFF24E6944E
:101DA000E114F10409F43FC0F1014281242F30E035
:101DB000C701810F911D2817390718F47901E11A1D
:101DC000F1088701A3019201B401F10181810E9410
:101DD000C932882319F081E08D83A1C0E881F9819F
:101DE00082A593A5A4A5B5A584199509A609B70947
:101DF000A70160E070E084179507A607B70778F49D
:101E0000982F8827990FB401680F791F40E052E09E
:101E1000CF018E960E949A00E881F9811482FE2CEF
:101E2000EE24FF0C4CC04E815F81688579858A85E0
:101E30009B85AC85BD85481759076A077B0770F0FD
:101E4000C1010E94FD00882319F081E08D8367C0E5
:101E5000E881F98142A653A664A675A64E8A5F8AD8
:101E6000688E798E2E813F81317080E092E0821BF6
:101E7000930B76018C159D0508F47C014E895F89D2
:101E8000688D798D888199810E946801882319F075
:101E900081E08D8344C08E819F81A885B985917032
:101EA000AA27BB278E9628813981A701B401820F0A
:101EB000931F0E949A00E881F98121E024838E0C0F
:101EC0009F1C8E819F81A885B9858E0D9F1DA11DA8
:101ED000B11D8E839F83A887B987F5018081918189
:101EE0008E0D9F1D91838083CE18DF0809F0C6CE2A
:101EF0008E819F81A885B9854A855B856C857D85A6
:101F0000481759076A077B0720F48A879B87AC87A5
:101F1000BD878C8180628C8380E001C087E0DF9187
:101F2000CF911F910F91FF90EF90DF90CF90BF90D6
:101F3000AF909F908F907F906F905F904F903F9069
:101F40002F9008950F931F93CF93DF93EC010E947E
:101F5000DF01982F811198C08C8185FF95C04A8D33
:101F60005B8D6C8D7D8D888199810E946801982F91
:101F700081118AC0EE8DFF8D8385806283878A857B
:101F80009B85AC85BD85848F958FA68FB78F8E85F9
:101F90009F85A889B989938F828FB58BA48B80E0A8
:101FA00090E0A5E8B8E4868B978BA08FB18F138A59
:101FB000128A8C818F7D8C83E881F98181E0848312
:101FC0000990D881C02DCE010E94FD00982F81116B
:101FD0005BC08881833009F04DC08D81813009F06C
:101FE00049C0BE01625D7F4FFB01CE01825D9D4F06
:101FF0001192E817F907E1F785E59AEAFE01E45D39
:10200000FD4F9183808382E592E5A1E6B1E48EA73E
:102010009FA7A8ABB9AB82E792E7A1E4B1E67A97B4
:1020200080839183A283B3838E859F85A889B98994
:10203000349680839183A283B3838A859B85AC8504
:10204000BD85349680839183A283B3838A8D9B8DD3
:10205000AC8DBD8D9C01AD012F5F3F4F4F4F5F4F4A
:102060002AA73BA74CA75DA701E010E089810E9449
:10207000C9321D8240E050E060E089810E942B332C
:1020800091E0811101C090E0892FDF91CF911F91E4
:102090000F910895CF93DF93EC0154DF811107C0B6
:1020A000CE010E94DF01811102C019821882DF91E6
:1020B000CF9108952F923F924F925F926F927F92AD
:1020C0008F929F92AF92BF92CF92DF92EF92FF9248
:1020D0000F931F93CF93DF9300D01F92CDB7DEB73E
:1020E0001C016A017B010E94DF01811183C1D101C2
:1020F00015968C91159781117DC11A968D919D91A0
:102100000D90BC91A02D8C159D05AE05BF0530F43A
:10211000F101248121FD02C06C017D01D1011696DF
:102120004D905D906D907C901997F1011682178209
:1021300010861186C114D104E104F10409F457C1D9
:1021400000811181D80112968C90912CA12CB12C78
:10215000072E79E0880C991CAA1CBB1C7A95D1F734
:10216000702D411451046104710409F43FC0B1E0C1
:102170004B1A510861087108C701B6016150710915
:1021800081099109A50194010E940D3629833A83A2
:102190004B835C83C301B201A50194010E940D36FB
:1021A00089819A81AB81BC8182179307A407B50707
:1021B000E8F088279927DC0188199909AA09BB0941
:1021C000482259226A227B22D10116964D925D92B5
:1021D0006D927C921997C418D508E608F7085296B4
:1021E0004D915D916D917C91559732C0F10146857D
:1021F000578560897189411551056105710519F58A
:1022000040E050E0BA01C8010E94D907AB01BC010F
:10221000413051056105710529F482E0D10115961F
:102220008C93E8C04F3FBFEF5B076B077B0721F440
:1022300081E0F1018583DEC0D1011E964D935D934F
:102240006D937C935197F101428B538B648B758B0B
:10225000411551056105710509F494C08C149D0464
:10226000AE04BF0408F05CC0D10114968C911497A1
:1022700081FF0CC08D919C910E94D907AB01BC01DC
:10228000411551056105710541F448C0F101808196
:1022900091810E941A05AB01BC014F3FFFEF5F0720
:1022A0006F077F0729F481E0D10115968C93A2C0B6
:1022B000423051056105710560F0D101ED91FC914D
:1022C00082899389A489B589481759076A077B07CA
:1022D00020F082E0F10185838DC0D10152964D93AB
:1022E0005D936D937C93559716968D919D910D906E
:1022F000BC91A02D880D991DAA1DBB1DF1018683DF
:102300009783A087B187C818D908EA08FB088C14FE
:102310009D04AE04BF0408F4A7CF02C07501640198
:10232000F10186819781A085B1858C0D9D1DAE1D23
:10233000BF1D86839783A087B187D701C60191709F
:10234000AA27BB27892B8A2B8B2B01F180819181B6
:102350000E94EC04611571058105910529F482E064
:10236000D10115968C9346C00B2EB9E0F694E794F4
:10237000D794C794BA95D1F7B02DC60ED71EE81ED4
:10238000F91E07C0C12CD12C760103C0C12CD12C61
:102390007601F10186819781A085B185AC01BD01EF
:1023A000517066277727452B462B472B69F04689C6
:1023B0005789608D718D4C155D056E057F0521F087
:1023C000C68AD78AE08EF18EF101428553856485F5
:1023D0007585481759076A077B0758F482879387E2
:1023E000A487B58784818062848380E003C080E015
:1023F00001C080E00F900F900F900F90DF91CF9170
:102400001F910F91FF90EF90DF90CF90BF90AF9012
:102410009F908F907F906F905F904F903F902F9004
:1024200008951F920F920FB60F9211240BB60F92C0
:102430008F93EF93FF93EFE1F8E001900020E9F72D
:102440008091C6003197808381E080937C05FF9165
:10245000EF918F910F900BBE0F900FBE0F901F90BA
:1024600018951F920F920FB60F9211240BB60F9270
:102470008F93EF93FF93EBEBF7E001900020E9F7E8
:102480008091CE003197808381E080937B05FF911E
:10249000EF918F910F900BBE0F900FBE0F901F907A
:1024A00018951F920F920FB60F9211240F900FBE26
:1024B0000F901F9018951F920F920FB60F92112434
:1024C0008F939F9381E080937A058BE791EE9093B1
:1024D0008500809384009F918F910F900FBE0F9085
:1024E0001F901895EF92FF920F931F93CF93DF9356
:1024F0001F921F92CDB7DEB72130310519F59A0131
:102500007B018C0142E1B901C7017ED981111DC057
:10251000F7014285538564857585C701CBDDF801D8
:1025200001900020E9F73197AF01401B510B9E014C
:102530002F5F3F4FB801C7016ADBC701ABDD80E009
:1025400090E005C080E090E002C081E090E00F9054
:102550000F90DF91CF911F910F91FF90EF90089511
:10256000EAE7F0E087E8808384E080937C00808164
:1025700080648083808184FFFDCF609178007091BA
:10258000790080E090E00E94E13420E030E041E614
:1025900053E40E94973520E030E040E85BE30E947E
:1025A000973520E030E048E652E40E94DF330E9495
:1025B000B034CB010895CF92DF92EF92FF92EAE719
:1025C000F0E087E8808310927C00808180648083C3
:1025D000808184FFFDCF80917800909179000097F1
:1025E00009F44CC0BC01660F771F660F771F680F98
:1025F000791F072E000C880B990B0E94E3346B01A6
:102600007C019B01AC0160E070E080EA95E40E94EF
:10261000DF3320E030E249E156E40E949735A7011C
:1026200096010E94483420E030E048EC52E40E94D9
:10263000973520E030E44EEC55E40E94483420E029
:1026400030E048ED51E40E94DF336B017C0120E073
:1026500030E0A9010E94443488239CF020E030E05F
:1026600046E153E4C701B6010E949335181664F0A1
:10267000C701B6010E94B034CB0108C08EEF9FEFB6
:1026800005C08EEF9FEF02C08FEF9FEFFF90EF909E
:10269000DF90CF900895CF92DF92EF92FF92EAE71A
:1026A000F0E087E8808381E080937C008081806413
:1026B0008083808184FFFDCF8091780090917900A4
:1026C000009709F452C0BC01660F771F660F771F91
:1026D000680F791F072E000C880B990B0E94E334BA
:1026E0006B017C019B01AC0160E070E080EA95E445
:1026F0000E94DF3320E038E74BE956E40E9497352B
:10270000A70196010E94483420E030E04AE754E4F3
:102710000E94973520E038E146E756E40E944834AD
:1027200020E030E040EA50E40E94483420E030E00D
:1027300048E252E40E94DF336B017C0120E030E08C
:10274000A9010E94443488239CF020E030E046E157
:1027500053E4C701B6010E949335181664F0C7010F
:10276000B6010E94B034CB0108C08EEF9FEF05C0C8
:102770008EEF9FEF02C08FEF9FEFFF90EF90DF9003
:10278000CF900895CF92DF92EF92FF92EAE7F0E0C8
:1027900087E8808382E080937C00808180648083EE
:1027A000808184FFFDCF809178009091790000971F
:1027B00009F44CC0BC01660F771F660F771F680FC6
:1027C000791F072E000C880B990B0E94E3346B01D4
:1027D0007C019B01AC0160E070E080EA95E40E941E
:1027E000DF3320E030EB4AE156E40E949735A70141
:1027F00096010E94483420E030E048EC52E40E9408
:10280000973520E030E04AEF54E40E94483420E05D
:1028100030E040E151E40E94DF336B017C0120E0B5
:1028200030E0A9010E94443488239CF020E030E08D
:1028300046E153E4C701B6010E949335181664F0CF
:10284000C701B6010E94B034CB0108C08EEF9FEFE4
:1028500005C08EEF9FEF02C08FEF9FEFFF90EF90CC
:10286000DF90CF900895CF92DF92EF92FF92EAE748
:10287000F0E087E8808383E080937C00808180643F
:102880008083808184FFFDCF8091780090917900D2
:10289000009709F44CC0BC01660F771F660F771FC5
:1028A000680F791F072E000C880B990B0E94E334E8
:1028B0006B017C019B01AC0160E070E080EA95E473
:1028C0000E94DF3320E030E249E956E40E94973568
:1028D000A70196010E94483420E030E048E453E428
:1028E0000E94973520E030EB41E855E40E944834DF
:1028F00020E030E040EF52E40E94DF336B017C01C6
:1029000020E030E0A9010E94443488239CF020E0BC
:1029100030E040E253E4C701B6010E949335181637
:1029200064F0C701B6010E94B034CB0108C08EEF3D
:102930009FEF05C08EEF9FEF02C08FEF9FEFFF90DC
:10294000EF90DF90CF90089581309105B9F01CF49D
:10295000892B39F0089582309105E9F0039741F110
:10296000089588E98093C10086E08093C20083E3E4
:1029700090E09093C5008093C400089588E9809307
:10298000C90086E08093CA0083E390E09093CD0075
:102990008093CC00089588E98093D10086E08093ED
:1029A000D20083E390E09093D5008093D400089503
:1029B00088E98093310186E08093320183E390E0DF
:1029C00090933501809334010895CF93DF93DB0119
:1029D00081309105D1F01CF4892BF9F079C0823057
:1029E000910559F0039709F073C0AB0120E030E086
:1029F000E0E3F1E066E371E061C0AB0120E030E0CC
:102A0000E0EDF0E066ED70E044C0AB0120E030E0C6
:102A1000E8ECF0E06EEC70E027C0AB0120E030E0C5
:102A2000E0ECF0E066EC70E00AC0808185FFFDCF4D
:102A3000EA018991AE01EB0188832F5F3F4FED01E1
:102A400009900020E9F72197CA1BDB0B2C173D07E3
:102A500060F33EC0808185FFFDCFEA018991AE0120
:102A6000EB0188832F5F3F4FED0109900020E9F7CC
:102A70002197CA1BDB0B2C173D0760F329C080810F
:102A800085FFFDCFEA018991AE01EB0188832F5FBD
:102A90003F4FED0109900020E9F72197CA1BDB0B9E
:102AA0002C173D0760F314C0808185FFFDCFEA013C
:102AB0008991AE01EB0188832F5F3F4FED010990B3
:102AC0000020E9F72197CA1BDB0B2C173D0760F3A9
:102AD000DF91CF9108954F925F926F927F928F9284
:102AE0009F92AF92BF92CF92DF92EF92FF920F939D
:102AF0001F93CF93DF93CDB7DEB76D970FB6F894E2
:102B0000DEBF0FBECDBF7C018B011A821982FC0192
:102B10008381873409F0C5C0CE010D969F938F93B2
:102B200002979F938F930A969F938F939F938F9370
:102B30009F938F939E012F5F3F4F3F932F932D5E67
:102B40003F4F3F932F932B5031093F932F932250A8
:102B500031093F932F93245F3F4F3F932F932E5084
:102B600031093F932F93225031093F932F939F9325
:102B70008F9306979F938F9380E992E09F938F9313
:102B8000FF92EF920E94B6368B819C8124E630E062
:102B9000B9010E94FA356B015C017C836B838F81E4
:102BA0009885B9010E94FA357B014C0178876F83C3
:102BB0006F85788989899A890F2EF4E64F2E512CDA
:102BC000612C712CF02DA30192010E942F366A8F87
:102BD0007B8F8C8F9D8FCA01B901A30192010E9446
:102BE0002F360FB6F894DEBF0FBECDBF27303105AC
:102BF0004105510564F029013A01F7E04F1A5108E7
:102C0000610871084F86588A698A7A8A0BC029013F
:102C10003A01E1E14E0E511C611C711C4F86588A2D
:102C2000698A7A8A49815A814130510581F42B8918
:102C3000233529F4D194C194D108DC82CB822C892C
:102C4000273529F4F194E194F108F886EF822F8575
:102C50003889F80131832083738362832A8D3B8D09
:102C6000358324832B813C8137832683B186A086DC
:102C70002D813E81338722872F81388535872487B0
:102C80009786868629853A85318B208B538B428B9C
:102C90008B859C85958B848B8D859E85978B868B6C
:102CA000FAC0823509F0F7C0CE010F969F938F933B
:102CB00082EC92E09F938F93FF92EF920E94B63640
:102CC0006F85788989899A890F2EF4E64F2E512CC9
:102CD000612C712CF02DA30192010E942F364B0123
:102CE0005C01CA01B901A30192010E942F360F9025
:102CF0000F900F900F900F900F90273031054105E6
:102D0000510564F029013A01E7E04E1A51086108C3
:102D100071084F86588A698A7A8A0BC029013A015C
:102D2000F1E14F0E511C611C711C4F86588A698A53
:102D30007A8A2F853889F8013183208373836283EF
:102D400095828482F70180818C3241F0319680E057
:102D500090E0019621912C32E1F702C080E090E0F2
:102D60009C012F5F3F4FF701E20FF31F40814C3270
:102D700081F405C02F5F3F4F81918C32D9F72F5FCF
:102D80003F4FF701E20FF31F8081813409F083C0C8
:102D900005C00296F701E80FF91FECCF81E090E043
:102DA000F801938B828B47E050E053C02F5F3F4F79
:102DB00091919C32D9F72F5F3F4F4150510909F053
:102DC00048C0E20EF31EF70180818F8B8181888FCE
:102DD000198EC8014A969F938F930F2EF4E0AF2E61
:102DE000F3E0BF2EF02DBF92AF926E01F7E1CF0E50
:102DF000D11CDF92CF920E94B636F70182818F8B71
:102E00008381888F198EC80148969F938F93BF92B4
:102E1000AF92DF92CF920E94B636F70184818F8BFA
:102E20008581888F198EC8014C969F938F93BF928E
:102E3000AF92DF92CF920E94B636F801808D918DCD
:102E400001970FB6F894DEBF0FBECDBF0C9790F47C
:102E50000CC0F701E20FF31F80818C3209F4ABCF75
:102E6000F9013196EE0DFF1DA1CF6DEC72E081E00E
:102E700090E0ABDD8F859889A989BA894197A1092E
:102E8000B1090797A105B10530F4F801828D938D42
:102E90000197938F828F6D960FB6F894DEBF0FBEA9
:102EA000CDBFDF91CF911F910F91FF90EF90DF90F9
:102EB000CF90BF90AF909F908F907F906F905F90DA
:102EC0004F9008950F931F93CF93DF9300D01F92DD
:102ED000CDB7DEB78B019E012D5F3F4F3F932F9300
:102EE000225031093F932F9321E033E03F932F93FA
:102EF0009F938F930E94B63689819A81F8019183BE
:102F000080838B819C81938382830FB6F894DEBF8C
:102F10000FBECDBF0F900F900F900F90DF91CF910C
:102F20001F910F910895FC0101900020E9F731975E
:102F3000E81BF90B1E161F0634F4E80FF91F129256
:102F4000E817F907E1F7089567E073E081E090E0A2
:102F50003CDD68E173E081E090E037DD6AE273E038
:102F600081E090E032CD0895CF93DF93CDB7DEB707
:102F7000C251D6400FB6F894DEBF0FBECDBF10BA17
:102F80008EEE98E2CB5BDE4F99838883C554D140A7
:102F90008AEE95E2C95BDE4F99838883C754D1409E
:102FA00087E393E2C75BDE4F99838883C954D1409E
:102FB0008AEC90E2C55BDE4F99838883CB54D14085
:102FC0008AE99EE1C35BDE4F99838883CD54D1406B
:102FD0008FE99CE1C15BDE4F99838883CF54D14058
:102FE00084ED9AE1CF5ADE4F99838883C155D14051
:102FF00081E399E1CD5ADE4F99838883C355D1404F
:1030000084EB97E1CB5ADE4F99838883C555D14035
:1030100086E596E1C95ADE4F99838883C755D1402A
:1030200086E195E1C75ADE4F99838883C955D1401F
:103030008FEE93E1C55ADE4F99838883CB55D140FB
:103040008FED92E1C35ADE4F99838883CD55D140ED
:1030500085EE91E1C15ADE4F99838883CF55D140E7
:103060008DEF90E1CF59DE4F99838883C156D140CF
:1030700085E290E1CD59DE4F99838883C356D140D4
:103080008EE59FE0CB59DE4F99838883C556D140AA
:1030900084EA9EE0C959DE4F99838883C756D140A0
:1030A00087EF9DE0C759DE4F99838883C956D14089
:1030B00085E59DE0C559DE4F99838883CB56D14085
:1030C0008EEB9CE0C359DE4F99838883CD56D14067
:1030D00081E39CE0C159DE4F99838883CF56D1406C
:1030E0006CEA7BE0CF58DE4F79836883C157D140CB
:1030F00080E39BE0CD58DE4F99838883C357D1404E
:103100008BEB9AE0CB58DE4F99838883C557D1402B
:103110008DE49AE0C958DE4F99838883C757D14020
:1031200085EE99E0C758DE4F99838883C957D1400F
:1031300083E899E0C558DE4F99838883CB57D14007
:1031400087E299E0C358DE4F99838883CD57D140F9
:1031500080ED98E0C158DE4F99838883CF57D140E6
:103160008DE798E0CF57DE4F99838883C158D140CF
:103170008FE298E0CD57DE4F99838883C358D140C2
:1031800085EE97E0CB57DE4F99838883C558D140B1
:103190008FE997E0C957DE4F99838883C758D1409C
:1031A0008CE597E0C757DE4F99838883C958D14093
:1031B0008DE197E0C557DE4F99838883CB58D14086
:1031C00080EE96E0C357DE4F99838883CD58D14077
:1031D00087EA96E0C157DE4F99838883CF58D14064
:1031E00080E796E0CF56DE4F99838883C159D1405E
:1031F0008CE396E0CD56DE4F99838883C359D14046
:103200008AE096E0CB56DE4F99838883C559D1403A
:103210008BED95E0C956DE4F99838883C759D1401D
:103220008EEA95E0C756DE4F99838883C959D1400D
:1032300082E895E0C556DE4F99838883CB59D1400B
:1032400089E595E0C356DE4F99838883CD59D140F7
:1032500081E395E0C156DE4F99838883CF59D140F1
:103260008BE095E0CF55DE4F99838883C15AD140DA
:1032700086EE94E0CD55DE4F99838883C35AD140C2
:1032800084EC94E0CB55DE4F99838883C55AD140B6
:1032900082EA94E0C955DE4F99838883C75AD140AA
:1032A00082E894E0C755DE4F99838883C95AD1409C
:1032B00083E694E0C555DE4F99838883CB5AD1408D
:1032C00085E494E0C355DE4F99838883CD5AD1407D
:1032D00089E294E0C155DE4F99838883CF5AD1406B
:1032E0008DE094E0CF54DE4F99838883C15BD14059
:1032F00083EF93E0CD54DE4F99838883C35BD14045
:1033000089ED93E0CB54DE4F99838883C55BD14030
:1033100081EC93E0C954DE4F99838883C75BD14029
:1033200089EA93E0C754DE4F99838883C95BD14013
:1033300082E993E0C554DE4F99838883CB5BD1400B
:103340008CE793E0C354DE4F99838883CD5BD140F3
:1033500087E693E0C154DE4F99838883CF5BD140E9
:1033600083E593E0CF53DE4F99838883C15CD140DE
:103370008FE393E0CD53DE4F99838883C35CD140C4
:103380008CE293E0CB53DE4F99838883C55CD140B8
:1033900089E193E0C953DE4F99838883C75CD140AC
:1033A00087E093E0C753DE4F99838883C95CD1409F
:1033B00086EF92E0C553DE4F99838883CB5CD14082
:1033C00085EE92E0C353DE4F99838883CD5CD14074
:1033D00085ED92E0C153DE4F99838883CF5CD14065
:1033E00086EC92E0CF52DE4F99838883C15DD14055
:1033F00086EB92E0CD52DE4F99838883C35DD14046
:1034000088EA92E0CB52DE4F99838883C55DD14034
:103410008BE992E0C952DE4F99838883C75DD14022
:103420008CE892E0C752DE4F99838883C95DD14012
:103430008EE792E0C552DE4F99838883CB5DD14001
:1034400081E792E0C352DE4F99838883CD5DD140FE
:1034500085E692E0C152DE4F99838883CF5DD140EB
:1034600089E592E0CF51DE4F99838883C15ED140D8
:103470008DE492E0CD51DE4F99838883C35ED140C5
:1034800081E492E0CB51DE4F99838883C55ED140C1
:1034900086E392E0C951DE4F99838883C75ED140AD
:1034A0008BE292E0C751DE4F99838883C95ED14099
:1034B00081E292E0C551DE4F99838883CB5ED14093
:1034C00086E192E0C351DE4F99838883CD5ED1407F
:1034D0008CE092E0C151DE4F99838883CF5ED1406A
:1034E00083E092E0CF50DE4F99838883C15FD14063
:1034F00089EF91E0CD50DE4F99838883C35FD1403F
:1035000080EF91E0CB50DE4F99838883C55FD14037
:1035100087EE91E0C950DE4F99838883C75FD14021
:103520008EED91E0C750DE4F99838883C95FD1400B
:1035300086ED91E0C550DE4F99838883CB5FD14003
:103540008DEC91E0C350DE4F99838883CD5FD140ED
:1035500085EC91E0C150DE4F99838883CF5FD140E5
:103560004EEB51E0CF5FDD4F59834883C150D240CD
:1035700026EB31E0CD5FDD4F39832883C350D24045
:103580008EEA91E0CB5FDD4F99838883C550D240AE
:10359000E7EAF1E0C95FDD4FF983E883C750D24025
:1035A000E0EAF1E0C75FDD4FF983E883C950D2401C
:1035B000E9E9F1E0C55FDD4FF983E883CB50D24004
:1035C000E2E9F1E0C35FDD4FF983E883CD50D240FB
:1035D000ECE8F1E0C15FDD4FF983E883CF50D240E2
:1035E000E5E8F1E0CF5EDD4FF983E883C151D240D9
:1035F000EFE7F1E0CD5EDD4FF983E883C351D240C0
:10360000E9E7F1E0CB5EDD4FF983E883C551D240B5
:10361000E3E7F1E0C95EDD4FF983E883C751D240AB
:10362000EDE6F1E0C75EDD4FF983E883C951D24092
:10363000E7E6F1E0C55EDD4FF983E883CB51D24088
:10364000E2E6F1E0C35EDD4FF983E883CD51D2407D
:10365000ECE5F1E0C15EDD4FF983E883CF51D24064
:10366000E7E5F1E0CF5DDD4FF983E883C152D24059
:10367000E2E5F1E0CD5DDD4FF983E883C352D2404E
:10368000EDE4F1E0CB5DDD4FF983E883C552D24034
:10369000E8E4F1E0C95DDD4FF983E883C752D24029
:1036A000E3E4F1E0C75DDD4FF983E883C952D2401E
:1036B000EEE3F1E0C55DDD4FF983E883CB52D24004
:1036C000E9E3F1E0C35DDD4FF983E883CD52D240F9
:1036D000E5E3F1E0C15DDD4FF983E883CF52D240ED
:1036E000E0E3F1E0CF5CDD4FF983E883C153D240E2
:1036F000ECE2F1E0CD5CDD4FF983E883C353D240C7
:10370000E8E2F1E0CB5CDD4FF983E883C553D240BA
:10371000E4E2F1E0C95CDD4FF983E883C753D240AE
:10372000EFE1F1E0C75CDD4FF983E883C953D24094
:10373000EBE1F1E0C55CDD4FF983E883CB53D24088
:10374000E7E1F1E0C35CDD4FF983E883CD53D2407C
:10375000E4E1F1E0C15CDD4FF983E883CF53D2406F
:10376000E0E1F1E0CF5BDD4FF983E883C154D24063
:10377000ECE0F1E0CD5BDD4FF983E883C354D24048
:10378000E9E0F1E0CB5BDD4FF983E883C554D2403B
:10379000E5E0F1E0C95BDD4FF983E883C754D2402F
:1037A000E1E0F1E0C75BDD4FF983E883C954D24023
:1037B000EEEFF0E0C55BDD4FF983E883CB54D240F8
:1037C000EBEFF0E0C35BDD4FF983E883CD54D240EB
:1037D000E7EFF0E0C15BDD4FF983E883CF54D240DF
:1037E000E4EFF0E0CF5ADD4FF983E883C155D240D2
:1037F000E1EFF0E0CD5ADD4FF983E883C355D240C5
:10380000EEEEF0E0CB5ADD4FF983E883C555D240A8
:10381000EBEEF0E0C95ADD4FF983E883C755D2409B
:10382000E8EEF0E0C75ADD4FF983E883C955D2408E
:10383000E5EEF0E0C55ADD4FF983E883CB55D24081
:10384000E2EEF0E0C35ADD4FF983E883CD55D24074
:10385000EFEDF0E0C15ADD4FF983E883CF55D24058
:10386000ECEDF0E0CF59DD4FF983E883C156D2404B
:10387000EAEDF0E0CD59DD4FF983E883C356D2403D
:10388000E7EDF0E0CB59DD4FF983E883C556D24030
:10389000E4EDF0E0C959DD4FF983E883C756D24023
:1038A000E2EDF0E0C759DD4FF983E883C956D24015
:1038B000EFECF0E0C559DD4FF983E883CB56D240F9
:1038C000EDECF0E0C359DD4FF983E883CD56D240EB
:1038D000EAECF0E0C159DD4FF983E883CF56D240DE
:1038E000E8ECF0E0CF58DD4FF983E883C157D240D0
:1038F000EBE8F6E2CD58DD4FF983E883C357D240B9
:10390000EBE4F4E2CB58DD4FF983E883C557D240AE
:10391000E8E3F2E2C958DD4FF983E883C757D240A4
:10392000EFE4F0E2C758DD4FF983E883C957D2408E
:10393000EBE8FEE1C558DD4FF983E883CB57D24071
:10394000E8EEFCE1C358DD4FF983E883CD57D24060
:10395000E4E6FBE1C158DD4FF983E883CF57D2405D
:10396000ECEFF9E1CF57DD4FF983E883C158D2403E
:10397000EDEAF8E1CD57DD4FF983E883C358D24033
:10398000E5E7F7E1CB57DD4FF983E883C558D2402F
:10399000E2E5F6E1C957DD4FF983E883C758D24025
:1039A000E3E4F5E1C757DD4FF983E883C958D24016
:1039B000E5E4F4E1C557DD4FF983E883CB58D24005
:1039C000E7E5F3E1C357DD4FF983E883CD58D240F3
:1039D000E8E7F2E1C157DD4FF983E883CF58D240E1
:1039E000E6EAF1E1CF56DD4FF983E883C159D240D1
:1039F000E2EEF0E1CD56DD4FF983E883C359D240C2
:103A0000E9E2F0E1CB56DD4FF983E883C559D240B6
:103A1000EBE7FFE0C956DD4FF983E883C759D24091
:103A2000E7EDFEE0C756DD4FF983E883C959D24080
:103A3000ECE3FEE0C556DD4FF983E883CB59D24075
:103A4000EAEAFDE0C356DD4FF983E883CD59D24061
:103A5000E0E2FDE0C156DD4FF983E883CF59D24063
:103A6000EDE9FCE0CF55DD4FF983E883C15AD24040
:103A7000E2E2FCE0CD55DD4FF983E883C35AD24042
:103A8000CB55DD4F79836883C55AD24064ED7AE027
:103A9000C955DD4F79836883C75AD24060E77AE021
:103AA000C755DD4F79836883C95AD24061E17AE016
:103AB000C555DD4F79836883CB5AD24066EB79E0F8
:103AC000C355DD4F79836883CD5AD24060E679E0F3
:103AD000C155DD4F79836883CF5AD2406EE079E0DB
:103AE000CF54DD4F79836883C15BD24060EC78E0CE
:103AF000CD54DD4F79836883C35BD24065E778E0BE
:103B0000CB54DD4F79836883C55BD2406EE278E0A9
:103B1000C954DD4F79836883C75BD2406AEE77E092
:103B2000C754DD4F79836883C95BD24069EA77E087
:103B3000C554DD4F79836883CB5BD2406BE677E079
:103B4000C354DD4F79836883CD5BD2406FE277E069
:103B5000C154DD4F79836883CF5BD24067EF76E055
:103B6000CF53DD4F79836883C15CD24060EC76E04F
:103B7000CD53DD4F79836883C35CD2406CE876E037
:103B8000CB53DD4F79836883C55CD2406AE576E02C
:103B9000C953DD4F79836883C75CD2406AE276E01F
:103BA000C753DD4F79836883C95CD2406CEF75E001
:103BB000C553DD4F79836883CB5CD24060ED75E0FF
:103BC000C353DD4F79836883CD5CD24066EA75E0EC
:103BD000C153DD4F79836883CF5CD2406DE775E0D8
:103BE000CF52DD4F79836883C15DD24066E575E0D1
:103BF000CD52DD4F79836883C35DD24060E375E0C9
:103C0000CB52DD4F79836883C55DD2406CE075E0AF
:103C1000C952DD4F79836883C75DD24069EE74E095
:103C2000C752DD4F79836883C95DD24067EC74E089
:103C3000C552DD4F79836883CB5DD24067EA74E07B
:103C4000C352DD4F79836883CD5DD24068E874E06C
:103C5000C152DD4F79836883CF5DD2406AE674E05C
:103C6000CF51DD4F79836883C15ED2406DE474E04B
:103C7000CD51DD4F79836883C35ED24061E374E048
:103C8000CB51DD4F79836883C55ED24066E174E035
:103C9000C951DD4F79836883C75ED2406CEF73E012
:103CA000C751DD4F79836883C95ED24063EE73E00C
:103CB000C551DD4F79836883CB5ED2406BEC73E0F6
:103CC000C351DD4F79836883CD5ED24063EB73E0EF
:103CD000C151DD4F79836883CF5ED2406CE973E0D8
:103CE000CF50DD4F79836883C15FD24067E873E0CE
:103CF000CD50DD4F79836883C35FD24061E773E0C5
:103D0000CB50DD4F79836883C55FD2406DE573E0AA
:103D1000C950DD4F79836883C75FD24069E473E09F
:103D2000C750DD4F79836883C95FD24066E373E093
:103D3000C550DD4F79836883CB5FD24063E273E087
:103D4000C350DD4F79836883CD5FD24061E173E07A
:103D5000C150DD4F79836883CF5FD24060E073E06C
:103D6000CF5FDC4F79836883C150D3406FEE72E040
:103D7000CD5FDC4F79836883C350D3406EED72E032
:103D8000CB5FDC4F79836883C550D3406EEC72E023
:103D9000C95FDC4F79836883C750D3406FEB72E013
:103DA000C75FDC4F79836883C950D34060EB72E012
:103DB000C55FDC4F79836883CB50D34061EA72E002
:103DC000C35FDC4F79836883CD50D34063E972E0F1
:103DD000C15FDC4F79836883CF50D34065E872E0E0
:103DE000CF5EDC4F79836883C151D34068E772E0CE
:103DF000CD5EDC4F79836883C351D3406BE672E0BC
:103E0000CB5EDC4F79836883C551D3406EE572E0A9
:103E1000C95EDC4F79836883C751D34062E572E0A5
:103E2000C75EDC4F79836883C951D34066E472E092
:103E3000C55EDC4F79836883CB51D3406BE372E07E
:103E4000C35EDC4F79836883CD51D3406FE272E06B
:103E5000C15EDC4F79836883CF51D34065E272E065
:103E6000CF5DDC4F79836883C152D3406AE172E051
:103E7000CD5DDC4F79836883C352D34060E172E04B
:103E8000CB5DDC4F79836883C552D34065E072E037
:103E9000C95DDC4F79836883C752D3406CEF71E012
:103EA000C75DDC4F79836883C952D34062EF71E00C
:103EB000C55DDC4F79836883CB52D34069EE71E0F6
:103EC000C35DDC4F79836883CD52D34060EE71E0EF
:103ED000C15DDC4F79836883CF52D34067ED71E0D9
:103EE000CF5CDC4F79836883C153D3406EEC71E0C3
:103EF000CD5CDC4F79836883C353D34066EC71E0BB
:103F0000CB5CDC4F79836883C553D340C95CDC4FFD
:103F100059834883C753D340C75CDC4F3983288318
:103F2000C953D340C55CDC4F99838883CB53D340BE
:103F300086EA91E0C35CDC4F99838883CD53D340FC
:103F40008FE991E0C15CDC4F99838883CF53D340E4
:103F500088E991E0CF5BDC4F99838883C154D340DB
:103F600081E991E0CD5BDC4F99838883C354D340D2
:103F70008AE891E0CB5BDC4F99838883C554D340BA
:103F800083E891E0C95BDC4F99838883C754D340B1
:103F90008CE791E0C75BDC4F99838883C954D34099
:103FA00086E791E0C55BDC4F99838883CB54D3408F
:103FB00080E791E0C35BDC4F99838883CD54D34085
:103FC0008AE691E0C15BDC4F99838883CF54D3406C
:103FD00084E691E0CF5ADC4F99838883C155D34062
:103FE0008EE591E0CD5ADC4F99838883C355D34049
:103FF00088E591E0CB5ADC4F99838883C555D3403F
:1040000083E591E0C95ADC4F99838883C755D34033
:104010008DE491E0C75ADC4F99838883C955D3401A
:1040200088E491E0C55ADC4F99838883CB55D3400F
:1040300083E491E0C35ADC4F99838883CD55D34004
:104040008DE391E0C15ADC4F99838883CF55D340EB
:1040500088E391E0CF59DC4F99838883C156D340E0
:1040600084E391E0CD59DC4F99838883C356D340D4
:104070008FE291E0CB59DC4F99838883C556D340BA
:104080008AE291E0C959DC4F99838883C756D340AF
:1040900086E291E0C759DC4F99838883C956D340A3
:1040A00081E291E0C559DC4F99838883CB56D34098
:1040B0008DE191E0C359DC4F99838883CD56D3407D
:1040C00088E191E0C159DC4F99838883CF56D34072
:1040D00084E191E0CF58DC4F99838883C157D34066
:1040E00080E191E0CD58DC4F99838883C357D3405A
:1040F0008CE091E0CB58DC4F99838883C557D3403F
:1041000088E091E0C958DC4F99838883C757D34032
:1041100084E091E0C758DC4F99838883C957D34026
:1041200080E091E0C558DC4F99838883CB57D3401A
:104130008DEF90E0C358DC4F99838883CD57D340EF
:1041400089EF90E0C158DC4F99838883CF57D340E3
:1041500086EF90E0CF57DC4F99838883C158D340D6
:1041600082EF90E0CD57DC4F99838883C358D340CA
:104170008FEE90E0CB57DC4F99838883C558D340AE
:104180008BEE90E0C957DC4F99838883C758D340A2
:1041900028EE30E0C757DC4F39832883C958D34015
:1041A00085EE90E0C557DC4F99838883CB58D34088
:1041B00082EE90E0C357DC4F99838883CD58D3407B
:1041C0004EED50E0C157DC4F59834883CF58D34060
:1041D0004BED50E0CF56DC4F59834883C159D34053
:1041E00048ED50E0CD56DC4F59834883C359D34046
:1041F00046ED50E0CB56DC4F59834883C559D34038
:1042000043ED50E0C956DC4F59834883C759D3402A
:1042100040ED50E0C756DC4F59834883C959D3401D
:104220004DEC50E0C556DC4F59834883CB59D34001
:104230004AEC50E0C356DC4F59834883CD59D340F4
:1042400048EC50E0C156DC4F59834883CF59D340E6
:1042500040E150E1CF55DC4F59834883C15AD340E8
:1042600047EA5DE0CD55DC4F59834883C35AD340BC
:1042700049EC5BE0CB55DC4F59834883C55AD340AA
:104280004EE45AE0C955DC4F59834883C75AD3409E
:104290004CE159E0C755DC4F59834883C95AD34094
:1042A00040E258E0C555DC4F59834883CB5AD34090
:1042B0004EE457E0C355DC4F59834883CD5AD34071
:1042C0004CE956E0C155DC4F59834883CF5AD3405F
:1042D00045E056E0CF54DC4F59834883C15BD3405F
:1042E00043E855E0CD54DC4F59834883C35BD3404A
:1042F00042E155E0CB54DC4F59834883C55BD34042
:104300004FEA54E0C954DC4F59834883C75BD3401C
:1043100048E554E0C754DC4F59834883C95BD34018
:104320004BE054E0C554DC4F59834883CB5BD3400A
:1043300047EC53E0C354DC4F59834883CD5BD340F3
:1043400049E853E0C154DC4F59834883CF5BD340E5
:1043500042E553E0CF53DC4F59834883C15CD340DF
:1043600040E253E0CD53DC4F59834883C35CD340D4
:1043700043EF52E0CB53DC4F59834883C55CD340B5
:104380004AEC52E0C953DC4F59834883C75CD340A1
:1043900044EA52E0C753DC4F59834883C95CD34099
:1043A00041E852E0C553DC4F59834883CB5CD3408E
:1043B00042E652E0C353DC4F59834883CD5CD3407F
:1043C00045E452E0C153DC4F59834883CF5CD3406E
:1043D0004AE252E0CF52DC4F59834883C15DD3405B
:1043E00041E152E0CD52DC4F59834883C35DD34055
:1043F0004AEF51E0CB52DC4F59834883C55DD3402F
:1044000044EE51E0C952DC4F59834883C75DD34025
:1044100040ED51E0C752DC4F59834883C95DD3401A
:104420004DEB51E0C552DC4F59834883CB5DD340FF
:104430004CEA51E0C352DC4F59834883CD5DD340F1
:104440004CE951E0C152DC4F59834883CF5DD340E2
:104450004CE851E0CF51DC4F59834883C15ED340D3
:104460004EE751E0CD51DC4F59834883C35ED340C2
:1044700040E751E0CB51DC4F59834883C55ED340C0
:1044800043E651E0C951DC4F59834883C75ED340AE
:1044900047E551E0C751DC4F59834883C95ED3409B
:1044A0004CE451E0C551DC4F59834883CB5ED34087
:1044B00041E451E0C351DC4F59834883CD5ED34082
:1044C00047E351E0C151DC4F59834883CF5ED3406D
:1044D0004DE251E0CF50DC4F59834883C15FD34058
:1044E00044E251E0CD50DC4F59834883C35FD34051
:1044F0004BE151E0CB50DC4F59834883C55FD3403B
:1045000043E151E0C950DC4F59834883C75FD34032
:104510004BE051E0C750DC4F59834883C95FD3401B
:1045200043E051E0C550DC4F59834883CB5FD34013
:104530004CEF50E0C350DC4F59834883CD5FD340EC
:1045400045EF50E0C150DC4F59834883CF5FD340E3
:104550004EEE50E0CF5FDB4F59834883C150D440CB
:10456000CD5FDB4F39832883C350D440CB5FDB4F13
:1045700099838883C550D4408CED90E0C95FDB4FB0
:1045800099838883C750D44087ED90E0C75FDB4FA5
:1045900099838883C950D44081ED90E0C55FDB4F9B
:1045A00099838883CB50D4408CEC90E0C35FDB4F81
:1045B00099838883CD50D4400F2EF7ECAF2EB12CC9
:1045C000F02DC15FDB4FB982A882CF50D44083EC7D
:1045D00090E0CF5EDB4F99838883C151D4408EEB4E
:1045E00090E0CD5EDB4F99838883C351D4408AEB42
:1045F00090E0CB5EDB4F99838883C551D44085EB37
:1046000090E0C95EDB4F99838883C751D44081EB2A
:1046100090E0C75EDB4F99838883C951D4408EEA0E
:1046200090E0C55EDB4F99838883CB51D4408AEA02
:1046300090E0C35EDB4F99838883CD51D44086EAF6
:1046400090E0C15EDB4F99838883CF51D4400F2E19
:10465000F3EA8F2E912CF02DCF5DDB4F998288826B
:10466000C152D4400F2EFFE96F2E712CF02DCD5D7D
:10467000DB4F79826882C352D4408CE990E0CB5DF5
:10468000DB4F99838883C552D44089E990E0C95DA6
:10469000DB4F99838883C752D4400F2EF6E94F2E03
:1046A000512CF02DC75DDB4F59824882C952D4404E
:1046B00083E990E0C55DDB4F99838883CB52D4407A
:1046C00080E990E0C35DDB4F99838883CD52D4406D
:1046D0008DE890E0C15DDB4F99838883CF52D44051
:1046E0000F2EFBE82F2E312CF02DCF5CDB4F3982C3
:1046F0002882C153D44088E890E0CD5CDB4F998399
:104700008883C353D44085E890E0CB5CDB4F99832A
:104710008883C553D4400F2EF3E8CF2ED12CF02D33
:10472000C95CDB4FD982C882C753D44081E890E08E
:10473000C75CDB4F99838883C953D4408EE790E0F0
:10474000C55CDB4F99838883CB53D4408CE790E0E2
:10475000C35CDB4F99838883CD53D4400F2EFAE797
:10476000EF2EF12CF02DC15CDB4FF982E882CF53A4
:10477000D44088E790E0CF5BDB4F99838883C154B6
:10478000D44086E790E0CD5BDB4F99838883C354A8
:10479000D44004E710E0CB5BDB4F19830883C5549A
:1047A000D44082E790E0C95BDB4F99838883C7548C
:1047B000D44080E790E0C75BDB4F99838883C9547E
:1047C000D4402EE630E0C55BDB4F39832883CB54E1
:1047D000D4408CE690E0C35BDB4F99838883CD5453
:1047E000D4406BE670E0C15BDB4F79836883CF54C4
:1047F000D44089E690E0CF5ADB4F99838883C15536
:10480000D44087E690E0CD5ADB4F99838883C35527
:10481000D440A6E6B0E0CB5ADB4FB983A883C55598
:10482000D4400F2EF4E6CF2ED12CF02DC95ADB4FF9
:10483000D982C882C755D44083E690E0C75ADB4F7F
:1048400099838883C955D4400F2EF1E6EF2EF12CC1
:10485000F02DC55ADB4FF982E882CB55D44080E673
:1048600090E0C35ADB4F99838883CD55D4408EE5C1
:1048700090E0C15ADB4F99838883CF55D4400DE532
:1048800010E0CF59DB4F19830883C156D4402BE584
:1048900030E0CD59DB4F39832883C356D4408AE5B5
:1048A00090E0CB59DB4F99838883C556D44069E5A6
:1048B00070E0C959DB4F79836883C756D44088E5D7
:1048C00090E0C759DB4F99838883C956D44086E569
:1048D00090E0C559DB4F99838883CB56D44085E55A
:1048E00090E0C359DB4F99838883CD56D440A4E52B
:1048F000B0E0C159DB4FB983A883CF56D4400F2E07
:10490000F3E5CF2ED12CF02DCF58DB4FD982C882C2
:10491000C157D44082E590E0CD58DB4F998388831E
:10492000C357D4400F2EF1E5EF2EF12CF02DCB58CC
:10493000DB4FF982E882C557D44080E590E0C95842
:10494000DB4F99838883C757D4400FE410E0C758E2
:10495000DB4F19830883C957D4408EE490E0C558D3
:10496000DB4F99838883CB57D4402DE430E0C35884
:10497000DB4F39832883CD57D4408CE490E0C15875
:10498000DB4F99838883CF57D4406BE470E0CF57D7
:10499000DB4F79836883C158D4408AE490E0CD57D7
:1049A000DB4F99838883C358D44089E490E0CB5788
:1049B000DB4F99838883C558D440A8E4B0E0C95739
:1049C000DB4FB983A883C758D4400F2EF7E4CF2E0E
:1049D000D12CF02DC757DB4FD982C882C958D4409B
:1049E00086E490E0C557DB4F99838883CB58D44049
:1049F0000F2EF5E4EF2EF12CF02DC357DB4FF9828B
:104A0000E882CD58D4400F2EF4E4CF2ED12CF02DD7
:104A1000C157DB4FD982C882CF58D440CF56DB4F25
:104A2000D982C882C159D44083E490E0CD56DB4F8F
:104A300099838883C359D44002E410E0CB56DB4FFE
:104A400019830883C559D44021E430E0C956DB4FAF
:104A500039832883C759D44080E490E0C756DB4FA0
:104A600099838883C959D440C556DB4F998388837D
:104A7000CB59D4406FE370E0C356DB4F7983688332
:104A8000CD59D4400F2EFEE3EF2EF12CF02DC15660
:104A9000DB4FF982E882CF59D440CF55DB4FF98202
:104AA000E882C15AD4408DE390E0CD55DB4F998325
:104AB0008883C35AD4408CE390E0CB55DB4F998375
:104AC0008883C55AD440C955DB4F99838883C75A18
:104AD000D440ABE3B0E0C755DB4FB983A883C95AD4
:104AE000D4400AE310E0C555DB4F19830883CB5A45
:104AF000D440C355DB4F19830883CD5AD44029E3F2
:104B000030E0C155DB4F39832883CF5AD440A8E326
:104B1000B0E0CF54DB4FB983A883C15BD440CD5400
:104B2000DB4FB983A883C35BD440E7E3F0E0CB5409
:104B3000DB4FF983E883C55BD440C954DB4FF9836D
:104B4000E883C75BD44066E370E0C754DB4F7983EA
:104B50006883C95BD440C554DB4F79836883CB5BE2
:104B6000D44085E390E0C354DB4F99838883CD5BC9
:104B7000D44044E350E0C154DB4F59834883CF5BBA
:104B8000D440CF53DB4F59834883C15CD44083E387
:104B900090E0CD53DB4F99838883C35CD440CB53E3
:104BA000DB4F99838883C55CD44022E330E0C9534E
:104BB000DB4F39832883C75CD440C753DB4F39832D
:104BC0002883C95CD44081E390E0C553DB4F9983CF
:104BD0008883CB5CD440C353DB4F99838883CD5CFF
:104BE000D440C153DB4FB982A882CF5CD4400F2E92
:104BF000F2ECAF2EB12CF02DCF52DB4FB982A88250
:104C0000C15DD4400F2EFCEBAF2EB12CF02DCD5258
:104C1000DB4FB982A882C35DD4400F2EF7EBAF2ED5
:104C2000B12CF02DCB52DB4FB982A882C55DD440A8
:104C30000F2EF2EBAF2EB12CF02DC952DB4FB98203
:104C4000A882C75DD4400F2EFDEAAF2EB12CF02D07
:104C5000C752DB4FB982A882C95DD4400F2EF8EA53
:104C6000AF2EB12CF02DC552DB4FB982A882CB5D9F
:104C7000D440C352DB4F99828882CD5DD440C1526B
:104C8000DB4F79826882CF5DD4400F2EFAE9AF2ED8
:104C9000B12CF02DCF51DB4FB982A882C15ED44038
:104CA000CD51DB4F59824882C35ED4400F2EF2E9CA
:104CB000AF2EB12CF02DCB51DB4FB982A882C55E4F
:104CC000D4400F2EFEE8AF2EB12CF02DC951DB4F92
:104CD000B982A882C75ED440C751DB4F398228828F
:104CE000C95ED4400F2EF7E8AF2EB12CF02DC55180
:104CF000DB4FB982A882CB5ED4400F2EF3E8AF2EF3
:104D0000B12CF02DC351DB4FB982A882CD5ED440C7
:104D10006894AA24A7F8B12CC151DB4FB982A882AC
:104D2000CF5ED4400F2EFDE7AF2EB12CF02DCF502B
:104D3000DB4FB982A882C15FD4400F2EFAE7AF2EB5
:104D4000B12CF02DCD50DB4FB982A882C35FD44087
:104D50000F2EF7E7AF2EB12CF02DCB50DB4FB982E1
:104D6000A882C55FD4400F2EF4E7AF2EB12CF02DF2
:104D7000C950DB4FB982A882C75FD4400F2EF1E73C
:104D8000AF2EB12CF02DC750DB4FB982A882C95F7E
:104D9000D4400F2EFEE6AF2EB12CF02DC550DB4FC8
:104DA000B982A882CB5FD4400F2EFBE6AF2EB12C88
:104DB000F02DC350DB4FB982A882CD5FD4400F2EB7
:104DC000F9E6AF2EB12CF02DC150DB4FB982A8828D
:104DD000CF5FD4400F2EF6E6AF2EB12CF02DCF5F73
:104DE000DA4FB982A882C150D5400F2EF4E6AF2E1B
:104DF000B12CF02DCD5FDA4FB982A882C350D540D7
:104E00000F2EF1E6AF2EB12CF02DCB5FDA4FB98229
:104E1000A882C550D5400F2EFFE5AF2EB12CF02D46
:104E2000C95FDA4FB982A882C750D5400F2EFDE581
:104E3000AF2EB12CF02DC75FDA4FB982A882C950CE
:104E4000D5400F2EFBE5AF2EB12CF02DC55FDA4F0C
:104E5000B982A882CB50D5400F2EF9E5AF2EB12CE8
:104E6000F02DC35FDA4FB982A882CD50D5400F2E06
:104E7000F6E5AF2EB12CF02DC15FDA4FB982A882D2
:104E8000CF50D5400F2EF4E5AF2EB12CF02DCF5ED4
:104E9000DA4FB982A882C151D5400F2EF3E5AF2E6B
:104EA000B12CF02DCD5EDA4FB982A882C351D54026
:104EB0000F2EF1E5AF2EB12CF02DCB5EDA4FB9827B
:104EC000A882C551D5400F2EFFE4AF2EB12CF02D96
:104ED000C95EDA4FB982A882C751D5400F2EFDE4D2
:104EE000AF2EB12CF02DC75EDA4FB982A882C9511E
:104EF000D5400F2EFBE4AF2EB12CF02DC55EDA4F5E
:104F0000B982A882CB51D5400F2EFAE4AF2EB12C36
:104F1000F02DC35EDA4FB982A882CD51D5400F2E55
:104F2000F8E4AF2EB12CF02DC15EDA4FB982A88221
:104F3000CF51D5400F2EF7E4AF2EB12CF02DCF5D21
:104F4000DA4FB982A882C152D5400F2EF5E4AF2EB8
:104F5000B12CF02DCD5DDA4FB982A882C352D54075
:104F6000CB5DDA4FD982C882C552D5400F2EF2E40C
:104F7000CF2ED12CF02DC95DDA4FD982C882C7520D
:104F8000D5400F2EF1E4AF2EB12CF02DC75DDA4FD6
:104F9000B982A882C952D5400F2EFFE3CF2ED12C63
:104FA000F02DC55DDA4FD982C882CB52D540C35DA2
:104FB000DA4FF982E882CD52D5400F2EFDE3EF2E75
:104FC000F12CF02DC15DDA4FF982E882CF52D54045
:104FD0000F2EFBE3AF2EB12CF02DCF5CDA4FB98250
:104FE000A882C153D540CD5CDA4F19830883C353DF
:104FF000D5400F2EF9E3CF2ED12CF02DCB5CDA4F1C
:10500000D982C882C553D540C95CDA4FB983A88319
:10501000C753D540C75CDA4FF983E883C953D540FD
:10502000C55CDA4F79836883CB53D5400F2EF5E307
:10503000EF2EF12CF02DC35CDA4FF982E882CD53CC
:10504000D540C15CDA4F59834883CF53D540CF5BFD
:10505000DA4F39832883C154D540CD5BDA4F998329
:105060008883C354D540CB5BDA4F99838883C5547A
:10507000D54080E390E0C95BDA4F99838883C754B9
:10508000D5408FE290E0C75BDA4F99838883C9549B
:10509000D5408EE290E0C55BDA4F99838883CB548C
:1050A000D5408DE290E0C35BDA4F99838883CD547D
:1050B000D5408CE290E0C15BDA4F99838883CF546E
:1050C000D5408BE290E0CF5ADA4F99838883C1555F
:1050D000D5408AE290E0CD5ADA4F99838883C35550
:1050E000D540CB5ADA4F99838883C555D54089E29C
:1050F00090E0C95ADA4F99838883C755D54088E232
:1051000090E0C75ADA4F99838883C955D54087E222
:1051100090E0C55ADA4F99838883CB55D540C35A5E
:10512000DA4F99838883CD55D54086E290E0C15A05
:10513000DA4F99838883CF55D54085E290E0CF59E7
:10514000DA4F99838883C156D540CD59DA4F998378
:105150008883C356D54084E290E0CB59DA4F9983D7
:105160008883C556D54083E290E0C959DA4F9983C8
:105170008883C756D540C759DA4F99838883C95663
:10518000D54082E290E0C559DA4F99838883CB56A7
:10519000D540EFECF4E0EC0FFD1FE256FF4F81E24B
:1051A00090E091838083C159DA4F99838883CF56E9
:1051B000D54080E290E0CF58DA4F99838883C15779
:1051C000D540CD58DA4F99838883C357D5408FE1B6
:1051D00090E0CB58DA4F99838883C557D540C9589A
:1051E000DA4F99838883C757D5408EE190E0C7583E
:1051F000DA4F99838883C957D540C558DA4F9983C8
:105200008883CB57D5408DE190E0C358DA4F99831E
:105210008883CD57D540C158DA4F99838883CF57BB
:10522000D5408CE190E0CF57DA4F99838883C158FD
:10523000D540CD57DA4F99838883C358D5408BE149
:1052400090E0CB57DA4F99838883C558D540C9572A
:10525000DA4F99838883C758D5408AE190E0C757D1
:10526000DA4F99838883C958D540C557DA4F998357
:105270008883CB58D54089E190E0C357DA4F9983B2
:105280008883CD58D540C157DA4F99838883CF584A
:10529000D540CF56DA4F99838883C159D54088E1EC
:1052A00090E0CD56DA4F99838883C359D540CB56C9
:1052B000DA4F99838883C559D54087E190E0C95674
:1052C000DA4F99838883C759D540C756DA4F9983F7
:1052D0008883C959D540C556DA4F99838883CB59FD
:1052E000D54086E190E0C356DA4F99838883CD5943
:1052F000D540C156DA4F99838883CF59D540CF55D1
:10530000DA4F99838883C15AD54085E190E0CD5525
:10531000DA4F99838883C35AD540CB55DA4F9983A6
:105320008883C55AD540C955DA4F99838883C75AAF
:10533000D54084E190E0C755DA4F99838883C95AF4
:10534000D540C555DA4F99838883CB5AD540C3558C
:10535000DA4F99838883CD5AD54083E190E0C155D7
:10536000DA4F99838883CF5AD540CF54DA4F998347
:105370008883C15BD540CD54DA4F99838883C35B62
:10538000D540CB54DA4F99838883C55BD54082E101
:1053900090E0C954DA4F99838883C75BD540C754DE
:1053A000DA4F99838883C95BD540C554DA4F998316
:1053B0008883CB5BD54081E190E0C354DA4F998379
:1053C0008883CD5BD540C154DA4F99838883CF5B06
:1053D000D540CF53DA4F99838883C15CD540CD53F4
:1053E000DA4F99838883C35CD54080E190E0CB534A
:1053F000DA4F99838883C55CD540C953DA4F9983C6
:105400008883C75CD540C753DA4F99838883C95CCA
:10541000D540C553DA4F99838883CB5CD540C353BD
:10542000DA4F99838883CD5CD5408FE090E0C153FB
:10543000DA4F99838883CF5CD540CF52DA4F998376
:105440008883C15DD540CD52DA4F99838883C35D8F
:10545000D540CB52DA4F99838883C55DD5408EE025
:1054600090E0C952DA4F99838883C75DD540C7520F
:10547000DA4F99838883C95DD540C552DA4F998345
:105480008883CB5DD540C352DA4F99838883CD5D45
:10549000D540C152DA4F99838883CF5DD540CF5133
:1054A000DA4F99838883C15ED5408DE090E0CD517D
:1054B000DA4F99838883C35ED540CB51DA4F998305
:1054C0008883C55ED540C951DA4F99838883C75E0A
:1054D000D540C751DA4F99838883C95ED540C551FD
:1054E000DA4F99838883CB5ED5408CE090E0C3513E
:1054F000DA4F99838883CD5ED540C151DA4F9983C5
:105500008883CF5ED540CF50DA4F99838883C15FBF
:10551000D540CD50DA4F99838883C35FD540CB50B7
:10552000DA4F99838883C55FD540C950DA4F998394
:105530008883C75FD540C750DA4F99838883C95F96
:10554000D5408BE090E0C550DA4F99838883CB5FDC
:10555000D540C350DA4F99838883CD5FD540C15081
:10556000DA4F99838883CF5FD540CF5FD94F998336
:105570008883C150D640CD5FD94F99838883C3506B
:10558000D640CB5FD94F99838883C550D640C95F39
:10559000D94F99838883C750D6408AE090E0C75F8F
:1055A000D94F99838883C950D640C55FD94F998315
:1055B0008883CB50D640C35FD94F99838883CD5021
:1055C000D640C15FD94F99838883CF50D6408BE7AF
:1055D00091EE909385008093840085E08093810014
:1055E00081E080936F0080E090E00E94A41481E04D
:1055F00090E00E94A41482E090E00E94A41483E052
:1056000090E00E94A4140E94A41740E062E775E0B5
:105610008EE795E00E94B20B7894B12C0F2EFAE041
:105620004F2EF02D812C912C312CCE5ED94F18822B
:10563000C251D640CF5ED94F1882C151D640512CAD
:105640000F2EFCEACF2EF7E0DF2EF02D8E01015950
:105650001F4F7E012BEFE21A2EEFF20AB11026C087
:105660009F928F92AEE5B3E0BF93AF93DF92CF925C
:105670000E94873646E0B60189E298E00E94040C59
:105680000F900F900F900F900F900F90882349F07C
:105690002FE0821627E292063CF43FEF831A930A2A
:1056A00005C0BB24B39402C0BB24B39480917C0595
:1056B000813041F510927C05EFE1F8E00190002087
:1056C000E9F73197AF014F515840DA01A25EB74F69
:1056D0008C918A30A1F46FE178E0CE018B599F4F15
:1056E0000E9478368FE198E00E94931780917B05A5
:1056F000813009F46AC4412C3324339446C0412CD0
:105700003324339480917B05813079F510927B05A9
:10571000EBEBF7E001900020E9F73197AF014B5B2D
:105720005740DA01A654B84F8C918A30C1F46BEB24
:1057300077E0CE0101960E9478368BEB97E00E94CD
:105740009317CF5ED94F6881C151D6406130A9F01F
:1057500071E0CE5ED94F7883C251D64026C081E039
:10576000CE5ED94F8883C251D640CF5ED94F988143
:10577000C151D6409130B1F408C0A1E0CE5ED94FFE
:10578000A883C251D64055245394BE016F5B7E4F0F
:10579000CE018B599F4F0E946217CF5ED94F18825E
:1057A000C151D640B1E05B1208C0BE016D5D7E4FB5
:1057B000CE0101960E946B15512C80917A058130A3
:1057C00009F04CCF10927A054394CE5ED94F2881D0
:1057D000C251D640213009F0C0C1CB5CDE4F888178
:1057E0009981C553D140019709F047C1C65CDE4F8E
:1057F0008881CA53D1408F93C75CDE4F8881C953DB
:10580000D1408F93C85CDE4F8881C853D1408F93BD
:10581000C95CDE4F8881C753D1408F93CC5CDE4F8B
:105820008881C453D1408F93CD5CDE4F8881C353B0
:10583000D1408F93CE5CDE4F8881C253D1408F938D
:10584000CF5CDE4F8881C153D1408F93C05DDE4F66
:105850008881C053D1408F93C15DDE4F8881CF5284
:10586000D1408F93C25DDE4F8881CE52D1408F935D
:10587000C35DDE4F8881CD52D1408F93C45DDE4F32
:105880008881CC52D1408F93C55DDE4F8881CB5249
:10589000D1408F93C65DDE4F8881CA52D1408F932D
:1058A000C75DDE4F8881C952D1408F93C85DDE4FFE
:1058B0008881C852D1408F93C95DDE4F8881C7521D
:1058C000D1408F93CA5DDE4F8881C652D1408F93FD
:1058D000CB5DDE4F8881C552D1408F93CC5DDE4FCA
:1058E0008881C452D1408F93CD5DDE4F8881C352F1
:1058F000D1408F93C05CDE4F8881C054D1408F93DC
:10590000C15CDE4F8881CF53D1408F93C25CDE4FA4
:105910008881CE53D1408F93C35CDE4F8881CD53B5
:10592000D1408F93C45CDE4F8881CC53D1408F939C
:10593000C55CDE4F8881CB53D1408F9389E693E0DD
:105940009F938F931F930F930E9487360FB6F894FF
:10595000DEBF0FBECDBFC65CDE4F8881CA53D140CB
:105960008F93C75CDE4F8881C953D1408F93C85C49
:10597000DE4F8881C853D1408F93C95CDE4F888148
:10598000C753D1408F93CC5CDE4F8881C453D14044
:105990008F93CD5CDE4F8881C353D1408F93CE5C13
:1059A000DE4F8881C253D1408F93CF5CDE4F888118
:1059B000C153D1408F93C05DDE4F8881C053D14029
:1059C0008F93C15DDE4F8881CF52D1408F93C25DEE
:1059D000DE4F8881CE52D1408F93C35DDE4F8881E8
:1059E000CD52D1408F93C45DDE4F8881CC52D140DF
:1059F0008F93C55DDE4F8881CB52D1408F93C65DBA
:105A0000DE4F8881CA52D1408F93C75DDE4F8881B7
:105A1000C952D1408F93C85DDE4F8881C852D140B2
:105A20008F93C95DDE4F8881C752D1408F93CA5D85
:105A3000DE4F8881C652D1408F93CB5DDE4F888187
:105A4000C552D1408F93CC5DDE4F8881C452D14086
:105A50008F93CD5DDE4F8881C352D1408F938AEC06
:105A600093E09F938F93FF92EF920E9487360FB639
:105A7000F894DEBF0FBECDBF5DC0C85DDE4F88812C
:105A8000C852D1408F93C95DDE4F8881C752D14043
:105A90008F93CA5DDE4F8881C652D1408F93CB5D14
:105AA000DE4F8881C552D1408F93CC5DDE4F888117
:105AB000C452D1408F93CD5DDE4F8881C352D14017
:105AC0008F9382EF93E09F938F931F930F930E9486
:105AD0008736C85DDE4F8881C852D1408F93C95D3B
