S014000053656E696F7244657369676E2E7372656346
S113000077C0000096C0000094C0000092C00000B9
S113001090C000008EC000008CC000008AC00000A8
S113002088C0000086C0000084C0000082C00000B8
S113003080C000007EC000007CC000007AC00000C8
S113004078C0000076C0000074C0000072C00000D8
S11300500C9451126EC000006CC000006AC0000015
S113006068C000000C94111264C0000062C000005B
S113007060C000005EC000005CC000005AC0000008
S113008058C0000056C0000054C0000052C0000018
S11300900C9431124EC000004CC000004AC0000055
S11300A048C0000046C0000044C0000042C0000038
S11300B040C000003EC000003CC000003AC0000048
S11300C038C0000036C0000034C0000032C0000058
S11300D030C000002EC000002CC000002AC0000068
S11300E028C000006364696E6F70737578585B0094
S11300F011241FBECFEFD1E2DEBFCDBF00E00CBFA5
S113010015E0A0E0B2E0E4E5F6E700E00BBF02C0D2
S113011007900D92A832B107D9F727E0A8E2B5E01D
S113012001C01D92AB3FB207E1F70E94C0170C94C7
S1130130283B66CFCF93DF9342305105C0F0DB01FB
S1130140FC019A01CD91DD91C193D19322503109E3
S113015022303105B8F79A01225031092E7F2E5FE3
S11301603F4F820F931F620F731F41705527411534
S1130170510549F0DB01FC01480F591F9D919193F2
S1130180E417F507D9F7DF91CF910895CF93DF9363
S1130190EC01A881B9811097F9F04C91413258F0E3
S11301A04A3331F1FD0131969F019191913228F04A
S11301B09A33D1F704C0942F9D019A3381F4CD0171
S11301C001962817390771F4403379F41296B983EC
S11301D0A88380E090E00EC08FEF9FEF0BC080E01B
S11301E090E008C08FEF9FEF05C08FEF9FEF02C034
S11301F09D01E5CFDF91CF9108958F929F92AF92A9
S1130200BF92CF92DF92EF92FF920F931F93CF93FF
S1130210DF93FC012481222309F446C0EC01C2A42B
S1130220D3A4E4A4F5A45C01FEE2AF0EB11C01E08A
S113023010E0A7019601B50189810E944C3181111A
S113024035C01C828E8D9F8DA8A1B9A1B701A601CE
S1130250481B590B6A0B7B0B8E899F89A88DB98D1E
S1130260481759076A077B0718F58B80912C82E0A1
S113027088169104F8F08E899F89A88DB98DC80ECF
S1130280D91EEA1EFB1E01E010E0A7019601B5018C
S113029089810E944C31E1E08E1A9108F1E08F16B9
S11302A0910449F780E007C080E005C081E003C005
S11302B080E001C080E0DF91CF911F910F91FF900A
S11302C0EF90DF90CF90BF90AF909F908F90089564
S11302D08F929F92AF92BF92FF920F931F93CF93EF
S11302E0DF93EC014A015B018AA59BA5ACA5BDA5E2
S11302F084179507A607B707E1F0CE017EDFF82E35
S1130300811118C001E010E0A5019401BE01625DF5
S11303107F4F89810E940031882331F0FF24F394B8
S113032088248A94982C54018AA69BA6ACA6BDA6C0
S113033001C0F12C8F2DDF91CF911F910F91FF9070
S1130340BF90AF909F908F900895CF93DF93EC016F
S11303501C828FEF9FEFDC018AA79BA7ACA7BDA7E8
S1130360CE01B6DF811123C0FE01E45DFD4F808123
S1130370918185359A4AE9F4E85CF1408081918164
S1130380A281B381BB2786349144A445B10599F079
S1130390C058DF4F488159816A817B81772781E08A
S11303A0463451446445710539F480E005C083E066
S11303B003C082E001C080E0DF91CF9108950097EF
S11303C0C9F0DC01ED91FC9111973097A9F02081DF
S11303D02223A1F02681378112968D919C91139747
S11303E02817390769F481810E943C3080FF0AC0D4
S11303F089E0089589E0089589E0089589E00895E1
S113040089E0089580E008952F923F924F925F9281
S11304106F927F928F929F92AF92BF92CF92DF9210
S1130420EF92FF920F931F93CF93DF93CDB7DEB775
S11304306D970FB6F894DEBF0FBECDBF6C01CB0134
S1130440B42ED6011D921C92A1DE7C0199230CF4DA
S113045002C2FC01EE0FFF1FE65DFA4F008111811D
S11304600115110509F4F9C1F60111830083D801BE
S11304708C91882369F011968C910E943C3080FD08
S113048007C0BB2009F4EBC182FFEBC18AE08BC239
S1130490F8011082E1828E2D0E94433080FDE3C179
S11304A0BB2009F400C282FDE0C1FDC18081882324
S11304B029F0448055806680778004C04E2C5F2CE0
S11304C0672E762ED9014D925D926D927D929D019B
S11304D07096E417F50751F74E01B1E18B0E911CAC
S11304E06894772471F8F501C190D190E190F1906E
S11304F05F01C114D104E104F10439F0B701A6018C
S1130500C80123DF811102C00DC0872DA814B904CE
S113051051F703C0C12CD12C7601833009F4A7C153
S11305208111A7C1D801D9968D919C91DA97811533
S1130530924009F0A0C1F801EC5BFF4F408051806C
S1130540612C712C411451046104710429F43E9608
S11305504080518062807380F801468A578A608E99
S1130560718EA6ADA3838FEF8A0F823008F085C108
S1130570F3ADF98B2F2FF8012283222309F47FC1D5
S1130580822F90E09C012150310982239323892BEF
S113059009F077C1FF9620803180F80131862086EA
S11305A0C1018F709927892B09F06DC1EF5BFF4F53
S11305B080809180A12CB12C81149104A104B104F8
S11305C029F43D9680809180A280B380F80104AC28
S11305D0F5ADE02D309709F458C1B0E0A3019201C4
S11305E00E94CE346A8F7B8F8C8F9D8F9F0140E059
S11305F050E02E8B3F8B488F598FC1019295829585
S11306008F7089279F708927280F391F411D511D1D
S1130610DA01C9012A8D3B8D4C8D5D8D280F391F60
S11306204A1F5B1F2A8B3B8B4C8B5D8B8216930678
S1130630A406B50608F42BC1C501B401621B730BF3
S1130640840B950BE9892E2F30E040E050E00E94A6
S11306509034DA01C901211531054105510509F428
S113066018C1263FFFE03F074105510518F0E2E0BD
S1130670E98B02C0F1E0F98B863F9F4FA105B105DC
S113068008F028C149015A0182E0880E911CA11C7E
S1130690B11CD80152968D929D92AD92BC92559701
S11306A0F801C28ED38EE48EF58E8E899F89A88D33
S11306B0B98D8C0D9D1DAE1DBF1D868F978FA0A378
S11306C0B1A34A895B896C897D894C0D5D1D6E1DC2
S11306D07F1D46A357A360A771A7F989F33069F575
S11306E0232809F0D8C0F801E65AFF4F8081918190
S11306F0A281B381F80182A393A3A4A3B5A3880C18
S1130700991CAA1CBB1C880C991CAA1CBB1CFFEFBF
S11307108F0EF1E09F1EA11CB11C072E79E0B69448
S1130720A794979487947A95D1F7702D4814590417
S11307306A047B0408F4B1C0F9C0232809F4AFC0EB
S11307402A8D3B8D4C8D5D8D820F931FA41FB51F89
S1130750F80182A393A3A4A3B5A3F989F23029F4E1
S1130760880C991CAA1CBB1C08C1A3E0B0E0A5011D
S113077094010E94CE34DC01CB01B695A7959795E0
S1130780879521E082229924AA24BB24880E991EED
S1130790AA1EBB1EF2C0B701A6014F5F5F4F6F4F89
S11307A07F4FC80195DD811139C0D80115961C927F
S11307B0F801E45DFD4F8081918185359A4A89F580
S11307C0F80186A597A5A0A9B1A982359245A146AD
S11307D0B14451F5F801EE5EFD4F80819181A28113
S11307E0B38182379247A144B14609F5349680819A
S11307F09181A281B381F80186879787A08BB18B01
S1130800E65EFD4F80819181A281B381F8018287E8
S11308109387A487B587F3E0F98B0BC0E3E0E98BFA
S113082008C0F3E0F98B05C0E3E0E98B02C0F3E014
S1130830F98BE989D801EC938091280590912905D9
S11308400196909329058093280517969C938E937F
S1130850169780E0A8C08BE0A6C08CE0A4C080E01E
S1130860A2C080E0A0C083E09EC08AE09CC081E07A
S11308709AC08DE098C08DE096C08DE094C08DE064
S113088092C08DE090C08DE08EC08DE08CC08DE074
S11308908AC08DE088C08DE086C08DE084C08DE084
S11308A082C08DE080C040E050E0BA01C8014DDD57
S11308B0813009F02FCEF801E051FE4F9E012F5FE9
S11308C03F4F5901A801405D5D4FE12CF12C70E0D0
S11308D060E0ECCD49015A0162E0860E911CA11C36
S11308E0B11CD80152968D929D92AD92BC925597AF
S11308F0F801C28ED38EE48EF58E8E899F89A88DE1
S1130900B98D8C0D9D1DAE1DBF1D868F978FA0A325
S1130910B1A38A899B89AC89BD898C0D9D1DAE1DAF
S1130920BF1D86A397A3A0A7B1A7DACE8FEF9FEF31
S1130930DC01F80186879787A08BB18B8287938728
S1130940A487B58780E88583E25AFF4F808191812F
S1130950019709F420CFF3E0F98B6BCF8FEF9FEF72
S1130960DC01F80186879787A08BB18B82879387F8
S1130970A487B58780E885835CCFFFEF8F0EF1E015
S11309809F1EA11CB11C072E79E0B694A7949794DE
S113099087947A95D1F7702D481459046A047B041E
S11309A008F47FCFDBCF6D960FB6F894DEBF0FBE91
S11309B0CDBFDF91CF911F910F91FF90EF90DF900A
S11309C0CF90BF90AF909F908F907F906F905F90EB
S11309D04F903F902F900895CF92DF92EF92FF9225
S11309E0FC019A01AB012250310941095109C28825
S11309F0D388E488F58882E0C81AD108E108F108B0
S1130A002C153D054E055F0568F4A281B0E00E94F7
S1130A10CE34C6A0D7A0E0A4F1A46C0D7D1D8E1D1C
S1130A209F1D03C060E070E0CB01FF90EF90DF906A
S1130A30CF900895AF92BF92CF92DF92EF92FF9240
S1130A400F931F93CF93DF93EC016A017B01423034
S1130A5051056105710508F4A7C08A899B89AC8991
S1130A60BD89481759076A077B0708F0A2C0888127
S1130A70823009F44BC0833009F469C0813009F035
S1130A809DC08A0116950795040F151FC801892F6B
S1130A90992786954E8D5F8D68A179A1480F591FBE
S1130AA0611D711DCE0114DC81118DC058018FEFC1
S1130AB0A81AB80A1170FE01E00FF11F16A5C501AE
S1130AC0892F992786954E8D5F8D68A179A1480F4E
S1130AD0591F611D711DCE01FBDB811178C081E0BE
S1130AE0B822CA0DDB1D8EA5612F70E0782BC0FEE5
S1130AF009C0729562956F7067277F70672780E0E1
S1130B0090E070C07F7080E090E06CC0452F562F5D
S1130B10672F77278E8D9F8DA8A1B9A1480F591FE4
S1130B206A1F7B1FCE01D4DB811155C0CC0CDD1CA8
S1130B30EE1CFF1CE894C0F881E0D822EE24FF24C8
S1130B40CC0DDD1D6EA57FA580E090E04BC08E8DA1
S1130B509F8DA8A1B9A1689416F8769567955795C5
S1130B6047951694D1F7480F591F6A1F7B1FCE0172
S1130B70AFDB811134C0CC0CDD1CEE1CFF1CCC0C93
S1130B80DD1CEE1CFF1C8CEFC82281E0D822EE2471
S1130B90FF24FE01EC0DFD1D86A597A5A0A9B1A912
S1130BA0BC01CD019F701EC061E070E080E090E068
S1130BB019C061E070E080E090E014C061E070E092
S1130BC080E090E00FC06FEF7FEFCB010BC06FEFC1
S1130BD07FEFCB0107C06FEF7FEFCB0103C06FEF57
S1130BE07FEFCB01DF91CF911F910F91FF90EF9099
S1130BF0DF90CF90BF90AF900895AF92BF92CF9205
S1130C00DF92EF92FF920F931F93CF93DF93EC0148
S1130C108B017D836C83CE80DF80E884F98481E05E
S1130C20C816D104E104F10409F48AC0E881F98109
S1130C3082899389A489B589C816D906EA06FB0670
S1130C4008F080C0C114D104E104F104C1F480812E
S1130C50833041F482A193A1A4A1B5A10097A10579
S1130C60B10559F4808591850817190708F06CC0FF
S1130C7062A173A184A195A135C06C017D01A280FC
S1130C8080E1A89E500111240A151B0530F1B7011B
S1130C90A60188819981CEDE6B017C018FEFC81695
S1130CA0D806E806F80609F451C082E0C816D10453
S1130CB0E104F10408F44CC0E881F9818289938944
S1130CC0A489B589C816D906EA06FB0608F042C00D
S1130CD00A191B090A151B05D0F6B701A60188815C
S1130CE099817ADECA86DB86EC86FD8661157105FC
S1130CF08105910589F19801329522952F7023275A
S1130D003F702327DC01CB01820F931FA11DB11D6E
S1130D108E879F87A88BB98B0F701127000F111F27
S1130D2002951295107F1027007F1027025D1F4F38
S1130D3088819981800F911F9B8B8A8B80E00DC0E5
S1130D4082E00BC082E009C082E007C081E005C0F8
S1130D5082E003C082E001C082E0DF91CF911F9165
S1130D600F91FF90EF90DF90CF90BF90AF900895D8
S1130D704F925F926F927F928F929F92AF92BF92A7
S1130D80CF92DF92EF92FF920F931F93CF93DF9353
S1130D90EC016A017B0128013901423051056105EA
S1130DA0710508F4D2C08A899B89AC89BD8948172A
S1130DB059076A077B0708F0CAC08881823009F4A2
S1130DC062C0833009F485C0813009F0C2C05A0181
S1130DD0B694A794A40EB51EC501892F99278695AC
S1130DE04E8D5F8D68A179A1480F591F611D711D3A
S1130DF0CE016EDA182F8111CAC045018FEF881A0F
S1130E00980A31E0B322C0FE20C0FE01EA0DFB1DAA
S1130E1086A5282F2F7030E1439EC0011124822B18
S1130E2086A781E08C834E8D5F8D68A179A1C40172
S1130E30892F99278695480F591F611D711DCE0171
S1130E4047DA882309F48BC086C0FE01EA0DFB1D36
S1130E5046A681E08C834E8D5F8D68A179A1C40183
S1130E60892F99278695480F591F611D711DCE0141
S1130E702FDA882309F47EC070C0EC0FFD1F46A64C
S1130E8081E08C8384C0452F562F672F77278E8D62
S1130E909F8DA8A1B9A1480F591F6A1F7B1FCE01BE
S1130EA017DA182F811173C0CC0CDD1CEE1CFF1C4B
S1130EB0E894C0F881E0D822EE24FF243EE2C30E79
S1130EC0D11CFE01EC0DFD1D5182408281E08C831A
S1130ED05EC08E8D9F8DA8A1B9A1689416F87695F1
S1130EE06795579547951694D1F7480F591F6A1F70
S1130EF07B1FCE01EDD9182F811149C0CC0CDD1C0C
S1130F00EE1CFF1CCC0CDD1CEE1CFF1C8CEFC8225D
S1130F1081E0D822EE24FF243EE2C30ED11CFE0160
S1130F20EC0DFD1D80819181A281B38188279927D1
S1130F30AA27B07F482A592A6A2A7B2A40825182EA
S1130F406282738281E08C8322C012E020C012E0AE
S1130F501EC012E01CC0182F1AC0182F18C0F401AC
S1130F60F170689413F876946794579447941694A0
S1130F70D1F783CFF401F170DE01AE0FBF1F9E964F
S1130F809C91907F852D8F70492E482A76CF812F92
S1130F90DF91CF911F910F91FF90EF90DF90CF9051
S1130FA0BF90AF909F908F907F906F905F904F9085
S1130FB008952F923F924F925F926F927F928F92F9
S1130FC09F92AF92BF92CF92DF92EF92FF920F93D4
S1130FD01F93CF93DF93EC012A013B014115510587
S1130FE061057105B9F48A849B84AC84BD84811441
S1130FF09104A104B10459F18A899B89AC89BD8902
S113100088169906AA06BB0630F1812C912C54014E
S1131010839421C00FDD6B017C0162307105810571
S1131020910508F496C08FEFC816D806E806F806AE
S113103009F494C08A899B89AC89BD89C816D906EC
S1131040EA06FB0608F48FC05301420104C0812C58
S1131050912C54018394750164016894222421F82D
S1131060312C00E010E02FEFC21AD20AE20AF20A91
S11310708A899B89AC89BD89C816D906EA06FB060C
S113108058F082E088169104A104B10408F470C0F9
S1131090C22CD32CE02EF12EB701A601CE01CADC5E
S11310A0611571058105910599F06F3F2FEF720766
S11310B08207920709F461C06130710581059105C9
S11310C009F460C0C814D904EA04FB0461F65FC0E3
S11310D08C2C9D2CAE2CBF2C0FEF1FEF2FEF3FE07D
S11310E0B701A601CE0144DE81112CC04114510484
S11310F06104710451F00C2D1D2D2E2D3F2DB301D3
S1131100A201CE0135DE81111DC08A869B86AC8684
S1131110BD868E859F85A889B9898F3F2FEF920759
S1131120A207B207C9F10197A109B1098E879F8768
S1131130A88BB98B8D8181608D836C2D7D2D8E2D37
S11311409F2D33C0813069F161E070E080E090E070
S11311502CC061E070E080E090E027C06FEF7FEF8B
S11311608FEF9FEF22C06C2D7D2D8E2D9F2D1DC0E6
S113117060E070E080E090E018C06FEF7FEF8FEFE9
S11311809FEF13C061E070E080E090E00EC060E08B
S113119070E080E090E009C06C2D7D2D8E2D9F2D98
S11311A004C06FEF7FEF8FEF9FEFDF91CF911F911F
S11311B00F91FF90EF90DF90CF90BF90AF909F90F2
S11311C08F907F906F905F904F903F902F900895F5
S11311D07F928F929F92AF92BF92CF92DF92EF92C3
S11311E0FF920F931F93CF93DF93DC011496CD915D
S11311F0DC911597219609F403C11E968D909D905C
S1131200AD90BC90519781149104A104B10409F4E8
S1131210F9C07B018C016E01BFE0CB22DD24C11437
S1131220D10409F0D1C0EFEF8E1A9E0AAE0ABE0AAD
S1131230DC011E968D929D92AD92BC9251971A96A6
S11312404D915D916D917C911D97411551056105FD
S1131250710549F4ED91FC9180859185C817D907F2
S113126008F0D2C0B1C0DC01ED91FC91228130E0E4
S113127021503109CE01929582958F7089279F70F4
S1131280892728233923232B09F09EC0CF01D2DBE1
S11312904B015C01623071058105910508F4B6C00B
S11312A06F3F7F4F8F4F9F4F09F4B2C0D801ED912C
S11312B0FC9182899389A489B58988169906AA061E
S11312C0BB0608F470C0EF2809F4A4C0D8011A962C
S11312D04D915D916D917C911D97CF016ADE4B011B
S11312E05C01611571058105910509F495C06130B2
S11312F071058105910509F491C06F3F7F4F8F4FB0
S11313009F4F09F48DC0D8018D919C910E94FD00DE
S1131310811188C0F80180819181FC01BE96825DB3
S11313209D4F1192E817F907E1F7D801ED90FC9071
S1131330B501A401C70150DBF70162A773A784A715
S113134095A7E12CF12C7724739419C07482D801E9
S11313508D919C910E94FD00811166C0D801ED9190
S1131360FC9182A593A5A4A5B5A50196A11DB11DC7
S113137082A793A7A4A7B5A7BFEFEB1AFB0AD801CE
S1131380ED91FC91828190E0E816F906F8F282A5CD
S113139093A5A4A5B5A58E199F09A109B10982A792
S11313A093A7A4A7B5A7F80182869386A486B586D9
S11313B0B501A401808191810FDBD8011E966D9344
S11313C07D938D939C935197F801D583C483CC0C62
S11313D0DD1CCC0CDD1CCC0CDD1CCC0CDD1CCC0CC5
S11313E0DD1CFEE2CF0ED11CD8018D919C9111978A
S11313F0C80ED91E5396DC92CE92529780E015C047
S113140084E013C084E011C084E00FC082E00DC00A
S113141081E00BC084E009C087E007C082E005C01A
S113142081E003C081E001C081E0DF91CF911F9191
S11314300F91FF90EF90DF90CF90BF90AF909F906F
S11314408F907F9008952F923F924F925F926F9268
S11314507F928F929F92AF92BF92CF92DF92EF9240
S1131460FF920F931F93CF93DF9300D01F921F928D
S1131470CDB7DEB78C017B01DB018C918F3211F08B
S11314808C3519F4BFEFEB1AFB0AF80116821782A8
S113149010861186D7018C91803240F460E070E0B0
S11314A0C801ABDBF801138A128A44C16894BB24D7
S11314B0B5F8A12C812C6894772473F8512C612CF5
S11314C07A825B820F2EF2E02F2EF2E03F2EF02D77
S11314D01D830C835982F7012C813D81AF018191D9
S11314E08F32E1F38C35D1F33D832C83F901A48948
S11314F0B589FD01CD010B96B192E817F907E1F723
S11315003D832C83CA2CD82C2A2D382D472C598066
S1131510962C8A018C819D815D834C837C012F5F95
S11315203F4FEC81FD816191FD83EC83613208F4CE
S1131530E7C06F3209F4DDC06C3509F4DAC06E32ED
S113154009F4C4C0C414D50408F0B4C00AC0990C8A
S1131550990CCA80DB800F2EFBE04F2EF02D512C0E
S1131560DECF66230CF0B8C0F92DF3609F2EE62F72
S1131570F0E0E057FE4F6081AFC08191882309F409
S1131580B2C090E048175907C1F786E0D3C0892D4F
S11315908260982E08C08FE9860F8A3120F4992D35
S11315A09160992E6052FD01EC0DFD1D6083F601E2
S11315B031966F01B4CFCD2809F47EC09C91953E3D
S11315C011F4F5E0FC9398E04916510411F4990CD8
S11315D0990C992D9370913009F48061992D9C7028
S11315E0943009F488601B968C936A2D782D8C8135
S11315F09D8103DB811193C00C811D81D8011E964E
S11316004D915D916D917C9151978D919C910E942A
S11316106801811186C0F80142895389DA019C91DD
S11316209923E9F01B969C9193FD12C064897589F6
S1131630FA01DB019A01255F3F4F680104C0E217FC
S1131640F30709F464C011919D911917C1F3860140
S11316506A2D782DC801BCDD882381F262C004881C
S1131660F589E02D938592FD29C085E063C0FA01D8
S1131670838584FF25C0828D938DA0E0B0E0EC814A
S1131680FD8120813181F9012081233061F4FA0147
S11316904489558960E070E0BA0155274427842BBA
S11316A0952BA62BB72BEC81FD8186839783A0878E
S11316B0B18711CF86E03EC086E03CC084E03AC0EA
S11316C085E038C086E036C086E034C0F8E04F16C6
S11316D0510409F43CCFF6CF462F50E04232510575
S11316E099F3F1014ACF8FEB860F8A3108F44FCF7B
S11316F052CFFD82EC827801E20EF31E862D5BCF81
S1131700FD82EC827801E20EF31E84E054CFDD8288
S1131710CC82DB011B969C9192FFA9CF0BC00C815C
S11317201D81D8015496ED91FC9155979385843091
S113173009F499CF0F900F900F900F900F90DF91B5
S1131740CF911F910F91FF90EF90DF90CF90BF90BA
S1131750AF909F908F907F906F905F904F903F904D
S11317602F9008951F93CF93DF9300D000D0CDB76F
S1131770DEB79C838B837E836D83142F7A83698386
S1131780CE0101960E94C600992334F1FC01EE0FAC
S1131790FF1FE65DFA4F0190F081E02D309709F0CC
S11317A01082EB81FC813097E9F010822B813C811F
S11317B0880F991FFC01E65DFA4F31832083232BA8
S11317C069F0113069F440E0BE016B5F7F4FCE01D8
S11317D003960E9404020EC08BE00CC080E00AC095
S11317E080E008C0880F991FFC01E65DFA4F118262
S11317F0108280E026960FB6F894DEBF0FBECDBFF0
S1131800DF91CF911F9108954F925F926F927F92D3
S11318108F929F92BF92CF92DF92EF92FF920F939B
S11318201F93CF93DF93CDB7DEB7E0970FB6F8944D
S1131830DEBF0FBECDBF7CA36BA3009709F490C19C
S1131840142F7C01DC011D921C924E71BE016D5D52
S11318507F4FCE0101960E9404028111C2C1B12FB3
S1131860BF71BB2ECE0147969E8B8D8B6BA17CA145
S11318704697E9DDCB88DC88811174C1C114D10499
S113188009F075C179C1843009F097C160E070E056
S1131890CE010196B2D98111A1C14F8558896989B8
S11318A07A8989819A810E946801811197C1EB89A3
S11318B0FC898081853E51F0882341F061E070E02D
S11318C0CE01019685DC882341F388C14F85588970
S11318D069897A8989819A810E94680181116DC11F
S11318E0EB89FC89CF0180961192E817F907E1F79B
S11318F06D897E894BE050E08B899C890E949A0017
S1131900E981FA8181E08483EB2DE860BE2ECB88E7
S1131910DC8808C0D6011B968C91817109F031C115
S113192012FD31C1B3FECBC080E090E0A5E8B8E47D
S1131930F60186879787A08BB18B868B978BA08FB8
S1131940B18F1386D601148E158E168E178E89804C
S11319509A80828D938D2C01612C712CF4018081ED
S1131960833069F454968D919C915597A0E0B0E032
S1131970DC0199278827482A592A6A2A7B2AD60112
S11319805B961C921E925A9755961C921E925497DF
S113199081E0F4018483411451046104710409F465
S11319A08EC022A533A544A555A52DA73EA74FA7B4
S11319B058ABB2E04B1651046104710408F4E8C05A
S11319C082899389A489B589481659066A067B06D3
S11319D008F0E0C049A65AA66BA67CA645C049A556
S11319E05AA56BA57CA5C40125D86DA37EA38FA39E
S11319F098A7611571058105910509F444C061300A
S1131A0071058105910509F4C7C06F3F7F4F8F4F62
S1131A109F4F09F4C3C000E010E0980149A55AA5FE
S1131A206BA57CA5C401A4D98111B9C0F401868534
S1131A309785A089B1898F3FFFEF9F07AF07BF0745
S1131A4059F00196A11DB11DF40186879787A08BDB
S1131A50B18B8581816085832DA13EA14FA158A5BD
S1131A6029A73AA74BA75CA7F40182899389A48983
S1131A70B58929A53AA54BA55CA5281739074A07B6
S1131A805B0708F4ACCF89819A81B301A20141506C
S1131A90510961097109DC011A964D935D936D93A7
S1131AA07C931D974DA55EA56FA578A90E9468013A
S1131AB0882339F096C011FF02C080FD74C0B3FEC4
S1131AC003C0BB2DB062BB2EE981FA8182A593A528
S1131AD0A4A5B5A5F701828F938FA48FB58FD78E58
S1131AE0C68ED7011496BC92149715961C928980C1
S1131AF09A80F601828D938DA0E0B0E0F4012081FC
S1131B00233061F4F6014489558960E070E0BA013C
S1131B1055274427842B952BA62BB72BF7018687B3
S1131B209787A08BB18BF601848D958DA68DB78D8B
S1131B30F70182879387A487B58716821782108658
S1131B401186168A178A108E118E91828082D40192
S1131B5016968D919C9117979383828380E041C060
S1131B6089E03FC0412F4C7109F08DCE1FC0812FF9
S1131B708C7109F0CFCE27C0412F4C71D9F486E087
S1131B8015C087E001C088E0882309F498CF29C0F4
S1131B9082E005C082E003C082E001C081E08823C6
S1131BA009F48FCF1EC087E001C084E0882309F4C4
S1131BB098CF17C086E001C087E0BB2DB860BB2E6C
S1131BC0CB88DC88F3CFF601838584FDEECF73CF19
S1131BD0FB2DF860BF2ECB88DC88E8CF843061F31E
S1131BE0F7CFE0960FB6F894DEBF0FBECDBFDF91FE
S1131BF0CF911F910F91FF90EF90DF90CF90BF9006
S1131C009F908F907F906F905F904F9008952F9248
S1131C103F924F925F926F927F928F929F92AF9278
S1131C20BF92CF92DF92EF92FF920F931F93CF93C5
S1131C30DF93EC014B016A015901F9011182108211
S1131C400E94DF0181116BC18D81811168C18C817A
S1131C5081FF64C18E819F81A885B985AC01BD01D6
S1131C604C0D5D1D611D711D481759076A077B07DF
S1131C7008F43EC1C114D10409F43AC14E815F8114
S1131C8068857985DB01CA019170AA27BB27892B56
S1131C908A2B8B2B09F0E6C0E881F981128111505F
S1131CA0DB01CA01072E79E0B695A795979587952C
S1131CB07A95D1F7702D182309F040C0452B462B97
S1131CC0472B79F46E857F8588899989611571051B
S1131CD08105910591F440E050E0BA01CF0169D942
S1131CE006C04A895B896C897D89CF0162D96115F7
S1131CF071058105910509F4FBC061307105810509
S1131D00910519F482E08D830AC16F3FFFEF7F07CD
S1131D108F079F0719F481E08D8301C16A8B7B8B48
S1131D208C8B9D8B4E845F846888798845284628EF
S1131D30472821F46E877F87888B998BE881F98106
S1131D4042A553A564A575A58E899F89A88DB98DD3
S1131D50481759076A077B0741F4CF010E94FD0029
S1131D60882319F081E08D83DAC0288039804A897C
S1131D705B896C897D89C1010E94EC046115710540
S1131D808105910519F482E08D83C9C02B013C01C2
S1131D90410E511C611C711C7601EF2CFF24E6944A
S1131DA0E114F10409F43FC0F1014281242F30E031
S1131DB0C701810F911D2817390718F47901E11A19
S1131DC0F1088701A3019201B401F10181810E940C
S1131DD04C31882319F081E08D83A1C0E881F98119
S1131DE082A593A5A4A5B5A584199509A609B70943
S1131DF0A70160E070E084179507A607B70778F499
S1131E00982F8827990FB401680F791F40E052E09A
S1131E10CF018E960E949A00E881F9811482FE2CEB
S1131E20EE24FF0C4CC04E815F81688579858A85DC
S1131E309B85AC85BD85481759076A077B0770F0F9
S1131E40C1010E94FD00882319F081E08D8367C0E1
S1131E50E881F98142A653A664A675A64E8A5F8AD4
S1131E60688E798E2E813F81317080E092E0821BF2
S1131E70930B76018C159D0508F47C014E895F89CE
S1131E80688D798D888199810E946801882319F071
S1131E9081E08D8344C08E819F81A885B98591702E
S1131EA0AA27BB278E9628813981A701B401820F06
S1131EB0931F0E949A00E881F98121E024838E0C0B
S1131EC09F1C8E819F81A885B9858E0D9F1DA11DA4
S1131ED0B11D8E839F83A887B987F5018081918185
S1131EE08E0D9F1D91838083CE18DF0809F0C6CE26
S1131EF08E819F81A885B9854A855B856C857D85A2
S1131F00481759076A077B0720F48A879B87AC87A1
S1131F10BD878C8180628C8380E001C087E0DF9183
S1131F20CF911F910F91FF90EF90DF90CF90BF90D2
S1131F30AF909F908F907F906F905F904F903F9065
S1131F402F9008950F931F93CF93DF93EC010E947A
S1131F50DF01982F811198C08C8185FF95C04A8D2F
S1131F605B8D6C8D7D8D888199810E946801982F8D
S1131F7081118AC0EE8DFF8D8385806283878A8577
S1131F809B85AC85BD85848F958FA68FB78F8E85F5
S1131F909F85A889B989938F828FB58BA48B80E0A4
S1131FA090E0A5E8B8E4868B978BA08FB18F138A55
S1131FB0128A8C818F7D8C83E881F98181E084830E
S1131FC00990D881C02DCE010E94FD00982F811167
S1131FD05BC08881833009F04DC08D81813009F068
S1131FE049C0BE01625D7F4FFB01CE01825D9D4F02
S1131FF01192E817F907E1F785E59AEAFE01E45D35
S1132000FD4F9183808382E592E5A1E6B1E48EA73A
S11320109FA7A8ABB9AB82E792E7A1E4B1E67A97B0
S113202080839183A283B3838E859F85A889B98990
S1132030349680839183A283B3838A859B85AC8500
S1132040BD85349680839183A283B3838A8D9B8DCF
S1132050AC8DBD8D9C01AD012F5F3F4F4F4F5F4F46
S11320602AA73BA74CA75DA701E010E089810E9445
S11320704C311D8240E050E060E089810E94AE3125
S113208091E0811101C090E0892FDF91CF911F91E0
S11320900F910895CF93DF93EC0154DF811107C0B2
S11320A0CE010E94DF01811102C019821882DF91E2
S11320B0CF9108952F923F924F925F926F927F92A9
S11320C08F929F92AF92BF92CF92DF92EF92FF9244
S11320D00F931F93CF93DF9300D01F92CDB7DEB73A
S11320E01C016A017B010E94DF01811183C1D101BE
S11320F015968C91159781117DC11A968D919D919C
S11321000D90BC91A02D8C159D05AE05BF0530F436
S1132110F101248121FD02C06C017D01D1011696DB
S11321204D905D906D907C901997F1011682178205
S113213010861186C114D104E104F10409F457C1D5
S113214000811181D80112968C90912CA12CB12C74
S1132150072E79E0880C991CAA1CBB1C7A95D1F730
S1132160702D411451046104710409F43FC0B1E0BD
S11321704B1A510861087108C701B6016150710911
S113218081099109A50194010E94903429833A831D
S11321904B835C83C301B201A50194010E94903476
S11321A089819A81AB81BC8182179307A407B50703
S11321B0E8F088279927DC0188199909AA09BB093D
S11321C0482259226A227B22D10116964D925D92B1
S11321D06D927C921997C418D508E608F7085296B0
S11321E04D915D916D917C91559732C0F101468579
S11321F0578560897189411551056105710519F586
S113220040E050E0BA01C8010E94D907AB01BC010B
S1132210413051056105710529F482E0D10115961B
S11322208C93E8C04F3FBFEF5B076B077B0721F43C
S113223081E0F1018583DEC0D1011E964D935D934B
S11322406D937C935197F101428B538B648B758B07
S1132250411551056105710509F494C08C149D0460
S1132260AE04BF0408F05CC0D10114968C9114979D
S113227081FF0CC08D919C910E94D907AB01BC01D8
S1132280411551056105710541F448C0F101808192
S113229091810E941A05AB01BC014F3FFFEF5F071C
S11322A06F077F0729F481E0D10115968C93A2C0B2
S11322B0423051056105710560F0D101ED91FC9149
S11322C082899389A489B589481759076A077B07C6
S11322D020F082E0F10185838DC0D10152964D93A7
S11322E05D936D937C93559716968D919D910D906A
S11322F0BC91A02D880D991DAA1DBB1DF1018683DB
S11323009783A087B187C818D908EA08FB088C14FA
S11323109D04AE04BF0408F4A7CF02C07501640194
S1132320F10186819781A085B1858C0D9D1DAE1D1F
S1132330BF1D86839783A087B187D701C60191709B
S1132340AA27BB27892B8A2B8B2B01F180819181B2
S11323500E94EC04611571058105910529F482E060
S1132360D10115968C9346C00B2EB9E0F694E794F0
S1132370D794C794BA95D1F7B02DC60ED71EE81ED0
S1132380F91E07C0C12CD12C760103C0C12CD12C5D
S11323907601F10186819781A085B185AC01BD01EB
S11323A0517066277727452B462B472B69F04689C2
S11323B05789608D718D4C155D056E057F0521F083
S11323C0C68AD78AE08EF18EF101428553856485F1
S11323D07585481759076A077B0758F482879387DE
S11323E0A487B58784818062848380E003C080E011
S11323F001C080E00F900F900F900F90DF91CF916C
S11324001F910F91FF90EF90DF90CF90BF90AF900E
S11324109F908F907F906F905F904F903F902F9000
S113242008951F920F920FB60F9211240BB60F92BC
S11324308F93EF93FF93E1EDF7E001900020E9F72C
S11324408091C6003197808381E080933D05FF91A0
S1132450EF918F910F900BBE0F900FBE0F901F90B6
S113246018951F920F920FB60F9211240BB60F926C
S11324708F93EF93FF93EDE6F7E001900020E9F7E7
S11324808091CE003197808381E080933C05FF9159
S1132490EF918F910F900BBE0F900FBE0F901F9076
S11324A018951F920F920FB60F9211248F939F933A
S11324B081E080933B058BE791EE909385008093B8
S11324C084009F918F910F900FBE0F901F901895CD
S11324D0EAE7F0E087E8808384E080937C008081F1
S11324E080648083808184FFFDCF60917800709147
S11324F0790080E090E00E94643320E030E041E61F
S113250053E40E941A3420E030E040E85BE30E9488
S11325101A3420E030E048E652E40E9462320E941D
S11325203333CB010895CF92DF92EF92FF92EAE723
S1132530F0E087E8808310927C008081806480834F
S1132540808184FFFDCF809178009091790000977D
S113255009F44CC0BC01660F771F660F771F680F24
S1132560791F072E000C880B990B0E9466336B01B0
S11325707C019B01AC0160E070E080EA95E40E947C
S1132580623220E030E249E156E40E941A34A701A5
S113259096010E94CB3220E030E048EC52E40E94E5
S11325A01A3420E030E44EEC55E40E94CB3220E0B3
S11325B030E048ED51E40E9462326B017C0120E07E
S11325C030E0A9010E94C73288239CF020E030E06B
S11325D046E153E4C701B6010E941634181664F0AC
S11325E0C701B6010E943333CB0108C08EEF9FEFC1
S11325F005C08EEF9FEF02C08FEF9FEFFF90EF902B
S1132600DF90CF900895CF92DF92EF92FF92EAE7A6
S1132610F0E087E8808381E080937C00808180649F
S11326208083808184FFFDCF809178009091790030
S1132630009709F452C0BC01660F771F660F771F1D
S1132640680F791F072E000C880B990B0E946633C4
S11326506B017C019B01AC0160E070E080EA95E4D1
S11326600E94623220E038E74BE956E40E941A34B3
S1132670A70196010E94CB3220E030E04AE754E4FF
S11326800E941A3420E038E146E756E40E94CB3237
S113269020E030E040EA50E40E94CB3220E030E019
S11326A048E252E40E9462326B017C0120E030E097
S11326B0A9010E94C73288239CF020E030E046E163
S11326C053E4C701B6010E941634181664F0C7011A
S11326D0B6010E943333CB0108C08EEF9FEF05C0D3
S11326E08EEF9FEF02C08FEF9FEFFF90EF90DF9090
S11326F0CF900895CF92DF92EF92FF92EAE7F0E055
S113270087E8808382E080937C008081806480837A
S1132710808184FFFDCF80917800909179000097AB
S113272009F44CC0BC01660F771F660F771F680F52
S1132730791F072E000C880B990B0E9466336B01DE
S11327407C019B01AC0160E070E080EA95E40E94AA
S1132750623220E030EB4AE156E40E941A34A701C9
S113276096010E94CB3220E030E048EC52E40E9413
S11327701A3420E030E04AEF54E40E94CB3220E0E7
S113278030E040E151E40E9462326B017C0120E0C0
S113279030E0A9010E94C73288239CF020E030E099
S11327A046E153E4C701B6010E941634181664F0DA
S11327B0C701B6010E943333CB0108C08EEF9FEFEF
S11327C005C08EEF9FEF02C08FEF9FEFFF90EF9059
S11327D0DF90CF900895CF92DF92EF92FF92EAE7D5
S11327E0F0E087E8808383E080937C0080818064CC
S11327F08083808184FFFDCF80917800909179005F
S1132800009709F44CC0BC01660F771F660F771F51
S1132810680F791F072E000C880B990B0E946633F2
S11328206B017C019B01AC0160E070E080EA95E4FF
S11328300E94623220E030E249E956E40E941A34F0
S1132840A70196010E94CB3220E030E048E453E433
S11328500E941A3420E030EB41E855E40E94CB3268
S113286020E030E040EF52E40E9462326B017C01D0
S113287020E030E0A9010E94C73288239CF020E0C8
S113288030E040E253E4C701B6010E941634181642
S113289064F0C701B6010E943333CB0108C08EEF48
S11328A09FEF05C08EEF9FEF02C08FEF9FEFFF9069
S11328B0EF90DF90CF90089581309105B9F01CF42A
S11328C0892B39F0089582309105E9F0039741F19D
S11328D0089588E98093C10086E08093C20083E371
S11328E090E09093C5008093C400089588E9809394
S11328F0C90086E08093CA0083E390E09093CD0002
S11329008093CC00089588E98093D10086E0809379
S1132910D20083E390E09093D5008093D40008958F
S113292088E98093310186E08093320183E390E06B
S113293090933501809334010895CF93DF93DB01A5
S113294081309105D1F01CF4892BF9F079C08230E3
S1132950910559F0039709F073C0AB0120E030E012
S1132960E0E3F1E066E371E061C0AB0120E030E058
S1132970E0EDF0E066ED70E044C0AB0120E030E053
S1132980E8ECF0E06EEC70E027C0AB0120E030E052
S1132990E0ECF0E066EC70E00AC0808185FFFDCFDA
S11329A0EA018991AE01EB0188832F5F3F4FED016E
S11329B009900020E9F72197CA1BDB0B2C173D0770
S11329C060F33EC0808185FFFDCFEA018991AE01AD
S11329D0EB0188832F5F3F4FED0109900020E9F759
S11329E02197CA1BDB0B2C173D0760F329C080819C
S11329F085FFFDCFEA018991AE01EB0188832F5F4A
S1132A003F4FED0109900020E9F72197CA1BDB0B2A
S1132A102C173D0760F314C0808185FFFDCFEA01C8
S1132A208991AE01EB0188832F5F3F4FED0109903F
S1132A300020E9F72197CA1BDB0B2C173D0760F335
S1132A40DF91CF910895EF92FF920F931F93CF934D
S1132A50DF931F921F92CDB7DEB77C01FA019081FC
S1132A60992321F18B0142E1BF01C8010E94040CAA
S1132A70882329F060E972E083E090E05EDFF801EA
S1132A804285538564857585C80114DBF70101907F
S1132A900020E9F73197AF014E195F099E012F5FBE
S1132AA03F4FB701C801B3D8C801F4DA0F900F90B3
S1132AB0DF91CF911F910F91FF90EF9008954F9266
S1132AC05F926F927F928F929F92AF92BF92CF92BA
S1132AD0DF92EF92FF920F931F93CF93DF93CDB7C3
S1132AE0DEB76D970FB6F894DEBF0FBECDBF7C0185
S1132AF08B011A821982FC018381873409F0C5C0D5
S1132B00CE010D969F938F9302979F938F930A966E
S1132B109F938F939F938F939F938F939E012F5F88
S1132B203F4F3F932F932D5E3F4F3F932F932B5057
S1132B3031093F932F93225031093F932F93245F00
S1132B403F4F3F932F932E5031093F932F932250A1
S1132B5031093F932F939F938F9306979F938F935E
S1132B6084EB92E09F938F93FF92EF920E9439350A
S1132B708B819C8124E630E0B9010E947D346B0195
S1132B805C017C836B838F819885B9010E947D34BD
S1132B907B014C0178876F836F85788989899A894D
S1132BA00F2EF4E64F2E512C612C712CF02DA30125
S1132BB092010E94B2346A8F7B8F8C8F9D8FCA01E1
S1132BC0B901A30192010E94B2340FB6F894DEBF9A
S1132BD00FBECDBF273031054105510564F02901F1
S1132BE03A01F7E04F1A5108610871084F86588A74
S1132BF0698A7A8A0BC029013A01E1E14E0E511C1F
S1132C00611C711C4F86588A698A7A8A49815A8163
S1132C104130510581F42B89233529F4D194C19491
S1132C20D108DC82CB822C89273529F4F194E194F4
S1132C30F108F886EF822F853889F80131832083E3
S1132C40738362832A8D3B8D358324832B813C815E
S1132C5037832683B186A0862D813E8133872287E0
S1132C602F813885358724879786868629853A85F6
S1132C70318B208B538B428B8B859C85958B848BDE
S1132C808D859E85978B868B12C1823509F00FC185
S1132C90CE010F969F938F9386EE92E09F938F932E
S1132CA0FF92EF920E9439356F85788989899A89D4
S1132CB00F2EF4E64F2E512C612C712CF02DA30114
S1132CC092010E94B2344B015C01CA01B901A30113
S1132CD092010E94B2340F900F900F900F900F90BA
S1132CE00F90273031054105510564F029013A015F
S1132CF0E7E04E1A5108610871084F86588A698ABC
S1132D007A8A0BC029013A01F1E14F0E511C611C72
S1132D10711C4F86588A698A7A8A2F853889F80106
S1132D20318320837383628395828482F701808157
S1132D308C3241F0319680E090E0019621912C3262
S1132D40E1F702C080E090E09C012F5F3F4FF70164
S1132D50E20FF31F40814C3281F405C02F5F3F4FD7
S1132D6081918C32D9F72F5F3F4FF701E20FF31FA8
S1132D708081813409F09BC005C00296F701E80FF9
S1132D80F91FECCF81E090E0F801938B828B47E050
S1132D9050E060C02F5F3F4F91919C32D9F72F5F75
S1132DA03F4F4150510909F055C0E20EF31EF7019F
S1132DB080818F8B8181888F198EC8014A969F9359
S1132DC08F930F2EF8E3AF2EF3E0BF2EF02DBF92BA
S1132DD0AF926E01F7E1CF0ED11CDF92CF920E9429
S1132DE03935F70182818F8B8381888F198EC801D1
S1132DF048969F938F93BF92AF92DF92CF920E9497
S1132E003935F70184818F8B8581888F198EC801AC
S1132E104C969F938F93BF92AF92DF92CF920E9472
S1132E20393561EF72E081E090E087DD0FB6F89408
S1132E30DEBF0FBECDBFE12CF12C0F2EF5E2AF2E7D
S1132E40F3E0BF2EF02D0F2EFCE2CF2EF5E0DF2EA7
S1132E50F02D0CC0F701E20FF31F80818C3209F4CE
S1132E609ECFF9013196EE0DFF1D94CFFF92EF92A4
S1132E70F801838D8F93828D8F93818D8F93808DB5
S1132E808F93BF92AF92DF92CF920E940A3546E0B1
S1132E90B6018BED97E00E94040CFFEFEF1AFF0AD6
S1132EA00FB6F894DEBF0FBECDBF8111DFCF6D9694
S1132EB00FB6F894DEBF0FBECDBFDF91CF911F9147
S1132EC00F91FF90EF90DF90CF90BF90AF909F90C5
S1132ED08F907F906F905F904F9008950F931F9302
S1132EE0CF93DF9300D01F92CDB7DEB78B019E0145
S1132EF02D5F3F4F3F932F93225031093F932F93E0
S1132F0025E333E03F932F939F938F930E943935AA
S1132F1089819A81F801918380838B819C81938339
S1132F2082830FB6F894DEBF0FBECDBF0F900F9013
S1132F300F900F90DF91CF911F910F910895FC0195
S1132F4001900020E9F73197E81BF90B1E161F06C4
S1132F5034F4E80FF91F1292E817F907E1F708951E
S1132F606BE373E081E090E0E8DC6CE473E081E023
S1132F7090E0E3DC6FE573E081E090E0DECC08955F
S1132F80CF93DF93CDB7DEB7C25FD5400FB6F894C9
S1132F90DEBF0FBECDBF10BA8EEE98E2C95DDE4F24
S1132FA099838883C752D1408AEE95E2C75DDE4F8C
S1132FB099838883C952D14087E393E2C55DDE4F8C
S1132FC099838883CB52D1408AEC90E2C35DDE4F73
S1132FD099838883CD52D1408AE99EE1C15DDE4F59
S1132FE099838883CF52D1408FE99CE1CF5CDE4F37
S1132FF099838883C153D14084ED9AE1CD5CDE4F3F
S113300099838883C353D14081E399E1CB5CDE4F3C
S113301099838883C553D14084EB97E1C95CDE4F23
S113302099838883C753D14086E596E1C75CDE4F18
S113303099838883C953D14086E195E1C55CDE4F0D
S113304099838883CB53D1408FEE93E1C35CDE4FE9
S113305099838883CD53D1408FED92E1C15CDE4FDB
S113306099838883CF53D14085EE91E1CF5BDE4FC6
S113307099838883C154D1408DEF90E1CD5BDE4FBD
S113308099838883C354D14085E290E1CB5BDE4FC2
S113309099838883C554D1408EE59FE0C95BDE4F98
S11330A099838883C754D14084EA9EE0C75BDE4F8E
S11330B099838883C954D14087EF9DE0C55BDE4F77
S11330C099838883CB54D14085E59DE0C35BDE4F73
S11330D099838883CD54D1408EEB9CE0C15BDE4F55
S11330E099838883CF54D14081E39CE0CF5ADE4F4B
S11330F099838883C155D1406CEA7BE0CD5ADE4F79
S113310079836883C355D14080E39BE0CB5ADE4F7B
S113311099838883C555D1408BEB9AE0C95ADE4F19
S113312099838883C755D1408DE49AE0C75ADE4F0E
S113313099838883C955D14085EE99E0C55ADE4FFD
S113314099838883CB55D14083E899E0C35ADE4FF5
S113315099838883CD55D14087E299E0C15ADE4FE7
S113316099838883CF55D14080ED98E0CF59DE4FC5
S113317099838883C156D1408DE798E0CD59DE4FBD
S113318099838883C356D1408FE298E0CB59DE4FB0
S113319099838883C556D14085EE97E0C959DE4F9F
S11331A099838883C756D1408FE997E0C759DE4F8A
S11331B099838883C956D1408CE597E0C559DE4F81
S11331C099838883CB56D1408DE197E0C359DE4F74
S11331D099838883CD56D14080EE96E0C159DE4F65
S11331E099838883CF56D14087EA96E0CF58DE4F43
S11331F099838883C157D14080E796E0CD58DE4F4C
S113320099838883C357D1408CE396E0CB58DE4F33
S113321099838883C557D1408AE096E0C958DE4F28
S113322099838883C757D1408BED95E0C758DE4F0B
S113323099838883C957D1408EEA95E0C558DE4FFB
S113324099838883CB57D14082E895E0C358DE4FF9
S113325099838883CD57D14089E595E0C158DE4FE5
S113326099838883CF57D14081E395E0CF57DE4FD0
S113327099838883C158D1408BE095E0CD57DE4FC8
S113328099838883C358D14086EE94E0CB57DE4FB0
S113329099838883C558D14084EC94E0C957DE4FA4
S11332A099838883C758D14082EA94E0C757DE4F98
S11332B099838883C958D14082E894E0C557DE4F8A
S11332C099838883CB58D14083E694E0C357DE4F7B
S11332D099838883CD58D14085E494E0C157DE4F6B
S11332E099838883CF58D14089E294E0CF56DE4F4A
S11332F099838883C159D1408DE094E0CD56DE4F47
S113330099838883C359D14083EF93E0CB56DE4F32
S113331099838883C559D14089ED93E0C956DE4F1E
S113332099838883C759D14081EC93E0C756DE4F17
S113333099838883C959D14089EA93E0C556DE4F01
S113334099838883CB59D14082E993E0C356DE4FF9
S113335099838883CD59D1408CE793E0C156DE4FE1
S113336099838883CF59D14087E693E0CF55DE4FC8
S113337099838883C15AD14083E593E0CD55DE4FCC
S113338099838883C35AD1408FE393E0CB55DE4FB2
S113339099838883C55AD1408CE293E0C955DE4FA6
S11333A099838883C75AD14089E193E0C755DE4F9A
S11333B099838883C95AD14087E093E0C555DE4F8D
S11333C099838883CB5AD14086EF92E0C355DE4F70
S11333D099838883CD5AD14085EE92E0C155DE4F62
S11333E099838883CF5AD14085ED92E0CF54DE4F44
S11333F099838883C15BD14086EC92E0CD54DE4F43
S113340099838883C35BD14086EB92E0CB54DE4F33
S113341099838883C55BD14088EA92E0C954DE4F22
S113342099838883C75BD1408BE992E0C754DE4F10
S113343099838883C95BD1408CE892E0C554DE4F00
S113344099838883CB5BD1408EE792E0C354DE4FEF
S113345099838883CD5BD14081E792E0C154DE4FEC
S113346099838883CF5BD14085E692E0CF53DE4FCA
S113347099838883C15CD14089E592E0CD53DE4FC6
S113348099838883C35CD1408DE492E0CB53DE4FB3
S113349099838883C55CD14081E492E0C953DE4FAF
S11334A099838883C75CD14086E392E0C753DE4F9B
S11334B099838883C95CD1408BE292E0C553DE4F87
S11334C099838883CB5CD14081E292E0C353DE4F81
S11334D099838883CD5CD14086E192E0C153DE4F6D
S11334E099838883CF5CD1408CE092E0CF52DE4F49
S11334F099838883C15DD14083E092E0CD52DE4F51
S113350099838883C35DD14089EF91E0CB52DE4F2C
S113351099838883C55DD14080EF91E0C952DE4F25
S113352099838883C75DD14087EE91E0C752DE4F0F
S113353099838883C95DD1408EED91E0C552DE4FF9
S113354099838883CB5DD14086ED91E0C352DE4FF1
S113355099838883CD5DD1408DEC91E0C152DE4FDB
S113356099838883CF5DD14085EC91E0CF51DE4FC4
S113357099838883C15ED1404EEB51E0CD51DE4F3B
S113358059834883C35ED14026EB31E0CB51DE4FF3
S113359039832883C55ED1408EEA91E0C951DE4F5C
S11335A099838883C75ED140E7EAF1E0C751DE4FD3
S11335B0F983E883C95ED140E0EAF1E0C551DE4F0A
S11335C0F983E883CB5ED140E9E9F1E0C351DE4FF2
S11335D0F983E883CD5ED140E2E9F1E0C151DE4FE9
S11335E0F983E883CF5ED140ECE8F1E0CF50DE4FC1
S11335F0F983E883C15FD140E5E8F1E0CD50DE4FC7
S1133600F983E883C35FD140EFE7F1E0CB50DE4FAD
S1133610F983E883C55FD140E9E7F1E0C950DE4FA3
S1133620F983E883C75FD140E3E7F1E0C750DE4F99
S1133630F983E883C95FD140EDE6F1E0C550DE4F80
S1133640F983E883CB5FD140E7E6F1E0C350DE4F76
S1133650F983E883CD5FD140E2E6F1E0C150DE4F6B
S1133660F983E883CF5FD140ECE5F1E0CF5FDD4F34
S1133670F983E883C150D240E7E5F1E0CD5FDD4F47
S1133680F983E883C350D240E2E5F1E0CB5FDD4F3C
S1133690F983E883C550D240EDE4F1E0C95FDD4F22
S11336A0F983E883C750D240E8E4F1E0C75FDD4F17
S11336B0F983E883C950D240E3E4F1E0C55FDD4F0C
S11336C0F983E883CB50D240EEE3F1E0C35FDD4FF2
S11336D0F983E883CD50D240E9E3F1E0C15FDD4FE7
S11336E0F983E883CF50D240E5E3F1E0CF5EDD4FCC
S11336F0F983E883C151D240E0E3F1E0CD5EDD4FD0
S1133700F983E883C351D240ECE2F1E0CB5EDD4FB4
S1133710F983E883C551D240E8E2F1E0C95EDD4FA8
S1133720F983E883C751D240E4E2F1E0C75EDD4F9C
S1133730F983E883C951D240EFE1F1E0C55EDD4F82
S1133740F983E883CB51D240EBE1F1E0C35EDD4F76
S1133750F983E883CD51D240E7E1F1E0C15EDD4F6A
S1133760F983E883CF51D240E4E1F1E0CF5DDD4F4E
S1133770F983E883C152D240E0E1F1E0CD5DDD4F51
S1133780F983E883C352D240ECE0F1E0CB5DDD4F36
S1133790F983E883C552D240E9E0F1E0C95DDD4F29
S11337A0F983E883C752D240E5E0F1E0C75DDD4F1D
S11337B0F983E883C952D240E1E0F1E0C55DDD4F11
S11337C0F983E883CB52D240EEEFF0E0C35DDD4FE6
S11337D0F983E883CD52D240EBEFF0E0C15DDD4FD9
S11337E0F983E883CF52D240E7EFF0E0CF5CDD4FBE
S11337F0F983E883C153D240E4EFF0E0CD5CDD4FC0
S1133800F983E883C353D240E1EFF0E0CB5CDD4FB2
S1133810F983E883C553D240EEEEF0E0C95CDD4F96
S1133820F983E883C753D240EBEEF0E0C75CDD4F89
S1133830F983E883C953D240E8EEF0E0C55CDD4F7C
S1133840F983E883CB53D240E5EEF0E0C35CDD4F6F
S1133850F983E883CD53D240E2EEF0E0C15CDD4F62
S1133860F983E883CF53D240EFEDF0E0CF5BDD4F37
S1133870F983E883C154D240ECEDF0E0CD5BDD4F39
S1133880F983E883C354D240EAEDF0E0CB5BDD4F2B
S1133890F983E883C554D240E7EDF0E0C95BDD4F1E
S11338A0F983E883C754D240E4EDF0E0C75BDD4F11
S11338B0F983E883C954D240E2EDF0E0C55BDD4F03
S11338C0F983E883CB54D240EFECF0E0C35BDD4FE7
S11338D0F983E883CD54D240EDECF0E0C15BDD4FD9
S11338E0F983E883CF54D240EAECF0E0CF5ADD4FBD
S11338F0F983E883C155D240E8ECF0E0CD5ADD4FBE
S1133900F983E883C355D240EBE8F6E2CB5ADD4FA6
S1133910F983E883C555D240EBE4F4E2C95ADD4F9C
S1133920F983E883C755D240E8E3F2E2C75ADD4F92
S1133930F983E883C955D240EFE4F0E2C55ADD4F7C
S1133940F983E883CB55D240EBE8FEE1C35ADD4F5F
S1133950F983E883CD55D240E8EEFCE1C15ADD4F4E
S1133960F983E883CF55D240E4E6FBE1CF59DD4F3C
S1133970F983E883C156D240ECEFF9E1CD59DD4F2C
S1133980F983E883C356D240EDEAF8E1CB59DD4F21
S1133990F983E883C556D240E5E7F7E1C959DD4F1D
S11339A0F983E883C756D240E2E5F6E1C759DD4F13
S11339B0F983E883C956D240E3E4F5E1C559DD4F04
S11339C0F983E883CB56D240E5E4F4E1C359DD4FF3
S11339D0F983E883CD56D240E7E5F3E1C159DD4FE1
S11339E0F983E883CF56D240E8E7F2E1CF58DD4FC0
S11339F0F983E883C157D240E6EAF1E1CD58DD4FBF
S1133A00F983E883C357D240E2EEF0E1CB58DD4FAF
S1133A10F983E883C557D240E9E2F0E1C958DD4FA4
S1133A20F983E883C757D240EBE7FFE0C758DD4F7F
S1133A30F983E883C957D240E7EDFEE0C558DD4F6E
S1133A40F983E883CB57D240ECE3FEE0C358DD4F63
S1133A50F983E883CD57D240EAEAFDE0C158DD4F4F
S1133A60F983E883CF57D240E0E2FDE0CF57DD4F42
S1133A70F983E883C158D240EDE9FCE0CD57DD4F2E
S1133A80F983E883C358D240E2E2FCE0CB57DD4F30
S1133A90F983E883C558D240C957DD4F79836883D9
S1133AA0C758D24064ED7AE0C757DD4F7983688305
S1133AB0C958D24060E77AE0C557DD4F79836883FF
S1133AC0CB58D24061E17AE0C357DD4F79836883F4
S1133AD0CD58D24066EB79E0C157DD4F79836883D6
S1133AE0CF58D24060E679E0CF56DD4F79836883C2
S1133AF0C159D2406EE079E0CD56DD4F79836883B9
S1133B00C359D24060EC78E0CB56DD4F79836883AB
S1133B10C559D24065E778E0C956DD4F798368839B
S1133B20C759D2406EE278E0C756DD4F7983688387
S1133B30C959D2406AEE77E0C556DD4F7983688370
S1133B40CB59D24069EA77E0C356DD4F7983688365
S1133B50CD59D2406BE677E0C156DD4F7983688357
S1133B60CF59D2406FE277E0CF55DD4F7983688338
S1133B70C15AD24067EF76E0CD55DD4F7983688333
S1133B80C35AD24060EC76E0CB55DD4F798368832D
S1133B90C55AD2406CE876E0C955DD4F7983688315
S1133BA0C75AD2406AE576E0C755DD4F798368830A
S1133BB0C95AD2406AE276E0C555DD4F79836883FD
S1133BC0CB5AD2406CEF75E0C355DD4F79836883DF
S1133BD0CD5AD24060ED75E0C155DD4F79836883DD
S1133BE0CF5AD24066EA75E0CF54DD4F79836883BB
S1133BF0C15BD2406DE775E0CD54DD4F79836883B6
S1133C00C35BD24066E575E0CB54DD4F79836883AE
S1133C10C55BD24060E375E0C954DD4F79836883A6
S1133C20C75BD2406CE075E0C754DD4F798368838D
S1133C30C95BD24069EE74E0C554DD4F7983688373
S1133C40CB5BD24067EC74E0C354DD4F7983688367
S1133C50CD5BD24067EA74E0C154DD4F7983688359
S1133C60CF5BD24068E874E0CF53DD4F798368833B
S1133C70C15CD2406AE674E0CD53DD4F798368833A
S1133C80C35CD2406DE474E0CB53DD4F7983688329
S1133C90C55CD24061E374E0C953DD4F7983688326
S1133CA0C75CD24066E174E0C753DD4F7983688313
S1133CB0C95CD2406CEF73E0C553DD4F79836883F0
S1133CC0CB5CD24063EE73E0C353DD4F79836883EA
S1133CD0CD5CD2406BEC73E0C153DD4F79836883D4
S1133CE0CF5CD24063EB73E0CF52DD4F79836883BE
S1133CF0C15DD2406CE973E0CD52DD4F79836883B6
S1133D00C35DD24067E873E0CB52DD4F79836883AB
S1133D10C55DD24061E773E0C952DD4F79836883A2
S1133D20C75DD2406DE573E0C752DD4F7983688388
S1133D30C95DD24069E473E0C552DD4F798368837D
S1133D40CB5DD24066E373E0C352DD4F7983688371
S1133D50CD5DD24063E273E0C152DD4F7983688365
S1133D60CF5DD24061E173E0CF51DD4F7983688349
S1133D70C15ED24060E073E0CD51DD4F798368834A
S1133D80C35ED2406FEE72E0CB51DD4F798368831E
S1133D90C55ED2406EED72E0C951DD4F7983688310
S1133DA0C75ED2406EEC72E0C751DD4F7983688301
S1133DB0C95ED2406FEB72E0C551DD4F79836883F1
S1133DC0CB5ED24060EB72E0C351DD4F79836883F0
S1133DD0CD5ED24061EA72E0C151DD4F79836883E0
S1133DE0CF5ED24063E972E0CF50DD4F79836883C0
S1133DF0C15FD24065E872E0CD50DD4F79836883BE
S1133E00C35FD24068E772E0CB50DD4F79836883AB
S1133E10C55FD2406BE672E0C950DD4F7983688399
S1133E20C75FD2406EE572E0C750DD4F7983688387
S1133E30C95FD24062E572E0C550DD4F7983688383
S1133E40CB5FD24066E472E0C350DD4F7983688370
S1133E50CD5FD2406BE372E0C150DD4F798368835C
S1133E60CF5FD2406FE272E0CF5FDC4F798368832B
S1133E70C150D34065E272E0CD5FDC4F7983688343
S1133E80C350D3406AE172E0CB5FDC4F798368832F
S1133E90C550D34060E172E0C95FDC4F7983688329
S1133EA0C750D34065E072E0C75FDC4F7983688315
S1133EB0C950D3406CEF71E0C55FDC4F79836883F0
S1133EC0CB50D34062EF71E0C35FDC4F79836883EA
S1133ED0CD50D34069EE71E0C15FDC4F79836883D4
S1133EE0CF50D34060EE71E0CF5EDC4F79836883BE
S1133EF0C151D34067ED71E0CD5EDC4F79836883B7
S1133F00C351D3406EEC71E0CB5EDC4F79836883A0
S1133F10C551D34066EC71E0C95EDC4F7983688398
S1133F20C751D340C75EDC4F59834883C951D3403E
S1133F30C55EDC4F39832883CB51D340C35EDC4F4D
S1133F4099838883CD51D34086EA91E0C15EDC4FEA
S1133F5099838883CF51D3408FE991E0CF5DDC4FC3
S1133F6099838883C152D34088E991E0CD5DDC4FC9
S1133F7099838883C352D34081E991E0CB5DDC4FC0
S1133F8099838883C552D3408AE891E0C95DDC4FA8
S1133F9099838883C752D34083E891E0C75DDC4F9F
S1133FA099838883C952D3408CE791E0C55DDC4F87
S1133FB099838883CB52D34086E791E0C35DDC4F7D
S1133FC099838883CD52D34080E791E0C15DDC4F73
S1133FD099838883CF52D3408AE691E0CF5CDC4F4B
S1133FE099838883C153D34084E691E0CD5CDC4F50
S1133FF099838883C353D3408EE591E0CB5CDC4F37
S113400099838883C553D34088E591E0C95CDC4F2C
S113401099838883C753D34083E591E0C75CDC4F21
S113402099838883C953D3408DE491E0C55CDC4F08
S113403099838883CB53D34088E491E0C35CDC4FFD
S113404099838883CD53D34083E491E0C15CDC4FF2
S113405099838883CF53D3408DE391E0CF5BDC4FCA
S113406099838883C154D34088E391E0CD5BDC4FCE
S113407099838883C354D34084E391E0CB5BDC4FC2
S113408099838883C554D3408FE291E0C95BDC4FA8
S113409099838883C754D3408AE291E0C75BDC4F9D
S11340A099838883C954D34086E291E0C55BDC4F91
S11340B099838883CB54D34081E291E0C35BDC4F86
S11340C099838883CD54D3408DE191E0C15BDC4F6B
S11340D099838883CF54D34088E191E0CF5ADC4F51
S11340E099838883C155D34084E191E0CD5ADC4F54
S11340F099838883C355D34080E191E0CB5ADC4F48
S113410099838883C555D3408CE091E0C95ADC4F2C
S113411099838883C755D34088E091E0C75ADC4F20
S113412099838883C955D34084E091E0C55ADC4F14
S113413099838883CB55D34080E091E0C35ADC4F08
S113414099838883CD55D3408DEF90E0C15ADC4FDD
S113415099838883CF55D34089EF90E0CF59DC4FC2
S113416099838883C156D34086EF90E0CD59DC4FC4
S113417099838883C356D34082EF90E0CB59DC4FB8
S113418099838883C556D3408FEE90E0C959DC4F9C
S113419099838883C756D3408BEE90E0C759DC4F90
S11341A099838883C956D34028EE30E0C559DC4F43
S11341B039832883CB56D34085EE90E0C359DC4F36
S11341C099838883CD56D34082EE90E0C159DC4F69
S11341D099838883CF56D3404EED50E0CF58DC4FBF
S11341E059834883C157D3404BED50E0CD58DC4F41
S11341F059834883C357D34048ED50E0CB58DC4F34
S113420059834883C557D34046ED50E0C958DC4F25
S113421059834883C757D34043ED50E0C758DC4F18
S113422059834883C957D34040ED50E0C558DC4F0B
S113423059834883CB57D3404DEC50E0C358DC4FEF
S113424059834883CD57D3404AEC50E0C158DC4FE2
S113425059834883CF57D34048EC50E0CF57DC4FC5
S113426059834883C158D34040E150E1CD57DC4FD6
S113427059834883C358D34047EA5DE0CB57DC4FAA
S113428059834883C558D34049EC5BE0C957DC4F98
S113429059834883C758D3404EE45AE0C757DC4F8C
S11342A059834883C958D3404CE159E0C557DC4F82
S11342B059834883CB58D34040E258E0C357DC4F7E
S11342C059834883CD58D3404EE457E0C157DC4F5F
S11342D059834883CF58D3404CE956E0CF56DC4F3E
S11342E059834883C159D34045E056E0CD56DC4F4D
S11342F059834883C359D34043E855E0CB56DC4F38
S113430059834883C559D34042E155E0C956DC4F2F
S113431059834883C759D3404FEA54E0C756DC4F0A
S113432059834883C959D34048E554E0C556DC4F06
S113433059834883CB59D3404BE054E0C356DC4FF8
S113434059834883CD59D34047EC53E0C156DC4FE1
S113435059834883CF59D34049E853E0CF55DC4FC4
S113436059834883C15AD34042E553E0CD55DC4FCD
S113437059834883C35AD34040E253E0CB55DC4FC2
S113438059834883C55AD34043EF52E0C955DC4FA3
S113439059834883C75AD3404AEC52E0C755DC4F8F
S11343A059834883C95AD34044EA52E0C555DC4F87
S11343B059834883CB5AD34041E852E0C355DC4F7C
S11343C059834883CD5AD34042E652E0C155DC4F6D
S11343D059834883CF5AD34045E452E0CF54DC4F4D
S11343E059834883C15BD3404AE252E0CD54DC4F49
S11343F059834883C35BD34041E152E0CB54DC4F43
S113440059834883C55BD3404AEF51E0C954DC4F1C
S113441059834883C75BD34044EE51E0C754DC4F13
S113442059834883C95BD34040ED51E0C554DC4F08
S113443059834883CB5BD3404DEB51E0C354DC4FED
S113444059834883CD5BD3404CEA51E0C154DC4FDF
S113445059834883CF5BD3404CE951E0CF53DC4FC1
S113446059834883C15CD3404CE851E0CD53DC4FC1
S113447059834883C35CD3404EE751E0CB53DC4FB0
S113448059834883C55CD34040E751E0C953DC4FAE
S113449059834883C75CD34043E651E0C753DC4F9C
S11344A059834883C95CD34047E551E0C553DC4F89
S11344B059834883CB5CD3404CE451E0C353DC4F75
S11344C059834883CD5CD34041E451E0C153DC4F70
S11344D059834883CF5CD34047E351E0CF52DC4F4C
S11344E059834883C15DD3404DE251E0CD52DC4F46
S11344F059834883C35DD34044E251E0CB52DC4F3F
S113450059834883C55DD3404BE151E0C952DC4F28
S113451059834883C75DD34043E151E0C752DC4F20
S113452059834883C95DD3404BE051E0C552DC4F09
S113453059834883CB5DD34043E051E0C352DC4F01
S113454059834883CD5DD3404CEF50E0C152DC4FDA
S113455059834883CF5DD34045EF50E0CF51DC4FC2
S113456059834883C15ED3404EEE50E0CD51DC4FB9
S113457059834883C35ED340CB51DC4F39832883AE
S1134580C55ED340C951DC4F99838883C75ED3404D
S11345908CED90E0C751DC4F99838883C95ED3408A
S11345A087ED90E0C551DC4F99838883CB5ED3407F
S11345B081ED90E0C351DC4F99838883CD5ED34075
S11345C08CEC90E0C151DC4F99838883CF5ED3405B
S11345D00F2EF7ECAF2EB12CF02DCF50DC4FB9825B
S11345E0A882C15FD34083EC90E0CD50DC4F998327
S11345F08883C35FD3408EEB90E0CB50DC4F99832C
S11346008883C55FD3408AEB90E0C950DC4F99831F
S11346108883C75FD34085EB90E0C750DC4F998314
S11346208883C95FD34081EB90E0C550DC4F998308
S11346308883CB5FD3408EEA90E0C350DC4F9983EC
S11346408883CD5FD3408AEA90E0C150DC4F9983E0
S11346508883CF5FD34086EA90E0CF5FDB4F9983B6
S11346608883C150D4400F2EF3EA8F2E912CF02D65
S1134670CD5FDB4F99828882C350D4400F2EFFE96F
S11346806F2E712CF02DCB5FDB4F79826882C55081
S1134690D4408CE990E0C95FDB4F99838883C7508D
S11346A0D44089E990E0C75FDB4F99838883C95080
S11346B0D4400F2EF6E94F2E512CF02DC55FDB4F61
S11346C059824882CB50D44083E990E0C35FDB4FEA
S11346D099838883CD50D44080E990E0C15FDB4F5B
S11346E099838883CF50D4408DE890E0CF5EDB4F30
S11346F099838883C151D4400F2EFBE82F2E312C8F
S1134700F02DCD5EDB4F39822882C351D44088E836
S113471090E0CB5EDB4F99838883C551D44085E814
S113472090E0C95EDB4F99838883C751D4400F2E34
S1134730F3E8CF2ED12CF02DC75EDB4FD982C8828F
S1134740C951D44081E890E0C55EDB4F99838883EA
S1134750CB51D4408EE790E0C35EDB4F99838883CE
S1134760CD51D4408CE790E0C15EDB4F99838883C0
S1134770CF51D4400F2EFAE7EF2EF12CF02DCF5D60
S1134780DB4FF982E882C152D44088E790E0CD5DE6
S1134790DB4F99838883C352D44086E790E0CB5D96
S11347A0DB4F99838883C552D44004E710E0C95D88
S11347B0DB4F19830883C752D44082E790E0C75D7A
S11347C0DB4F99838883C952D44080E790E0C55D6C
S11347D0DB4F99838883CB52D4406EE670E0C35D8F
S11347E0DB4F79836883CD52D4408CE690E0C15D81
S11347F0DB4F99838883CF52D4408BE690E0CF5C23
S1134800DB4F99838883C153D4400F2EF9E6CF2E12
S1134810D12CF02DCD5CDB4FD982C882C353D44058
S113482087E690E0CB5CDB4F99838883C553D44003
S11348300F2EF6E6EF2EF12CF02DC95CDB4FF9823A
S1134840E882C753D44004E610E0C75CDB4F198309
S11348500883C953D44083E690E0C55CDB4F998359
S11348608883CB53D44061E670E0C35CDB4F79832B
S11348706883CD53D44080E690E0C15CDB4F9983DC
S11348808883CF53D4408EE590E0CF5BDB4F998390
S11348908883C154D4408DE590E0CD5BDB4F998390
S11348A08883C354D4400F2EFBE5CF2ED12CF02D9A
S11348B0CB5BDB4FD982C882C554D4408AE590E0F3
S11348C0C95BDB4F99838883C754D4400F2EF9E525
S11348D0EF2EF12CF02DC75BDB4FF982E882C9542F
S11348E0D44088E590E0C55BDB4F99838883CB5443
S11348F0D44006E510E0C35BDB4F19830883CD5435
S1134900D44085E590E0C15BDB4F99838883CF5425
S1134910D44064E570E0CF5ADB4F79836883C15596
S1134920D44083E590E0CD5ADB4F99838883C35507
S1134930D44082E590E0CB5ADB4F99838883C555F8
S1134940D4400F2EF1E5CF2ED12CF02DC95ADB4FD8
S1134950D982C882C755D44080E590E0C75ADB4F5E
S113496099838883C955D4400F2EFFE4EF2EF12C90
S1134970F02DC55ADB4FF982E882CB55D4408EE442
S113498090E0C35ADB4F99838883CD55D4400DE41E
S113499010E0C15ADB4F19830883CF55D4408CE40F
S11349A090E0CF59DB4F99838883C156D4406BE4A0
S11349B070E0CD59DB4F79836883C356D4408AE4D1
S11349C090E0CB59DB4F99838883C556D44089E462
S11349D090E0C959DB4F99838883C756D4400F2E82
S11349E0F8E4CF2ED12CF02DC759DB4FD982C882E1
S11349F0C956D4400F2EF7E4EF2EF12CF02DC559F3
S1134A00DB4FF982E882CB56D44086E490E0C35968
S1134A10DB4F99838883CD56D44005E410E0C15917
S1134A20DB4F19830883CF56D4400F2EF4E4CF2EE6
S1134A30D12CF02DCF58DB4FD982C882C157D44036
S1134A40CD58DB4FD982C882C357D44083E490E069
S1134A50CB58DB4F99838883C557D44062E470E018
S1134A60C958DB4F79836883C757D44081E490E009
S1134A70C758DB4F99838883C957D44080E490E0BA
S1134A80C558DB4F99838883CB57D440C358DB4F39
S1134A9099838883CD57D4400F2EFFE3EF2EF12C5A
S1134AA0F02DC158DB4FF982E882CF57D4400F2E46
S1134AB0FEE3EF2EF12CF02DCF57DB4FF982E88285
S1134AC0C158D440CD57DB4FF982E882C358D44053
S1134AD00DE310E0CB57DB4F19830883C558D4404E
S1134AE08CE390E0C957DB4F99838883C758D4403F
S1134AF0C757DB4F99838883C958D4406BE370E070
S1134B00C557DB4F79836883CB58D4400AE310E060
S1134B10C357DB4F19830883CD58D440C157DB4FAB
S1134B2019830883CF58D44089E390E0CF56DB4FF4
S1134B3099838883C159D440A8E3B0E0CD56DB4FB4
S1134B40B983A883C359D440CB56DB4FB983A88318
S1134B50C559D440E7E3F0E0C956DB4FF983E88355
S1134B60C759D440C756DB4FF983E883C959D440A9
S1134B7066E370E0C556DB4F79836883CB59D44034
S1134B80C356DB4F79836883CD59D44085E390E0E5
S1134B90C156DB4F99838883CF59D44044E350E016
S1134BA0CF55DB4F59834883C15AD440CD55DB4F91
S1134BB059834883C35AD44083E390E0CB55DB4FF9
S1134BC099838883C55AD440C955DB4F9983888318
S1134BD0C75AD44022E330E0C755DB4F39832883DA
S1134BE0C95AD440C555DB4F39832883CB5AD440A6
S1134BF081E390E0C355DB4F99838883CD5AD44039
S1134C00C155DB4F99838883CF5AD440CF54DB4FAF
S1134C10B982A882C15BD4400F2EF2ECAF2EB12C26
S1134C20F02DCD54DB4FB982A882C35BD4400F2E44
S1134C30FCEBAF2EB12CF02DCB54DB4FB982A88204
S1134C40C55BD4400F2EF7EBAF2EB12CF02DC95419
S1134C50DB4FB982A882C75BD4400F2EF2EBAF2E94
S1134C60B12CF02DC754DB4FB982A882C95BD44064
S1134C700F2EFDEAAF2EB12CF02DC554DB4FB982B7
S1134C80A882CB5BD4400F2EF8EAAF2EB12CF02DC6
S1134C90C354DB4FB982A882CD5BD440C154DB4FEF
S1134CA099828882CF5BD440CF53DB4F798268826C
S1134CB0C15CD4400F2EFAE9AF2EB12CF02DCD53A8
S1134CC0DB4FB982A882C35CD440CB53DB4F5982FB
S1134CD04882C55CD4400F2EF2E9AF2EB12CF02DE2
S1134CE0C953DB4FB982A882C75CD4400F2EFEE8BB
S1134CF0AF2EB12CF02DC753DB4FB982A882C95C0B
S1134D00D440C553DB4F39822882CB5CD4400F2E6C
S1134D10F7E8AF2EB12CF02DC353DB4FB982A88234
S1134D20CD5CD4400F2EF3E8AF2EB12CF02DC1533F
S1134D30DB4FB982A882CF5CD4406894AA24A7F838
S1134D40B12CCF52DB4FB982A882C15DD4400F2E63
S1134D50FDE7AF2EB12CF02DCD52DB4FB982A882E6
S1134D60C35DD4400F2EFAE7AF2EB12CF02DCB52F9
S1134D70DB4FB982A882C55DD4400F2EF7E7AF2E72
S1134D80B12CF02DC952DB4FB982A882C75DD44043
S1134D900F2EF4E7AF2EB12CF02DC752DB4FB982A2
S1134DA0A882C95DD4400F2EF1E7AF2EB12CF02DAF
S1134DB0C552DB4FB982A882CB5DD4400F2EFEE6EC
S1134DC0AF2EB12CF02DC352DB4FB982A882CD5D3A
S1134DD0D4400F2EFBE6AF2EB12CF02DC152DB4F89
S1134DE0B982A882CF5DD4400F2EF9E6AF2EB12C44
S1134DF0F02DCF51DB4FB982A882C15ED4400F2E73
S1134E00F6E6AF2EB12CF02DCD51DB4FB982A8823E
S1134E10C35ED4400F2EF4E6AF2EB12CF02DCB514F
S1134E20DB4FB982A882C55ED4400F2EF1E6AF2EC7
S1134E30B12CF02DC951DB4FB982A882C75ED44092
S1134E400F2EFFE5AF2EB12CF02DC751DB4FB982E9
S1134E50A882C95ED4400F2EFDE5AF2EB12CF02DF3
S1134E60C551DB4FB982A882CB5ED4400F2EFBE53F
S1134E70AF2EB12CF02DC351DB4FB982A882CD5E89
S1134E80D4400F2EF9E5AF2EB12CF02DC151DB4FDC
S1134E90B982A882CF5ED4400F2EF6E5AF2EB12C96
S1134EA0F02DCF50DB4FB982A882C15FD4400F2EC2
S1134EB0F4E5AF2EB12CF02DCD50DB4FB982A88292
S1134EC0C35FD4400F2EF3E5AF2EB12CF02DCB50A1
S1134ED0DB4FB982A882C55FD4400F2EF1E5AF2E17
S1134EE0B12CF02DC950DB4FB982A882C75FD440E2
S1134EF00F2EFFE4AF2EB12CF02DC750DB4FB9823B
S1134F00A882C95FD4400F2EFDE4AF2EB12CF02D42
S1134F10C550DB4FB982A882CB5FD4400F2EFBE48F
S1134F20AF2EB12CF02DC350DB4FB982A882CD5FD8
S1134F30D4400F2EFAE4AF2EB12CF02DC150DB4F2C
S1134F40B982A882CF5FD4400F2EF8E4AF2EB12CE3
S1134F50F02DCF5FDA4FB982A882C150D5400F2E11
S1134F60F7E4AF2EB12CF02DCD5FDA4FB982A882D1
S1134F70C350D5400F2EF5E4AF2EB12CF02DCB5FEE
S1134F80DA4FB982A882C550D540C95FDA4FD982B9
S1134F90C882C750D5400F2EF2E4CF2ED12CF02D6D
S1134FA0C75FDA4FD982C882C950D5400F2EF1E4C9
S1134FB0AF2EB12CF02DC55FDA4FB982A882CB5049
S1134FC0D5400F2EFFE3CF2ED12CF02DC35FDA4F47
S1134FD0D982C882CD50D540C15FDA4FF982E882C8
S1134FE0CF50D5400F2EFDE3EF2EF12CF02DCF5EE8
S1134FF0DA4FF982E882C151D5400F2EFBE3AF2E80
S1135000B12CF02DCD5EDA4FB982A882C351D540C0
S1135010CB5EDA4F19830883C551D5400F2EF9E3CF
S1135020CF2ED12CF02DC95EDA4FD982C882C75158
S1135030D540C75EDA4FB983A883C951D540C55E50
S1135040DA4FF983E883CB51D540C35EDA4F7983D5
S11350506883CD51D5400F2EF5E3EF2EF12CF02DC2
S1135060C15EDA4FF982E882CF51D540CF5DDA4F85
S113507059834883C152D540CD5DDA4F39832883A3
S1135080C352D540CB5DDA4F99838883C552D5404E
S1135090C95DDA4F99838883C752D54080E390E095
S11350A0C75DDA4F99838883C952D5408FE290E077
S11350B0C55DDA4F99838883CB52D5408EE290E068
S11350C0C35DDA4F99838883CD52D5408DE290E059
S11350D0C15DDA4F99838883CF52D5408CE290E04A
S11350E0CF5CDA4F99838883C153D5408BE290E03B
S11350F0CD5CDA4F99838883C353D5408AE290E02C
S1135100CB5CDA4F99838883C553D540C95CDA4FA9
S113511099838883C753D54089E290E0C75CDA4F0E
S113512099838883C953D54088E290E0C55CDA4FFF
S113513099838883CB53D54087E290E0C35CDA4FF0
S113514099838883CD53D540C15CDA4F9983888392
S1135150CF53D54086E290E0CF5BDA4F99838883C2
S1135160C154D54085E290E0CD5BDA4F99838883C2
S1135170C354D540CB5BDA4F99838883C554D5405B
S113518084E290E0C95BDA4F99838883C754D540A1
S113519083E290E0C75BDA4F99838883C954D54092
S11351A0C55BDA4F99838883CB54D54082E290E083
S11351B0C35BDA4F99838883CD54D540E1EBF4E0A7
S11351C0EC0FFD1FE256FF4F81E290E09183808354
S11351D0CF5ADA4F99838883C155D54080E290E055
S11351E0CD5ADA4F99838883C355D540CB5ADA4FC9
S11351F099838883C555D5408FE190E0C95ADA4F29
S113520099838883C755D540C75ADA4F99838883D1
S1135210C955D5408EE190E0C55ADA4F9983888309
S1135220CB55D540C35ADA4F99838883CD55D540A1
S11352308DE190E0C15ADA4F99838883CF55D540E8
S1135240CF59DA4F99838883C156D5408CE190E0D9
S1135250CD59DA4F99838883C356D540CB59DA4F59
S113526099838883C556D5408BE190E0C959DA4FBC
S113527099838883C756D540C759DA4F9983888361
S1135280C956D5408AE190E0C559DA4F998388839D
S1135290CB56D540C359DA4F99838883CD56D54030
S11352A089E190E0C159DA4F99838883CF56D5407C
S11352B0CF58DA4F99838883C157D540CD58DA4FF8
S11352C099838883C357D54088E190E0CB58DA4F5F
S11352D099838883C557D540C958DA4F9983888301
S11352E0C757D54087E190E0C758DA4F9983888340
S11352F0C957D540C558DA4F99838883CB57D540D1
S1135300C358DA4F99838883CD57D54086E190E01E
S1135310C158DA4F99838883CF57D540CF57DA4F96
S113532099838883C158D540CD57DA4F99838883B0
S1135330C358D54085E190E0CB57DA4F99838883F1
S1135340C558D540C957DA4F99838883C758D54083
S1135350C757DA4F99838883C958D54084E190E0D0
S1135360C557DA4F99838883CB58D540C357DA4F52
S113537099838883CD58D540C157DA4F9983888360
S1135380CF58D54083E190E0CF56DA4F9983888394
S1135390C159D540CD56DA4F99838883C359D54036
S11353A0CB56DA4F99838883C559D540C956DA4F0D
S11353B099838883C759D54082E190E0C756DA4F74
S11353C099838883C959D540C556DA4F9983888310
S11353D0CB59D540C356DA4F99838883CD59D540EC
S11353E081E190E0C156DA4F99838883CF59D54043
S11353F0CF55DA4F99838883C15AD540CD55DA4FBA
S113540099838883C35AD540CB55DA4F99838883CF
S1135410C55AD54080E190E0C955DA4F9983888315
S1135420C75AD540C755DA4F99838883C95AD5409E
S1135430C555DA4F99838883CB5AD540C355DA4F83
S113544099838883CD5AD540C155DA4F998388838F
S1135450CF5AD5408FE090E0CF54DA4F99838883B8
S1135460C15BD540CD54DA4F99838883C35BD54063
S1135470CB54DA4F99838883C55BD540C954DA4F3E
S113548099838883C75BD5408EE090E0C754DA4F98
S113549099838883C95BD540C554DA4F998388833F
S11354A0CB5BD540C354DA4F99838883CD5BD54019
S11354B0C154DA4F99838883CF5BD540CF53DA4FF9
S11354C099838883C15CD540CD53DA4F998388830F
S11354D0C35CD5408DE090E0CB53DA4F9983888349
S11354E0C55CD540C953DA4F99838883C75CD540DE
S11354F0C753DA4F99838883C95CD540C553DA4FC3
S113550099838883CB5CD540C353DA4F99838883CE
S1135510CD5CD5408CE090E0C153DA4F9983888309
S1135520CF5CD540CF52DA4F99838883C15DD54093
S1135530CD52DA4F99838883C35DD540CB52DA4F7D
S113554099838883C55DD540C952DA4F998388838E
S1135550C75DD540C752DA4F99838883C95DD5406A
S1135560C552DA4F99838883CB5DD5408BE090E0B8
S1135570C352DA4F99838883CD5DD540C152DA4F47
S113558099838883CF5DD540CF51DA4F998388833F
S1135590C15ED540CD51DA4F99838883C35ED5402F
S11355A0CB51DA4F99838883C55ED540C951DA4F10
S11355B099838883C75ED540C751DA4F998388831E
S11355C0C95ED5408AE090E0C551DA4F998388835B
S11355D0CB5ED540C351DA4F99838883CD5ED540E5
S11355E0C151DA4F99838883CF5ED540CF50DA4FCB
S11355F099838883C15FD5408BE791EE90938500B2
S11356008093840085E08093810081E080936F0023
S113561080E090E00E945C1481E090E00E945C14C1
S113562082E090E00E945C1483E090E00E945C14AD
S11356300E94B01740E066E275E08FE395E00E94B7
S1135640B20B7894412C512C712C612C0F2EFDE659
S1135650AF2EF7E0BF2EF02D0F2EF1ED8F2EF7E0D9
S11356609F2EF02D0F2EF6E3EF2EF4E0FF2EF02DFB
S11356708E0101591F4F0F2EF7E1CF2EF5E0DF2EDB
S1135680F02D80913D05813019F510923D05F4010E
S113569001900020E9F73197AF01415D5740DA01ED
S11356A0A053B84F8C918A3089F4B401CE018B5940
S11356B09F4F0E94FB34C4010E949F1780913C05B8
S11356C0813009F40FC3442443942EC044244394EA
S11356D080913C05813001F510923C05F501019063
S11356E00020E9F73197AF014D565740DA01A4592C
S11356F0B84F8C918A3071F4B501CE0101960E94A5
S1135700FB34C5010E949F1721E0721649F055240D
S1135710539416C05524539461E076120EC004C00D
S11357205524539466246394BE016D5D7E4FCE016F
S11357308B599F4F0E946E17712C71E0671208C03D
S1135740BE016B5F7E4FCE0101960E945F15612CF6
S113575080913B05813009F094CF10923B0558129B
S1135760FDC0C95EDE4F88819981C751D140019740
S113577009F0B6C0C45EDE4F8881CC51D1408F930E
S1135780C55EDE4F8881CB51D1408F93C65EDE4F1C
S11357908881CA51D1408F93C75EDE4F8881C95139
S11357A0D1408F93CA5EDE4F8881C651D1408F931A
S11357B0CB5EDE4F8881C551D1408F93CC5EDE4FE6
S11357C08881C451D1408F93CD5EDE4F8881C3510F
S11357D0D1408F93CE5EDE4F8881C251D1408F93EA
S11357E0CF5EDE4F8881C151D1408F93C05FDE4FC1
S11357F08881C051D1408F93C15FDE4F8881CF50E3
S1135800D1408F93C25FDE4F8881CE50D1408F93B9
S1135810C35FDE4F8881CD50D1408F93C45FDE4F8C
S11358208881CC50D1408F93C55FDE4F8881CB50A7
S1135830D1408F93C65FDE4F8881CA50D1408F9389
S1135840C75FDE4F8881C950D1408F93C85FDE4F58
S11358508881C850D1408F93C95FDE4F8881C7507B
S1135860D1408F93CA5FDE4F8881C650D1408F9359
S1135870CB5FDE4F8881C550D1408F93CE5DDE4F24
S11358808881C252D1408F93CF5DDE4F8881C1524F
S1135890D1408F93C05EDE4F8881C052D1408F9338
S11358A0C15EDE4F8881CF51D1408F93C25EDE4FFF
S11358B08881CE51D1408F93C35EDE4F8881CD5114
S11358C0D1408F9383E993E09F938F931F930F931A
S11358D00E940A350FB6F894DEBF0FBECDBF31C0AB
S11358E0C65FDE4F8881CA50D1408F93C75FDE4FB9
S11358F08881C950D1408F93C85FDE4F8881C850DA
S1135900D1408F93C95FDE4F8881C750D1408F93B8
S1135910CA5FDE4F8881C650D1408F93CB5FDE4F84
S11359208881C550D1408F9384EF93E09F938F93E8
S11359301F930F930E940A350FB6F894DEBF0FBE73
S1135940CDBFB80183E090E00E949D144CE255E085
S11359506BED77E0C8010E942315512C91E04912A8
S113596032C0CA5DDE4F8881C652D1408F93CB5D71
S1135970DE4F8881C552D1408F93CC5DDE4F888144
S1135980C452D1408F93CD5DDE4F8881C352D14044
S11359908F9380E294E09F938F931F930F930E94C1
S11359A00A35B80183E090E00E949D144CE255E072
S11359B06BED77E0C8010E9423150FB6F894DEBFA3
S11359C00FBECDBF412C0E9468129F938F93FF920C
S11359D0EF921F930F930E940A35B80183E090E081
S11359E00E949D144CE255E06BED77E0C8010E94E3
S11359F023150E9493120F900F900F900F900F9009
S1135A000F908F3F7FEF97077CF467E474E083E0A7
S1135A1090E00E949D144CE255E06BED77E087E442
S1135A2094E00E94231545C08F3F2FEF9207E1F4C5
S1135A301F921F928FE694E09F938F931F930F936F
S1135A40E9D7B80183E090E00E949D144CE255E050
S1135A506BED77E0C8010E9423150F900F900F9013
S1135A600F900F900F9025C0880F991FE7E2F1E087
S1135A70EC0FFD1FE80FF91F81818F9380818F93B5
S1135A808FE694E09F938F931F930F93C3D7B8012E
S1135A9083E090E00E949D144CE255E06BED77E0CA
S1135AA0C8010E9423150F900F900F900F900F9034
S1135AB00F900E9403138F3F6FEF96077CF46EE7FD
S1135AC074E083E090E00E949D144CE255E06BED9D
S1135AD077E08EE794E00E94231545C08F3F7FEF67
S1135AE09707E1F41F921F9286EA94E09F938F93A5
S1135AF01F930F938FD7B80183E090E00E949D1409
S1135B004CE255E06BED77E0C8010E9423150F903D
S1135B100F900F900F900F900F9025C0880F991F32
S1135B20E5E5F2E0EC0FFD1FE80FF91F81818F938B
S1135B3080818F9386EA94E09F938F931F930F93B2
S1135B4069D7B80183E090E00E949D144CE255E0CF
S1135B506BED77E0C8010E9423150F900F900F9012
S1135B600F900F900F900E947A138F3F2FEF9207A0
S1135B707CF465EB74E083E090E00E949D144CE2B9
S1135B8055E06BED77E085EB94E00E94231545C06A
S1135B908F3F6FEF9607E1F41F921F928DED94E013
S1135BA09F938F931F930F9335D7B80183E090E0B1
S1135BB00E949D144CE255E06BED77E0C8010E9411
S1135BC023150F900F900F900F900F900F9025C0FA
S1135BD0880F991FE3E8F3E0EC0FFD1FE80FF91FAE
S1135BE081818F9380818F938DED94E09F938F9328
S1135BF01F930F930FD7B80183E090E00E949D1488
S1135C004CE255E06BED77E0C8010E9423150F903C
S1135C100F900F900F900F900F900E94EB138F3FF7
S1135C207FEF97077CF46CEE74E083E090E00E94D1
S1135C309D144CE255E06BED77E08CEE94E00E940D
S1135C4023151FCD8F3F2FEF9207D1F41F921F9280
S1135C50DF92CF921F930F93DDD6B80183E090E0DB
S1135C600E949D144CE255E06BED77E0C8010E9460
S1135C7023150F900F900F900F900F900F9001CD60
S1135C80880F991FE1EBF4E0EC0FFD1FE80FF91FFB
S1135C9081818F9380818F93DF92CF921F930F9393
S1135CA0B9D6B80183E090E00E949D144CE255E01F
S1135CB06BED77E0C8010E9423150F900F900F90B1
S1135CC00F900F900F90DDCCB501CE01019693D6C5
S1135CD0C5010E949F174424439455245394662479
S1135CE0639422CD10923C05F50101900020E9F760
