:1000000080C000009FC000009DC000009BC0000099
:1000100099C0000097C0000095C0000093C0000088
:1000200091C000008FC000008DC000008BC0000098
:1000300089C0000087C0000085C0000083C00000A8
:1000400081C000007FC000007DC000007BC00000B8
:100050000C945A1277C0000075C0000073C00000F5
:1000600071C000000C941A126DC000006BC000003B
:1000700069C0000067C0000065C0000063C00000E8
:1000800061C000005FC000005DC000005BC00000F8
:100090000C943A1257C0000055C0000053C0000035
:1000A00051C000004FC000004DC000004BC0000018
:1000B00049C0000047C0000045C0000043C0000028
:1000C00041C000003FC000003DC000003BC0000038
:1000D00039C0000037C0000035C0000033C0000048
:1000E00031C000001D216721B221C8210B2221222D
:1000F0005F225F2214216364696E6F707375785894
:100100005B0011241FBECFEFD1E2DEBFCDBF00E008
:100110000CBF15E0A0E0B2E0EAE5F4E600E00BBFBA
:1001200002C007900D92AE33B107D9F728E0AEE3D5
:10013000B5E001C01D92A230B207E1F70E9442244F
:100140000C942B325DCFCF93DF9342305105C0F03A
:10015000DB01FC019A01CD91DD91C193D193225035
:10016000310922303105B8F79A01225031092E7F2A
:100170002E5F3F4F820F931F620F731F41705527F1
:100180004115510549F0DB01FC01480F591F9D91B4
:100190009193E417F507D9F7DF91CF910895CF93A5
:1001A000DF93EC01A881B9811097F9F04C914132AD
:1001B00058F04A3331F1FD0131969F01919191320E
:1001C00028F09A33D1F704C0942F9D019A3381F41B
:1001D000CD0101962817390771F4403379F412964E
:1001E000B983A88380E090E00EC08FEF9FEF0BC033
:1001F00080E090E008C08FEF9FEF05C08FEF9FEF8A
:1002000002C09D01E5CFDF91CF9108958F929F921B
:10021000AF92BF92CF92DF92EF92FF920F931F9314
:10022000CF93DF93FC012481222309F446C0EC0123
:10023000C2A4D3A4E4A4F5A45C01FEE2AF0EB11CF9
:1002400001E010E0A7019601B50189810E94F7281D
:10025000811135C01C828E8D9F8DA8A1B9A1B701D7
:10026000A601481B590B6A0B7B0B8E899F89A88DB1
:10027000B98D481759076A077B0718F58B80912CB1
:1002800082E088169104F8F08E899F89A88DB98D37
:10029000C80ED91EEA1EFB1E01E010E0A701960160
:1002A000B50189810E94F728E1E08E1A9108F1E0FA
:1002B0008F16910449F780E007C080E005C081E017
:1002C00003C080E001C080E0DF91CF911F910F91CA
:1002D000FF90EF90DF90CF90BF90AF909F908F9066
:1002E00008958F929F92AF92BF92FF920F931F93A8
:1002F000CF93DF93EC014A015B018AA59BA5ACA5D6
:10030000BDA584179507A607B707E1F0CE017EDFEC
:10031000F82E811118C001E010E0A5019401BE0182
:10032000625D7F4F89810E94AB28882331F0FF24D2
:10033000F39488248A94982C54018AA69BA6ACA690
:10034000BDA601C0F12C8F2DDF91CF911F910F9190
:10035000FF90BF90AF909F908F900895CF93DF93C1
:10036000EC011C828FEF9FEFDC018AA79BA7ACA753
:10037000BDA7CE01B6DF811123C0FE01E45DFD4FB4
:100380008081918185359A4AE9F4E85CF140808169
:100390009181A281B381BB2786349144A445B105E4
:1003A00099F0C058DF4F488159816A817B81772756
:1003B00081E0463451446445710539F480E005C05C
:1003C00083E003C082E001C080E0DF91CF91089517
:1003D0000097C9F0DC01ED91FC9111973097A9F0DD
:1003E00020812223A1F02681378112968D919C9144
:1003F00013972817390769F481810E94E82780FF45
:100400000AC089E0089589E0089589E0089589E0A7
:10041000089589E0089580E008952F923F924F92C9
:100420005F926F927F928F929F92AF92BF92CF9284
:10043000DF92EF92FF920F931F93CF93DF93CDB78D
:10044000DEB76D970FB6F894DEBF0FBECDBF6C015F
:10045000CB01B42ED6011D921C92A1DE7C01992302
:100460000CF402C2FC01EE0FFF1FE05CFA4F0081AA
:1004700011810115110509F4F9C1F60111830083F9
:10048000D8018C91882369F011968C910E94E827FD
:1004900080FD07C0BB2009F4EBC182FFEBC18AE0FD
:1004A0008BC2F8011082E1828E2D0E94EF2780FD21
:1004B000E3C1BB2009F400C282FDE0C1FDC180811F
:1004C000882329F0448055806680778004C04E2CB4
:1004D0005F2C672E762ED9014D925D926D927D92A2
:1004E0009D017096E417F50751F74E01B1E18B0EAF
:1004F000911C6894772471F8F501C190D190E19036
:10050000F1905F01C114D104E104F10439F0B701A5
:10051000A601C80123DF811102C00DC0872DA814D8
:10052000B90451F703C0C12CD12C7601833009F4F2
:10053000A7C18111A7C1D801D9968D919C91DA9755
:100540008115924009F0A0C1F801EC5BFF4F40809B
:100550005180612C712C411451046104710429F4FF
:100560003E964080518062807380F801468A578AA7
:10057000608E718EA6ADA3838FEF8A0F823008F054
:1005800085C1F3ADF98B2F2FF8012283222309F4C3
:100590007FC1822F90E09C01215031098223932357
:1005A000892B09F077C1FF9620803180F8013186D0
:1005B0002086C1018F709927892B09F06DC1EF5BEF
:1005C000FF4F80809180A12CB12C81149104A10453
:1005D000B10429F43D9680809180A280B380F80117
:1005E00004ACF5ADE02D309709F458C1B0E0A3019B
:1005F00092010E94DA2B6A8F7B8F8C8F9D8F9F01D7
:1006000040E050E02E8B3F8B488F598FC10192956F
:1006100082958F7089279F708927280F391F411D68
:10062000511DDA01C9012A8D3B8D4C8D5D8D280F3E
:10063000391F4A1F5B1F2A8B3B8B4C8B5D8B8216AD
:100640009306A406B50608F42BC1C501B401621BCC
:10065000730B840B950BE9892E2F30E040E050E0BE
:100660000E94942BDA01C90121153105410551057C
:1006700009F418C1263FFFE03F074105510518F076
:10068000E2E0E98B02C0F1E0F98B863F9F4FA105C4
:10069000B10508F028C149015A0182E0880E911C79
:1006A000A11CB11CD80152968D929D92AD92BC9224
:1006B0005597F801C28ED38EE48EF58E8E899F8970
:1006C000A88DB98D8C0D9D1DAE1DBF1D868F978F7A
:1006D000A0A3B1A34A895B896C897D894C0D5D1DFE
:1006E0006E1D7F1D46A357A360A771A7F989F3303C
:1006F00069F5232809F0D8C0F801E65AFF4F808138
:100700009181A281B381F80182A393A3A4A3B5A38D
:10071000880C991CAA1CBB1C880C991CAA1CBB1C0D
:10072000FFEF8F0EF1E09F1EA11CB11C072E79E098
:10073000B694A794979487947A95D1F7702D48141E
:1007400059046A047B0408F4B1C0F9C0232809F4F1
:10075000AFC02A8D3B8D4C8D5D8D820F931FA41FE2
:10076000B51FF80182A393A3A4A3B5A3F989F2301E
:1007700029F4880C991CAA1CBB1C08C1A3E0B0E09A
:10078000A50194010E94DA2BDC01CB01B695A79557
:100790009795879521E082229924AA24BB24880E6C
:1007A000991EAA1EBB1EF2C0B701A6014F5F5F4F84
:1007B0006F4F7F4FC80195DD811139C0D801159663
:1007C0001C92F801E45DFD4F8081918185359A4A44
:1007D00089F5F80186A597A5A0A9B1A9823592450A
:1007E000A146B14451F5F801EE5EFD4F8081918143
:1007F000A281B38182379247A144B14609F534966C
:1008000080819181A281B381F80186879787A08B2F
:10081000B18BE65EFD4F80819181A281B381F801A9
:1008200082879387A487B587F3E0F98B0BC0E3E059
:10083000E98B08C0F3E0F98B05C0E3E0E98B02C067
:10084000F3E0F98BE989D801EC9380913E05909112
:100850003F05019690933F0580933E0517969C9324
:100860008E93169780E0A8C08BE0A6C08CE0A4C051
:1008700080E0A2C080E0A0C083E09EC08AE09CC06F
:1008800081E09AC08DE098C08DE096C08DE094C064
:100890008DE092C08DE090C08DE08EC08DE08CC068
:1008A0008DE08AC08DE088C08DE086C08DE084C078
:1008B0008DE082C08DE080C040E050E0BA01C80108
:1008C0004DDD813009F02FCEF801E051FE4F9E0141
:1008D0002F5F3F4F5901A801405D5D4FE12CF12C86
:1008E00070E060E0ECCD49015A0162E0860E911C97
:1008F000A11CB11CD80152968D929D92AD92BC92D2
:100900005597F801C28ED38EE48EF58E8E899F891D
:10091000A88DB98D8C0D9D1DAE1DBF1D868F978F27
:10092000A0A3B1A38A899B89AC89BD898C0D9D1D2B
:10093000AE1DBF1D86A397A3A0A7B1A7DACE8FEFE8
:100940009FEFDC01F80186879787A08BB18B8287A8
:100950009387A487B58780E88583E25AFF4F80811B
:100960009181019709F420CFF3E0F98B6BCF8FEFE2
:100970009FEFDC01F80186879787A08BB18B828778
:100980009387A487B58780E885835CCFFFEF8F0EC0
:10099000F1E09F1EA11CB11C072E79E0B694A7942C
:1009A000979487947A95D1F7702D481459046A0466
:1009B0007B0408F47FCFDBCF6D960FB6F894DEBFD3
:1009C0000FBECDBFDF91CF911F910F91FF90EF90A0
:1009D000DF90CF90BF90AF909F908F907F906F905F
:1009E0005F904F903F902F900895CF92DF92EF92BB
:1009F000FF92FC019A01AB012250310941095109D2
:100A0000C288D388E488F58882E0C81AD108E10852
:100A1000F1082C153D054E055F0568F4A281B0E094
:100A20000E94DA2BC6A0D7A0E0A4F1A46C0D7D1D16
:100A30008E1D9F1D03C060E070E0CB01FF90EF9022
:100A4000DF90CF900895AF92BF92CF92DF92EF9256
:100A5000FF920F931F93CF93DF93EC016A017B0109
:100A6000423051056105710508F4A7C08A899B8948
:100A7000AC89BD89481759076A077B0708F0A2C0EF
:100A80008881823009F44BC0833009F469C0813019
:100A900009F09DC08A0116950795040F151FC8011E
:100AA000892F992786954E8D5F8D68A179A1480F72
:100AB000591F611D711DCE0114DC81118DC05801BB
:100AC0008FEFA81AB80A1170FE01E00FF11F16A5EA
:100AD000C501892F992786954E8D5F8D68A179A1D3
:100AE000480F591F611D711DCE01FBDB811178C0BC
:100AF00081E0B822CA0DDB1D8EA5612F70E0782B36
:100B0000C0FE09C0729562956F7067277F70672776
:100B100080E090E070C07F7080E090E06CC0452F76
:100B2000562F672F77278E8D9F8DA8A1B9A1480FCB
:100B3000591F6A1F7B1FCE01D4DB811155C0CC0C1D
:100B4000DD1CEE1CFF1CE894C0F881E0D822EE24E6
:100B5000FF24CC0DDD1D6EA57FA580E090E04BC08D
:100B60008E8D9F8DA8A1B9A1689416F8769567958A
:100B7000579547951694D1F7480F591F6A1F7B1F49
:100B8000CE01AFDB811134C0CC0CDD1CEE1CFF1C90
:100B9000CC0CDD1CEE1CFF1C8CEFC82281E0D8229F
:100BA000EE24FF24FE01EC0DFD1D86A597A5A0A94E
:100BB000B1A9BC01CD019F701EC061E070E080E072
:100BC00090E019C061E070E080E090E014C061E066
:100BD00070E080E090E00FC06FEF7FEFCB010BC0C3
:100BE0006FEF7FEFCB0107C06FEF7FEFCB0103C04B
:100BF0006FEF7FEFCB01DF91CF911F910F91FF90AE
:100C0000EF90DF90CF90BF90AF900895AF92BF92DA
:100C1000CF92DF92EF92FF920F931F93CF93DF93C8
:100C2000EC018B017D836C83CE80DF80E884F984C6
:100C300081E0C816D104E104F10409F48AC0E88116
:100C4000F98182899389A489B589C816D906EA06EB
:100C5000FB0608F080C0C114D104E104F104C1F422
:100C60008081833041F482A193A1A4A1B5A1009712
:100C7000A105B10559F4808591850817190708F079
:100C80006CC062A173A184A195A135C06C017D01E6
:100C9000A28080E1A89E500111240A151B0530F1A5
:100CA000B701A60188819981CEDE6B017C018FEFAF
:100CB000C816D806E806F80609F451C082E0C8163E
:100CC000D104E104F10408F44CC0E881F98182897F
:100CD0009389A489B589C816D906EA06FB0608F0E7
:100CE00042C00A191B090A151B05D0F6B701A60157
:100CF000888199817ADECA86DB86EC86FD8661155D
:100D000071058105910589F19801329522952F7021
:100D100023273F702327DC01CB01820F931FA11DE6
:100D2000B11D8E879F87A88BB98B0F701127000F7D
:100D3000111F02951295107F1027007F1027025D6A
:100D40001F4F88819981800F911F9B8B8A8B80E038
:100D50000DC082E00BC082E009C082E007C081E0E4
:100D600005C082E003C082E001C082E0DF91CF9144
:100D70001F910F91FF90EF90DF90CF90BF90AF90B9
:100D800008954F925F926F927F928F929F92AF924F
:100D9000BF92CF92DF92EF92FF920F931F93CF9368
:100DA000DF93EC016A017B012801390142305105D2
:100DB0006105710508F4D2C08A899B89AC89BD8917
:100DC000481759076A077B0708F0CAC08881823034
:100DD00009F462C0833009F485C0813009F0C2C0D3
:100DE0005A01B694A794A40EB51EC501892F992760
:100DF00086954E8D5F8D68A179A1480F591F611DA1
:100E0000711DCE016EDA182F8111CAC045018FEF16
:100E1000881A980A31E0B322C0FE20C0FE01EA0D14
:100E2000FB1D86A5282F2F7030E1439EC0011124A1
:100E3000822B86A781E08C834E8D5F8D68A179A17E
:100E4000C401892F99278695480F591F611D711D6F
:100E5000CE0147DA882309F48BC086C0FE01EA0D73
:100E6000FB1D46A681E08C834E8D5F8D68A179A124
:100E7000C401892F99278695480F591F611D711D3F
:100E8000CE012FDA882309F47EC070C0EC0FFD1F5D
:100E900046A681E08C8384C0452F562F672F772785
:100EA0008E8D9F8DA8A1B9A1480F591F6A1F7B1F66
:100EB000CE0117DA182F811173C0CC0CDD1CEE1C8B
:100EC000FF1CE894C0F881E0D822EE24FF243EE223
:100ED000C30ED11CFE01EC0DFD1D5182408281E04C
:100EE0008C835EC08E8D9F8DA8A1B9A1689416F8E1
:100EF00076956795579547951694D1F7480F591FE2
:100F00006A1F7B1FCE01EDD9182F811149C0CC0C6F
:100F1000DD1CEE1CFF1CCC0CDD1CEE1CFF1C8CEF42
:100F2000C82281E0D822EE24FF243EE2C30ED11C69
:100F3000FE01EC0DFD1D80819181A281B381882786
:100F40009927AA27B07F482A592A6A2A7B2A4082F1
:100F500051826282738281E08C8322C012E020C0C1
:100F600012E01EC012E01CC0182F1AC0182F18C0A3
:100F7000F401F170689413F8769467945794479449
:100F80001694D1F783CFF401F170DE01AE0FBF1FCD
:100F90009E969C91907F852D8F70492E482A76CF02
:100FA000812FDF91CF911F910F91FF90EF90DF90F4
:100FB000CF90BF90AF909F908F907F906F905F90F9
:100FC0004F9008952F923F924F925F926F927F922F
:100FD0008F929F92AF92BF92CF92DF92EF92FF9249
:100FE0000F931F93CF93DF93EC012A013B0141152F
:100FF000510561057105B9F48A849B84AC84BD8474
:1010000081149104A104B10459F18A899B89AC89A6
:10101000BD8988169906AA06BB0630F1812C912C51
:101020005401839421C00FDD6B017C016230710596
:101030008105910508F496C08FEFC816D806E8061A
:10104000F80609F494C08A899B89AC89BD89C816C1
:10105000D906EA06FB0608F48FC05301420104C01A
:10106000812C912C5401839475016401689422248D
:1010700021F8312C00E010E02FEFC21AD20AE20A68
:10108000F20A8A899B89AC89BD89C816D906EA0605
:10109000FB0658F082E088169104A104B10408F41C
:1010A00070C0C22CD32CE02EF12EB701A601CE01C8
:1010B000CADC611571058105910599F06F3F2FEF2D
:1010C00072078207920709F461C0613071058105DA
:1010D000910509F460C0C814D904EA04FB0461F660
:1010E0005FC08C2C9D2CAE2CBF2C0FEF1FEF2FEF71
:1010F0003FE0B701A601CE0144DE81112CC04114AE
:1011000051046104710451F00C2D1D2D2E2D3F2D25
:10111000B301A201CE0135DE81111DC08A869B86F6
:10112000AC86BD868E859F85A889B9898F3F2FEFB4
:101130009207A207B207C9F10197A109B1098E87E9
:101140009F87A88BB98B8D8181608D836C2D7D2DC0
:101150008E2D9F2D33C0813069F161E070E080E019
:1011600090E02CC061E070E080E090E027C06FEF7D
:101170007FEF8FEF9FEF22C06C2D7D2D8E2D9F2D49
:101180001DC060E070E080E090E018C06FEF7FEF7E
:101190008FEF9FEF13C061E070E080E090E00EC041
:1011A00060E070E080E090E009C06C2D7D2D8E2D18
:1011B0009F2D04C06FEF7FEF8FEF9FEFDF91CF91F7
:1011C0001F910F91FF90EF90DF90CF90BF90AF9065
:1011D0009F908F907F906F905F904F903F902F9057
:1011E00008957F928F929F92AF92BF92CF92DF929B
:1011F000EF92FF920F931F93CF93DF93DC0114962E
:10120000CD91DC911597219609F403C11E968D901E
:101210009D90AD90BC90519781149104A104B104AC
:1012200009F4F9C07B018C016E01BFE0CB22DD2403
:10123000C114D10409F0D1C0EFEF8E1A9E0AAE0A94
:10124000BE0ADC011E968D929D92AD92BC92519782
:101250001A964D915D916D917C911D9741155105A7
:101260006105710549F4ED91FC9180859185C81760
:10127000D90708F0D2C0B1C0DC01ED91FC91228108
:1012800030E021503109CE01929582958F708927E7
:101290009F70892728233923232B09F09EC0CF0173
:1012A000D2DB4B015C01623071058105910508F4C8
:1012B000B6C06F3F7F4F8F4F9F4F09F4B2C0D80128
:1012C000ED91FC9182899389A489B5898816990644
:1012D000AA06BB0608F470C0EF2809F4A4C0D80120
:1012E0001A964D915D916D917C911D97CF016ADEAB
:1012F0004B015C01611571058105910509F495C0EB
:10130000613071058105910509F491C06F3F7F4FF0
:101310008F4F9F4F09F48DC0D8018D919C910E94F1
:101320000601811188C0F80180819181FC01BE967F
:10133000825D9D4F1192E817F907E1F7D801ED9012
:10134000FC90B501A401C70150DBF70162A773A7A8
:1013500084A795A7E12CF12C7724739419C074828B
:10136000D8018D919C910E940601811166C0D8011F
:10137000ED91FC9182A593A5A4A5B5A50196A11D0B
:10138000B11D82A793A7A4A7B5A7BFEFEB1AFB0ACD
:10139000D801ED91FC91828190E0E816F906F8F20F
:1013A00082A593A5A4A5B5A58E199F09A109B10988
:1013B00082A793A7A4A7B5A7F80182869386A486DF
:1013C000B586B501A401808191810FDBD8011E96FD
:1013D0006D937D938D939C935197F801D583C4832E
:1013E000CC0CDD1CCC0CDD1CCC0CDD1CCC0CDD1CB9
:1013F000CC0CDD1CFEE2CF0ED11CD8018D919C914E
:101400001197C80ED91E5396DC92CE92529780E067
:1014100015C084E013C084E011C084E00FC082E0F6
:101420000DC081E00BC084E009C087E007C082E006
:1014300005C081E003C081E001C081E0DF91CF9170
:101440001F910F91FF90EF90DF90CF90BF90AF90E2
:101450009F908F907F9008952F923F924F925F922E
:101460006F927F928F929F92AF92BF92CF92DF92B4
:10147000EF92FF920F931F93CF93DF9300D01F92B1
:101480001F92CDB7DEB78C017B01DB018C918F32CF
:1014900011F08C3519F4BFEFEB1AFB0AF801168234
:1014A000178210861186D7018C91803240F460E05B
:1014B00070E0C801ABDBF801138A128A44C168945A
:1014C000BB24B5F8A12C812C6894772473F8512C97
:1014D000612C7A825B820F2EF2E02F2EF2E03F2EFB
:1014E000F02D1D830C835982F7012C813D81AF01C2
:1014F00081918F32E1F38C35D1F33D832C83F90157
:10150000A489B589FD01CD010B96B192E817F907C1
:10151000E1F73D832C83CA2CD82C2A2D382D472C5B
:101520005980962C8A018C819D815D834C837C013E
:101530002F5F3F4FEC81FD816191FD83EC83613230
:1015400008F4E7C06F3209F4DDC06C3509F4DAC085
:101550006E3209F4C4C0C414D50408F0B4C00AC083
:10156000990C990CCA80DB800F2EFBE04F2EF02DDA
:10157000512CDECF66230CF0B8C0F92DF3609F2EFE
:10158000E62FF0E0E057FE4F6081AFC081918823E5
:1015900009F4B2C090E048175907C1F786E0D3C0FC
:1015A000892D8260982E08C08FE9860F8A3120F439
:1015B000992D9160992E6052FD01EC0DFD1D608307
:1015C000F60131966F01B4CFCD2809F47EC09C910D
:1015D000953E11F4F5E0FC9398E04916510411F49E
:1015E000990C990C992D9370913009F48061992D83
:1015F0009C70943009F488601B968C936A2D782D2A
:101600008C819D8103DB811193C00C811D81D801E8
:101610001E964D915D916D917C9151978D919C910C
:101620000E947101811186C0F80142895389DA0153
:101630009C919923E9F01B969C9193FD12C06489BB
:101640007589FA01DB019A01255F3F4F680104C0EB
:10165000E217F30709F464C011919D911917C1F3C2
:1016600086016A2D782DC801BCDD882381F262C015
:101670000488F589E02D938592FD29C085E063C03B
:10168000FA01838584FF25C0828D938DA0E0B0E0B0
:10169000EC81FD8120813181F9012081233061F4C9
:1016A000FA014489558960E070E0BA015527442762
:1016B000842B952BA62BB72BEC81FD8186839783FA
:1016C000A087B18711CF86E03EC086E03CC084E0B1
:1016D0003AC085E038C086E036C086E034C0F8E025
:1016E0004F16510409F43CCFF6CF462F50E042325A
:1016F000510599F3F1014ACF8FEB860F8A3108F437
:101700004FCF52CFFD82EC827801E20EF31E862D80
:101710005BCFFD82EC827801E20EF31E84E054CFB1
:10172000DD82CC82DB011B969C9192FFA9CF0BC07E
:101730000C811D81D8015496ED91FC9155979385AC
:10174000843009F499CF0F900F900F900F900F9065
:10175000DF91CF911F910F91FF90EF90DF90CF908D
:10176000BF90AF909F908F907F906F905F904F90C1
:101770003F902F9008951F93CF93DF9300D000D018
:10178000CDB7DEB79C838B837E836D83142F7A83E2
:101790006983CE0101960E94CF00992334F1FC01A8
:1017A000EE0FFF1FE05CFA4F0190F081E02D3097C3
:1017B00009F01082EB81FC813097E9F010822B81D7
:1017C0003C81880F991FFC01E05CFA4F3183208334
:1017D000232B69F0113069F440E0BE016B5F7F4F4D
:1017E000CE0103960E940D020EC08BE00CC080E07B
:1017F0000AC080E008C0880F991FFC01E05CFA4F26
:101800001182108280E026960FB6F894DEBF0FBEDC
:10181000CDBFDF91CF911F9108954F925F926F924C
:101820007F928F929F92BF92CF92DF92EF92FF9220
:101830000F931F93CF93DF93CDB7DEB7E0970FB62B
:10184000F894DEBF0FBECDBF7CA36BA3009709F455
:1018500090C1142F7C01DC011D921C924E71BE01BF
:101860006D5D7F4FCE0101960E940D028111C2C1B4
:10187000B12FBF71BB2ECE0147969E8B8D8B6BA176
:101880007CA14697E9DDCB88DC88811174C1C11445
:10189000D10409F075C179C1843009F097C160E0C5
:1018A00070E0CE010196B2D98111A1C14F8558894E
:1018B00069897A8989819A810E947101811197C110
:1018C000EB89FC898081853E51F0882341F061E0FD
:1018D00070E0CE01019685DC882341F388C14F85F5
:1018E000588969897A8989819A810E947101811157
:1018F0006DC1EB89FC89CF0180961192E817F90739
:10190000E1F76D897E894BE050E08B899C890E94CC
:10191000A300E981FA8181E08483EB2DE860BE2E8B
:10192000CB88DC8808C0D6011B968C91817109F0A8
:1019300031C112FD31C1B3FECBC080E090E0A5E81B
:10194000B8E4F60186879787A08BB18B868B978B3F
:10195000A08FB18F1386D601148E158E168E178E1A
:1019600089809A80828D938D2C01612C712CF401D9
:101970008081833069F454968D919C915597A0E0B5
:10198000B0E0DC0199278827482A592A6A2A7B2A4D
:10199000D6015B961C921E925A9755961C921E92E7
:1019A000549781E0F401848341145104610471046B
:1019B00009F48EC022A533A544A555A52DA73EA7A1
:1019C0004FA758ABB2E04B1651046104710408F400
:1019D000E8C082899389A489B589481659066A06A0
:1019E0007B0608F0E0C049A65AA66BA67CA645C0B7
:1019F00049A55AA56BA57CA5C40125D86DA37EA3D6
:101A00008FA398A7611571058105910509F444C05C
:101A1000613071058105910509F4C7C06F3F7F4FA3
:101A20008F4F9F4F09F4C3C000E010E0980149A513
:101A30005AA56BA57CA5C401A4D98111B9C0F40134
:101A400086859785A089B1898F3FFFEF9F07AF07F4
:101A5000BF0759F00196A11DB11DF4018687978734
:101A6000A08BB18B8581816085832DA13EA14FA183
:101A700058A529A73AA74BA75CA7F40182899389A7
:101A8000A489B58929A53AA54BA55CA528173907CE
:101A90004A075B0708F4ACCF89819A81B301A201A0
:101AA0004150510961097109DC011A964D935D930A
:101AB0006D937C931D974DA55EA56FA578A90E9497
:101AC0007101882339F096C011FF02C080FD74C0F7
:101AD000B3FE03C0BB2DB062BB2EE981FA8182A5A3
:101AE00093A5A4A5B5A5F701828F938FA48FB58F79
:101AF000D78EC68ED7011496BC92149715961C9259
:101B000089809A80F601828D938DA0E0B0E0F40187
:101B10002081233061F4F6014489558960E070E04A
:101B2000BA0155274427842B952BA62BB72BF701F9
:101B300086879787A08BB18BF601848D958DA68DB6
:101B4000B78DF70182879387A487B587168217829E
:101B500010861186168A178A108E118E91828082C5
:101B6000D40116968D919C9117979383828380E080
:101B700041C089E03FC0412F4C7109F08DCE1FC09C
:101B8000812F8C7109F0CFCE27C0412F4C71D9F431
:101B900086E015C087E001C088E0882309F498CF6B
:101BA00029C082E005C082E003C082E001C081E07C
:101BB000882309F48FCF1EC087E001C084E088230A
:101BC00009F498CF17C086E001C087E0BB2DB8604C
:101BD000BB2ECB88DC88F3CFF601838584FDEECF66
:101BE00073CFFB2DF860BF2ECB88DC88E8CF843024
:101BF00061F3F7CFE0960FB6F894DEBF0FBECDBF0E
:101C0000DF91CF911F910F91FF90EF90DF90CF90D8
:101C1000BF909F908F907F906F905F904F900895AE
:101C20002F923F924F925F926F927F928F929F92EC
:101C3000AF92BF92CF92DF92EF92FF920F931F93DA
:101C4000CF93DF93EC014B016A015901F901118235
:101C500010820E94E80181116BC18D81811168C1E0
:101C60008C8181FF64C18E819F81A885B985AC017B
:101C7000BD014C0D5D1D611D711D481759076A0797
:101C80007B0708F43EC1C114D10409F43AC14E8166
:101C90005F8168857985DB01CA019170AA27BB271E
:101CA000892B8A2B8B2B09F0E6C0E881F981128100
:101CB0001150DB01CA01072E79E0B695A7959795DB
:101CC00087957A95D1F7702D182309F040C0452BE0
:101CD000462B472B79F46E857F8588899989611514
:101CE00071058105910591F440E050E0BA01CF0102
:101CF00069D906C04A895B896C897D89CF0162D91F
:101D0000611571058105910509F4FBC0613071050C
:101D10008105910519F482E08D830AC16F3FFFEFC1
:101D20007F078F079F0719F481E08D8301C16A8BBC
:101D30007B8B8C8B9D8B4E845F846888798845284B
:101D40004628472821F46E877F87888B998BE88106
:101D5000F98142A553A564A575A58E899F89A88D93
:101D6000B98D481759076A077B0741F4CF010E94D4
:101D70000601882319F081E08D83DAC0288039803C
:101D80004A895B896C897D89C1010E94F5046115CE
:101D900071058105910519F482E08D83C9C02B017D
:101DA0003C01410E511C611C711C7601EF2CFF247B
:101DB000E694E114F10409F43FC0F1014281242FBB
:101DC00030E0C701810F911D2817390718F47901F8
:101DD000E11AF1088701A3019201B401F1018181A7
:101DE0000E94F728882319F081E08D83A1C0E88143
:101DF000F98182A593A5A4A5B5A584199509A6097D
:101E0000B709A70160E070E084179507A607B70738
:101E100078F4982F8827990FB401680F791F40E054
:101E200052E0CF018E960E94A300E881F9811482CE
:101E3000FE2CEE24FF0C4CC04E815F8168857985B5
:101E40008A859B85AC85BD85481759076A077B073E
:101E500070F0C1010E940601882319F081E08D8392
:101E600067C0E881F98142A653A664A675A64E8A8A
:101E70005F8A688E798E2E813F81317080E092E09A
:101E8000821B930B76018C159D0508F47C014E890D
:101E90005F89688D798D888199810E94710188237D
:101EA00019F081E08D8344C08E819F81A885B9851A
:101EB0009170AA27BB278E9628813981A701B4018A
:101EC000820F931F0E94A300E881F98121E02483FF
:101ED0008E0C9F1C8E819F81A885B9858E0D9F1DBC
:101EE000A11DB11D8E839F83A887B987F5018081CD
:101EF00091818E0D9F1D91838083CE18DF0809F09C
:101F0000C6CE8E819F81A885B9854A855B856C8503
:101F10007D85481759076A077B0720F48A879B87C6
:101F2000AC87BD878C8180628C8380E001C087E0B4
:101F3000DF91CF911F910F91FF90EF90DF90CF90A5
:101F4000BF90AF909F908F907F906F905F904F90D9
:101F50003F902F9008950F931F93CF93DF93EC0141
:101F60000E94E801982F811198C08C8185FF95C04F
:101F70004A8D5B8D6C8D7D8D888199810E94710168
:101F8000982F81118AC0EE8DFF8D838580628387B3
:101F90008A859B85AC85BD85848F958FA68FB78FED
:101FA0008E859F85A889B989938F828FB58BA48BE5
:101FB00080E090E0A5E8B8E4868B978BA08FB18F86
:101FC000138A128A8C818F7D8C83E881F98181E06C
:101FD00084830990D881C02DCE010E940601982FDC
:101FE00081115BC08881833009F04DC08D818130C3
:101FF00009F049C0BE01625D7F4FFB01CE01825DE9
:102000009D4F1192E817F907E1F785E59AEAFE017D
:10201000E45DFD4F9183808382E592E5A1E6B1E422
:102020008EA79FA7A8ABB9AB82E792E7A1E4B1E680
:102030007A9780839183A283B3838E859F85A889B5
:10204000B989349680839183A283B3838A859B85E3
:10205000AC85BD85349680839183A283B3838A8DBA
:102060009B8DAC8DBD8D9C01AD012F5F3F4F4F4FC0
:102070005F4F2AA73BA74CA75DA701E010E089812D
:102080000E94F7281D8240E050E060E089810E94B4
:10209000592991E0811101C090E0892FDF91CF9102
:1020A0001F910F910895CF93DF93EC0154DF8111BD
:1020B00007C0CE010E94E801811102C01982188276
:1020C000DF91CF9108952F923F924F925F926F923E
:1020D0007F928F929F92AF92BF92CF92DF92EF92B8
:1020E000FF920F931F93CF93DF9300D01F92CDB732
:1020F000DEB71C016A017B010E94E801811183C1E6
:10210000D10115968C91159781117DC11A968D91EB
:102110009D910D90BC91A02D8C159D05AE05BF0520
:1021200030F4F101248121FD02C06C017D01D10157
:1021300016964D905D906D907C901997F1011682E6
:10214000178210861186C114D104E104F10409F448
:1021500057C100811181D80112968C90912CA12C2D
:10216000B12C072E79E0880C991CAA1CBB1C7A950F
:10217000D1F7702D411451046104710409F43FC07A
:10218000B1E04B1A510861087108C701B6016150EE
:10219000710981099109A50194010E94942B298359
:1021A0003A834B835C83C301B201A50194010E9471
:1021B000942B89819A81AB81BC8182179307A407F4
:1021C000B507E8F088279927DC0188199909AA0939
:1021D000BB09482259226A227B22D10116964D92D0
:1021E0005D926D927C921997C418D508E608F7089D
:1021F00052964D915D916D917C91559732C0F10150
:1022000046855785608971894115510561057105BC
:1022100019F540E050E0BA01C8010E94E207AB01A5
:10222000BC01413051056105710529F482E0D101FD
:1022300015968C93E8C04F3FBFEF5B076B077B079A
:1022400021F481E0F1018583DEC0D1011E964D931A
:102250005D936D937C935197F101428B538B648B0B
:10226000758B411551056105710509F494C08C14F5
:102270009D04AE04BF0408F05CC0D10114968C919B
:10228000149781FF0CC08D919C910E94E207AB01D5
:10229000BC01411551056105710541F448C0F101CA
:1022A000808191810E942305AB01BC014F3FFFEF6C
:1022B0005F076F077F0729F481E0D10115968C93A2
:1022C000A2C0423051056105710560F0D101ED9168
:1022D000FC9182899389A489B589481759076A07AF
:1022E0007B0720F082E0F10185838DC0D1015296F9
:1022F0004D935D936D937C93559716968D919D911B
:102300000D90BC91A02D880D991DAA1DBB1DF1013A
:1023100086839783A087B187C818D908EA08FB0885
:102320008C149D04AE04BF0408F4A7CF02C075014D
:102330006401F10186819781A085B1858C0D9D1D79
:10234000AE1DBF1D86839783A087B187D701C601C5
:102350009170AA27BB27892B8A2B8B2B01F18081B7
:1023600091810E94F504611571058105910529F49B
:1023700082E0D10115968C9346C00B2EB9E0F694FD
:10238000E794D794C794BA95D1F7B02DC60ED71E4F
:10239000E81EF91E07C0C12CD12C760103C0C12C48
:1023A000D12C7601F10186819781A085B185AC01A0
:1023B000BD01517066277727452B462B472B69F0C7
:1023C00046895789608D718D4C155D056E057F05B9
:1023D00021F0C68AD78AE08EF18EF10142855385BD
:1023E00064857585481759076A077B0758F4828703
:1023F0009387A487B58784818062848380E003C04B
:1024000080E001C080E00F900F900F900F90DF915F
:10241000CF911F910F91FF90EF90DF90CF90BF90E1
:10242000AF909F908F907F906F905F904F903F9074
:102430002F9008951F920F920FB60F9211240BB692
:102440000F928F93EF93FF93E8EDF7E00190002058
:10245000E9F78091C6003197808381E0809344053D
:10246000FF91EF918F910F900BBE0F900FBE0F90C9
:102470001F9018951F920F920FB60F9211240BB652
:102480000F928F93EF93FF93E4E7F7E00190002022
:10249000E9F78091CE003197808381E080934305F6
:1024A000FF91EF918F910F900BBE0F900FBE0F9089
:1024B0001F9018951F920F920FB60F9211248F93B1
:1024C0009F9381E0809342058BE791EE9093850086
:1024D000809384009F918F910F900FBE0F901F905B
:1024E0001895EAE7F0E087E8808384E080937C0039
:1024F000808180648083808184FFFDCF609178003B
:102500007091790080E090E00E94A32A20E030E002
:1025100041E653E40E94312B20E030E040E85BE3E9
:102520000E94312B20E030E048E652E40E940D2A60
:102530000E94722ACB010895CF92DF92EF92FF9210
:10254000CF93DF93CDB7DEB7CE52D1400FB6F8941C
:10255000DEBF0FBECDBF8EEE98E29A8389838AEEEE
:1025600095E29C838B8387E393E29E838D838AEC41
:1025700090E298878F838AE99EE19A8789878FE91D
:102580009CE19C878B8784ED9AE19E878D8781E310
:1025900099E1988B8F8784EB97E19A8B898B86E5FD
:1025A00096E19C8B8B8B86E195E19E8B8D8B8FEEDC
:1025B00093E1988F8F8B8FED92E19A8F898F85EEC3
:1025C00091E19C8F8B8F8DEF90E19E8F8D8F85E2B7
:1025D00090E198A38F8F8EE59FE09AA389A384EA68
:1025E0009EE09CA38BA387EF9DE09EA38DA385E532
:1025F0009DE098A78FA38EEB9CE09AA789A781E323
:102600009CE09CA78BA78CEA9BE09EA78DA780E30C
:102610009BE098AB8FA78BEB9AE09AAB89AB8DE4EC
:102620009AE09CAB8BAB85EE99E09EAB8DAB83E8DB
:1026300099E098AF8FAB87E299E09AAF89AF80EDD0
:1026400098E09CAF8BAF8DE798E09EAF8DAF8FE2A7
:1026500098E021969FAF8EAF219785EE97E0239665
:102660009FAF8EAF23978FE997E025969FAF8EAFF0
:1026700025978CE597E027969FAF8EAF27978DE142
:1026800097E029969FAF8EAF299780EE96E02B9624
:102690009FAF8EAF2B9787EA96E02D969FAF8EAFB8
:1026A0002D9780E796E02F969FAF8EAF2F978CE304
:1026B00096E061969FAF8EAF61978AE096E0639651
:1026C0009FAF8EAF63978BED95E065969FAF8EAF12
:1026D00065978EEA95E067969FAF8EAF679782E821
:1026E00095E069969FAF8EAF699789E595E06B9607
:1026F0009FAF8EAF6B9781E395E06D969FAF8EAFE6
:102700006D978BE095E06F969FAF8EAF6F9786EEDB
:1027100094E0A1969FAF8EAFA19784EC94E0A3962E
:102720009FAF8EAFA39782EA94E0A5969FAF8EAF3E
:10273000A59782E894E0A7969FAF8EAFA79783E610
:1027400094E0A9969FAF8EAFA99785E494E0AB96ED
:102750009FAF8EAFAB9789E294E0AD969FAF8EAFFF
:10276000AD978DE094E0AF969FAF8EAFAF9783EFBC
:1027700093E0E1969FAF8EAFE19789ED93E0E3960A
:102780009FAF8EAFE39781EC93E0E5969FAF8EAF5E
:10279000E59789EA93E0E7969FAF8EAFE79782E9E6
:1027A00093E0E9969FAF8EAFE9978CE793E0EB96C5
:1027B0009FAF8EAFEB9787E693E0ED969FAF8EAF1E
:1027C000ED9783E593E0EF969FAF8EAFEF978FE3A2
:1027D00093E0C158DF4F99838883CF57D0408CE274
:1027E00093E0CF57DF4F99838883C158D04089E168
:1027F00093E0CD57DF4F99838883C358D04087E05B
:1028000093E0CB57DF4F99838883C558D04086EF3C
:1028100092E0C957DF4F99838883C758D04085EE2F
:1028200092E0C757DF4F99838883C958D04085ED20
:1028300092E0C557DF4F99838883CB58D04086EC10
:1028400092E0C357DF4F99838883CD58D04086EB01
:1028500092E0C157DF4F99838883CF58D04088EAF0
:1028600092E0CF56DF4F99838883C159D0408BE9DE
:1028700092E0CD56DF4F99838883C359D0408CE8CE
:1028800092E0CB56DF4F99838883C559D0408EE7BD
:1028900092E0C956DF4F99838883C759D04081E7BA
:1028A00092E0C756DF4F99838883C959D04085E6A7
:1028B00092E0C556DF4F99838883CB59D04089E594
:1028C00092E0C356DF4F99838883CD59D0408DE481
:1028D00092E0C156DF4F99838883CF59D04081E47D
:1028E00092E0CF55DF4F99838883C15AD04086E369
:1028F00092E0CD55DF4F99838883C35AD0408BE255
:1029000092E0CB55DF4F99838883C55AD04081E24E
:1029100092E0C955DF4F99838883C75AD04086E13A
:1029200092E0C755DF4F99838883C95AD0408CE025
:1029300092E0C555DF4F99838883CB5AD04083E01E
:1029400092E0C355DF4F99838883CD5AD04089EFF9
:1029500091E0C155DF4F99838883CF5AD04080EFF3
:1029600091E0CF54DF4F99838883C15BD04087EEDD
:1029700091E0CD54DF4F99838883C35BD0408EEDC7
:1029800091E0CB54DF4F99838883C55BD04086EDBF
:1029900091E0C954DF4F99838883C75BD0408DECA9
:1029A00091E0C754DF4F99838883C95BD04085ECA1
:1029B00091E0C554DF4F99838883CB5BD0408EEB89
:1029C00091E0C354DF4F99838883CD5BD04086EB81
:1029D00091E0C154DF4F99838883CF5BD0408EEA6A
:1029E00091E0CF53DF4F99838883C15CD04087EA61
:1029F00091E0CD53DF4F99838883C35CD04080EA58
:102A000091E0CB53DF4F99838883C55CD04089E93F
:102A100091E0C953DF4F99838883C75CD04082E936
:102A200091E0C753DF4F99838883C95CD0408CE81D
:102A300091E0C553DF4F99838883CB5CD04085E814
:102A400091E0C353DF4F99838883CD5CD0408FE7FB
:102A500091E0C153DF4F99838883CF5CD04089E7F1
:102A600091E0CF52DF4F99838883C15DD04083E7E7
:102A700091E0CD52DF4F99838883C35DD0408DE6CE
:102A800091E0CB52DF4F99838883C55DD04087E6C4
:102A900091E0C952DF4F99838883C75DD04082E6B9
:102AA00091E0C752DF4F99838883C95DD0408CE5A0
:102AB00091E0C552DF4F99838883CB5DD04087E595
:102AC00091E0C352DF4F99838883CD5DD04082E58A
:102AD00091E0C152DF4F99838883CF5DD0408DE470
:102AE00091E0CF51DF4F99838883C15ED04088E465
:102AF00091E0CD51DF4F99838883C35ED04083E45A
:102B000091E0CB51DF4F99838883C55ED0408EE33F
:102B100091E0C951DF4F99838883C75ED04089E334
:102B200091E0C751DF4F99838883C95ED04085E328
:102B300091E0C551DF4F99838883CB5ED04080E31D
:102B400091E0C351DF4F99838883CD5ED0408CE202
:102B500091E0C151DF4F99838883CF5ED04088E2F6
:102B600091E0CF50DF4F99838883C15FD04084E2EA
:102B700091E0CD50DF4F99838883C35FD0408FE1D0
:102B800091E0CB50DF4F99838883C55FD0408BE1C4
:102B900091E0C950DF4F99838883C75FD04087E1B8
:102BA00091E0C750DF4F99838883C95FD04084E1AB
:102BB00091E0C550DF4F99838883CB5FD04080E19F
:102BC00091E0C350DF4F99838883CD5FD0408CE084
:102BD00091E0C150DF4F99838883CF5FD04089E077
:102BE00091E0CF5FDE4F99838883C150D14085E06B
:102BF00091E0CD5FDE4F99838883C350D14081E05F
:102C000091E0CB5FDE4F99838883C550D1408EEF32
:102C100090E0C95FDE4F99838883C750D1408BEF26
:102C200090E0C75FDE4F99838883C950D14087EF1A
:102C300090E0C55FDE4F99838883CB50D14084EF0D
:102C400090E0C35FDE4F99838883CD50D14081EF00
:102C500090E0C15FDE4F99838883CF50D1408EEEE4
:102C600090E0CF5EDE4F99838883C151D1408BEED7
:102C700090E0CD5EDE4F99838883C351D14088EECA
:102C800090E0CB5EDE4F99838883C551D14085EEBD
:102C900090E0C95EDE4F99838883C751D14082EEB0
:102CA00090E0C75EDE4F99838883C951D1408FED94
:102CB00090E0C55EDE4F99838883CB51D1408CED87
:102CC00090E0C35EDE4F99838883CD51D1408AED79
:102CD00090E0C15EDE4F99838883CF51D14087ED6C
:102CE00090E0CF5DDE4F99838883C152D14084ED5F
:102CF00090E0CD5DDE4F99838883C352D14082ED51
:102D000090E0CB5DDE4F99838883C552D1408FEC34
:102D100090E0C95DDE4F99838883C752D1408DEC26
:102D200090E0C75DDE4F99838883C952D1408AEC19
:102D300090E0C55DDE4F99838883CB52D14088EC0B
:102D400090E0C35DDE4F99838883CD52D140EAE79E
:102D5000F0E087E8808310927C008081806480832B
:102D6000808184FFFDCF8091780090917900009759
:102D7000D9F16C01CC0CDD1CCC0CDD1CC80ED91EAD
:102D80000D2C000CEE08FF0880E094E1A0E0B0E01C
:102D90009C01AD012C193D094E095F09A8E4B6E27A
:102DA0000E94DA2BA70196010E94B62BA4E6B0E0A0
:102DB0000E94DA2B28EC39E140E050E00E94B62B6B
:102DC000DA01C9014B97A109B1098AF08739910548
:102DD000A105B1057CF49C01220F331FFE01E20F17
:102DE000F31F8181928108C08FEF9FEF05C08FEFA5
:102DF0009FEF02C080E090E0C25DDE4F0FB6F89416
:102E0000DEBF0FBECDBFDF91CF91FF90EF90DF907F
:102E1000CF900895CF92DF92EF92FF92CF93DF93FE
:102E2000CDB7DEB7CE52D1400FB6F894DEBF0FBE9D
:102E3000CDBF8BE896E29A8389838BE494E29C83EE
:102E40008B8388E392E29E838D838FE490E2988760
:102E50008F838BE89EE19A87898788EE9CE19C8727
:102E60008B8784E69BE19E878D878CEF99E1988B19
:102E70008F878DEA98E19A8B898B85E797E19C8B08
:102E80008B8B82E596E19E8B8D8B83E495E1988F09
:102E90008F8B85E494E19A8F898F87E593E19C8FEE
:102EA0008B8F88E792E19E8F8D8F86EA91E198A3C0
:102EB0008F8F82EE90E19AA389A389E290E19CA38F
:102EC0008BA38BE79FE09EA38DA387ED9EE098A741
:102ED0008FA38CE39EE09AA789A78AEA9DE09CA72E
:102EE0008BA780E29DE09EA78DA78DE99CE098AB23
:102EF0008FA782E29CE09AAB89AB8CEA9BE09CAB0B
:102F00008BAB84ED9AE09EAB8DAB80E79AE098AFF7
:102F10008FAB81E19AE09AAF89AF86EB99E09CAFE5
:102F20008BAF80E699E09EAF8DAF8EE099E0219661
:102F30009FAF8EAF219780EC98E023969FAF8EAF26
:102F4000239785E798E025969FAF8EAF25978EE271
:102F500098E027969FAF8EAF27978AEE97E0299645
:102F60009FAF8EAF299789EA97E02B969FAF8EAFE0
:102F70002B978BE697E02D969FAF8EAF2D978FE224
:102F800097E02F969FAF8EAF2F9787EF96E06196D1
:102F90009FAF8EAF619780EC96E063969FAF8EAF48
:102FA00063978CE896E065969FAF8EAF65978AE54C
:102FB00096E067969FAF8EAF67978AE296E0699634
:102FC0009FAF8EAF69978CEF95E06B969FAF8EAFFA
:102FD0006B9780ED95E06D969FAF8EAF6D9786EA0B
:102FE00095E06F969FAF8EAF6F978DE795E0A196B6
:102FF0009FAF8EAFA19786E595E0A3969FAF8EAF6A
:10300000A39780E395E0A5969FAF8EAFA5978CE040
:1030100095E0A7969FAF8EAFA79789EE94E0A9960B
:103020009FAF8EAFA99787EC94E0AB969FAF8EAF22
:10303000AB9787EA94E0AD969FAF8EAFAD9788E8E7
:1030400094E0AF969FAF8EAFAF978AE694E0E1969B
:103050009FAF8EAFE1978DE494E0E3969FAF8EAF84
:10306000E39781E394E0E5969FAF8EAFE59786E125
:1030700094E0E7969FAF8EAFE7978CEF93E0E996E9
:103080009FAF8EAFE99783EE93E0EB969FAF8EAF45
:10309000EB978BEC93E0ED969FAF8EAFED9783EBC4
:1030A00093E0EF969FAF8EAFEF978CE993E0C15816
:1030B000DF4F99838883CF57D04087E893E0CF577D
:1030C000DF4F99838883C158D04081E793E0CD5783
:1030D000DF4F99838883C358D0408DE593E0CB5769
:1030E000DF4F99838883C558D04089E493E0C9575E
:1030F000DF4F99838883C758D04086E393E0C75752
:10310000DF4F99838883C958D04083E293E0C55745
:10311000DF4F99838883CB58D04081E193E0C35738
:10312000DF4F99838883CD58D04080E093E0C1572A
:10313000DF4F99838883CF58D0408FEE92E0CF56EF
:10314000DF4F99838883C159D0408EED92E0CD56F0
:10315000DF4F99838883C359D0408EEC92E0CB56E1
:10316000DF4F99838883C559D0408FEB92E0C956D1
:10317000DF4F99838883C759D04080EB92E0C756D0
:10318000DF4F99838883C959D04081EA92E0C556C0
:10319000DF4F99838883CB59D04083E992E0C356AF
:1031A000DF4F99838883CD59D04085E892E0C1569E
:1031B000DF4F99838883CF59D04088E792E0CF557D
:1031C000DF4F99838883C15AD0408BE692E0CD557A
:1031D000DF4F99838883C35AD0408EE592E0CB5568
:1031E000DF4F99838883C55AD04082E592E0C95564
:1031F000DF4F99838883C75AD04086E492E0C75551
:10320000DF4F99838883C95AD0408BE392E0C5553C
:10321000DF4F99838883CB5AD0408FE292E0C35529
:10322000DF4F99838883CD5AD04085E292E0C15523
:10323000DF4F99838883CF5AD0408AE192E0CF5400
:10324000DF4F99838883C15BD04080E192E0CD5409
:10325000DF4F99838883C35BD04085E092E0CB54F5
:10326000DF4F99838883C55BD0408CEF91E0C954D0
:10327000DF4F99838883C75BD04082EF91E0C754CA
:10328000DF4F99838883C95BD04089EE91E0C554B4
:10329000DF4F99838883CB5BD04080EE91E0C354AD
:1032A000DF4F99838883CD5BD04087ED91E0C15497
:1032B000DF4F99838883CF5BD0408EEC91E0CF5372
:1032C000DF4F99838883C15CD04086EC91E0CD5379
:1032D000DF4F99838883C35CD0408EEB91E0CB5362
:1032E000DF4F99838883C55CD04086EB91E0C9535A
:1032F000DF4F99838883C75CD0408EEA91E0C75343
:10330000DF4F99838883C95CD04086EA91E0C5533A
:10331000DF4F99838883CB5CD0408FE991E0C35322
:10332000DF4F99838883CD5CD04088E991E0C15319
:10333000DF4F99838883CF5CD04081E991E0CF5201
:10334000DF4F99838883C15DD0408AE891E0CD52F8
:10335000DF4F99838883C35DD04083E891E0CB52EF
:10336000DF4F99838883C55DD0408CE791E0C952D7
:10337000DF4F99838883C75DD04086E791E0C752CD
:10338000DF4F99838883C95DD04080E791E0C552C3
:10339000DF4F99838883CB5DD0408AE691E0C352AA
:1033A000DF4F99838883CD5DD04084E691E0C152A0
:1033B000DF4F99838883CF5DD0408EE591E0CF5178
:1033C000DF4F99838883C15ED04088E591E0CD517D
:1033D000DF4F99838883C35ED04083E591E0CB5172
:1033E000DF4F99838883C55ED0408DE491E0C95159
:1033F000DF4F99838883C75ED04088E491E0C7514E
:10340000DF4F99838883C95ED04083E491E0C55142
:10341000DF4F99838883CB5ED0408DE391E0C35129
:10342000DF4F99838883CD5ED04088E391E0C1511E
:10343000DF4F99838883CF5ED04084E391E0CF5003
:10344000DF4F99838883C15FD0408FE291E0CD50F8
:10345000DF4F99838883C35FD0408AE291E0CB50ED
:10346000DF4F99838883C55FD04086E291E0C950E1
:10347000DF4F99838883C75FD04081E291E0C750D6
:10348000DF4F99838883C95FD0408DE191E0C550BB
:10349000DF4F99838883CB5FD04088E191E0C350B0
:1034A000DF4F99838883CD5FD04084E191E0C150A4
:1034B000DF4F99838883CF5FD04080E191E0CF5F79
:1034C000DE4F99838883C150D1408CE091E0CD5F7D
:1034D000DE4F99838883C350D14088E091E0CB5F71
:1034E000DE4F99838883C550D14084E091E0C95F65
:1034F000DE4F99838883C750D14080E091E0C75F59
:10350000DE4F99838883C950D1408DEF90E0C55F2D
:10351000DE4F99838883CB50D14089EF90E0C35F21
:10352000DE4F99838883CD50D14086EF90E0C15F14
:10353000DE4F99838883CF50D14082EF90E0CF5EF9
:10354000DE4F99838883C151D1408FEE90E0CD5EEC
:10355000DE4F99838883C351D1408BEE90E0CB5EE0
:10356000DE4F99838883C551D14088EE90E0C95ED3
:10357000DE4F99838883C751D14085EE90E0C75EC6
:10358000DE4F99838883C951D14082EE90E0C55EB9
:10359000DE4F99838883CB51D1408EED90E0C35E9E
:1035A000DE4F99838883CD51D1408BED90E0C15E91
:1035B000DE4F99838883CF51D14088ED90E0CF5D75
:1035C000DE4F99838883C152D14086ED90E0CD5D76
:1035D000DE4F99838883C352D14083ED90E0CB5D69
:1035E000DE4F99838883C552D14080ED90E0C95D5C
:1035F000DE4F99838883C752D1408DEC90E0C75D40
:10360000DE4F99838883C952D1408AEC90E0C55D32
:10361000DE4F99838883CB52D14088EC90E0C35D24
:10362000DE4F99838883CD52D140EAE7F0E087E806
:10363000808381E080937C008081806480838081AE
:1036400084FFFDCF8091780090917900009709F474
:1036500043C06C01CC0CDD1CCC0CDD1CC80ED91E8B
:103660000D2C000CEE08FF0880E094E1A0E0B0E033
:103670009C01AD012C193D094E095F09ACEBBDE47D
:103680000E94DA2BA70196010E94B62BA8EEB3E0A8
:103690000E94DA2B26E83DE340E050E00E94B62B82
:1036A000CA01B90125E030E040E050E00E94B62BAD
:1036B000DA01C9018A97A109B1098AF08739910510
:1036C000A105B1057CF49C01220F331FFE01E20F1E
:1036D000F31F8181928108C08FEF9FEF05C08FEFAC
:1036E0009FEF02C080E090E0C25DDE4F0FB6F8941D
:1036F000DEBF0FBECDBFDF91CF91FF90EF90DF9087
:10370000CF900895CF92DF92EF92FF92CF93DF9305
:10371000CDB7DEB7CE52D1400FB6F894DEBF0FBEA4
:10372000CDBF80E190E19A83898387EA9DE09C8305
:103730008B8389EC9BE09E838D838EE49AE098874F
:103740008F838CE199E09A87898780E298E09C8753
:103750008B878EE497E09E878D878CE996E0988B27
:103760008F8785E096E09A8B898B83E895E09C8B28
:103770008B8B82E195E09E8B8D8B8FEA94E0988F06
:103780008F8B88E594E09A8F898F8BE094E09C8FF3
:103790008B8F87EC93E09E8F8D8F89E893E098A3C1
:1037A0008F8F82E593E09AA389A380E293E09CA3A4
:1037B0008BA383EF92E09EA38DA38AEC92E098A75F
:1037C0008FA384EA92E09AA789A781E892E09CA758
:1037D0008BA782E692E09EA78DA785E492E098AB46
:1037E0008FA78AE292E09AAB89AB81E192E09CAB31
:1037F0008BAB8AEF91E09EAB8DAB84EE91E098AFFE
:103800008FAB80ED91E09AAF89AF8DEB91E09CAFEB
:103810008BAF8CEA91E09EAF8DAF8CE991E0219661
:103820009FAF8EAF21978CE891E023969FAF8EAF2C
:1038300023978EE791E025969FAF8EAF259780E77F
:1038400091E027969FAF8EAF279783E691E0299668
:103850009FAF8EAF299787E591E02B969FAF8EAFF4
:103860002B978CE491E02D969FAF8EAF2D9781E43E
:1038700091E02F969FAF8EAF2F9787E391E06196EF
:103880009FAF8EAF61978DE291E063969FAF8EAF51
:10389000639784E291E065969FAF8EAF65978BE169
:1038A00091E067969FAF8EAF679783E191E069964D
:1038B0009FAF8EAF69978BE091E06B969FAF8EAF15
:1038C0006B9783E091E06D969FAF8EAF6D978CEF15
:1038D00090E06F969FAF8EAF6F9785EF90E0A196C7
:1038E0009FAF8EAFA1978EEE90E0A3969FAF8EAF65
:1038F000A39788EE90E0A5969FAF8EAFA59782EE36
:1039000090E0A7969FAF8EAFA7978CED90E0A99619
:103910009FAF8EAFA99787ED90E0AB969FAF8EAF2C
:10392000AB9781ED90E0AD969FAF8EAFAD978CECED
:1039300090E0AF969FAF8EAFAF9787EC90E0E196A7
:103940009FAF8EAFE19783EC90E0E3969FAF8EAF91
:10395000E3978EEB90E0E5969FAF8EAFE5978AEB0D
:1039600090E0E7969FAF8EAFE79785EB90E0E99602
:103970009FAF8EAFE99781EB90E0EB969FAF8EAF54
:10398000EB978EEA90E0ED969FAF8EAFED978AEAC7
:1039900090E0EF969FAF8EAFEF9786EA90E0C15828
:1039A000DF4F99838883CF57D04083EA90E0CF5789
:1039B000DF4F99838883C158D0408FE990E0CD577D
:1039C000DF4F99838883C358D0408CE990E0CB5770
:1039D000DF4F99838883C558D04089E990E0C95763
:1039E000DF4F99838883C758D04086E990E0C75756
:1039F000DF4F99838883C958D04083E990E0C55749
:103A0000DF4F99838883CB58D04080E990E0C3573B
:103A1000DF4F99838883CD58D0408DE890E0C1571F
:103A2000DF4F99838883CF58D0408BE890E0CF5602
:103A3000DF4F99838883C159D04088E890E0CD5604
:103A4000DF4F99838883C359D04085E890E0CB56F7
:103A5000DF4F99838883C559D04083E890E0C956E9
:103A6000DF4F99838883C759D04081E890E0C756DB
:103A7000DF4F99838883C959D0408EE790E0C556BF
:103A8000DF4F99838883CB59D040ACE7B0E0C35671
:103A9000DF4FB983A883CD59D040EAE7F0E0C156A3
:103AA000DF4FF983E883CF59D04088E790E0CF55C6
:103AB000DF4F99838883C15AD04086E790E0CD5587
:103AC000DF4F99838883C35AD04084E790E0CB5579
:103AD000DF4F99838883C55AD04082E790E0C9556B
:103AE000DF4F99838883C75AD04080E790E0C7555D
:103AF000DF4F99838883C95AD0408EE690E0C55540
:103B0000DF4F99838883CB5AD0408CE690E0C35531
:103B1000DF4F99838883CD5AD0408BE690E0C15522
:103B2000DF4F99838883CF5AD04089E690E0CF5405
:103B3000DF4F99838883C15BD04087E690E0CD5406
:103B4000DF4F99838883C35BD04086E690E0CB54F7
:103B5000DF4F99838883C55BD04084E690E0C954E9
:103B6000DF4F99838883C75BD04083E690E0C754DA
:103B7000DF4F99838883C95BD04081E690E0C554CC
:103B8000DF4F99838883CB5BD04080E690E0C354BD
:103B9000DF4F99838883CD5BD0408EE590E0C154A0
:103BA000DF4F99838883CF5BD0408DE590E0CF5382
:103BB000DF4F99838883C15CD0408BE590E0CD5383
:103BC000DF4F99838883C35CD0408AE590E0CB5374
:103BD000DF4F99838883C55CD04089E590E0C95365
:103BE000DF4F99838883C75CD04088E590E0C75356
:103BF000DF4F99838883C95CD04086E590E0C55348
:103C0000DF4F99838883CB5CD04085E590E0C35338
:103C1000DF4F99838883CD5CD04084E590E0C15329
:103C2000DF4F99838883CF5CD04083E590E0CF520B
:103C3000DF4F99838883C15DD04082E590E0CD520B
:103C4000DF4F99838883C35DD04081E590E0CB52FC
:103C5000DF4F99838883C55DD04080E590E0C952ED
:103C6000DF4F99838883C75DD0408FE490E0C752CF
:103C7000DF4F99838883C95DD0408EE490E0C552C0
:103C8000DF4F99838883CB5DD0408DE490E0C352B1
:103C9000DF4F99838883CD5DD0408CE490E0C152A2
:103CA000DF4F99838883CF5DD0408BE490E0CF5184
:103CB000DF4F99838883C15ED0408AE490E0CD5184
:103CC000DF4F99838883C35ED04089E490E0CB5175
:103CD000DF4F99838883C55ED04088E490E0C95166
:103CE000DF4F99838883C75ED04087E490E0C75157
:103CF000DF4F99838883C95ED04086E490E0C55148
:103D0000DF4F99838883CB5ED04085E490E0C35138
:103D1000DF4F99838883CD5ED04084E490E0C15129
:103D2000DF4F99838883CF5ED040CF50DF4F998398
:103D30008883C15FD04083E490E0CD50DF4F99830A
:103D40008883C35FD04082E490E0CB50DF4F9983FB
:103D50008883C55FD04081E490E0C950DF4F9983EC
:103D60008883C75FD04080E490E0C750DF4F9983DD
:103D70008883C95FD040C550DF4F99838883CB5F6C
:103D8000D0408FE390E0C350DF4F99838883CD5FAD
:103D9000D0408EE390E0C150DF4F99838883CF5F9E
:103DA000D040CF5FDE4F99838883C150D1408DE3EF
:103DB00090E0CD5FDE4F99838883C350D1408CE380
:103DC00090E0CB5FDE4F99838883C550D140C95FB7
:103DD000DE4F99838883C750D1408BE390E0C75F63
:103DE000DE4F99838883C950D1408AE390E0C55F54
:103DF000DE4F99838883CB50D140C35FDE4F9983D8
:103E00008883CD50D14089E390E0C15FDE4F998334
:103E10008883CF50D14088E390E0CF5EDE4F998316
:103E20008883C151D140CD5EDE4F99838883C351D1
:103E3000D14087E390E0CB5EDE4F99838883C55104
:103E4000D140C95EDE4F99838883C751D14086E354
:103E500090E0C75EDE4F99838883C951D140C55E2B
:103E6000DE4F99838883CB51D14085E390E0C35ED8
:103E7000DE4F99838883CD51D14084E390E0C15EC9
:103E8000DE4F99838883CF51D140CF5DDE4F998338
:103E90008883C152D14083E390E0CD5DDE4F9983AA
:103EA0008883C352D140CB5DDE4F99838883C5524E
:103EB000D14082E390E0C95DDE4F99838883C75289
:103EC000D140C75DDE4F99838883C952D14081E3D9
:103ED00090E0C55DDE4F99838883CB52D140C35DAE
:103EE000DE4F99838883CD52D14087E8808382E07A
:103EF0008C93808180648083808184FFFDCF80915A
:103F00007800909179000097D9F16C01CC0CDD1C00
:103F1000CC0CDD1CC80ED91E0D2C000CEE08FF08C1
:103F200080E094E1A0E0B0E09C01AD012C193D09D6
:103F30004E095F09ACEAB6E20E94DA2BA7019601AE
:103F40000E94B62BA4E6B0E00E94DA2B20ED37E009
:103F500040E050E00E94B62BDA01C9010997A1099F
:103F6000B1098AF087399105A105B1057CF49C015E
:103F7000220F331FFE01E20FF31F8181928108C0DF
:103F80008FEF9FEF05C08FEF9FEF02C080E090E0C2
:103F9000C25DDE4F0FB6F894DEBF0FBECDBFDF911E
:103FA000CF91FF90EF90DF90CF90089581309105F1
:103FB000B9F01CF4892B39F0089582309105E9F0AD
:103FC000039741F1089588E98093C10086E08093CA
:103FD000C20083E390E09093C5008093C4000895ED
:103FE00088E98093C90086E08093CA0083E390E06B
:103FF0009093CD008093CC00089588E98093D10000
:1040000086E08093D20083E390E09093D500809384
:10401000D400089588E98093310186E080933201CD
:1040200083E390E090933501809334010895CF931A
:10403000DF93DB0181309105D1F01CF4892BF9F07D
:1040400079C08230910559F0039709F073C0AB0134
:1040500020E030E0E0E3F1E066E371E061C0AB0155
:1040600020E030E0E0EDF0E066ED70E044C0AB0150
:1040700020E030E0E8ECF0E06EEC70E027C0AB014F
:1040800020E030E0E0ECF0E066EC70E00AC0808117
:1040900085FFFDCFEA018991AE01EB0188832F5F97
:1040A0003F4FED0109900020E9F72197CA1BDB0B78
:1040B0002C173D0760F33EC0808185FFFDCFEA01EC
:1040C0008991AE01EB0188832F5F3F4FED0109908D
:1040D0000020E9F72197CA1BDB0B2C173D0760F383
:1040E00029C0808185FFFDCFEA018991AE01EB01F6
:1040F00088832F5F3F4FED0109900020E9F721975A
:10410000CA1BDB0B2C173D0760F314C0808185FFB1
:10411000FDCFEA018991AE01EB0188832F5F3F4F0C
:10412000ED0109900020E9F72197CA1BDB0B2C1742
:104130003D0760F3DF91CF9108952F923F924F9208
:104140005F926F927F928F929F92AF92BF92CF9227
:10415000DF92EF92FF920F931F93CF93DF93CDB730
:10416000DEB7C858D1090FB6F894DEBF0FBECDBF79
:104170006C014B01DC0111968C91873409F0D5C29A
:10418000E12CF12CA12CB12C00E010E01E01B1E1DA
:104190002B0E311CFE013F96E996FFAFEEAFE9977B
:1041A0009E01235F3F4FEB963FAF2EAFEB973E0153
:1041B00033E1630E711CCE010996ED969FAF8EAF71
:1041C000ED97DE011B96EF96BFAFAEAFEF97389736
:1041D000C158DF4FF983E883CF57D0409E012B5F52
:1041E0003F4FCF57DF4F39832883C158D0402E012E
:1041F00033E0430E511CF601E00FF11F80818C3239
:1042000009F05AC18FEFA81AB80A98012F5F3F4FE3
:10421000F5013197E930F10508F051C18827EE58D2
:10422000FF4F8F4F0C94D22BF601E20FF31F8081CA
:104230008C3209F01CC189012CC1F601E20FF31F79
:1042400080818B8BF601E00FF11F82818C8B8AE3DA
:104250008D8B93819E8B94819F8B888F8581898F95
:10426000F8013696EC0DFD1D095F1F4F80818A8F86
:104270001B8ECE57DF4F9881C258D0409F93CF57A7
:10428000DF4FA881C158D040AF935F924F92E1E0D9
:10429000F0E0EC0FFD1FFF93EF9380E992E09F9316
:1042A0008F937F926F920E943C2C89819A810FB6E6
:1042B000F894DEBF0FBECDBF8730910524F007977D
:1042C0009A83898398CF41969A83898394CFF60104
:1042D000E20FF31F80818B8BF601E00FF11F8281CB
:1042E0008C8B8EE28D8B83818E8B84818F8B8581ED
:1042F000888F8681898F87818A8F80858B8FF8014F
:104300003996EC0DFD1D065F1F4F80818C8F1D8E31
:10431000ED963FADED973F93EC968FADEC978F9375
:10432000EF969FADEF979F93EE96AFADEE97AF935D
:10433000C058DF4FB881C058D040BF93C158DF4F3D
:10434000E881CF57D040EF93A9E9B2E0BF93AF9394
:104350007F926F920E943C2C0FB6F894DEBF0FBE86
:10436000CDBF49CF0E5F1F4FF601E20FF31F91E063
:1043700080E020812E3409F490E0CB57DF4F988302
:10438000C558D040CA57DF4F8883C658D04033CF76
:10439000F601E20FF31F80818B8BF601E00FF11F16
:1043A00082818C8B83818D8B8EE28E8B84818F8B2F
:1043B0008581888F8681898F87818A8F80858B8F81
:1043C00081858C8FF8013A96EC0DFD1D055F1F4F1E
:1043D00080818D8F1E8E3F922F92E9963FADE99797
:1043E0003F93E8968FADE8978F93EB969FADEB9751
:1043F0009F93EA96AFADEA97AF93A9E9B2E0BF9376
:10440000AF937F926F920E943C2C0FB6F894DEBF60
:104410000FBECDBFF0CE0E5F1F4FF601E20FF31FB0
:1044200091E080E02081253409F490E0C957DF4F06
:104430009883C758D040C857DF4F8883C858D040AA
:10444000DACE0E5F1F4FF601E20FF31F91E080E01E
:104450002081213309F090E0CD57DF4F9883C35876
:10446000D040CC57DF4F8883C458D040C4CED3014E
:10447000AE0DBF1D0E5F1F4FF601E00FF11F8F0144
:104480000C191D098D933FEFE31AF30A81918C32C9
:10449000B1F7F7013196D301AE0DBF1D8AE08C93C1
:1044A00082E0E80EF11CE60DF71D8DE08083F3013C
:1044B000EE0DFF1D10829FCE0F5F1F4F01C08901BF
:1044C0009CE0A916B1040CF496CECD57DF4FA8811D
:1044D000B981C358D040119709F002C1CB57DF4FC3
:1044E000E881F981C558D040EF2BD9F5C957DF4F86
:1044F00028813981C758D040232B09F076C08A899A
:104500008F9389898F9388898F938F858F938E85D9
:104510008F938D858F938A858F9389858F938C85D3
:104520008F938B858F9388858F938F818F938E81C7
:104530008F938D818F938C818F938B818F938A81C1
:104540008F9389818F9382EA92E09F938F939F92BA
:104550008F920E940D2C0FB6F894DEBF0FBECDBF18
:10456000B8C0CB57DF4FA881B981C558D04011974B
:1045700009F0AFC0C957DF4FE881F981C758D04073
:10458000EF2B09F06DC08A898F9389898F93888971
:104590008F938F858F938E858F938D858F938A854B
:1045A0008F9389858F938C858F938B858F93888547
:1045B0008F938F818F938E818F938D818F938C8139
:1045C0008F938B818F938A818F9389818F938EEEC6
:1045D00092E09F938F939F928F920E940D2C0FB623
:1045E000F894DEBF0FBECDBF74C0C957DF4F8881BE
:1045F0009981C758D040019709F06BC08A898F9381
:1046000089898F9388898F938F858F938E858F93D8
:104610008D858F938A858F9389858F938C858F93D2
:104620008B858F9388858F938F818F938E818F93C6
:104630008D818F938C818F938B818F938A818F93C0
:1046400089818F938BE393E09F938F939F928F92B7
:104650000E940D2C0FB6F894DEBF0FBECDBF39C03F
:10466000C957DF4FE881F981C758D040319789F5A4
:104670008A898F9389898F9388898F938F858F9368
:104680008E858F938D858F938A858F9389858F9360
:104690008C858F938B858F9388858F938F818F9354
:1046A0008E818F938D818F938C818F938B818F934C
:1046B0008A818F9389818F9388E893E09F938F936A
:1046C0009F928F920E940D2C0FB6F894DEBF0FBE02
:1046D000CDBFBE016D5E7F4FC4010E94F32B25C08C
:1046E0008E818F938D818F938C818F938B818F930C
:1046F0008A818F9389818F9386ED93E09F938F9327
:104700009F928F920E940D2CD4010D900020E9F70A
:10471000119788E1EFEEF3E001900D928A95E1F7B1
:104720000FB6F894DEBF0FBECDBFC857DF4F0FB630
:10473000F894DEBF0FBECDBFDF91CF911F910F91D7
:10474000FF90EF90DF90CF90BF90AF909F908F90B1
:104750007F906F905F904F903F902F900895CF92F1
:10476000DF92EF92FF920F931F93CF93DF93CDB71A
:10477000DEB72E970FB6F894DEBF0FBECDBF7B011C
:104780009E012D5F3F4F3F932F93225031093F935E
:104790002F9327E034E03F932F939F938F930E94B2
:1047A0003C2CD7010D900020E9F7119788E0EDE04F
:1047B000F4E001900D928A95E1F78A818F938981C7
:1047C0008F930F2EF5E1CF2EF4E0DF2EF02DDF9248
:1047D000CF928E010B5F1F4F1F930F930E940D2CE2
:1047E000B801C7010E94F32BD7010D900020E9F713
:1047F000119788E0EAE1F4E001900D928A95E1F7E3
:104800008C818F938B818F93DF92CF921F930F9325
:104810000E940D2CB801C701E6D70FB6F894DEBF91
:104820000FBECDBF2E960FB6F894DEBF0FBECDBF24
:10483000DF91CF911F910F91FF90EF90DF90CF907C
:104840000895FC0101900020E9F73197E81BF90B6E
:104850001E161F0634F4E80FF91F1292E817F90725
:10486000E1F7089562E274E081E090E0E0DB63E369
:1048700074E081E090E0DBDB66E474E081E090E0EE
:10488000D6CB0895CF93DF93CDB7DEB7CD58D140C7
:104890000FB6F894DEBF0FBECDBF10BA8FEF809376
:1048A00007018BE791EE909385008093840085E06B
:1048B0008093810081E080936F0080E090E076DB60
:1048C00081E090E073DB82E090E070DB83E090E0D9
:1048D0006DDBC8DF40E069E774E086E495E00E94A4
:1048E000BB0B7894C357DE4F1882CD58D140C457C4
:1048F000DE4F1882CC58D140E12CC557DE4F1882CC
:10490000CB58D140CE010196C757DE4F998388839B
:10491000C958D140F12C0F2EF4E74F2EF7E05F2E4F
:10492000F02D0F2EF8ED2F2EF7E03F2EF02D0F2E4D
:10493000F7E8CF2EF4E0DF2EF02D8E010F501F4F41
:104940000F2EF0E36F2EF5E07F2EF02D0F2EFAEFF5
:104950008F2EF4E09F2EF02D0F2EF2ECAF2EF4E010
:10496000BF2EF02D80914405813049F5F092440529
:10497000F10101900020E9F73197AF01485D574000
:10498000DA01A952B84F8C918A3099F4B101CE0165
:104990008B599F4F33D7C10154DF8091430581303C
:1049A00009F446C191E0C357DE4F9883CD58D140FA
:1049B00040C081E0C357DE4F8883CD58D1408091FD
:1049C0004305813031F5F0924305F201019000205A
:1049D000E9F73197AF0144575740DA01AD58B84F66
:1049E0008C918A3081F4B201CE01019607D7C201C1
:1049F00028DF91E0E91689F081E0C457DE4F888313
:104A0000CC58D14029C091E0C457DE4F9883CC5890
:104A1000D14081E0E81219C00CC091E0C457DE4FCC
:104A20009883CC58D14081E0C557DE4F8883CB585E
:104A3000D140CE018D529F4F04DFBE016D527F4F9A
:104A4000CE018B599F4F8BDEEF2CC557DE4F9881DF
:104A5000CB58D140913079F4CE0181599F4FF1DE8E
:104A6000BE0161597F4FCE01019667DBC557DE4F0E
:104A7000F882CB58D14080914205813009F072CF45
:104A8000F0924205C457DE4F8881CC58D140813026
:104A900009F03FC0BE0161597F4F83E090E0C7DA63
:104AA00042E16AE774E082EE97E00E940D0C4091CB
:104AB000EC075091ED076091EE077091EF0782EEE1
:104AC00097E00E946310C757DE4FE881F981C9580B
:104AD000D14001900020E9F73197AF01C757DE4F71
:104AE00088819981C958D140481B590B9E0129578B
:104AF0003E4FBE0161597F4F82EE97E00E94100E3B
:104B000082EE97E00E945310C457DE4FF882CC58D3
:104B1000D140C357DE4F9881CD58D140913059F4E0
:104B2000BE016D527F4F83E090E081DAC357DE4FC4
:104B3000F882CD58D1400E9471129F938F93DF92DB
:104B4000CF921F930F9369D6B80183E090E06FDA9C
:104B50000E949C120F900F900F900F900F900F904B
:104B6000992334F469E974E083E090E060DA11C0DD
:104B70009F938F93BF92AF921F930F934ED6B8011E
:104B800083E090E054DA0F900F900F900F900F9009
:104B90000F900E940A17992334F462ED74E083E0C9
:104BA00090E045DA11C09F938F939F928F921F934D
:104BB0000F9333D6B80183E090E039DA0F900F906D
:104BC0000F900F900F900F900E94821B992334F446
:104BD00069E075E083E090E02ADAC4CE9F938F937A
:104BE0007F926F921F930F9318D6B80183E090E0E5
:104BF0001EDA0F900F900F900F900F900F90B2CE83
:104C0000B201CE010196FAD5C2011BDE81E0C35785
:104C1000DE4F8883CD58D14091E0C457DE4F988352
:104C2000CC58D140C557DE4F8883CB58D14001CFF7
:104C3000F0924305F20101900020E9F73197AF01AE
:104C400044575740DA01AD58B84F8C918A30C1F2C1
:104C500091E0C357DE4F9883CD58D140EE24E394C2
:104C600081E0C457DE4F8883CC58D140D2CE23B1E7
:104C700023B123B123B10197D1F70895FC01680F47
:104C8000791F9191992314F4299A01C029982A9A9D
:104C90002A9896FF02C0299A01C029982A9A2A9830
:104CA00095FF02C0299A01C029982A9A2A9894FF50
:104CB00002C0299A01C029982A9A2A9893FF02C013
:104CC000299A01C029982A9A2A9892FF02C0299A03
:104CD00001C029982A9A2A9891FF02C0299A01C0F6
:104CE00029982A9A2A9890FF02C0299A01C02998E7
:104CF0002A9A2A98E617F70721F60895299AFC01BF
:104D0000680F791F93B12A9A2A989170990F189970
:104D10009F5F2A9A2A98990F18999F5F2A9A2A9832
:104D2000990F18999F5F2A9A2A98990F18999F5F4F
:104D30002A9A2A98990F18999F5F2A9A2A98990F68
:104D400018999F5F2A9A2A98990F18999F5F2A9A13
:104D50002A989193E617F707A9F608950F931F93E2
:104D6000CF93DF931F92CDB7DEB708E813E161E080
:104D700070E0CE010196C2DF89818F3F31F084E679
:104D800090E075DF0150110991F781E090E0012B6F
:104D900011F480E090E00F90DF91CF911F910F917F
:104DA0000895CF93DF931F92CDB7DEB72B9A61E0C2
:104DB00070E0CE010196A2DF0F90DF91CF910895B0
:104DC0000F931F93CF93DF931F92CDB7DEB72B982E
:104DD00061E070E0CE01019691DFC0DF8C01892B8C
:104DE00011F4DFDF02C001E010E0C8010F90DF9195
:104DF000CF911F910F910895CF92DF92EF92FF9282
:104E00000F931F93CF93DF931F921F92CDB7DEB7FF
:104E10007C016B0108EE13E061E070E0CE010196C9
:104E20006DDF99819F3F31F484E690E020DF0150EF
:104E3000110991F799819E3F59F4B601C7015EDFD0
:104E400062E070E0CE01019659DF81E090E002C09F
:104E500080E090E00F900F90DF91CF911F910F9124
:104E6000FF90EF90DF90CF900895EF92FF921F9305
:104E7000CF93DF931F921F92CDB7DEB77C01162F21
:104E80006DDF009711F1198361E070E0CE010196AA
:104E9000F5DE1D3FC1F060E072E0C701EFDE62E0C9
:104EA00070E0CE0101962ADF61E070E0CE0101964C
:104EB00025DF89818F7131E020E0853009F030E015
:104EC000832F922F02C081E090E00F900F90DF912E
:104ED000CF911F91FF90EF900895DF92EF92FF9294
:104EE0000F931F93CF93DF93CDB7DEB727970FB6FE
:104EF000F894DEBF0FBECDBF182F042FF52EE62E7F
:104F0000D72E88234CF440E050E0BA0187E3E5DF78
:104F1000823008F04FC01F771C3009F142DF50DFAC
:104F2000892BD9F0812F80648A83DB82EC82FD8219
:104F30000E831123B9F133C061E070E0CE01019618
:104F4000DDDE1AE061E070E0CE010196D7DE8981F6
:104F5000882384F51150B1F72DC08FEF2BC08CE45E
:104F60008A83DB82EC82FD820E8381E08F8366E0A0
:104F700070E0CE01029682DE1C3019F7DDCF87E8A3
:104F80008F8366E070E0CE01029678DEDACF81E0B2
:104F90008F8366E070E0CE01029670DED2CF1830CB
:104FA00071F3F5CF85E98F8366E070E0CE0102965C
:104FB00065DEC7CF27960FB6F894DEBF0FBECDBF14
:104FC000DF91CF911F910F91FF90EF90DF900895A7
:104FD000811103C080910002089581E00895EF924D
:104FE000FF920F931F93CF93DF9300D01F92CDB703
:104FF000DEB78111A4C080E197E239DE239A2B9AB3
:10500000229A2A98219A2AE048E030E006C02A9A9B
:105010002A980197E1F7215019F0842F932FF7CFA9
:1050200040E050E0BA0180E058DF813009F06DC007
:105030004AEA51E060E070E088E04FDF8130A9F596
:1050400064E070E0CE01019659DE8B81813009F079
:105050005EC08C818A3A09F05CC008EE13E040E043
:1050600050E060E070E489EA38DF882341F088EEA0
:1050700093E0FDDD0150110991F7F12C56C0012B91
:1050800009F449C040E050E0BA018AE326DF81110B
:1050900044C064E070E0CE01019630DE898186FD77
:1050A0003EC06894FF24F2F840C040E050E0BA01EE
:1050B00089EA13DF823028F0EE24E394FF24F3948E
:1050C00007C00F2EF9EAEF2EF02D6894FF24F1F8B7
:1050D00008EE13E040E050E0BA018E2DFEDE88239A
:1050E00041F088EE93E0C3DD0150110999F7F12CEE
:1050F0001CC0012BC9F040E052E060E070E080E1AC
:10510000ECDE882391F0F12C10C0F12C0EC0F12CB4
:105110000CC0F12C0AC0F12C08C0F12C06C00F2ED7
:10512000FCE0FF2EF02D01C0F12CF092450511E0BE
:10513000F11010E01093000234DE812F01C083E0F3
:105140000F900F900F900F90DF91CF911F910F91C3
:10515000FF90EF900895FF920F931F93CF93DF93EB
:10516000EB0181113BC08091000280FD39C080912C
:10517000450583FD09C0012E19E0220F331F441F8E
:10518000551F1A95D1F7102D0230110528F40F2E56
:10519000F1E1FF2EF02D04C00F2EF2E1FF2EF02DD5
:1051A000BA01A9018F2D99DE811112C060E072E071
:1051B000CE0122DE892B21F0DE5F01501109B1F70B
:1051C00082E1F81205C040E050E0BA018CE085DED3
:1051D000E8DD81E0012B29F480E003C083E001C019
:1051E00083E0DF91CF911F910F91FF900895CF92AF
:1051F000DF92EF92FF920F931F93CF93DF93EB0118
:1052000069017A01811149C08091000280FD47C087
:105210008091450583FD09C00B2EB9E0CC0CDD1C47
:10522000EE1CFF1CBA95D1F7B02D0130110589F4A1
:10523000B701A60188E151DE811129C06EEFCE01D0
:1052400014DE31E020E0892B09F030E0032F122F2B
:105250001EC0867029F0A80160E070E087E93DDE9D
:10526000B701A60189E139DE811111C06CEFCE01D1
:10527000FCDD892B21F0DE5F01501109B9F76DEFDC
:1052800080E090E0F2DD892B11F401E010E089DD8F
:1052900081E0012B29F480E003C083E001C083E0BA
:1052A000DF91CF911F910F91FF90EF90DF90CF9002
:1052B00008950F931F93CF93DF93CDB7DEB7609719
:1052C0000FB6F894DEBF0FBECDBF811198C080919C
:1052D000000280FD96C08A01613061F020F06330E9
:1052E00009F47AC084C06CDD11E0892B09F484C014
:1052F00010E082C040E050E0BA0189E0EEDD8111AB
:1053000078C060E170E0CE01019676DD892B09F46A
:1053100072C089818295869586958370813031F53A
:1053200088858F7390E0A0E0B0E0DC0199278827A2
:105330000196A11DB11D298530E0322F22274A8513
:10534000240F311D820F931FA11DB11D072E7AE07E
:10535000880F991FAA1FBB1F7A95D1F7702DF801EE
:1053600080839183A283B38310E046C089858295B0
:10537000869586958370288590E0F4E02F9F800DB8
:10538000911D11249C012F5F3F4F9F819370892FA6
:1053900090E0982F8827990F990F820F931FA0E014
:1053A000B0E02E81322F3F702B85221F2227221F33
:1053B000230F3A853370330F230F275004C0880F13
:1053C000991FAA1FBB1F2A95D2F7F80180839183EA
:1053D000A283B38310E010C080E890E0A0E0B0E0CA
:1053E000FA0180839183A283B38310E005C014E0A7
:1053F00003C011E001C011E0D4DC812F03C083E0C1
:1054000001C083E060960FB6F894DEBF0FBECDBF3B
:10541000DF91CF911F910F9108955058BB27AA2774
:105420000ED0E5C0D6D030F0DBD020F031F49F3F75
:1054300011F41EF4CBC00EF4E095E7FBC1C0E92FD8
:10544000E7D080F3BA17620773078407950718F04F
:1054500071F49EF5FFC00EF4E0950B2EBA2FA02D2F
:105460000B01B90190010C01CA01A0011124FF2711
:10547000591B99F0593F50F4503E68F11A16F0400C
:10548000A22F232F342F4427585FF3CF469537950B
:105490002795A795F0405395C9F77EF41F16BA0BD0
:1054A000620B730B840BBAF09150A1F0FF0FBB1F7E
:1054B000661F771F881FC2F70EC0BA0F621F731FC7
:1054C000841F48F4879577956795B795F7959E3F24
:1054D00008F0B3CF9395880F08F09927EE0F9795B2
:1054E0008795089504D06894B111B5C0089598D0F7
:1054F00088F09F5790F0B92F9927B751A0F0D1F0BD
:10550000660F771F881F991F1AF0BA95C9F712C046
:10551000B13081F09FD0B1E008959CC0672F782F03
:105520008827B85F39F0B93FCCF3869577956795B2
:10553000B395D9F73EF490958095709561957F4F1E
:105540008F4F9F4F0895E89409C097FB3EF49095C4
:105550008095709561957F4F8F4F9F4F9923A9F04C
:10556000F92F96E9BB279395F695879577956795DB
:10557000B795F111F8CFFAF4BB0F11F460FF1BC01F
:105580006F5F7F4F8F4F9F4F16C0882311F096E9B2
:1055900011C0772321F09EE8872F762F05C0662360
:1055A00071F096E8862F70E060E02AF09A95660F19
:1055B000771F881FDAF7880F9695879597F90895D2
:1055C00097F99F6780E870E060E008959FEF80ECB6
:1055D000089500240A941616170618060906089559
:1055E00000240A9412161306140605060895092EBF
:1055F0000394000C11F4882352F0BB0F40F4BF2B2E
:1056000011F460FF04C06F5F7F4F8F4F9F4F08956D
:1056100057FD9058440F551F59F05F3F71F0479563
:10562000880F97FB991F61F09F3F79F08795089548
:10563000121613061406551FF2CF4695F1DF08C067
:10564000161617061806991FF1CF86957105610584
:1056500008940895E894BB2766277727CB0197F92C
:1056600008950BD0C4CFB5DF28F0BADF18F095232A
:1056700009F0A6CFABCF1124EECFCADFA0F3959FE0
:10568000D1F3950F50E0551F629FF001729FBB2729
:10569000F00DB11D639FAA27F00DB11DAA1F649FD5
:1056A0006627B00DA11D661F829F2227B00DA11D88
:1056B000621F739FB00DA11D621F839FA00D611D0E
:1056C000221F749F3327A00D611D231F849F600D2F
:1056D000211D822F762F6A2F11249F5750408AF068
:1056E000E1F088234AF0EE0FFF1FBB1F661F771FF4
:1056F000881F91505040A9F79E3F510570F060CF30
:10570000AACF5F3FECF3983EDCF3869577956795DB
:10571000B795F795E7959F5FC1F7FE2B880F911D11
:105720009695879597F90895A1E21A2EAA1BBB1B9F
:10573000FD010DC0AA1FBB1FEE1FFF1FA217B3075D
:10574000E407F50720F0A21BB30BE40BF50B661F73
:10575000771F881F991F1A9469F760957095809537
:1057600090959B01AC01BD01CF010895052E97FBDB
:1057700016F400940FD057FD05D0D6DF07FC02D0F9
:1057800046F408C050954095309521953F4F4F4FB6
:105790005F4F089590958095709561957F4F8F4FDD
:1057A0009F4F0895EE0FFF1F881F8BBF0790F69144
:1057B000E02D199409D0A59F900DB49F900DA49F42
:1057C000800D911D11240895A29FB001B39FC001C7
:1057D000A39F700D811D1124911DB29F700D811D1D
:1057E0001124911D0895FB01DC010D900020E9F7C3
:1057F000119701900D920020E1F70895FB01DC0163
:105800004150504048F001900D920020C9F701C06E
:105810001D9241505040E0F708950F931F93CF938E
:10582000DF93CDB7DEB72E970FB6F894DEBF0FBE6D
:10583000CDBF0E891F8986E08C831A8309838FEF81
:105840009FE79E838D83AE01465E5F4F688D798DA5
:10585000CE01019632D02F813885F801E20FF31F77
:1058600010822E960FB6F894DEBF0FBECDBFDF912B
:10587000CF911F910F910895CF93DF93CDB7DEB7EE
:105880002E970FB6F894DEBF0FBECDBF85E08C8398
:105890008C899D899A838983AE01485E5F4F6E89AA
:1058A0007F89CE0101969ED32E960FB6F894DEBF67
:1058B0000FBECDBFDF91CF9108952F923F924F92AF
:1058C0005F926F927F928F929F92AF92BF92CF9290
:1058D000DF92EF92FF920F931F93CF93DF93CDB799
:1058E000DEB72C970FB6F894DEBF0FBECDBF7C019C
:1058F0006B018A01FC0117821682838181FFB0C18E
:10590000CE0101964C01F7019381F60193FD85913B
:1059100093FF81916F01882309F49EC1853239F488
:1059200093FD859193FF81916F01853221F4B70139
:1059300090E0DFD4E8CF512C312C20E02032A0F4CD
:105940008B3269F030F4803259F0833269F420618F
:105950002CC08D3239F0803339F4216026C02260AA
:10596000246023C0286021C027FD27C030ED380FF8
:105970003A3078F426FF06C0FAE05F9E300D11241D
:10598000532E13C08AE0389E300D1124332E20622E
:105990000CC08E3221F426FD5FC1206406C08C3617
:1059A00011F4206802C0883641F4F60193FD859118
:1059B00093FF81916F018111C1CF982F9F7D9554E5
:1059C000933028F40C5F1F4FFFE3F9830DC083363B
:1059D00031F0833771F0833509F057C021C0F801E9
:1059E000808189830E5F1F4F44244394512C5401BE
:1059F00014C03801F2E06F0E711CF801A080B18074
:105A000026FF03C0652D70E002C06FEF7FEFC50178
:105A10002C8726D42C0183012C852F77222E16C0AB
:105A20003801F2E06F0E711CF801A080B18026FFF2
:105A300003C0652D70E002C06FEF7FEFC5012C87BA
:105A400004D42C012C852068222E830123FC19C04C
:105A5000832D90E048165906A0F4B70180E290E04B
:105A600048D43A94F5CFF50127FC859127FE819122
:105A70005F01B70190E03DD431103A94F1E04F1A44
:105A800051084114510479F7DEC0843611F089368B
:105A900031F5F80127FF07C0608171818281938110
:105AA0000C5F1F4F08C060817181072E000C880BAE
:105AB000990B0E5F1F4F2F76722E97FF09C090959E
:105AC0008095709561957F4F8F4F9F4F2068722E04
:105AD0002AE030E0A4015ED4A82EA81843C0853780
